{
  "address": "0x84eA74d481Ee0A5332c457a4d796187F6Ba67fEB",
  "abi": [
    {
      "inputs": [],
      "stateMutability": "nonpayable",
      "type": "constructor"
    },
    {
      "anonymous": false,
      "inputs": [
        {
          "indexed": true,
          "internalType": "uint256",
          "name": "gameDay",
          "type": "uint256"
        }
      ],
      "name": "GameDayIncremented",
      "type": "event"
    },
    {
      "anonymous": false,
      "inputs": [
        {
          "indexed": true,
          "internalType": "address",
          "name": "previousOwner",
          "type": "address"
        },
        {
          "indexed": true,
          "internalType": "address",
          "name": "newOwner",
          "type": "address"
        }
      ],
      "name": "OwnershipTransferred",
      "type": "event"
    },
    {
      "inputs": [],
      "name": "checkUpkeep",
      "outputs": [
        {
          "internalType": "bool",
          "name": "upkeepNeeded",
          "type": "bool"
        }
      ],
      "stateMutability": "view",
      "type": "function"
    },
    {
      "inputs": [],
      "name": "gameDay",
      "outputs": [
        {
          "internalType": "uint256",
          "name": "",
          "type": "uint256"
        }
      ],
      "stateMutability": "view",
      "type": "function"
    },
    {
      "inputs": [],
      "name": "getGameDay",
      "outputs": [
        {
          "internalType": "uint256",
          "name": "",
          "type": "uint256"
        }
      ],
      "stateMutability": "view",
      "type": "function"
    },
    {
      "inputs": [],
      "name": "incrementGameDay",
      "outputs": [],
      "stateMutability": "nonpayable",
      "type": "function"
    },
    {
      "inputs": [],
      "name": "interval",
      "outputs": [
        {
          "internalType": "uint256",
          "name": "",
          "type": "uint256"
        }
      ],
      "stateMutability": "view",
      "type": "function"
    },
    {
      "inputs": [],
      "name": "keeperRegistry",
      "outputs": [
        {
          "internalType": "address",
          "name": "",
          "type": "address"
        }
      ],
      "stateMutability": "view",
      "type": "function"
    },
    {
      "inputs": [],
      "name": "lastTimeStamp",
      "outputs": [
        {
          "internalType": "uint256",
          "name": "",
          "type": "uint256"
        }
      ],
      "stateMutability": "view",
      "type": "function"
    },
    {
      "inputs": [],
      "name": "owner",
      "outputs": [
        {
          "internalType": "address",
          "name": "",
          "type": "address"
        }
      ],
      "stateMutability": "view",
      "type": "function"
    },
    {
      "inputs": [],
      "name": "performUpkeep",
      "outputs": [],
      "stateMutability": "nonpayable",
      "type": "function"
    },
    {
      "inputs": [],
      "name": "renounceOwnership",
      "outputs": [],
      "stateMutability": "nonpayable",
      "type": "function"
    },
    {
      "inputs": [
        {
          "internalType": "address",
          "name": "newOwner",
          "type": "address"
        }
      ],
      "name": "transferOwnership",
      "outputs": [],
      "stateMutability": "nonpayable",
      "type": "function"
    },
    {
      "inputs": [
        {
          "internalType": "uint256",
          "name": "_interval",
          "type": "uint256"
        }
      ],
      "name": "updateInterval",
      "outputs": [],
      "stateMutability": "nonpayable",
      "type": "function"
    }
  ],
  "transactionHash": "0xb5fbf0bd3c022232a39efd31986758aaf136003abe10bd6a4c2f16692554799a",
  "args": [],
  "numDeployments": 1,
  "solcInputHash": "181da4c0198067f907db293cc5fa5acc",
  "bytecode": "0x608060405234801561001057600080fd5b5061002d61002261004a60201b60201c565b61005260201b60201c565b61a8c0600281905550426003819055506000600181905550610116565b600033905090565b60008060009054906101000a900473ffffffffffffffffffffffffffffffffffffffff169050816000806101000a81548173ffffffffffffffffffffffffffffffffffffffff021916908373ffffffffffffffffffffffffffffffffffffffff1602179055508173ffffffffffffffffffffffffffffffffffffffff168173ffffffffffffffffffffffffffffffffffffffff167f8be0079c531659141344cd1fd0a4f28419497f9722a3daafe3b4186f6b6457e060405160405180910390a35050565b610a24806101256000396000f3fe608060405234801561001057600080fd5b50600436106100b45760003560e01c80638da5cb5b116100715780638da5cb5b14610145578063947a36fb14610163578063a13abdad14610181578063b0bf01751461019f578063d0f07926146101a9578063f2fde38b146101c5576100b4565b806332cac735146100b95780633f3b3b27146100d75780634bf47c0b146100f55780636e4d243a14610113578063715018a61461011d57806383e2277414610127575b600080fd5b6100c16101e1565b6040516100ce91906105d7565b60405180910390f35b6100df6101e7565b6040516100ec91906105d7565b60405180910390f35b6100fd6101ed565b60405161010a91906105d7565b60405180910390f35b61011b6101f7565b005b610125610304565b005b61012f610318565b60405161013c9190610633565b60405180910390f35b61014d61033e565b60405161015a9190610633565b60405180910390f35b61016b610367565b60405161017891906105d7565b60405180910390f35b61018961036d565b6040516101969190610669565b60405180910390f35b6101a7610387565b005b6101c360048036038101906101be91906106b5565b6103df565b005b6101df60048036038101906101da919061070e565b6103f1565b005b60015481565b60035481565b6000600154905090565b3073ffffffffffffffffffffffffffffffffffffffff1663a13abdad6040518163ffffffff1660e01b8152600401602060405180830381865afa158015610242573d6000803e3d6000fd5b505050506040513d601f19601f820116820180604052508101906102669190610767565b6102a5576040517f08c379a000000000000000000000000000000000000000000000000000000000815260040161029c906107f1565b60405180910390fd5b6002546003546102b59190610840565b600381905550600160008154809291906102ce90610874565b91905055506001547f43f7bffe5b6f9993e37b802f6118ac19ff9d88c22a6d1a3bb840ddd53ae73a8f60405160405180910390a2565b61030c610474565b61031660006104f2565b565b600460009054906101000a900473ffffffffffffffffffffffffffffffffffffffff1681565b60008060009054906101000a900473ffffffffffffffffffffffffffffffffffffffff16905090565b60025481565b60006002546003544261038091906108bc565b1015905090565b61038f610474565b600160008154809291906103a290610874565b9190505550426003819055506001547f43f7bffe5b6f9993e37b802f6118ac19ff9d88c22a6d1a3bb840ddd53ae73a8f60405160405180910390a2565b6103e7610474565b8060028190555050565b6103f9610474565b600073ffffffffffffffffffffffffffffffffffffffff168173ffffffffffffffffffffffffffffffffffffffff1603610468576040517f08c379a000000000000000000000000000000000000000000000000000000000815260040161045f90610962565b60405180910390fd5b610471816104f2565b50565b61047c6105b6565b73ffffffffffffffffffffffffffffffffffffffff1661049a61033e565b73ffffffffffffffffffffffffffffffffffffffff16146104f0576040517f08c379a00000000000000000000000000000000000000000000000000000000081526004016104e7906109ce565b60405180910390fd5b565b60008060009054906101000a900473ffffffffffffffffffffffffffffffffffffffff169050816000806101000a81548173ffffffffffffffffffffffffffffffffffffffff021916908373ffffffffffffffffffffffffffffffffffffffff1602179055508173ffffffffffffffffffffffffffffffffffffffff168173ffffffffffffffffffffffffffffffffffffffff167f8be0079c531659141344cd1fd0a4f28419497f9722a3daafe3b4186f6b6457e060405160405180910390a35050565b600033905090565b6000819050919050565b6105d1816105be565b82525050565b60006020820190506105ec60008301846105c8565b92915050565b600073ffffffffffffffffffffffffffffffffffffffff82169050919050565b600061061d826105f2565b9050919050565b61062d81610612565b82525050565b60006020820190506106486000830184610624565b92915050565b60008115159050919050565b6106638161064e565b82525050565b600060208201905061067e600083018461065a565b92915050565b600080fd5b610692816105be565b811461069d57600080fd5b50565b6000813590506106af81610689565b92915050565b6000602082840312156106cb576106ca610684565b5b60006106d9848285016106a0565b91505092915050565b6106eb81610612565b81146106f657600080fd5b50565b600081359050610708816106e2565b92915050565b60006020828403121561072457610723610684565b5b6000610732848285016106f9565b91505092915050565b6107448161064e565b811461074f57600080fd5b50565b6000815190506107618161073b565b92915050565b60006020828403121561077d5761077c610684565b5b600061078b84828501610752565b91505092915050565b600082825260208201905092915050565b7f55706b656570206e6f74206e6565646564000000000000000000000000000000600082015250565b60006107db601183610794565b91506107e6826107a5565b602082019050919050565b6000602082019050818103600083015261080a816107ce565b9050919050565b7f4e487b7100000000000000000000000000000000000000000000000000000000600052601160045260246000fd5b600061084b826105be565b9150610856836105be565b925082820190508082111561086e5761086d610811565b5b92915050565b600061087f826105be565b91507fffffffffffffffffffffffffffffffffffffffffffffffffffffffffffffffff82036108b1576108b0610811565b5b600182019050919050565b60006108c7826105be565b91506108d2836105be565b92508282039050818111156108ea576108e9610811565b5b92915050565b7f4f776e61626c653a206e6577206f776e657220697320746865207a65726f206160008201527f6464726573730000000000000000000000000000000000000000000000000000602082015250565b600061094c602683610794565b9150610957826108f0565b604082019050919050565b6000602082019050818103600083015261097b8161093f565b9050919050565b7f4f776e61626c653a2063616c6c6572206973206e6f7420746865206f776e6572600082015250565b60006109b8602083610794565b91506109c382610982565b602082019050919050565b600060208201905081810360008301526109e7816109ab565b905091905056fea2646970667358221220ce4919270210c30707f6760b3b01d3040e162dcb84816b29e8904d7a2c7fbc6a64736f6c63430008110033",
  "devdoc": {
    "author": "OxSnosh",
    "details": "this contract will allow gelato automation to maintain the game clock that increments every 12 hours",
    "kind": "dev",
    "methods": {
      "owner()": {
        "details": "Returns the address of the current owner."
      },
      "renounceOwnership()": {
        "details": "Leaves the contract without owner. It will not be possible to call `onlyOwner` functions. Can only be called by the current owner. NOTE: Renouncing ownership will leave the contract without an owner, thereby disabling any functionality that is only available to the owner."
      },
      "transferOwnership(address)": {
        "details": "Transfers ownership of the contract to a new account (`newOwner`). Can only be called by the current owner."
      }
    },
    "title": "KeeperContract",
    "version": 1
  },
  "userdoc": {
    "kind": "user",
    "methods": {},
    "version": 1
  },
  "storageLayout": {
    "storage": [
      {
        "astId": 3200,
        "contract": "contracts/KeeperFile.sol:KeeperContract",
        "label": "_owner",
        "offset": 0,
        "slot": "0",
        "type": "t_address"
      },
      {
        "astId": 41180,
        "contract": "contracts/KeeperFile.sol:KeeperContract",
        "label": "gameDay",
        "offset": 0,
        "slot": "1",
        "type": "t_uint256"
      },
      {
        "astId": 41182,
        "contract": "contracts/KeeperFile.sol:KeeperContract",
        "label": "interval",
        "offset": 0,
        "slot": "2",
        "type": "t_uint256"
      },
      {
        "astId": 41184,
        "contract": "contracts/KeeperFile.sol:KeeperContract",
        "label": "lastTimeStamp",
        "offset": 0,
        "slot": "3",
        "type": "t_uint256"
      },
      {
        "astId": 41186,
        "contract": "contracts/KeeperFile.sol:KeeperContract",
        "label": "keeperRegistry",
        "offset": 0,
        "slot": "4",
        "type": "t_address"
      }
    ],
    "types": {
      "t_address": {
        "encoding": "inplace",
        "label": "address",
        "numberOfBytes": "20"
      },
      "t_uint256": {
        "encoding": "inplace",
        "label": "uint256",
        "numberOfBytes": "32"
      }
    }
  }
}