{
  "address": "0xc3e53F4d16Ae77Db1c982e75a937B9f60FE63690",
  "abi": [
    {
      "inputs": [
        {
          "internalType": "uint256",
          "name": "updateInterval",
          "type": "uint256"
        }
      ],
      "stateMutability": "nonpayable",
      "type": "constructor"
    },
    {
      "anonymous": false,
      "inputs": [
        {
          "indexed": true,
          "internalType": "uint256",
          "name": "gameDay",
          "type": "uint256"
        }
      ],
      "name": "GameDayIncremented",
      "type": "event"
    },
    {
      "anonymous": false,
      "inputs": [
        {
          "indexed": true,
          "internalType": "address",
          "name": "previousOwner",
          "type": "address"
        },
        {
          "indexed": true,
          "internalType": "address",
          "name": "newOwner",
          "type": "address"
        }
      ],
      "name": "OwnershipTransferred",
      "type": "event"
    },
    {
      "inputs": [
        {
          "internalType": "bytes",
          "name": "",
          "type": "bytes"
        }
      ],
      "name": "checkUpkeep",
      "outputs": [
        {
          "internalType": "bool",
          "name": "upkeepNeeded",
          "type": "bool"
        },
        {
          "internalType": "bytes",
          "name": "",
          "type": "bytes"
        }
      ],
      "stateMutability": "view",
      "type": "function"
    },
    {
      "inputs": [],
      "name": "gameDay",
      "outputs": [
        {
          "internalType": "uint256",
          "name": "",
          "type": "uint256"
        }
      ],
      "stateMutability": "view",
      "type": "function"
    },
    {
      "inputs": [],
      "name": "getGameDay",
      "outputs": [
        {
          "internalType": "uint256",
          "name": "",
          "type": "uint256"
        }
      ],
      "stateMutability": "view",
      "type": "function"
    },
    {
      "inputs": [],
      "name": "incrementGameDay",
      "outputs": [],
      "stateMutability": "nonpayable",
      "type": "function"
    },
    {
      "inputs": [],
      "name": "interval",
      "outputs": [
        {
          "internalType": "uint256",
          "name": "",
          "type": "uint256"
        }
      ],
      "stateMutability": "view",
      "type": "function"
    },
    {
      "inputs": [
        {
          "internalType": "uint256",
          "name": "_interval",
          "type": "uint256"
        }
      ],
      "name": "ipdateInterval",
      "outputs": [],
      "stateMutability": "nonpayable",
      "type": "function"
    },
    {
      "inputs": [],
      "name": "keeperRegistry",
      "outputs": [
        {
          "internalType": "address",
          "name": "",
          "type": "address"
        }
      ],
      "stateMutability": "view",
      "type": "function"
    },
    {
      "inputs": [],
      "name": "lastTimeStamp",
      "outputs": [
        {
          "internalType": "uint256",
          "name": "",
          "type": "uint256"
        }
      ],
      "stateMutability": "view",
      "type": "function"
    },
    {
      "inputs": [],
      "name": "owner",
      "outputs": [
        {
          "internalType": "address",
          "name": "",
          "type": "address"
        }
      ],
      "stateMutability": "view",
      "type": "function"
    },
    {
      "inputs": [
        {
          "internalType": "bytes",
          "name": "",
          "type": "bytes"
        }
      ],
      "name": "performUpkeep",
      "outputs": [],
      "stateMutability": "nonpayable",
      "type": "function"
    },
    {
      "inputs": [],
      "name": "renounceOwnership",
      "outputs": [],
      "stateMutability": "nonpayable",
      "type": "function"
    },
    {
      "inputs": [
        {
          "internalType": "address",
          "name": "newOwner",
          "type": "address"
        }
      ],
      "name": "transferOwnership",
      "outputs": [],
      "stateMutability": "nonpayable",
      "type": "function"
    },
    {
      "inputs": [
        {
          "internalType": "address",
          "name": "_keeperRegistry",
          "type": "address"
        }
      ],
      "name": "updateKeeperRegistry",
      "outputs": [],
      "stateMutability": "nonpayable",
      "type": "function"
    }
  ],
  "transactionHash": "0x146bca37a811a74dbec7fc93aafdc82f55f670a989107439031b9ed0e719e785",
  "args": [
    86400
  ],
  "numDeployments": 1,
  "solcInputHash": "91984bf3d1968d29f29e280c96678b22",
  "bytecode": "0x608060405234801561001057600080fd5b50604051610d67380380610d6783398181016040528101906100329190610171565b61004e61004361006a60201b60201c565b61007260201b60201c565b806002819055504260038190555060006001819055505061019e565b600033905090565b60008060009054906101000a900473ffffffffffffffffffffffffffffffffffffffff169050816000806101000a81548173ffffffffffffffffffffffffffffffffffffffff021916908373ffffffffffffffffffffffffffffffffffffffff1602179055508173ffffffffffffffffffffffffffffffffffffffff168173ffffffffffffffffffffffffffffffffffffffff167f8be0079c531659141344cd1fd0a4f28419497f9722a3daafe3b4186f6b6457e060405160405180910390a35050565b600080fd5b6000819050919050565b61014e8161013b565b811461015957600080fd5b50565b60008151905061016b81610145565b92915050565b60006020828403121561018757610186610136565b5b60006101958482850161015c565b91505092915050565b610bba806101ad6000396000f3fe608060405234801561001057600080fd5b50600436106100cf5760003560e01c806383e227741161008c578063947a36fb11610066578063947a36fb146101dd578063b0bf0175146101fb578063e573d4ec14610205578063f2fde38b14610221576100cf565b806383e22774146101855780638bc7657c146101a35780638da5cb5b146101bf576100cf565b806332cac735146100d45780633f3b3b27146100f25780634585e33b146101105780634bf47c0b1461012c5780636e04ff0d1461014a578063715018a61461017b575b600080fd5b6100dc61023d565b6040516100e99190610644565b60405180910390f35b6100fa610243565b6040516101079190610644565b60405180910390f35b61012a600480360381019061012591906106ce565b610249565b005b610134610301565b6040516101419190610644565b60405180910390f35b610164600480360381019061015f91906106ce565b61030b565b6040516101729291906107c6565b60405180910390f35b61018361033f565b005b61018d610353565b60405161019a9190610837565b60405180910390f35b6101bd60048036038101906101b8919061087e565b610379565b005b6101c761038b565b6040516101d49190610837565b60405180910390f35b6101e56103b4565b6040516101f29190610644565b60405180910390f35b6102036103ba565b005b61021f600480360381019061021a91906108d7565b610412565b005b61023b600480360381019061023691906108d7565b61045e565b005b60015481565b60035481565b6002546003544261025a9190610933565b11156102c2576002546003546102709190610967565b600381905550600160008154809291906102899061099b565b91905055506001547f43f7bffe5b6f9993e37b802f6118ac19ff9d88c22a6d1a3bb840ddd53ae73a8f60405160405180910390a26102fd565b6040517f08c379a00000000000000000000000000000000000000000000000000000000081526004016102f490610a66565b60405180910390fd5b5050565b6000600154905090565b60006060600254600354426103209190610933565b1191508160405180602001604052806000815250915091509250929050565b6103476104e1565b610351600061055f565b565b600460009054906101000a900473ffffffffffffffffffffffffffffffffffffffff1681565b6103816104e1565b8060028190555050565b60008060009054906101000a900473ffffffffffffffffffffffffffffffffffffffff16905090565b60025481565b6103c26104e1565b600160008154809291906103d59061099b565b9190505550426003819055506001547f43f7bffe5b6f9993e37b802f6118ac19ff9d88c22a6d1a3bb840ddd53ae73a8f60405160405180910390a2565b61041a6104e1565b80600460006101000a81548173ffffffffffffffffffffffffffffffffffffffff021916908373ffffffffffffffffffffffffffffffffffffffff16021790555050565b6104666104e1565b600073ffffffffffffffffffffffffffffffffffffffff168173ffffffffffffffffffffffffffffffffffffffff16036104d5576040517f08c379a00000000000000000000000000000000000000000000000000000000081526004016104cc90610af8565b60405180910390fd5b6104de8161055f565b50565b6104e9610623565b73ffffffffffffffffffffffffffffffffffffffff1661050761038b565b73ffffffffffffffffffffffffffffffffffffffff161461055d576040517f08c379a000000000000000000000000000000000000000000000000000000000815260040161055490610b64565b60405180910390fd5b565b60008060009054906101000a900473ffffffffffffffffffffffffffffffffffffffff169050816000806101000a81548173ffffffffffffffffffffffffffffffffffffffff021916908373ffffffffffffffffffffffffffffffffffffffff1602179055508173ffffffffffffffffffffffffffffffffffffffff168173ffffffffffffffffffffffffffffffffffffffff167f8be0079c531659141344cd1fd0a4f28419497f9722a3daafe3b4186f6b6457e060405160405180910390a35050565b600033905090565b6000819050919050565b61063e8161062b565b82525050565b60006020820190506106596000830184610635565b92915050565b600080fd5b600080fd5b600080fd5b600080fd5b600080fd5b60008083601f84011261068e5761068d610669565b5b8235905067ffffffffffffffff8111156106ab576106aa61066e565b5b6020830191508360018202830111156106c7576106c6610673565b5b9250929050565b600080602083850312156106e5576106e461065f565b5b600083013567ffffffffffffffff81111561070357610702610664565b5b61070f85828601610678565b92509250509250929050565b60008115159050919050565b6107308161071b565b82525050565b600081519050919050565b600082825260208201905092915050565b60005b83811015610770578082015181840152602081019050610755565b60008484015250505050565b6000601f19601f8301169050919050565b600061079882610736565b6107a28185610741565b93506107b2818560208601610752565b6107bb8161077c565b840191505092915050565b60006040820190506107db6000830185610727565b81810360208301526107ed818461078d565b90509392505050565b600073ffffffffffffffffffffffffffffffffffffffff82169050919050565b6000610821826107f6565b9050919050565b61083181610816565b82525050565b600060208201905061084c6000830184610828565b92915050565b61085b8161062b565b811461086657600080fd5b50565b60008135905061087881610852565b92915050565b6000602082840312156108945761089361065f565b5b60006108a284828501610869565b91505092915050565b6108b481610816565b81146108bf57600080fd5b50565b6000813590506108d1816108ab565b92915050565b6000602082840312156108ed576108ec61065f565b5b60006108fb848285016108c2565b91505092915050565b7f4e487b7100000000000000000000000000000000000000000000000000000000600052601160045260246000fd5b600061093e8261062b565b91506109498361062b565b925082820390508181111561096157610960610904565b5b92915050565b60006109728261062b565b915061097d8361062b565b925082820190508082111561099557610994610904565b5b92915050565b60006109a68261062b565b91507fffffffffffffffffffffffffffffffffffffffffffffffffffffffffffffffff82036109d8576109d7610904565b5b600182019050919050565b600082825260208201905092915050565b7f4e6f7420656e6f7567682074696d65206861732070617373656420666f72207560008201527f706b656570000000000000000000000000000000000000000000000000000000602082015250565b6000610a506025836109e3565b9150610a5b826109f4565b604082019050919050565b60006020820190508181036000830152610a7f81610a43565b9050919050565b7f4f776e61626c653a206e6577206f776e657220697320746865207a65726f206160008201527f6464726573730000000000000000000000000000000000000000000000000000602082015250565b6000610ae26026836109e3565b9150610aed82610a86565b604082019050919050565b60006020820190508181036000830152610b1181610ad5565b9050919050565b7f4f776e61626c653a2063616c6c6572206973206e6f7420746865206f776e6572600082015250565b6000610b4e6020836109e3565b9150610b5982610b18565b602082019050919050565b60006020820190508181036000830152610b7d81610b41565b905091905056fea2646970667358221220e540ff2ed0039a0097552499791236fe5511b3056c661f198d096d226878197d64736f6c63430008110033",
  "devdoc": {
    "author": "OxSnosh",
    "details": "this contract will allow the chainlink keeper to maintain the game clock that increments daily",
    "kind": "dev",
    "methods": {
      "owner()": {
        "details": "Returns the address of the current owner."
      },
      "renounceOwnership()": {
        "details": "Leaves the contract without owner. It will not be possible to call `onlyOwner` functions. Can only be called by the current owner. NOTE: Renouncing ownership will leave the contract without an owner, thereby disabling any functionality that is only available to the owner."
      },
      "transferOwnership(address)": {
        "details": "Transfers ownership of the contract to a new account (`newOwner`). Can only be called by the current owner."
      }
    },
    "title": "KeeperContract",
    "version": 1
  },
  "userdoc": {
    "kind": "user",
    "methods": {},
    "version": 1
  },
  "storageLayout": {
    "storage": [
      {
        "astId": 2356,
        "contract": "contracts/KeeperFile.sol:KeeperContract",
        "label": "_owner",
        "offset": 0,
        "slot": "0",
        "type": "t_address"
      },
      {
        "astId": 38659,
        "contract": "contracts/KeeperFile.sol:KeeperContract",
        "label": "gameDay",
        "offset": 0,
        "slot": "1",
        "type": "t_uint256"
      },
      {
        "astId": 38661,
        "contract": "contracts/KeeperFile.sol:KeeperContract",
        "label": "interval",
        "offset": 0,
        "slot": "2",
        "type": "t_uint256"
      },
      {
        "astId": 38663,
        "contract": "contracts/KeeperFile.sol:KeeperContract",
        "label": "lastTimeStamp",
        "offset": 0,
        "slot": "3",
        "type": "t_uint256"
      },
      {
        "astId": 38665,
        "contract": "contracts/KeeperFile.sol:KeeperContract",
        "label": "keeperRegistry",
        "offset": 0,
        "slot": "4",
        "type": "t_address"
      }
    ],
    "types": {
      "t_address": {
        "encoding": "inplace",
        "label": "address",
        "numberOfBytes": "20"
      },
      "t_uint256": {
        "encoding": "inplace",
        "label": "uint256",
        "numberOfBytes": "32"
      }
    }
  }
}