{
  "address": "0x7969c5eD335650692Bc04293B07F5BF2e7A673C0",
  "abi": [
    {
      "inputs": [
        {
          "internalType": "address",
          "name": "_countryMinter",
          "type": "address"
        }
      ],
      "stateMutability": "nonpayable",
      "type": "constructor"
    },
    {
      "anonymous": false,
      "inputs": [
        {
          "indexed": true,
          "internalType": "uint256",
          "name": "nationId",
          "type": "uint256"
        },
        {
          "indexed": true,
          "internalType": "uint256",
          "name": "receiver",
          "type": "uint256"
        },
        {
          "indexed": false,
          "internalType": "string",
          "name": "message",
          "type": "string"
        },
        {
          "indexed": false,
          "internalType": "uint256",
          "name": "timestamp",
          "type": "uint256"
        }
      ],
      "name": "MessageSent",
      "type": "event"
    },
    {
      "anonymous": false,
      "inputs": [
        {
          "indexed": true,
          "internalType": "uint256",
          "name": "nationId",
          "type": "uint256"
        },
        {
          "indexed": false,
          "internalType": "string",
          "name": "post",
          "type": "string"
        },
        {
          "indexed": false,
          "internalType": "uint256",
          "name": "timestamp",
          "type": "uint256"
        }
      ],
      "name": "PostSent",
      "type": "event"
    },
    {
      "anonymous": false,
      "inputs": [
        {
          "indexed": true,
          "internalType": "uint256",
          "name": "nationId",
          "type": "uint256"
        },
        {
          "indexed": true,
          "internalType": "uint256",
          "name": "blockedNationId",
          "type": "uint256"
        }
      ],
      "name": "SenderBlocked",
      "type": "event"
    },
    {
      "anonymous": false,
      "inputs": [
        {
          "indexed": true,
          "internalType": "uint256",
          "name": "nationId",
          "type": "uint256"
        },
        {
          "indexed": true,
          "internalType": "uint256",
          "name": "unblockedNationId",
          "type": "uint256"
        }
      ],
      "name": "SenderUnblocked",
      "type": "event"
    },
    {
      "inputs": [],
      "name": "MAX_MESSAGE_LENGTH",
      "outputs": [
        {
          "internalType": "uint256",
          "name": "",
          "type": "uint256"
        }
      ],
      "stateMutability": "view",
      "type": "function"
    },
    {
      "inputs": [],
      "name": "MAX_POST_LENGTH",
      "outputs": [
        {
          "internalType": "uint256",
          "name": "",
          "type": "uint256"
        }
      ],
      "stateMutability": "view",
      "type": "function"
    },
    {
      "inputs": [
        {
          "internalType": "uint256",
          "name": "nationId",
          "type": "uint256"
        },
        {
          "internalType": "uint256",
          "name": "blockedNationId",
          "type": "uint256"
        }
      ],
      "name": "blockSender",
      "outputs": [],
      "stateMutability": "nonpayable",
      "type": "function"
    },
    {
      "inputs": [],
      "name": "countryMinter",
      "outputs": [
        {
          "internalType": "contract ICountryMinter",
          "name": "",
          "type": "address"
        }
      ],
      "stateMutability": "view",
      "type": "function"
    },
    {
      "inputs": [
        {
          "internalType": "uint256",
          "name": "",
          "type": "uint256"
        },
        {
          "internalType": "uint256",
          "name": "",
          "type": "uint256"
        }
      ],
      "name": "isBlocked",
      "outputs": [
        {
          "internalType": "bool",
          "name": "",
          "type": "bool"
        }
      ],
      "stateMutability": "view",
      "type": "function"
    },
    {
      "inputs": [
        {
          "internalType": "uint256",
          "name": "nationId",
          "type": "uint256"
        },
        {
          "internalType": "string",
          "name": "_post",
          "type": "string"
        }
      ],
      "name": "postMessage",
      "outputs": [],
      "stateMutability": "nonpayable",
      "type": "function"
    },
    {
      "inputs": [
        {
          "internalType": "uint256",
          "name": "nationId",
          "type": "uint256"
        },
        {
          "internalType": "uint256",
          "name": "_receiver",
          "type": "uint256"
        },
        {
          "internalType": "string",
          "name": "_message",
          "type": "string"
        }
      ],
      "name": "sendMessage",
      "outputs": [],
      "stateMutability": "nonpayable",
      "type": "function"
    },
    {
      "inputs": [
        {
          "internalType": "uint256",
          "name": "nationId",
          "type": "uint256"
        },
        {
          "internalType": "uint256",
          "name": "blockedNationId",
          "type": "uint256"
        }
      ],
      "name": "unblockSender",
      "outputs": [],
      "stateMutability": "nonpayable",
      "type": "function"
    }
  ],
  "transactionHash": "0x76debf4294fa556d088e257f40cab853a2a47f3df3c85f3527fef47b14860fe1",
  "args": [
    "0xA51c1fc2f0D1a1b8494Ed1FE312d7C3a78Ed91C0"
  ],
  "numDeployments": 1,
  "solcInputHash": "83567e297eb1ee7869baf0f79cdb2de0",
  "bytecode": "0x60806040523480156200001157600080fd5b50604051620011d6380380620011d68339818101604052810190620000379190620000e8565b806000806101000a81548173ffffffffffffffffffffffffffffffffffffffff021916908373ffffffffffffffffffffffffffffffffffffffff160217905550506200011a565b600080fd5b600073ffffffffffffffffffffffffffffffffffffffff82169050919050565b6000620000b08262000083565b9050919050565b620000c281620000a3565b8114620000ce57600080fd5b50565b600081519050620000e281620000b7565b92915050565b6000602082840312156200010157620001006200007e565b5b60006200011184828501620000d1565b91505092915050565b6110ac806200012a6000396000f3fe608060405234801561001057600080fd5b50600436106100885760003560e01c806368e2d8f21161005b57806368e2d8f21461010157806392aeb43e1461011d57806397e2adf21461013b578063afdb94661461016b57610088565b80632a0272111461008d57806339561dba146100ab5780635432a773146100c7578063641acc63146100e5575b600080fd5b610095610187565b6040516100a2919061088e565b60405180910390f35b6100c560048036038101906100c09190610a2f565b61018d565b005b6100cf6103a4565b6040516100dc919061088e565b60405180910390f35b6100ff60048036038101906100fa9190610a9e565b6103aa565b005b61011b60048036038101906101169190610ade565b610535565b005b6101256106d8565b6040516101329190610bb9565b60405180910390f35b61015560048036038101906101509190610a9e565b6106fc565b6040516101629190610bef565b60405180910390f35b61018560048036038101906101809190610a9e565b61072b565b005b6105dc81565b60008054906101000a900473ffffffffffffffffffffffffffffffffffffffff1673ffffffffffffffffffffffffffffffffffffffff166377ade19084336040518363ffffffff1660e01b81526004016101e8929190610c2b565b602060405180830381865afa158015610205573d6000803e3d6000fd5b505050506040513d601f19601f820116820180604052508101906102299190610c80565b610268576040517f08c379a000000000000000000000000000000000000000000000000000000000815260040161025f90610d0a565b60405180910390fd5b6105dc815111156102ae576040517f08c379a00000000000000000000000000000000000000000000000000000000081526004016102a590610d76565b60405180910390fd5b60008151116102f2576040517f08c379a00000000000000000000000000000000000000000000000000000000081526004016102e990610de2565b60405180910390fd5b60016000848152602001908152602001600020600083815260200190815260200160002060009054906101000a900460ff1615610364576040517f08c379a000000000000000000000000000000000000000000000000000000000815260040161035b90610e74565b60405180910390fd5b81837f42b03cc4a5efce1237e9fde76a7a480301605885185040c1fc82b428e734f8fd8342604051610397929190610f02565b60405180910390a3505050565b6101f481565b60008054906101000a900473ffffffffffffffffffffffffffffffffffffffff1673ffffffffffffffffffffffffffffffffffffffff166377ade19083336040518363ffffffff1660e01b8152600401610405929190610c2b565b602060405180830381865afa158015610422573d6000803e3d6000fd5b505050506040513d601f19601f820116820180604052508101906104469190610c80565b610485576040517f08c379a000000000000000000000000000000000000000000000000000000000815260040161047c90610d0a565b60405180910390fd5b8082036104c7576040517f08c379a00000000000000000000000000000000000000000000000000000000081526004016104be90610f7e565b60405180910390fd5b6001806000848152602001908152602001600020600083815260200190815260200160002060006101000a81548160ff02191690831515021790555080827f771f695207617d3365013c45e9f2619bc67ceaaa1a121fe77ea7febbe3747cab60405160405180910390a35050565b60008054906101000a900473ffffffffffffffffffffffffffffffffffffffff1673ffffffffffffffffffffffffffffffffffffffff166377ade19083336040518363ffffffff1660e01b8152600401610590929190610c2b565b602060405180830381865afa1580156105ad573d6000803e3d6000fd5b505050506040513d601f19601f820116820180604052508101906105d19190610c80565b610610576040517f08c379a000000000000000000000000000000000000000000000000000000000815260040161060790610d0a565b60405180910390fd5b6101f481511115610656576040517f08c379a000000000000000000000000000000000000000000000000000000000815260040161064d90610fea565b60405180910390fd5b600081511161069a576040517f08c379a000000000000000000000000000000000000000000000000000000000815260040161069190611056565b60405180910390fd5b817fbab017355cda1e6d21022de7156652f79c5ca41f9ce0112c71b5365d87304bce82426040516106cc929190610f02565b60405180910390a25050565b60008054906101000a900473ffffffffffffffffffffffffffffffffffffffff1681565b60016020528160005260406000206020528060005260406000206000915091509054906101000a900460ff1681565b60008054906101000a900473ffffffffffffffffffffffffffffffffffffffff1673ffffffffffffffffffffffffffffffffffffffff166377ade19083336040518363ffffffff1660e01b8152600401610786929190610c2b565b602060405180830381865afa1580156107a3573d6000803e3d6000fd5b505050506040513d601f19601f820116820180604052508101906107c79190610c80565b610806576040517f08c379a00000000000000000000000000000000000000000000000000000000081526004016107fd90610d0a565b60405180910390fd5b600060016000848152602001908152602001600020600083815260200190815260200160002060006101000a81548160ff02191690831515021790555080827f0b6376fa3948451fd3aad8b50c4af56d4fc1ffbe8736d7e8e570cd800a04c3fd60405160405180910390a35050565b6000819050919050565b61088881610875565b82525050565b60006020820190506108a3600083018461087f565b92915050565b6000604051905090565b600080fd5b600080fd5b6108c681610875565b81146108d157600080fd5b50565b6000813590506108e3816108bd565b92915050565b600080fd5b600080fd5b6000601f19601f8301169050919050565b7f4e487b7100000000000000000000000000000000000000000000000000000000600052604160045260246000fd5b61093c826108f3565b810181811067ffffffffffffffff8211171561095b5761095a610904565b5b80604052505050565b600061096e6108a9565b905061097a8282610933565b919050565b600067ffffffffffffffff82111561099a57610999610904565b5b6109a3826108f3565b9050602081019050919050565b82818337600083830152505050565b60006109d26109cd8461097f565b610964565b9050828152602081018484840111156109ee576109ed6108ee565b5b6109f98482856109b0565b509392505050565b600082601f830112610a1657610a156108e9565b5b8135610a268482602086016109bf565b91505092915050565b600080600060608486031215610a4857610a476108b3565b5b6000610a56868287016108d4565b9350506020610a67868287016108d4565b925050604084013567ffffffffffffffff811115610a8857610a876108b8565b5b610a9486828701610a01565b9150509250925092565b60008060408385031215610ab557610ab46108b3565b5b6000610ac3858286016108d4565b9250506020610ad4858286016108d4565b9150509250929050565b60008060408385031215610af557610af46108b3565b5b6000610b03858286016108d4565b925050602083013567ffffffffffffffff811115610b2457610b236108b8565b5b610b3085828601610a01565b9150509250929050565b600073ffffffffffffffffffffffffffffffffffffffff82169050919050565b6000819050919050565b6000610b7f610b7a610b7584610b3a565b610b5a565b610b3a565b9050919050565b6000610b9182610b64565b9050919050565b6000610ba382610b86565b9050919050565b610bb381610b98565b82525050565b6000602082019050610bce6000830184610baa565b92915050565b60008115159050919050565b610be981610bd4565b82525050565b6000602082019050610c046000830184610be0565b92915050565b6000610c1582610b3a565b9050919050565b610c2581610c0a565b82525050565b6000604082019050610c40600083018561087f565b610c4d6020830184610c1c565b9392505050565b610c5d81610bd4565b8114610c6857600080fd5b50565b600081519050610c7a81610c54565b92915050565b600060208284031215610c9657610c956108b3565b5b6000610ca484828501610c6b565b91505092915050565b600082825260208201905092915050565b7f43616c6c657220646f6573206e6f74206f776e2074686973206e6174696f6e00600082015250565b6000610cf4601f83610cad565b9150610cff82610cbe565b602082019050919050565b60006020820190508181036000830152610d2381610ce7565b9050919050565b7f4d65737361676520657863656564732031353030206368617261637465727300600082015250565b6000610d60601f83610cad565b9150610d6b82610d2a565b602082019050919050565b60006020820190508181036000830152610d8f81610d53565b9050919050565b7f4d6573736167652063616e6e6f7420626520656d707479000000000000000000600082015250565b6000610dcc601783610cad565b9150610dd782610d96565b602082019050919050565b60006020820190508181036000830152610dfb81610dbf565b9050919050565b7f596f752061726520626c6f636b65642066726f6d2073656e64696e6720706f7360008201527f747320746f2074686973206e6174696f6e000000000000000000000000000000602082015250565b6000610e5e603183610cad565b9150610e6982610e02565b604082019050919050565b60006020820190508181036000830152610e8d81610e51565b9050919050565b600081519050919050565b60005b83811015610ebd578082015181840152602081019050610ea2565b60008484015250505050565b6000610ed482610e94565b610ede8185610cad565b9350610eee818560208601610e9f565b610ef7816108f3565b840191505092915050565b60006040820190508181036000830152610f1c8185610ec9565b9050610f2b602083018461087f565b9392505050565b7f43616e6e6f7420626c6f636b20796f757273656c660000000000000000000000600082015250565b6000610f68601583610cad565b9150610f7382610f32565b602082019050919050565b60006020820190508181036000830152610f9781610f5b565b9050919050565b7f506f737420657863656564732035303020636861726163746572730000000000600082015250565b6000610fd4601b83610cad565b9150610fdf82610f9e565b602082019050919050565b6000602082019050818103600083015261100381610fc7565b9050919050565b7f506f73742063616e6e6f7420626520656d707479000000000000000000000000600082015250565b6000611040601483610cad565b915061104b8261100a565b602082019050919050565b6000602082019050818103600083015261106f81611033565b905091905056fea264697066735822122098706848843cdd191d300031a0142a6f09e3e5e829cecd408534500420b9b68964736f6c63430008110033",
  "devdoc": {
    "author": "OxSnosh",
    "kind": "dev",
    "methods": {
      "constructor": {
        "params": {
          "_countryMinter": "The address of the CountryMinter contract"
        }
      },
      "postMessage(uint256,string)": {
        "details": "Allows the ruler of a nation to post a public message",
        "params": {
          "_post": "The message being posted",
          "nationId": "The ID of the nation posting the message"
        }
      },
      "sendMessage(uint256,uint256,string)": {
        "details": "Allows the ruler of a nation to send a message to another user",
        "params": {
          "_message": "The message being sent",
          "_receiver": "The address of the message recipient",
          "nationId": "The ID of the nation sending the message"
        }
      }
    },
    "title": "Messenger",
    "version": 1
  },
  "userdoc": {
    "kind": "user",
    "methods": {
      "constructor": {
        "notice": "Initializes the contract with the address of the CountryMinter contract"
      }
    },
    "notice": "This contract allows a nation's ruler to send messages or post updates",
    "version": 1
  },
  "storageLayout": {
    "storage": [
      {
        "astId": 40620,
        "contract": "contracts/Messenger.sol:Messenger",
        "label": "countryMinter",
        "offset": 0,
        "slot": "0",
        "type": "t_contract(ICountryMinter)40616"
      },
      {
        "astId": 40662,
        "contract": "contracts/Messenger.sol:Messenger",
        "label": "isBlocked",
        "offset": 0,
        "slot": "1",
        "type": "t_mapping(t_uint256,t_mapping(t_uint256,t_bool))"
      }
    ],
    "types": {
      "t_bool": {
        "encoding": "inplace",
        "label": "bool",
        "numberOfBytes": "1"
      },
      "t_contract(ICountryMinter)40616": {
        "encoding": "inplace",
        "label": "contract ICountryMinter",
        "numberOfBytes": "20"
      },
      "t_mapping(t_uint256,t_bool)": {
        "encoding": "mapping",
        "key": "t_uint256",
        "label": "mapping(uint256 => bool)",
        "numberOfBytes": "32",
        "value": "t_bool"
      },
      "t_mapping(t_uint256,t_mapping(t_uint256,t_bool))": {
        "encoding": "mapping",
        "key": "t_uint256",
        "label": "mapping(uint256 => mapping(uint256 => bool))",
        "numberOfBytes": "32",
        "value": "t_mapping(t_uint256,t_bool)"
      },
      "t_uint256": {
        "encoding": "inplace",
        "label": "uint256",
        "numberOfBytes": "32"
      }
    }
  }
}