{
  "address": "0x7969c5eD335650692Bc04293B07F5BF2e7A673C0",
  "abi": [
    {
      "inputs": [
        {
          "internalType": "address",
          "name": "_countryMinter",
          "type": "address"
        }
      ],
      "stateMutability": "nonpayable",
      "type": "constructor"
    },
    {
      "anonymous": false,
      "inputs": [
        {
          "indexed": true,
          "internalType": "uint256",
          "name": "nationId",
          "type": "uint256"
        },
        {
          "indexed": true,
          "internalType": "uint256",
          "name": "receiver",
          "type": "uint256"
        },
        {
          "indexed": false,
          "internalType": "string",
          "name": "message",
          "type": "string"
        }
      ],
      "name": "MessageSent",
      "type": "event"
    },
    {
      "anonymous": false,
      "inputs": [
        {
          "indexed": true,
          "internalType": "uint256",
          "name": "nationId",
          "type": "uint256"
        },
        {
          "indexed": false,
          "internalType": "string",
          "name": "post",
          "type": "string"
        }
      ],
      "name": "PostSent",
      "type": "event"
    },
    {
      "inputs": [],
      "name": "MAX_MESSAGE_LENGTH",
      "outputs": [
        {
          "internalType": "uint256",
          "name": "",
          "type": "uint256"
        }
      ],
      "stateMutability": "view",
      "type": "function"
    },
    {
      "inputs": [],
      "name": "MAX_POST_LENGTH",
      "outputs": [
        {
          "internalType": "uint256",
          "name": "",
          "type": "uint256"
        }
      ],
      "stateMutability": "view",
      "type": "function"
    },
    {
      "inputs": [],
      "name": "countryMinter",
      "outputs": [
        {
          "internalType": "contract ICountryMinter",
          "name": "",
          "type": "address"
        }
      ],
      "stateMutability": "view",
      "type": "function"
    },
    {
      "inputs": [
        {
          "internalType": "uint256",
          "name": "",
          "type": "uint256"
        }
      ],
      "name": "messages",
      "outputs": [
        {
          "internalType": "string",
          "name": "",
          "type": "string"
        }
      ],
      "stateMutability": "view",
      "type": "function"
    },
    {
      "inputs": [
        {
          "internalType": "uint256",
          "name": "nationId",
          "type": "uint256"
        },
        {
          "internalType": "string",
          "name": "_post",
          "type": "string"
        }
      ],
      "name": "postMessage",
      "outputs": [],
      "stateMutability": "nonpayable",
      "type": "function"
    },
    {
      "inputs": [
        {
          "internalType": "uint256",
          "name": "",
          "type": "uint256"
        }
      ],
      "name": "posts",
      "outputs": [
        {
          "internalType": "string",
          "name": "",
          "type": "string"
        }
      ],
      "stateMutability": "view",
      "type": "function"
    },
    {
      "inputs": [
        {
          "internalType": "uint256",
          "name": "nationId",
          "type": "uint256"
        },
        {
          "internalType": "uint256",
          "name": "_receiver",
          "type": "uint256"
        },
        {
          "internalType": "string",
          "name": "_message",
          "type": "string"
        }
      ],
      "name": "sendMessage",
      "outputs": [],
      "stateMutability": "nonpayable",
      "type": "function"
    }
  ],
  "transactionHash": "0xfa31448e1397912f7385c125f785813f4d33eca737600f0af35af3cb7d62b66a",
  "args": [
    "0xA51c1fc2f0D1a1b8494Ed1FE312d7C3a78Ed91C0"
  ],
  "numDeployments": 1,
  "solcInputHash": "47683147057991ead4af8e9ec00d532c",
  "bytecode": "0x608060405234801561001057600080fd5b5060405162000fe638038062000fe6833981810160405281019061003491906100dd565b806000806101000a81548173ffffffffffffffffffffffffffffffffffffffff021916908373ffffffffffffffffffffffffffffffffffffffff1602179055505061010a565b600080fd5b600073ffffffffffffffffffffffffffffffffffffffff82169050919050565b60006100aa8261007f565b9050919050565b6100ba8161009f565b81146100c557600080fd5b50565b6000815190506100d7816100b1565b92915050565b6000602082840312156100f3576100f261007a565b5b6000610101848285016100c8565b91505092915050565b610ecc806200011a6000396000f3fe608060405234801561001057600080fd5b506004361061007d5760003560e01c806339561dba1161005b57806339561dba146101005780635432a7731461011c57806368e2d8f21461013a57806392aeb43e146101565761007d565b80630b1e7f83146100825780630d80fefd146100b25780632a027211146100e2575b600080fd5b61009c6004803603810190610097919061062c565b610174565b6040516100a991906106e9565b60405180910390f35b6100cc60048036038101906100c7919061062c565b610214565b6040516100d991906106e9565b60405180910390f35b6100ea6102b4565b6040516100f7919061071a565b60405180910390f35b61011a6004803603810190610115919061086a565b6102ba565b005b61012461043a565b604051610131919061071a565b60405180910390f35b610154600480360381019061014f91906108d9565b610440565b005b61015e6105be565b60405161016b91906109b4565b60405180910390f35b60026020528060005260406000206000915090508054610193906109fe565b80601f01602080910402602001604051908101604052809291908181526020018280546101bf906109fe565b801561020c5780601f106101e15761010080835404028352916020019161020c565b820191906000526020600020905b8154815290600101906020018083116101ef57829003601f168201915b505050505081565b60016020528060005260406000206000915090508054610233906109fe565b80601f016020809104026020016040519081016040528092919081815260200182805461025f906109fe565b80156102ac5780601f10610281576101008083540402835291602001916102ac565b820191906000526020600020905b81548152906001019060200180831161028f57829003601f168201915b505050505081565b6105dc81565b60008054906101000a900473ffffffffffffffffffffffffffffffffffffffff1673ffffffffffffffffffffffffffffffffffffffff166377ade19084336040518363ffffffff1660e01b8152600401610315929190610a50565b602060405180830381865afa158015610332573d6000803e3d6000fd5b505050506040513d601f19601f820116820180604052508101906103569190610ab1565b610395576040517f08c379a000000000000000000000000000000000000000000000000000000000815260040161038c90610b2a565b60405180910390fd5b6105dc815111156103db576040517f08c379a00000000000000000000000000000000000000000000000000000000081526004016103d290610b96565b60405180910390fd5b806001600085815260200190815260200160002090816103fb9190610d58565b5081837f85b30d9992d5009b8ad79d24ddf9e9884828eb99b78a79f51b3e5e606d2c24e58360405161042d91906106e9565b60405180910390a3505050565b6101f481565b60008054906101000a900473ffffffffffffffffffffffffffffffffffffffff1673ffffffffffffffffffffffffffffffffffffffff166377ade19083336040518363ffffffff1660e01b815260040161049b929190610a50565b602060405180830381865afa1580156104b8573d6000803e3d6000fd5b505050506040513d601f19601f820116820180604052508101906104dc9190610ab1565b61051b576040517f08c379a000000000000000000000000000000000000000000000000000000000815260040161051290610b2a565b60405180910390fd5b6101f481511115610561576040517f08c379a000000000000000000000000000000000000000000000000000000000815260040161055890610e76565b60405180910390fd5b806002600084815260200190815260200160002090816105819190610d58565b50817ffb4beb162f38c53cf549c8d08c382f555743cb14a05555a7892399d6a97ec734826040516105b291906106e9565b60405180910390a25050565b60008054906101000a900473ffffffffffffffffffffffffffffffffffffffff1681565b6000604051905090565b600080fd5b600080fd5b6000819050919050565b610609816105f6565b811461061457600080fd5b50565b60008135905061062681610600565b92915050565b600060208284031215610642576106416105ec565b5b600061065084828501610617565b91505092915050565b600081519050919050565b600082825260208201905092915050565b60005b83811015610693578082015181840152602081019050610678565b60008484015250505050565b6000601f19601f8301169050919050565b60006106bb82610659565b6106c58185610664565b93506106d5818560208601610675565b6106de8161069f565b840191505092915050565b6000602082019050818103600083015261070381846106b0565b905092915050565b610714816105f6565b82525050565b600060208201905061072f600083018461070b565b92915050565b600080fd5b600080fd5b7f4e487b7100000000000000000000000000000000000000000000000000000000600052604160045260246000fd5b6107778261069f565b810181811067ffffffffffffffff821117156107965761079561073f565b5b80604052505050565b60006107a96105e2565b90506107b5828261076e565b919050565b600067ffffffffffffffff8211156107d5576107d461073f565b5b6107de8261069f565b9050602081019050919050565b82818337600083830152505050565b600061080d610808846107ba565b61079f565b9050828152602081018484840111156108295761082861073a565b5b6108348482856107eb565b509392505050565b600082601f83011261085157610850610735565b5b81356108618482602086016107fa565b91505092915050565b600080600060608486031215610883576108826105ec565b5b600061089186828701610617565b93505060206108a286828701610617565b925050604084013567ffffffffffffffff8111156108c3576108c26105f1565b5b6108cf8682870161083c565b9150509250925092565b600080604083850312156108f0576108ef6105ec565b5b60006108fe85828601610617565b925050602083013567ffffffffffffffff81111561091f5761091e6105f1565b5b61092b8582860161083c565b9150509250929050565b600073ffffffffffffffffffffffffffffffffffffffff82169050919050565b6000819050919050565b600061097a61097561097084610935565b610955565b610935565b9050919050565b600061098c8261095f565b9050919050565b600061099e82610981565b9050919050565b6109ae81610993565b82525050565b60006020820190506109c960008301846109a5565b92915050565b7f4e487b7100000000000000000000000000000000000000000000000000000000600052602260045260246000fd5b60006002820490506001821680610a1657607f821691505b602082108103610a2957610a286109cf565b5b50919050565b6000610a3a82610935565b9050919050565b610a4a81610a2f565b82525050565b6000604082019050610a65600083018561070b565b610a726020830184610a41565b9392505050565b60008115159050919050565b610a8e81610a79565b8114610a9957600080fd5b50565b600081519050610aab81610a85565b92915050565b600060208284031215610ac757610ac66105ec565b5b6000610ad584828501610a9c565b91505092915050565b7f43616c6c657220646f6573206e6f74206f776e2074686973206e6174696f6e00600082015250565b6000610b14601f83610664565b9150610b1f82610ade565b602082019050919050565b60006020820190508181036000830152610b4381610b07565b9050919050565b7f4d65737361676520657863656564732031353030206368617261637465727300600082015250565b6000610b80601f83610664565b9150610b8b82610b4a565b602082019050919050565b60006020820190508181036000830152610baf81610b73565b9050919050565b60008190508160005260206000209050919050565b60006020601f8301049050919050565b600082821b905092915050565b600060088302610c187fffffffffffffffffffffffffffffffffffffffffffffffffffffffffffffffff82610bdb565b610c228683610bdb565b95508019841693508086168417925050509392505050565b6000610c55610c50610c4b846105f6565b610955565b6105f6565b9050919050565b6000819050919050565b610c6f83610c3a565b610c83610c7b82610c5c565b848454610be8565b825550505050565b600090565b610c98610c8b565b610ca3818484610c66565b505050565b5b81811015610cc757610cbc600082610c90565b600181019050610ca9565b5050565b601f821115610d0c57610cdd81610bb6565b610ce684610bcb565b81016020851015610cf5578190505b610d09610d0185610bcb565b830182610ca8565b50505b505050565b600082821c905092915050565b6000610d2f60001984600802610d11565b1980831691505092915050565b6000610d488383610d1e565b9150826002028217905092915050565b610d6182610659565b67ffffffffffffffff811115610d7a57610d7961073f565b5b610d8482546109fe565b610d8f828285610ccb565b600060209050601f831160018114610dc25760008415610db0578287015190505b610dba8582610d3c565b865550610e22565b601f198416610dd086610bb6565b60005b82811015610df857848901518255600182019150602085019450602081019050610dd3565b86831015610e155784890151610e11601f891682610d1e565b8355505b6001600288020188555050505b505050505050565b7f506f737420657863656564732035303020636861726163746572730000000000600082015250565b6000610e60601b83610664565b9150610e6b82610e2a565b602082019050919050565b60006020820190508181036000830152610e8f81610e53565b905091905056fea26469706673582212204cae7a58170aa8681c194b3eb5ca1d9acd208fac15681676ff00b856a96a5d1d64736f6c63430008110033",
  "devdoc": {
    "author": "OxSnosh",
    "kind": "dev",
    "methods": {
      "constructor": {
        "params": {
          "_countryMinter": "The address of the CountryMinter contract"
        }
      },
      "postMessage(uint256,string)": {
        "details": "Allows the ruler of a nation to post a public message",
        "params": {
          "_post": "The message being posted",
          "nationId": "The ID of the nation posting the message"
        }
      },
      "sendMessage(uint256,uint256,string)": {
        "details": "Allows the ruler of a nation to send a message to another user",
        "params": {
          "_message": "The message being sent",
          "_receiver": "The address of the message recipient",
          "nationId": "The ID of the nation sending the message"
        }
      }
    },
    "title": "Messenger",
    "version": 1
  },
  "userdoc": {
    "kind": "user",
    "methods": {
      "constructor": {
        "notice": "Initializes the contract with the address of the CountryMinter contract"
      }
    },
    "notice": "This contract allows a nation's ruler to send messages or post updates",
    "version": 1
  },
  "storageLayout": {
    "storage": [
      {
        "astId": 15,
        "contract": "contracts/Messenger.sol:Messenger",
        "label": "countryMinter",
        "offset": 0,
        "slot": "0",
        "type": "t_contract(ICountryMinter)11"
      },
      {
        "astId": 19,
        "contract": "contracts/Messenger.sol:Messenger",
        "label": "messages",
        "offset": 0,
        "slot": "1",
        "type": "t_mapping(t_uint256,t_string_storage)"
      },
      {
        "astId": 23,
        "contract": "contracts/Messenger.sol:Messenger",
        "label": "posts",
        "offset": 0,
        "slot": "2",
        "type": "t_mapping(t_uint256,t_string_storage)"
      }
    ],
    "types": {
      "t_contract(ICountryMinter)11": {
        "encoding": "inplace",
        "label": "contract ICountryMinter",
        "numberOfBytes": "20"
      },
      "t_mapping(t_uint256,t_string_storage)": {
        "encoding": "mapping",
        "key": "t_uint256",
        "label": "mapping(uint256 => string)",
        "numberOfBytes": "32",
        "value": "t_string_storage"
      },
      "t_string_storage": {
        "encoding": "bytes",
        "label": "string",
        "numberOfBytes": "32"
      },
      "t_uint256": {
        "encoding": "inplace",
        "label": "uint256",
        "numberOfBytes": "32"
      }
    }
  }
}