{
  "address": "0x851356ae760d987E095750cCeb3bC6014560891C",
  "abi": [
    {
      "anonymous": false,
      "inputs": [
        {
          "indexed": true,
          "internalType": "uint256",
          "name": "id",
          "type": "uint256"
        },
        {
          "indexed": true,
          "internalType": "uint256",
          "name": "amount",
          "type": "uint256"
        }
      ],
      "name": "BattleshipDecommissioned",
      "type": "event"
    },
    {
      "anonymous": false,
      "inputs": [
        {
          "indexed": true,
          "internalType": "uint256",
          "name": "id",
          "type": "uint256"
        },
        {
          "indexed": true,
          "internalType": "uint256",
          "name": "amount",
          "type": "uint256"
        },
        {
          "indexed": true,
          "internalType": "uint256",
          "name": "purchasePrice",
          "type": "uint256"
        }
      ],
      "name": "BattleshipPurchased",
      "type": "event"
    },
    {
      "anonymous": false,
      "inputs": [
        {
          "indexed": true,
          "internalType": "uint256",
          "name": "id",
          "type": "uint256"
        },
        {
          "indexed": true,
          "internalType": "uint256",
          "name": "amount",
          "type": "uint256"
        }
      ],
      "name": "CorvetteDecommissioned",
      "type": "event"
    },
    {
      "anonymous": false,
      "inputs": [
        {
          "indexed": true,
          "internalType": "uint256",
          "name": "id",
          "type": "uint256"
        },
        {
          "indexed": true,
          "internalType": "uint256",
          "name": "amount",
          "type": "uint256"
        },
        {
          "indexed": true,
          "internalType": "uint256",
          "name": "purchasePrice",
          "type": "uint256"
        }
      ],
      "name": "CorvettePurchased",
      "type": "event"
    },
    {
      "anonymous": false,
      "inputs": [
        {
          "indexed": true,
          "internalType": "uint256",
          "name": "id",
          "type": "uint256"
        },
        {
          "indexed": true,
          "internalType": "uint256",
          "name": "amount",
          "type": "uint256"
        }
      ],
      "name": "CruiserDecommissioned",
      "type": "event"
    },
    {
      "anonymous": false,
      "inputs": [
        {
          "indexed": true,
          "internalType": "uint256",
          "name": "id",
          "type": "uint256"
        },
        {
          "indexed": true,
          "internalType": "uint256",
          "name": "amount",
          "type": "uint256"
        },
        {
          "indexed": true,
          "internalType": "uint256",
          "name": "purchasePrice",
          "type": "uint256"
        }
      ],
      "name": "CruiserPurchased",
      "type": "event"
    },
    {
      "anonymous": false,
      "inputs": [
        {
          "indexed": true,
          "internalType": "uint256",
          "name": "id",
          "type": "uint256"
        },
        {
          "indexed": true,
          "internalType": "uint256",
          "name": "amount",
          "type": "uint256"
        }
      ],
      "name": "LandingShipDecommissioned",
      "type": "event"
    },
    {
      "anonymous": false,
      "inputs": [
        {
          "indexed": true,
          "internalType": "uint256",
          "name": "id",
          "type": "uint256"
        },
        {
          "indexed": true,
          "internalType": "uint256",
          "name": "amount",
          "type": "uint256"
        },
        {
          "indexed": true,
          "internalType": "uint256",
          "name": "purchasePrice",
          "type": "uint256"
        }
      ],
      "name": "LandingShipPurchased",
      "type": "event"
    },
    {
      "anonymous": false,
      "inputs": [
        {
          "indexed": true,
          "internalType": "uint256",
          "name": "defenderId",
          "type": "uint256"
        },
        {
          "indexed": false,
          "internalType": "uint256",
          "name": "corvetteCount",
          "type": "uint256"
        },
        {
          "indexed": false,
          "internalType": "uint256",
          "name": "landingShip",
          "type": "uint256"
        },
        {
          "indexed": false,
          "internalType": "uint256",
          "name": "cruiserCount",
          "type": "uint256"
        },
        {
          "indexed": false,
          "internalType": "uint256",
          "name": "frigateCount",
          "type": "uint256"
        }
      ],
      "name": "NukeDamageToNavy",
      "type": "event"
    },
    {
      "anonymous": false,
      "inputs": [
        {
          "indexed": true,
          "internalType": "address",
          "name": "previousOwner",
          "type": "address"
        },
        {
          "indexed": true,
          "internalType": "address",
          "name": "newOwner",
          "type": "address"
        }
      ],
      "name": "OwnershipTransferred",
      "type": "event"
    },
    {
      "inputs": [],
      "name": "additionalNavy",
      "outputs": [
        {
          "internalType": "address",
          "name": "",
          "type": "address"
        }
      ],
      "stateMutability": "view",
      "type": "function"
    },
    {
      "inputs": [],
      "name": "battleshipCost",
      "outputs": [
        {
          "internalType": "uint256",
          "name": "",
          "type": "uint256"
        }
      ],
      "stateMutability": "view",
      "type": "function"
    },
    {
      "inputs": [],
      "name": "battleshipRequiredInfrastructure",
      "outputs": [
        {
          "internalType": "uint256",
          "name": "",
          "type": "uint256"
        }
      ],
      "stateMutability": "view",
      "type": "function"
    },
    {
      "inputs": [],
      "name": "battleshipRequiredTechnology",
      "outputs": [
        {
          "internalType": "uint256",
          "name": "",
          "type": "uint256"
        }
      ],
      "stateMutability": "view",
      "type": "function"
    },
    {
      "inputs": [],
      "name": "bonusResources",
      "outputs": [
        {
          "internalType": "address",
          "name": "",
          "type": "address"
        }
      ],
      "stateMutability": "view",
      "type": "function"
    },
    {
      "inputs": [
        {
          "internalType": "uint256",
          "name": "amount",
          "type": "uint256"
        },
        {
          "internalType": "uint256",
          "name": "id",
          "type": "uint256"
        }
      ],
      "name": "buyBattleship",
      "outputs": [],
      "stateMutability": "nonpayable",
      "type": "function"
    },
    {
      "inputs": [
        {
          "internalType": "uint256",
          "name": "amount",
          "type": "uint256"
        },
        {
          "internalType": "uint256",
          "name": "id",
          "type": "uint256"
        }
      ],
      "name": "buyCorvette",
      "outputs": [],
      "stateMutability": "nonpayable",
      "type": "function"
    },
    {
      "inputs": [
        {
          "internalType": "uint256",
          "name": "amount",
          "type": "uint256"
        },
        {
          "internalType": "uint256",
          "name": "id",
          "type": "uint256"
        }
      ],
      "name": "buyCruiser",
      "outputs": [],
      "stateMutability": "nonpayable",
      "type": "function"
    },
    {
      "inputs": [
        {
          "internalType": "uint256",
          "name": "amount",
          "type": "uint256"
        },
        {
          "internalType": "uint256",
          "name": "id",
          "type": "uint256"
        }
      ],
      "name": "buyLandingShip",
      "outputs": [],
      "stateMutability": "nonpayable",
      "type": "function"
    },
    {
      "inputs": [],
      "name": "corvetteCost",
      "outputs": [
        {
          "internalType": "uint256",
          "name": "",
          "type": "uint256"
        }
      ],
      "stateMutability": "view",
      "type": "function"
    },
    {
      "inputs": [],
      "name": "corvetteRequiredInfrastructure",
      "outputs": [
        {
          "internalType": "uint256",
          "name": "",
          "type": "uint256"
        }
      ],
      "stateMutability": "view",
      "type": "function"
    },
    {
      "inputs": [],
      "name": "corvetteRequiredTechnology",
      "outputs": [
        {
          "internalType": "uint256",
          "name": "",
          "type": "uint256"
        }
      ],
      "stateMutability": "view",
      "type": "function"
    },
    {
      "inputs": [],
      "name": "countryMinter",
      "outputs": [
        {
          "internalType": "address",
          "name": "",
          "type": "address"
        }
      ],
      "stateMutability": "view",
      "type": "function"
    },
    {
      "inputs": [],
      "name": "cruiserCost",
      "outputs": [
        {
          "internalType": "uint256",
          "name": "",
          "type": "uint256"
        }
      ],
      "stateMutability": "view",
      "type": "function"
    },
    {
      "inputs": [],
      "name": "cruiserRequiredInfrastructure",
      "outputs": [
        {
          "internalType": "uint256",
          "name": "",
          "type": "uint256"
        }
      ],
      "stateMutability": "view",
      "type": "function"
    },
    {
      "inputs": [],
      "name": "cruiserRequiredTechnology",
      "outputs": [
        {
          "internalType": "uint256",
          "name": "",
          "type": "uint256"
        }
      ],
      "stateMutability": "view",
      "type": "function"
    },
    {
      "inputs": [
        {
          "internalType": "uint256",
          "name": "amount",
          "type": "uint256"
        },
        {
          "internalType": "uint256",
          "name": "id",
          "type": "uint256"
        }
      ],
      "name": "decommissionBattleship",
      "outputs": [],
      "stateMutability": "nonpayable",
      "type": "function"
    },
    {
      "inputs": [
        {
          "internalType": "uint256",
          "name": "amount",
          "type": "uint256"
        },
        {
          "internalType": "uint256",
          "name": "id",
          "type": "uint256"
        }
      ],
      "name": "decommissionCorvette",
      "outputs": [],
      "stateMutability": "nonpayable",
      "type": "function"
    },
    {
      "inputs": [
        {
          "internalType": "uint256",
          "name": "amount",
          "type": "uint256"
        },
        {
          "internalType": "uint256",
          "name": "id",
          "type": "uint256"
        }
      ],
      "name": "decommissionCruiser",
      "outputs": [],
      "stateMutability": "nonpayable",
      "type": "function"
    },
    {
      "inputs": [
        {
          "internalType": "uint256",
          "name": "amount",
          "type": "uint256"
        },
        {
          "internalType": "uint256",
          "name": "id",
          "type": "uint256"
        }
      ],
      "name": "decommissionLandingShip",
      "outputs": [],
      "stateMutability": "nonpayable",
      "type": "function"
    },
    {
      "inputs": [
        {
          "internalType": "uint256",
          "name": "defenderId",
          "type": "uint256"
        }
      ],
      "name": "decreaseNavyFromNukeContract",
      "outputs": [],
      "stateMutability": "nonpayable",
      "type": "function"
    },
    {
      "inputs": [
        {
          "internalType": "uint256",
          "name": "nationId",
          "type": "uint256"
        },
        {
          "internalType": "uint256",
          "name": "shipType",
          "type": "uint256"
        }
      ],
      "name": "decreaseShipCount",
      "outputs": [],
      "stateMutability": "nonpayable",
      "type": "function"
    },
    {
      "inputs": [
        {
          "internalType": "uint256",
          "name": "id",
          "type": "uint256"
        }
      ],
      "name": "generateNavy",
      "outputs": [],
      "stateMutability": "nonpayable",
      "type": "function"
    },
    {
      "inputs": [
        {
          "internalType": "uint256",
          "name": "id",
          "type": "uint256"
        }
      ],
      "name": "getBattleshipCount",
      "outputs": [
        {
          "internalType": "uint256",
          "name": "",
          "type": "uint256"
        }
      ],
      "stateMutability": "view",
      "type": "function"
    },
    {
      "inputs": [
        {
          "internalType": "uint256",
          "name": "id",
          "type": "uint256"
        }
      ],
      "name": "getCorvetteCount",
      "outputs": [
        {
          "internalType": "uint256",
          "name": "",
          "type": "uint256"
        }
      ],
      "stateMutability": "view",
      "type": "function"
    },
    {
      "inputs": [
        {
          "internalType": "uint256",
          "name": "id",
          "type": "uint256"
        }
      ],
      "name": "getCruiserCount",
      "outputs": [
        {
          "internalType": "uint256",
          "name": "",
          "type": "uint256"
        }
      ],
      "stateMutability": "view",
      "type": "function"
    },
    {
      "inputs": [
        {
          "internalType": "uint256",
          "name": "id",
          "type": "uint256"
        }
      ],
      "name": "getLandingShipCount",
      "outputs": [
        {
          "internalType": "uint256",
          "name": "",
          "type": "uint256"
        }
      ],
      "stateMutability": "view",
      "type": "function"
    },
    {
      "inputs": [
        {
          "internalType": "uint256",
          "name": "id",
          "type": "uint256"
        }
      ],
      "name": "getNavyVesselCount",
      "outputs": [
        {
          "internalType": "uint256",
          "name": "",
          "type": "uint256"
        }
      ],
      "stateMutability": "view",
      "type": "function"
    },
    {
      "inputs": [
        {
          "internalType": "uint256",
          "name": "",
          "type": "uint256"
        }
      ],
      "name": "idToNavy",
      "outputs": [
        {
          "internalType": "bool",
          "name": "initialized",
          "type": "bool"
        },
        {
          "internalType": "uint256",
          "name": "corvetteCount",
          "type": "uint256"
        },
        {
          "internalType": "uint256",
          "name": "landingShipCount",
          "type": "uint256"
        },
        {
          "internalType": "uint256",
          "name": "battleshipCount",
          "type": "uint256"
        },
        {
          "internalType": "uint256",
          "name": "cruiserCount",
          "type": "uint256"
        }
      ],
      "stateMutability": "view",
      "type": "function"
    },
    {
      "inputs": [],
      "name": "improvements4",
      "outputs": [
        {
          "internalType": "address",
          "name": "",
          "type": "address"
        }
      ],
      "stateMutability": "view",
      "type": "function"
    },
    {
      "inputs": [],
      "name": "improvementsContract1Address",
      "outputs": [
        {
          "internalType": "address",
          "name": "",
          "type": "address"
        }
      ],
      "stateMutability": "view",
      "type": "function"
    },
    {
      "inputs": [],
      "name": "improvementsContract3Address",
      "outputs": [
        {
          "internalType": "address",
          "name": "",
          "type": "address"
        }
      ],
      "stateMutability": "view",
      "type": "function"
    },
    {
      "inputs": [],
      "name": "infrastructure",
      "outputs": [
        {
          "internalType": "address",
          "name": "",
          "type": "address"
        }
      ],
      "stateMutability": "view",
      "type": "function"
    },
    {
      "inputs": [],
      "name": "landingShipCost",
      "outputs": [
        {
          "internalType": "uint256",
          "name": "",
          "type": "uint256"
        }
      ],
      "stateMutability": "view",
      "type": "function"
    },
    {
      "inputs": [],
      "name": "landingShipRequiredInfrastructure",
      "outputs": [
        {
          "internalType": "uint256",
          "name": "",
          "type": "uint256"
        }
      ],
      "stateMutability": "view",
      "type": "function"
    },
    {
      "inputs": [],
      "name": "landingShipRequiredTechnology",
      "outputs": [
        {
          "internalType": "uint256",
          "name": "",
          "type": "uint256"
        }
      ],
      "stateMutability": "view",
      "type": "function"
    },
    {
      "inputs": [],
      "name": "military",
      "outputs": [
        {
          "internalType": "address",
          "name": "",
          "type": "address"
        }
      ],
      "stateMutability": "view",
      "type": "function"
    },
    {
      "inputs": [],
      "name": "navalActions",
      "outputs": [
        {
          "internalType": "address",
          "name": "",
          "type": "address"
        }
      ],
      "stateMutability": "view",
      "type": "function"
    },
    {
      "inputs": [],
      "name": "navy2Contract",
      "outputs": [
        {
          "internalType": "address",
          "name": "",
          "type": "address"
        }
      ],
      "stateMutability": "view",
      "type": "function"
    },
    {
      "inputs": [],
      "name": "navyBattleAddress",
      "outputs": [
        {
          "internalType": "address",
          "name": "",
          "type": "address"
        }
      ],
      "stateMutability": "view",
      "type": "function"
    },
    {
      "inputs": [],
      "name": "nukes",
      "outputs": [
        {
          "internalType": "address",
          "name": "",
          "type": "address"
        }
      ],
      "stateMutability": "view",
      "type": "function"
    },
    {
      "inputs": [],
      "name": "owner",
      "outputs": [
        {
          "internalType": "address",
          "name": "",
          "type": "address"
        }
      ],
      "stateMutability": "view",
      "type": "function"
    },
    {
      "inputs": [],
      "name": "renounceOwnership",
      "outputs": [],
      "stateMutability": "nonpayable",
      "type": "function"
    },
    {
      "inputs": [],
      "name": "resources",
      "outputs": [
        {
          "internalType": "address",
          "name": "",
          "type": "address"
        }
      ],
      "stateMutability": "view",
      "type": "function"
    },
    {
      "inputs": [
        {
          "internalType": "address",
          "name": "_treasuryAddress",
          "type": "address"
        },
        {
          "internalType": "address",
          "name": "_improvementsContract1Address",
          "type": "address"
        },
        {
          "internalType": "address",
          "name": "_improvementsContract3Address",
          "type": "address"
        },
        {
          "internalType": "address",
          "name": "_improvements4",
          "type": "address"
        },
        {
          "internalType": "address",
          "name": "_resources",
          "type": "address"
        },
        {
          "internalType": "address",
          "name": "_military",
          "type": "address"
        },
        {
          "internalType": "address",
          "name": "_nukes",
          "type": "address"
        },
        {
          "internalType": "address",
          "name": "_wonders1",
          "type": "address"
        },
        {
          "internalType": "address",
          "name": "_navalActions",
          "type": "address"
        },
        {
          "internalType": "address",
          "name": "_additionalNavy",
          "type": "address"
        }
      ],
      "name": "settings",
      "outputs": [],
      "stateMutability": "nonpayable",
      "type": "function"
    },
    {
      "inputs": [
        {
          "internalType": "address",
          "name": "_countryMinter",
          "type": "address"
        },
        {
          "internalType": "address",
          "name": "_bonusResources",
          "type": "address"
        },
        {
          "internalType": "address",
          "name": "_navy2",
          "type": "address"
        },
        {
          "internalType": "address",
          "name": "_infrastructure",
          "type": "address"
        }
      ],
      "name": "settings2",
      "outputs": [],
      "stateMutability": "nonpayable",
      "type": "function"
    },
    {
      "inputs": [
        {
          "internalType": "address",
          "name": "newOwner",
          "type": "address"
        }
      ],
      "name": "transferOwnership",
      "outputs": [],
      "stateMutability": "nonpayable",
      "type": "function"
    },
    {
      "inputs": [],
      "name": "treasuryAddress",
      "outputs": [
        {
          "internalType": "address",
          "name": "",
          "type": "address"
        }
      ],
      "stateMutability": "view",
      "type": "function"
    },
    {
      "inputs": [
        {
          "internalType": "uint256",
          "name": "newPrice",
          "type": "uint256"
        },
        {
          "internalType": "uint256",
          "name": "newRequiredInf",
          "type": "uint256"
        },
        {
          "internalType": "uint256",
          "name": "newRequiredTech",
          "type": "uint256"
        }
      ],
      "name": "updateBattleshipSpecs",
      "outputs": [],
      "stateMutability": "nonpayable",
      "type": "function"
    },
    {
      "inputs": [
        {
          "internalType": "uint256",
          "name": "newPrice",
          "type": "uint256"
        },
        {
          "internalType": "uint256",
          "name": "newRequiredInf",
          "type": "uint256"
        },
        {
          "internalType": "uint256",
          "name": "newRequiredTech",
          "type": "uint256"
        }
      ],
      "name": "updateCorvetteSpecs",
      "outputs": [],
      "stateMutability": "nonpayable",
      "type": "function"
    },
    {
      "inputs": [
        {
          "internalType": "uint256",
          "name": "newPrice",
          "type": "uint256"
        },
        {
          "internalType": "uint256",
          "name": "newRequiredInf",
          "type": "uint256"
        },
        {
          "internalType": "uint256",
          "name": "newRequiredTech",
          "type": "uint256"
        }
      ],
      "name": "updateCruiserSpecs",
      "outputs": [],
      "stateMutability": "nonpayable",
      "type": "function"
    },
    {
      "inputs": [
        {
          "internalType": "uint256",
          "name": "newPrice",
          "type": "uint256"
        },
        {
          "internalType": "uint256",
          "name": "newRequiredInf",
          "type": "uint256"
        },
        {
          "internalType": "uint256",
          "name": "newRequiredTech",
          "type": "uint256"
        }
      ],
      "name": "updateLandingShipSpecs",
      "outputs": [],
      "stateMutability": "nonpayable",
      "type": "function"
    },
    {
      "inputs": [],
      "name": "wonders1",
      "outputs": [
        {
          "internalType": "address",
          "name": "",
          "type": "address"
        }
      ],
      "stateMutability": "view",
      "type": "function"
    }
  ],
  "transactionHash": "0xa3ad167c7c55f281f478a3ab7395f035f54d5630a2dbc0b86babb6bb2e3f2844",
  "args": [],
  "numDeployments": 1,
  "solcInputHash": "7a293bd061535f7a34152263d80fb349",
  "bytecode": "0x6080604052693f870857a3e0e38000006011556107d060125560c8601355693f870857a3e0e38000006014556109c460155560c8601655693f870857a3e0e38000006017556109c460185561012c6019556969e10de76676d0800000601a55610bb8601b5561015e601c553480156200007757600080fd5b50620000986200008c620000a560201b60201c565b620000ad60201b60201c565b6001808190555062000171565b600033905090565b60008060009054906101000a900473ffffffffffffffffffffffffffffffffffffffff169050816000806101000a81548173ffffffffffffffffffffffffffffffffffffffff021916908373ffffffffffffffffffffffffffffffffffffffff1602179055508173ffffffffffffffffffffffffffffffffffffffff168173ffffffffffffffffffffffffffffffffffffffff167f8be0079c531659141344cd1fd0a4f28419497f9722a3daafe3b4186f6b6457e060405160405180910390a35050565b61584c80620001816000396000f3fe608060405234801561001057600080fd5b50600436106103275760003560e01c80638da5cb5b116101b8578063c8488b3111610104578063e6402345116100a2578063f2fde38b1161007c578063f2fde38b14610928578063f7ddb70614610944578063facf6c2614610960578063fd5de0f01461097e57610327565b8063e6402345146108d0578063e7195be5146108ee578063f03906f51461090a57610327565b8063d674ce4e116100de578063d674ce4e14610858578063de0e3a7614610876578063df41b2b114610894578063e148def7146108b257610327565b8063c8488b3114610800578063c907e1311461081c578063d37d97341461083a57610327565b8063a5586d1611610171578063b8e255741161014b578063b8e2557414610752578063c4c06b1414610782578063c5c718cc146107b2578063c5f956af146107e257610327565b8063a5586d16146106fa578063aaf32f0814610718578063b1028acd1461073657610327565b80638da5cb5b1461062257806392aeb43e14610640578063992737d41461065e5780639bd565d61461068e5780639bfea292146106ac578063a13b94c8146106ca57610327565b8063491d8987116102775780635f0cb65d11610230578063789321b61161020a578063789321b6146105b057806379018cb9146105cc5780637d526cdf146105e8578063827b63b81461060657610327565b80635f0cb65d1461055457806363f720e014610588578063715018a6146105a657610327565b8063491d8987146104a85780634ceb0f9f146104c4578063541e8ffe146104e05780635530b26e146104fe57806356a302f21461051a5780635aeb18821461053857610327565b8063257af2fa116102e457806339de8f92116102be57806339de8f92146104345780633fa76e8f146104505780634255529c1461046c5780634458a0b91461048a57610327565b8063257af2fa146103dc57806325f9fc8b146103fa57806327d19a931461041657610327565b8063080c3f3e1461032c5780630c933e1b1461034a57806313e10dfd146103685780631a22315c1461038657806320071b9b146103a25780632476c895146103c0575b600080fd5b61033461099a565b6040516103419190614827565b60405180910390f35b6103526109c0565b60405161035f919061485b565b60405180910390f35b6103706109c6565b60405161037d9190614827565b60405180910390f35b6103a0600480360381019061039b91906148a7565b6109ec565b005b6103aa611173565b6040516103b79190614827565b60405180910390f35b6103da60048036038101906103d591906148e7565b611199565b005b6103e46111bb565b6040516103f1919061485b565b60405180910390f35b610414600480360381019061040f919061493a565b6111c1565b005b61041e61134a565b60405161042b9190614827565b60405180910390f35b61044e60048036038101906104499190614993565b611370565b005b61046a600480360381019061046591906148a7565b6117d5565b005b610474611970565b604051610481919061485b565b60405180910390f35b610492611976565b60405161049f9190614827565b60405180910390f35b6104c260048036038101906104bd91906148a7565b61199c565b005b6104de60048036038101906104d991906148a7565b612123565b005b6104e86122be565b6040516104f5919061485b565b60405180910390f35b610518600480360381019061051391906148a7565b6122c4565b005b610522612a4b565b60405161052f919061485b565b60405180910390f35b610552600480360381019061054d91906148a7565b612a51565b005b61056e6004803603810190610569919061493a565b612bec565b60405161057f959493929190614a8d565b60405180910390f35b610590612c2f565b60405161059d9190614827565b60405180910390f35b6105ae612c55565b005b6105ca60048036038101906105c591906148a7565b612c69565b005b6105e660048036038101906105e191906148e7565b6133f0565b005b6105f0613412565b6040516105fd919061485b565b60405180910390f35b610620600480360381019061061b9190614ae0565b613418565b005b61062a61362e565b6040516106379190614827565b60405180910390f35b610648613657565b6040516106559190614827565b60405180910390f35b6106786004803603810190610673919061493a565b61367d565b604051610685919061485b565b60405180910390f35b6106966136a2565b6040516106a39190614827565b60405180910390f35b6106b46136c8565b6040516106c19190614827565b60405180910390f35b6106e460048036038101906106df919061493a565b6136ee565b6040516106f1919061485b565b60405180910390f35b610702613a3e565b60405161070f9190614827565b60405180910390f35b610720613a64565b60405161072d919061485b565b60405180910390f35b610750600480360381019061074b91906148a7565b613a6a565b005b61076c6004803603810190610767919061493a565b613c05565b604051610779919061485b565b60405180910390f35b61079c6004803603810190610797919061493a565b613c2a565b6040516107a9919061485b565b60405180910390f35b6107cc60048036038101906107c7919061493a565b613c4f565b6040516107d9919061485b565b60405180910390f35b6107ea613c74565b6040516107f79190614827565b60405180910390f35b61081a600480360381019061081591906148e7565b613c9a565b005b610824613cbc565b6040516108319190614827565b60405180910390f35b610842613ce2565b60405161084f919061485b565b60405180910390f35b610860613ce8565b60405161086d919061485b565b60405180910390f35b61087e613cee565b60405161088b9190614827565b60405180910390f35b61089c613d14565b6040516108a9919061485b565b60405180910390f35b6108ba613d1a565b6040516108c79190614827565b60405180910390f35b6108d8613d40565b6040516108e5919061485b565b60405180910390f35b610908600480360381019061090391906148a7565b613d46565b005b610912614029565b60405161091f9190614827565b60405180910390f35b610942600480360381019061093d9190614b47565b61404f565b005b61095e600480360381019061095991906148e7565b6140d2565b005b6109686140f4565b604051610975919061485b565b60405180910390f35b6109986004803603810190610993919061493a565b6140fa565b005b600a60009054906101000a900473ffffffffffffffffffffffffffffffffffffffff1681565b60175481565b600560009054906101000a900473ffffffffffffffffffffffffffffffffffffffff1681565b6109f4614644565b6000602460009054906101000a900473ffffffffffffffffffffffffffffffffffffffff1673ffffffffffffffffffffffffffffffffffffffff166377ade19083336040518363ffffffff1660e01b8152600401610a53929190614b74565b602060405180830381865afa158015610a70573d6000803e3d6000fd5b505050506040513d601f19601f82011682018060405250810190610a949190614bc9565b905080610ad6576040517f08c379a0000000000000000000000000000000000000000000000000000000008152600401610acd90614c53565b60405180910390fd5b6000602560009054906101000a900473ffffffffffffffffffffffffffffffffffffffff1673ffffffffffffffffffffffffffffffffffffffff1663a641eccb846040518263ffffffff1660e01b8152600401610b33919061485b565b6040805180830381865afa158015610b4f573d6000803e3d6000fd5b505050506040513d601f19601f82011682018060405250810190610b739190614c88565b50905080841115610bb9576040517f08c379a0000000000000000000000000000000000000000000000000000000008152600401610bb090614d3a565b60405180910390fd5b6000600460009054906101000a900473ffffffffffffffffffffffffffffffffffffffff1673ffffffffffffffffffffffffffffffffffffffff166398c172f7856040518263ffffffff1660e01b8152600401610c16919061485b565b602060405180830381865afa158015610c33573d6000803e3d6000fd5b505050506040513d601f19601f82011682018060405250810190610c579190614d5a565b90506000610c6485613c4f565b90506000602860009054906101000a900473ffffffffffffffffffffffffffffffffffffffff1673ffffffffffffffffffffffffffffffffffffffff1663897e9dd1876040518263ffffffff1660e01b8152600401610cc3919061485b565b602060405180830381865afa158015610ce0573d6000803e3d6000fd5b505050506040513d601f19601f82011682018060405250810190610d049190614d5a565b9050600060155482610d169190614de5565b90508084610d249190614e16565b8884610d309190614e16565b1115610d71576040517f08c379a0000000000000000000000000000000000000000000000000000000008152600401610d6890614ebc565b60405180910390fd5b601654602860009054906101000a900473ffffffffffffffffffffffffffffffffffffffff1673ffffffffffffffffffffffffffffffffffffffff1663221a528f896040518263ffffffff1660e01b8152600401610dcf919061485b565b602060405180830381865afa158015610dec573d6000803e3d6000fd5b505050506040513d601f19601f82011682018060405250810190610e109190614d5a565b1015610e51576040517f08c379a0000000000000000000000000000000000000000000000000000000008152600401610e4890614f28565b60405180910390fd5b600088601454610e619190614f48565b90506000602660009054906101000a900473ffffffffffffffffffffffffffffffffffffffff1673ffffffffffffffffffffffffffffffffffffffff16636e51890b8a6040518263ffffffff1660e01b8152600401610ec0919061485b565b602060405180830381865afa158015610edd573d6000803e3d6000fd5b505050506040513d601f19601f82011682018060405250810190610f019190614bc9565b90508015610f25576064605583610f189190614f48565b610f229190614de5565b91505b6000600260009054906101000a900473ffffffffffffffffffffffffffffffffffffffff1673ffffffffffffffffffffffffffffffffffffffff16637f2862868b6040518263ffffffff1660e01b8152600401610f82919061485b565b602060405180830381865afa158015610f9f573d6000803e3d6000fd5b505050506040513d601f19601f82011682018060405250810190610fc39190614d5a565b905082811015610fd257600080fd5b8a601d60008c81526020019081526020016000206002016000828254610ff89190614e16565b92505081905550602360009054906101000a900473ffffffffffffffffffffffffffffffffffffffff1673ffffffffffffffffffffffffffffffffffffffff1663f21b1a658b8d6040518363ffffffff1660e01b815260040161105c929190614f8a565b600060405180830381600087803b15801561107657600080fd5b505af115801561108a573d6000803e3d6000fd5b50505050600260009054906101000a900473ffffffffffffffffffffffffffffffffffffffff1673ffffffffffffffffffffffffffffffffffffffff16635ff38ff18b856040518363ffffffff1660e01b81526004016110eb929190614f8a565b6020604051808303816000875af115801561110a573d6000803e3d6000fd5b505050506040513d601f19601f8201168201806040525081019061112e9190614bc9565b50828b8b7fe2a77ee3f5b580eb15ce2545307a6585e27b5a93e9a57375aa6b507a6714122b60405160405180910390a450505050505050505061116f614693565b5050565b600860009054906101000a900473ffffffffffffffffffffffffffffffffffffffff1681565b6111a161469c565b826011819055508160128190555080601381905550505050565b60165481565b600b60009054906101000a900473ffffffffffffffffffffffffffffffffffffffff1673ffffffffffffffffffffffffffffffffffffffff163373ffffffffffffffffffffffffffffffffffffffff1614611251576040517f08c379a000000000000000000000000000000000000000000000000000000000815260040161124890615025565b60405180910390fd5b601d600082815260200190815260200160002060000160009054906101000a900460ff16156112b5576040517f08c379a00000000000000000000000000000000000000000000000000000000081526004016112ac906150b7565b60405180910390fd5b60006040518060a001604052806001151581526020016000815260200160008152602001600081526020016000815250905080601d600084815260200190815260200160002060008201518160000160006101000a81548160ff021916908315150217905550602082015181600101556040820151816002015560608201518160030155608082015181600401559050505050565b600c60009054906101000a900473ffffffffffffffffffffffffffffffffffffffff1681565b61137861469c565b89600260006101000a81548173ffffffffffffffffffffffffffffffffffffffff021916908373ffffffffffffffffffffffffffffffffffffffff16021790555088600360006101000a81548173ffffffffffffffffffffffffffffffffffffffff021916908373ffffffffffffffffffffffffffffffffffffffff16021790555087600460006101000a81548173ffffffffffffffffffffffffffffffffffffffff021916908373ffffffffffffffffffffffffffffffffffffffff16021790555086600560006101000a81548173ffffffffffffffffffffffffffffffffffffffff021916908373ffffffffffffffffffffffffffffffffffffffff16021790555086602060006101000a81548173ffffffffffffffffffffffffffffffffffffffff021916908373ffffffffffffffffffffffffffffffffffffffff16021790555085600660006101000a81548173ffffffffffffffffffffffffffffffffffffffff021916908373ffffffffffffffffffffffffffffffffffffffff16021790555085601e60006101000a81548173ffffffffffffffffffffffffffffffffffffffff021916908373ffffffffffffffffffffffffffffffffffffffff16021790555084600860006101000a81548173ffffffffffffffffffffffffffffffffffffffff021916908373ffffffffffffffffffffffffffffffffffffffff16021790555084601f60006101000a81548173ffffffffffffffffffffffffffffffffffffffff021916908373ffffffffffffffffffffffffffffffffffffffff16021790555083600960006101000a81548173ffffffffffffffffffffffffffffffffffffffff021916908373ffffffffffffffffffffffffffffffffffffffff16021790555083602160006101000a81548173ffffffffffffffffffffffffffffffffffffffff021916908373ffffffffffffffffffffffffffffffffffffffff16021790555082600a60006101000a81548173ffffffffffffffffffffffffffffffffffffffff021916908373ffffffffffffffffffffffffffffffffffffffff16021790555082602260006101000a81548173ffffffffffffffffffffffffffffffffffffffff021916908373ffffffffffffffffffffffffffffffffffffffff16021790555081600c60006101000a81548173ffffffffffffffffffffffffffffffffffffffff021916908373ffffffffffffffffffffffffffffffffffffffff16021790555081602360006101000a81548173ffffffffffffffffffffffffffffffffffffffff021916908373ffffffffffffffffffffffffffffffffffffffff16021790555080600d60006101000a81548173ffffffffffffffffffffffffffffffffffffffff021916908373ffffffffffffffffffffffffffffffffffffffff16021790555080602560006101000a81548173ffffffffffffffffffffffffffffffffffffffff021916908373ffffffffffffffffffffffffffffffffffffffff16021790555050505050505050505050565b6000602460009054906101000a900473ffffffffffffffffffffffffffffffffffffffff1673ffffffffffffffffffffffffffffffffffffffff166377ade19083336040518363ffffffff1660e01b8152600401611834929190614b74565b602060405180830381865afa158015611851573d6000803e3d6000fd5b505050506040513d601f19601f820116820180604052508101906118759190614bc9565b9050806118b7576040517f08c379a00000000000000000000000000000000000000000000000000000000081526004016118ae90614c53565b60405180910390fd5b601d600083815260200190815260200160002060010154831115611910576040517f08c379a000000000000000000000000000000000000000000000000000000000815260040161190790615123565b60405180910390fd5b82601d600084815260200190815260200160002060010160008282546119369190615143565b9250508190555082827f445f3efd384d969fbe44d36da6d762530c1d1dd1228dbf18f7830aac20b7b26d60405160405180910390a3505050565b601c5481565b600d60009054906101000a900473ffffffffffffffffffffffffffffffffffffffff1681565b6119a4614644565b6000602460009054906101000a900473ffffffffffffffffffffffffffffffffffffffff1673ffffffffffffffffffffffffffffffffffffffff166377ade19083336040518363ffffffff1660e01b8152600401611a03929190614b74565b602060405180830381865afa158015611a20573d6000803e3d6000fd5b505050506040513d601f19601f82011682018060405250810190611a449190614bc9565b905080611a86576040517f08c379a0000000000000000000000000000000000000000000000000000000008152600401611a7d90614c53565b60405180910390fd5b6000602560009054906101000a900473ffffffffffffffffffffffffffffffffffffffff1673ffffffffffffffffffffffffffffffffffffffff1663a641eccb846040518263ffffffff1660e01b8152600401611ae3919061485b565b6040805180830381865afa158015611aff573d6000803e3d6000fd5b505050506040513d601f19601f82011682018060405250810190611b239190614c88565b50905080841115611b69576040517f08c379a0000000000000000000000000000000000000000000000000000000008152600401611b6090614d3a565b60405180910390fd5b6000600360009054906101000a900473ffffffffffffffffffffffffffffffffffffffff1673ffffffffffffffffffffffffffffffffffffffff1663ddd528f0856040518263ffffffff1660e01b8152600401611bc6919061485b565b602060405180830381865afa158015611be3573d6000803e3d6000fd5b505050506040513d601f19601f82011682018060405250810190611c079190614d5a565b90506000611c1485613c05565b90506000602860009054906101000a900473ffffffffffffffffffffffffffffffffffffffff1673ffffffffffffffffffffffffffffffffffffffff1663897e9dd1876040518263ffffffff1660e01b8152600401611c73919061485b565b602060405180830381865afa158015611c90573d6000803e3d6000fd5b505050506040513d601f19601f82011682018060405250810190611cb49190614d5a565b90506000601b5482611cc69190614de5565b90508084611cd49190614e16565b8884611ce09190614e16565b1115611d21576040517f08c379a0000000000000000000000000000000000000000000000000000000008152600401611d18906151e9565b60405180910390fd5b601c54602860009054906101000a900473ffffffffffffffffffffffffffffffffffffffff1673ffffffffffffffffffffffffffffffffffffffff1663221a528f896040518263ffffffff1660e01b8152600401611d7f919061485b565b602060405180830381865afa158015611d9c573d6000803e3d6000fd5b505050506040513d601f19601f82011682018060405250810190611dc09190614d5a565b1015611e01576040517f08c379a0000000000000000000000000000000000000000000000000000000008152600401611df890614f28565b60405180910390fd5b600088601a54611e119190614f48565b90506000602660009054906101000a900473ffffffffffffffffffffffffffffffffffffffff1673ffffffffffffffffffffffffffffffffffffffff16636e51890b8a6040518263ffffffff1660e01b8152600401611e70919061485b565b602060405180830381865afa158015611e8d573d6000803e3d6000fd5b505050506040513d601f19601f82011682018060405250810190611eb19190614bc9565b90508015611ed5576064605583611ec89190614f48565b611ed29190614de5565b91505b6000600260009054906101000a900473ffffffffffffffffffffffffffffffffffffffff1673ffffffffffffffffffffffffffffffffffffffff16637f2862868b6040518263ffffffff1660e01b8152600401611f32919061485b565b602060405180830381865afa158015611f4f573d6000803e3d6000fd5b505050506040513d601f19601f82011682018060405250810190611f739190614d5a565b905082811015611f8257600080fd5b8a601d60008c81526020019081526020016000206004016000828254611fa89190614e16565b92505081905550602360009054906101000a900473ffffffffffffffffffffffffffffffffffffffff1673ffffffffffffffffffffffffffffffffffffffff1663f21b1a658b8d6040518363ffffffff1660e01b815260040161200c929190614f8a565b600060405180830381600087803b15801561202657600080fd5b505af115801561203a573d6000803e3d6000fd5b50505050600260009054906101000a900473ffffffffffffffffffffffffffffffffffffffff1673ffffffffffffffffffffffffffffffffffffffff16635ff38ff18b856040518363ffffffff1660e01b815260040161209b929190614f8a565b6020604051808303816000875af11580156120ba573d6000803e3d6000fd5b505050506040513d601f19601f820116820180604052508101906120de9190614bc9565b50828b8b7f5e5db48e7967308f37eb69ec7089505ee1aec9e3ca3406188ff7a0730d40509b60405160405180910390a450505050505050505061211f614693565b5050565b6000602460009054906101000a900473ffffffffffffffffffffffffffffffffffffffff1673ffffffffffffffffffffffffffffffffffffffff166377ade19083336040518363ffffffff1660e01b8152600401612182929190614b74565b602060405180830381865afa15801561219f573d6000803e3d6000fd5b505050506040513d601f19601f820116820180604052508101906121c39190614bc9565b905080612205576040517f08c379a00000000000000000000000000000000000000000000000000000000081526004016121fc90614c53565b60405180910390fd5b601d60008381526020019081526020016000206003015483111561225e576040517f08c379a000000000000000000000000000000000000000000000000000000000815260040161225590615255565b60405180910390fd5b82601d600084815260200190815260200160002060030160008282546122849190615143565b9250508190555082827fb3f6b6c8276bb7d64f078eeb3789c89195e742b2259163b61ce1b29c6a14835460405160405180910390a3505050565b60185481565b6122cc614644565b6000602460009054906101000a900473ffffffffffffffffffffffffffffffffffffffff1673ffffffffffffffffffffffffffffffffffffffff166377ade19083336040518363ffffffff1660e01b815260040161232b929190614b74565b602060405180830381865afa158015612348573d6000803e3d6000fd5b505050506040513d601f19601f8201168201806040525081019061236c9190614bc9565b9050806123ae576040517f08c379a00000000000000000000000000000000000000000000000000000000081526004016123a590614c53565b60405180910390fd5b6000602560009054906101000a900473ffffffffffffffffffffffffffffffffffffffff1673ffffffffffffffffffffffffffffffffffffffff1663a641eccb846040518263ffffffff1660e01b815260040161240b919061485b565b6040805180830381865afa158015612427573d6000803e3d6000fd5b505050506040513d601f19601f8201168201806040525081019061244b9190614c88565b50905080841115612491576040517f08c379a000000000000000000000000000000000000000000000000000000000815260040161248890614d3a565b60405180910390fd5b6000600360009054906101000a900473ffffffffffffffffffffffffffffffffffffffff1673ffffffffffffffffffffffffffffffffffffffff1663ddd528f0856040518263ffffffff1660e01b81526004016124ee919061485b565b602060405180830381865afa15801561250b573d6000803e3d6000fd5b505050506040513d601f19601f8201168201806040525081019061252f9190614d5a565b9050600061253c8561367d565b90506000602860009054906101000a900473ffffffffffffffffffffffffffffffffffffffff1673ffffffffffffffffffffffffffffffffffffffff1663897e9dd1876040518263ffffffff1660e01b815260040161259b919061485b565b602060405180830381865afa1580156125b8573d6000803e3d6000fd5b505050506040513d601f19601f820116820180604052508101906125dc9190614d5a565b90506000601854826125ee9190614de5565b905080846125fc9190614e16565b88846126089190614e16565b1115612649576040517f08c379a0000000000000000000000000000000000000000000000000000000008152600401612640906151e9565b60405180910390fd5b601954602860009054906101000a900473ffffffffffffffffffffffffffffffffffffffff1673ffffffffffffffffffffffffffffffffffffffff1663221a528f896040518263ffffffff1660e01b81526004016126a7919061485b565b602060405180830381865afa1580156126c4573d6000803e3d6000fd5b505050506040513d601f19601f820116820180604052508101906126e89190614d5a565b1015612729576040517f08c379a000000000000000000000000000000000000000000000000000000000815260040161272090614f28565b60405180910390fd5b6000886017546127399190614f48565b90506000602660009054906101000a900473ffffffffffffffffffffffffffffffffffffffff1673ffffffffffffffffffffffffffffffffffffffff16636e51890b8a6040518263ffffffff1660e01b8152600401612798919061485b565b602060405180830381865afa1580156127b5573d6000803e3d6000fd5b505050506040513d601f19601f820116820180604052508101906127d99190614bc9565b905080156127fd5760646055836127f09190614f48565b6127fa9190614de5565b91505b6000600260009054906101000a900473ffffffffffffffffffffffffffffffffffffffff1673ffffffffffffffffffffffffffffffffffffffff16637f2862868b6040518263ffffffff1660e01b815260040161285a919061485b565b602060405180830381865afa158015612877573d6000803e3d6000fd5b505050506040513d601f19601f8201168201806040525081019061289b9190614d5a565b9050828110156128aa57600080fd5b8a601d60008c815260200190815260200160002060030160008282546128d09190614e16565b92505081905550602360009054906101000a900473ffffffffffffffffffffffffffffffffffffffff1673ffffffffffffffffffffffffffffffffffffffff1663f21b1a658b8d6040518363ffffffff1660e01b8152600401612934929190614f8a565b600060405180830381600087803b15801561294e57600080fd5b505af1158015612962573d6000803e3d6000fd5b50505050600260009054906101000a900473ffffffffffffffffffffffffffffffffffffffff1673ffffffffffffffffffffffffffffffffffffffff16635ff38ff18b856040518363ffffffff1660e01b81526004016129c3929190614f8a565b6020604051808303816000875af11580156129e2573d6000803e3d6000fd5b505050506040513d601f19601f82011682018060405250810190612a069190614bc9565b50828b8b7f9227c3524bb9532bc8ed74e27aa464c58a720ab16e254278e8a7b0be674a6e3960405160405180910390a4505050505050505050612a47614693565b5050565b60155481565b6000602460009054906101000a900473ffffffffffffffffffffffffffffffffffffffff1673ffffffffffffffffffffffffffffffffffffffff166377ade19083336040518363ffffffff1660e01b8152600401612ab0929190614b74565b602060405180830381865afa158015612acd573d6000803e3d6000fd5b505050506040513d601f19601f82011682018060405250810190612af19190614bc9565b905080612b33576040517f08c379a0000000000000000000000000000000000000000000000000000000008152600401612b2a90614c53565b60405180910390fd5b601d600083815260200190815260200160002060040154831115612b8c576040517f08c379a0000000000000000000000000000000000000000000000000000000008152600401612b83906152c1565b60405180910390fd5b82601d60008481526020019081526020016000206004016000828254612bb29190615143565b9250508190555082827fd55b1dcca4ca6ac5995fef8259ccf29badf45b844fe91d69f87e94deb62f4b3d60405160405180910390a3505050565b601d6020528060005260406000206000915090508060000160009054906101000a900460ff16908060010154908060020154908060030154908060040154905085565b600f60009054906101000a900473ffffffffffffffffffffffffffffffffffffffff1681565b612c5d61469c565b612c67600061471a565b565b612c71614644565b6000602460009054906101000a900473ffffffffffffffffffffffffffffffffffffffff1673ffffffffffffffffffffffffffffffffffffffff166377ade19083336040518363ffffffff1660e01b8152600401612cd0929190614b74565b602060405180830381865afa158015612ced573d6000803e3d6000fd5b505050506040513d601f19601f82011682018060405250810190612d119190614bc9565b905080612d53576040517f08c379a0000000000000000000000000000000000000000000000000000000008152600401612d4a90614c53565b60405180910390fd5b6000602560009054906101000a900473ffffffffffffffffffffffffffffffffffffffff1673ffffffffffffffffffffffffffffffffffffffff1663a641eccb846040518263ffffffff1660e01b8152600401612db0919061485b565b6040805180830381865afa158015612dcc573d6000803e3d6000fd5b505050506040513d601f19601f82011682018060405250810190612df09190614c88565b50905080841115612e36576040517f08c379a0000000000000000000000000000000000000000000000000000000008152600401612e2d90614d3a565b60405180910390fd5b6000600360009054906101000a900473ffffffffffffffffffffffffffffffffffffffff1673ffffffffffffffffffffffffffffffffffffffff1663ddd528f0856040518263ffffffff1660e01b8152600401612e93919061485b565b602060405180830381865afa158015612eb0573d6000803e3d6000fd5b505050506040513d601f19601f82011682018060405250810190612ed49190614d5a565b90506000612ee185613c2a565b90506000602860009054906101000a900473ffffffffffffffffffffffffffffffffffffffff1673ffffffffffffffffffffffffffffffffffffffff1663897e9dd1876040518263ffffffff1660e01b8152600401612f40919061485b565b602060405180830381865afa158015612f5d573d6000803e3d6000fd5b505050506040513d601f19601f82011682018060405250810190612f819190614d5a565b9050600060125482612f939190614de5565b90508084612fa19190614e16565b8884612fad9190614e16565b1115612fee576040517f08c379a0000000000000000000000000000000000000000000000000000000008152600401612fe5906151e9565b60405180910390fd5b601354602860009054906101000a900473ffffffffffffffffffffffffffffffffffffffff1673ffffffffffffffffffffffffffffffffffffffff1663221a528f896040518263ffffffff1660e01b815260040161304c919061485b565b602060405180830381865afa158015613069573d6000803e3d6000fd5b505050506040513d601f19601f8201168201806040525081019061308d9190614d5a565b10156130ce576040517f08c379a00000000000000000000000000000000000000000000000000000000081526004016130c590614f28565b60405180910390fd5b6000886011546130de9190614f48565b90506000602660009054906101000a900473ffffffffffffffffffffffffffffffffffffffff1673ffffffffffffffffffffffffffffffffffffffff16636e51890b8a6040518263ffffffff1660e01b815260040161313d919061485b565b602060405180830381865afa15801561315a573d6000803e3d6000fd5b505050506040513d601f19601f8201168201806040525081019061317e9190614bc9565b905080156131a25760646055836131959190614f48565b61319f9190614de5565b91505b6000600260009054906101000a900473ffffffffffffffffffffffffffffffffffffffff1673ffffffffffffffffffffffffffffffffffffffff16637f2862868b6040518263ffffffff1660e01b81526004016131ff919061485b565b602060405180830381865afa15801561321c573d6000803e3d6000fd5b505050506040513d601f19601f820116820180604052508101906132409190614d5a565b90508281101561324f57600080fd5b8a601d60008c815260200190815260200160002060010160008282546132759190614e16565b92505081905550602360009054906101000a900473ffffffffffffffffffffffffffffffffffffffff1673ffffffffffffffffffffffffffffffffffffffff1663f21b1a658b8d6040518363ffffffff1660e01b81526004016132d9929190614f8a565b600060405180830381600087803b1580156132f357600080fd5b505af1158015613307573d6000803e3d6000fd5b50505050600260009054906101000a900473ffffffffffffffffffffffffffffffffffffffff1673ffffffffffffffffffffffffffffffffffffffff16635ff38ff18b856040518363ffffffff1660e01b8152600401613368929190614f8a565b6020604051808303816000875af1158015613387573d6000803e3d6000fd5b505050506040513d601f19601f820116820180604052508101906133ab9190614bc9565b50828b8b7f5488d2eff2950abaf26b9aa6844e42a3a4da19a7165290c615a6fec565f0386e60405160405180910390a45050505050505050506133ec614693565b5050565b6133f861469c565b826017819055508160188190555080601981905550505050565b60135481565b61342061469c565b83600b60006101000a81548173ffffffffffffffffffffffffffffffffffffffff021916908373ffffffffffffffffffffffffffffffffffffffff16021790555083602460006101000a81548173ffffffffffffffffffffffffffffffffffffffff021916908373ffffffffffffffffffffffffffffffffffffffff16021790555082600f60006101000a81548173ffffffffffffffffffffffffffffffffffffffff021916908373ffffffffffffffffffffffffffffffffffffffff16021790555082602660006101000a81548173ffffffffffffffffffffffffffffffffffffffff021916908373ffffffffffffffffffffffffffffffffffffffff16021790555081600e60006101000a81548173ffffffffffffffffffffffffffffffffffffffff021916908373ffffffffffffffffffffffffffffffffffffffff16021790555081602760006101000a81548173ffffffffffffffffffffffffffffffffffffffff021916908373ffffffffffffffffffffffffffffffffffffffff16021790555080601060006101000a81548173ffffffffffffffffffffffffffffffffffffffff021916908373ffffffffffffffffffffffffffffffffffffffff16021790555080602860006101000a81548173ffffffffffffffffffffffffffffffffffffffff021916908373ffffffffffffffffffffffffffffffffffffffff16021790555050505050565b60008060009054906101000a900473ffffffffffffffffffffffffffffffffffffffff16905090565b600b60009054906101000a900473ffffffffffffffffffffffffffffffffffffffff1681565b600080601d600084815260200190815260200160002060030154905080915050919050565b601060009054906101000a900473ffffffffffffffffffffffffffffffffffffffff1681565b600460009054906101000a900473ffffffffffffffffffffffffffffffffffffffff1681565b600080601d60008481526020019081526020016000206001015490506000601d60008581526020019081526020016000206002015490506000601d60008681526020019081526020016000206003015490506000601d60008781526020019081526020016000206004015490506000602760009054906101000a900473ffffffffffffffffffffffffffffffffffffffff1673ffffffffffffffffffffffffffffffffffffffff166354f5a034886040518263ffffffff1660e01b81526004016137b8919061485b565b602060405180830381865afa1580156137d5573d6000803e3d6000fd5b505050506040513d601f19601f820116820180604052508101906137f99190614d5a565b90506000602760009054906101000a900473ffffffffffffffffffffffffffffffffffffffff1673ffffffffffffffffffffffffffffffffffffffff16631cb8d2cf896040518263ffffffff1660e01b8152600401613858919061485b565b602060405180830381865afa158015613875573d6000803e3d6000fd5b505050506040513d601f19601f820116820180604052508101906138999190614d5a565b90506000602760009054906101000a900473ffffffffffffffffffffffffffffffffffffffff1673ffffffffffffffffffffffffffffffffffffffff1663baa5f9668a6040518263ffffffff1660e01b81526004016138f8919061485b565b602060405180830381865afa158015613915573d6000803e3d6000fd5b505050506040513d601f19601f820116820180604052508101906139399190614d5a565b90506000602760009054906101000a900473ffffffffffffffffffffffffffffffffffffffff1673ffffffffffffffffffffffffffffffffffffffff1663d13abd7d8b6040518263ffffffff1660e01b8152600401613998919061485b565b602060405180830381865afa1580156139b5573d6000803e3d6000fd5b505050506040513d601f19601f820116820180604052508101906139d99190614d5a565b9050600081838587898b8d8f6139ef9190614e16565b6139f99190614e16565b613a039190614e16565b613a0d9190614e16565b613a179190614e16565b613a219190614e16565b613a2b9190614e16565b9050809950505050505050505050919050565b600760009054906101000a900473ffffffffffffffffffffffffffffffffffffffff1681565b60195481565b6000602460009054906101000a900473ffffffffffffffffffffffffffffffffffffffff1673ffffffffffffffffffffffffffffffffffffffff166377ade19083336040518363ffffffff1660e01b8152600401613ac9929190614b74565b602060405180830381865afa158015613ae6573d6000803e3d6000fd5b505050506040513d601f19601f82011682018060405250810190613b0a9190614bc9565b905080613b4c576040517f08c379a0000000000000000000000000000000000000000000000000000000008152600401613b4390614c53565b60405180910390fd5b601d600083815260200190815260200160002060020154831115613ba5576040517f08c379a0000000000000000000000000000000000000000000000000000000008152600401613b9c9061532d565b60405180910390fd5b82601d60008481526020019081526020016000206002016000828254613bcb9190615143565b9250508190555082827fea3d38920c424e21749588b84ce0e4f0090a37f547efb9ea47f4235e8f0e2a8c60405160405180910390a3505050565b600080601d600084815260200190815260200160002060040154905080915050919050565b600080601d600084815260200190815260200160002060010154905080915050919050565b600080601d600084815260200190815260200160002060020154905080915050919050565b600260009054906101000a900473ffffffffffffffffffffffffffffffffffffffff1681565b613ca261469c565b826014819055508160158190555080601681905550505050565b600960009054906101000a900473ffffffffffffffffffffffffffffffffffffffff1681565b60125481565b601a5481565b600360009054906101000a900473ffffffffffffffffffffffffffffffffffffffff1681565b60145481565b600e60009054906101000a900473ffffffffffffffffffffffffffffffffffffffff1681565b601b5481565b600d60009054906101000a900473ffffffffffffffffffffffffffffffffffffffff1673ffffffffffffffffffffffffffffffffffffffff163373ffffffffffffffffffffffffffffffffffffffff1614613dd6576040517f08c379a0000000000000000000000000000000000000000000000000000000008152600401613dcd906153bf565b60405180910390fd5b60018103613e6a576000601d60008481526020019081526020016000206001015411613e37576040517f08c379a0000000000000000000000000000000000000000000000000000000008152600401613e2e9061542b565b60405180910390fd5b6001601d60008481526020019081526020016000206001016000828254613e5e9190615143565b92505081905550614025565b60028103613efe576000601d60008481526020019081526020016000206002015411613ecb576040517f08c379a0000000000000000000000000000000000000000000000000000000008152600401613ec290615497565b60405180910390fd5b6001601d60008481526020019081526020016000206002016000828254613ef29190615143565b92505081905550614024565b60038103613f92576000601d60008481526020019081526020016000206003015411613f5f576040517f08c379a0000000000000000000000000000000000000000000000000000000008152600401613f5690615503565b60405180910390fd5b6001601d60008481526020019081526020016000206003016000828254613f869190615143565b92505081905550614023565b60048103614022576000601d60008481526020019081526020016000206004015411613ff3576040517f08c379a0000000000000000000000000000000000000000000000000000000008152600401613fea9061556f565b60405180910390fd5b6001601d6000848152602001908152602001600020600401600082825461401a9190615143565b925050819055505b5b5b5b5050565b600660009054906101000a900473ffffffffffffffffffffffffffffffffffffffff1681565b61405761469c565b600073ffffffffffffffffffffffffffffffffffffffff168173ffffffffffffffffffffffffffffffffffffffff16036140c6576040517f08c379a00000000000000000000000000000000000000000000000000000000081526004016140bd90615601565b60405180910390fd5b6140cf8161471a565b50565b6140da61469c565b82601a8190555081601b8190555080601c81905550505050565b60115481565b600960009054906101000a900473ffffffffffffffffffffffffffffffffffffffff1673ffffffffffffffffffffffffffffffffffffffff163373ffffffffffffffffffffffffffffffffffffffff161461418a576040517f08c379a00000000000000000000000000000000000000000000000000000000081526004016141819061566d565b60405180910390fd5b600060289050602260009054906101000a900473ffffffffffffffffffffffffffffffffffffffff1673ffffffffffffffffffffffffffffffffffffffff16638b9334f0836040518263ffffffff1660e01b81526004016141eb919061485b565b602060405180830381865afa158015614208573d6000803e3d6000fd5b505050506040513d601f19601f8201168201806040525081019061422c9190614bc9565b1561423657601490505b6000601d60008481526020019081526020016000209050600060648383600101546142619190614f48565b61426b9190614de5565b9050600060648484600201546142819190614f48565b61428b9190614de5565b9050600060648585600401546142a19190614f48565b6142ab9190614de5565b90506000602760009054906101000a900473ffffffffffffffffffffffffffffffffffffffff1673ffffffffffffffffffffffffffffffffffffffff166354f5a034886040518263ffffffff1660e01b815260040161430a919061485b565b602060405180830381865afa158015614327573d6000803e3d6000fd5b505050506040513d601f19601f8201168201806040525081019061434b9190614d5a565b905060006064878361435d9190614f48565b6143679190614de5565b905085600101548511156143b0576040517f08c379a00000000000000000000000000000000000000000000000000000000081526004016143a790615123565b60405180910390fd5b85600201548411156143f7576040517f08c379a00000000000000000000000000000000000000000000000000000000081526004016143ee9061532d565b60405180910390fd5b856004015483111561443e576040517f08c379a0000000000000000000000000000000000000000000000000000000008152600401614435906152c1565b60405180910390fd5b602760009054906101000a900473ffffffffffffffffffffffffffffffffffffffff1673ffffffffffffffffffffffffffffffffffffffff166354f5a034896040518263ffffffff1660e01b8152600401614499919061485b565b602060405180830381865afa1580156144b6573d6000803e3d6000fd5b505050506040513d601f19601f820116820180604052508101906144da9190614d5a565b81111561451c576040517f08c379a0000000000000000000000000000000000000000000000000000000008152600401614513906156d9565b60405180910390fd5b848660010160008282546145309190615143565b925050819055508386600201600082825461454b9190615143565b92505081905550828660040160008282546145669190615143565b92505081905550602760009054906101000a900473ffffffffffffffffffffffffffffffffffffffff1673ffffffffffffffffffffffffffffffffffffffff166346cea39189836040518363ffffffff1660e01b81526004016145ca929190614f8a565b600060405180830381600087803b1580156145e457600080fd5b505af11580156145f8573d6000803e3d6000fd5b50505050877fcca52be669a69b267b78451892a3092ae8af8ffe8ce3ba4ba0b5dd1890dea86d8686868560405161463294939291906156f9565b60405180910390a25050505050505050565b600260015403614689576040517f08c379a00000000000000000000000000000000000000000000000000000000081526004016146809061578a565b60405180910390fd5b6002600181905550565b60018081905550565b6146a46147de565b73ffffffffffffffffffffffffffffffffffffffff166146c261362e565b73ffffffffffffffffffffffffffffffffffffffff1614614718576040517f08c379a000000000000000000000000000000000000000000000000000000000815260040161470f906157f6565b60405180910390fd5b565b60008060009054906101000a900473ffffffffffffffffffffffffffffffffffffffff169050816000806101000a81548173ffffffffffffffffffffffffffffffffffffffff021916908373ffffffffffffffffffffffffffffffffffffffff1602179055508173ffffffffffffffffffffffffffffffffffffffff168173ffffffffffffffffffffffffffffffffffffffff167f8be0079c531659141344cd1fd0a4f28419497f9722a3daafe3b4186f6b6457e060405160405180910390a35050565b600033905090565b600073ffffffffffffffffffffffffffffffffffffffff82169050919050565b6000614811826147e6565b9050919050565b61482181614806565b82525050565b600060208201905061483c6000830184614818565b92915050565b6000819050919050565b61485581614842565b82525050565b6000602082019050614870600083018461484c565b92915050565b600080fd5b61488481614842565b811461488f57600080fd5b50565b6000813590506148a18161487b565b92915050565b600080604083850312156148be576148bd614876565b5b60006148cc85828601614892565b92505060206148dd85828601614892565b9150509250929050565b600080600060608486031215614900576148ff614876565b5b600061490e86828701614892565b935050602061491f86828701614892565b925050604061493086828701614892565b9150509250925092565b6000602082840312156149505761494f614876565b5b600061495e84828501614892565b91505092915050565b61497081614806565b811461497b57600080fd5b50565b60008135905061498d81614967565b92915050565b6000806000806000806000806000806101408b8d0312156149b7576149b6614876565b5b60006149c58d828e0161497e565b9a505060206149d68d828e0161497e565b99505060406149e78d828e0161497e565b98505060606149f88d828e0161497e565b9750506080614a098d828e0161497e565b96505060a0614a1a8d828e0161497e565b95505060c0614a2b8d828e0161497e565b94505060e0614a3c8d828e0161497e565b935050610100614a4e8d828e0161497e565b925050610120614a608d828e0161497e565b9150509295989b9194979a5092959850565b60008115159050919050565b614a8781614a72565b82525050565b600060a082019050614aa26000830188614a7e565b614aaf602083018761484c565b614abc604083018661484c565b614ac9606083018561484c565b614ad6608083018461484c565b9695505050505050565b60008060008060808587031215614afa57614af9614876565b5b6000614b088782880161497e565b9450506020614b198782880161497e565b9350506040614b2a8782880161497e565b9250506060614b3b8782880161497e565b91505092959194509250565b600060208284031215614b5d57614b5c614876565b5b6000614b6b8482850161497e565b91505092915050565b6000604082019050614b89600083018561484c565b614b966020830184614818565b9392505050565b614ba681614a72565b8114614bb157600080fd5b50565b600081519050614bc381614b9d565b92915050565b600060208284031215614bdf57614bde614876565b5b6000614bed84828501614bb4565b91505092915050565b600082825260208201905092915050565b7f216e6174696f6e206f776e657200000000000000000000000000000000000000600082015250565b6000614c3d600d83614bf6565b9150614c4882614c07565b602082019050919050565b60006020820190508181036000830152614c6c81614c30565b9050919050565b600081519050614c828161487b565b92915050565b60008060408385031215614c9f57614c9e614876565b5b6000614cad85828601614c73565b9250506020614cbe85828601614c73565b9150509250929050565b7f70757263686173652065786365656473206461696c792070757263686173652060008201527f6c696d6974000000000000000000000000000000000000000000000000000000602082015250565b6000614d24602583614bf6565b9150614d2f82614cc8565b604082019050919050565b60006020820190508181036000830152614d5381614d17565b9050919050565b600060208284031215614d7057614d6f614876565b5b6000614d7e84828501614c73565b91505092915050565b7f4e487b7100000000000000000000000000000000000000000000000000000000600052601260045260246000fd5b7f4e487b7100000000000000000000000000000000000000000000000000000000600052601160045260246000fd5b6000614df082614842565b9150614dfb83614842565b925082614e0b57614e0a614d87565b5b828204905092915050565b6000614e2182614842565b9150614e2c83614842565b9250828201905080821115614e4457614e43614db6565b5b92915050565b7f6e656564206d6f726520736869707961726473206f7220696e6672617374727560008201527f6374757265000000000000000000000000000000000000000000000000000000602082015250565b6000614ea6602583614bf6565b9150614eb182614e4a565b604082019050919050565b60006020820190508181036000830152614ed581614e99565b9050919050565b7f6e656564206d6f726520746563686e6f6c6f6779000000000000000000000000600082015250565b6000614f12601483614bf6565b9150614f1d82614edc565b602082019050919050565b60006020820190508181036000830152614f4181614f05565b9050919050565b6000614f5382614842565b9150614f5e83614842565b9250828202614f6c81614842565b91508282048414831517614f8357614f82614db6565b5b5092915050565b6000604082019050614f9f600083018561484c565b614fac602083018461484c565b9392505050565b7f66756e6374696f6e206f6e6c792063616c6c61626c652066726f6d20636f756e60008201527f7472794d696e7465720000000000000000000000000000000000000000000000602082015250565b600061500f602983614bf6565b915061501a82614fb3565b604082019050919050565b6000602082019050818103600083015261503e81615002565b9050919050565b7f6e61767920616c726561647920696e697469616c697a656420666f722074686960008201527f73206e6174696f6e000000000000000000000000000000000000000000000000602082015250565b60006150a1602883614bf6565b91506150ac82615045565b604082019050919050565b600060208201905081810360008301526150d081615094565b9050919050565b7f6e6f7420656e6f75676820636f72766574746573000000000000000000000000600082015250565b600061510d601483614bf6565b9150615118826150d7565b602082019050919050565b6000602082019050818103600083015261513c81615100565b9050919050565b600061514e82614842565b915061515983614842565b925082820390508181111561517157615170614db6565b5b92915050565b7f6e656564206d6f726520647279646f636b73206f7220696e667261737472756360008201527f7475726500000000000000000000000000000000000000000000000000000000602082015250565b60006151d3602483614bf6565b91506151de82615177565b604082019050919050565b60006020820190508181036000830152615202816151c6565b9050919050565b7f6e6f7420656e6f75676820626174746c65736869707300000000000000000000600082015250565b600061523f601683614bf6565b915061524a82615209565b602082019050919050565b6000602082019050818103600083015261526e81615232565b9050919050565b7f6e6f7420656e6f75676820637275697365727300000000000000000000000000600082015250565b60006152ab601383614bf6565b91506152b682615275565b602082019050919050565b600060208201905081810360008301526152da8161529e565b9050919050565b7f6e6f7420656e6f756768206c616e64696e672073686970730000000000000000600082015250565b6000615317601883614bf6565b9150615322826152e1565b602082019050919050565b600060208201905081810360008301526153468161530a565b9050919050565b7f66756e6374696f6e206f6e6c792063616c6c61626c652066726f6d206164646960008201527f74696f6e616c206e61767920636f6e7472616374000000000000000000000000602082015250565b60006153a9603483614bf6565b91506153b48261534d565b604082019050919050565b600060208201905081810360008301526153d88161539c565b9050919050565b7f756e646572666c6f773a20636f72766574746500000000000000000000000000600082015250565b6000615415601383614bf6565b9150615420826153df565b602082019050919050565b6000602082019050818103600083015261544481615408565b9050919050565b7f756e646572666c6f773a206c616e64696e672073686970000000000000000000600082015250565b6000615481601783614bf6565b915061548c8261544b565b602082019050919050565b600060208201905081810360008301526154b081615474565b9050919050565b7f756e646572666c6f773a20626174746c65736869700000000000000000000000600082015250565b60006154ed601583614bf6565b91506154f8826154b7565b602082019050919050565b6000602082019050818103600083015261551c816154e0565b9050919050565b7f756e646572666c6f773a20637275697365720000000000000000000000000000600082015250565b6000615559601283614bf6565b915061556482615523565b602082019050919050565b600060208201905081810360008301526155888161554c565b9050919050565b7f4f776e61626c653a206e6577206f776e657220697320746865207a65726f206160008201527f6464726573730000000000000000000000000000000000000000000000000000602082015250565b60006155eb602683614bf6565b91506155f68261558f565b604082019050919050565b6000602082019050818103600083015261561a816155de565b9050919050565b7f6f6e6c792063616c6c61626c652066726f6d206e756b6520636f6e7472616374600082015250565b6000615657602083614bf6565b915061566282615621565b602082019050919050565b600060208201905081810360008301526156868161564a565b9050919050565b7f6e6f7420656e6f75676820667269676174657300000000000000000000000000600082015250565b60006156c3601383614bf6565b91506156ce8261568d565b602082019050919050565b600060208201905081810360008301526156f2816156b6565b9050919050565b600060808201905061570e600083018761484c565b61571b602083018661484c565b615728604083018561484c565b615735606083018461484c565b95945050505050565b7f5265656e7472616e637947756172643a207265656e7472616e742063616c6c00600082015250565b6000615774601f83614bf6565b915061577f8261573e565b602082019050919050565b600060208201905081810360008301526157a381615767565b9050919050565b7f4f776e61626c653a2063616c6c6572206973206e6f7420746865206f776e6572600082015250565b60006157e0602083614bf6565b91506157eb826157aa565b602082019050919050565b6000602082019050818103600083015261580f816157d3565b905091905056fea26469706673582212202193161ba1d4cd98ab2e7258478ba4fa10809dde8745f08842585c7ebc8a770764736f6c63430008110033",
  "devdoc": {
    "author": "OxSnosh",
    "details": "this contract inherits from openzeppelin's ownable contract",
    "kind": "dev",
    "methods": {
      "buyBattleship(uint256,uint256)": {
        "details": "this is a public function callable only by the nation ownerthis function will allow a nation owner to purchase a battleship vessel",
        "params": {
          "amount": "this is the number of battleship being purchased",
          "id": "this is the naton id of the nation purchasing vessels"
        }
      },
      "buyCorvette(uint256,uint256)": {
        "details": "this is a public function callable only by the nation ownerthis function will allow a nation owner to purchase a corvette vessel",
        "params": {
          "amount": "this is the number of corvettes being purchased",
          "id": "this is the naton id of the nation purchasing vessels"
        }
      },
      "buyCruiser(uint256,uint256)": {
        "details": "this is a public function callable only by the nation ownerthis function will allow a nation owner to purchase a cruiser vessel",
        "params": {
          "amount": "this is the number of cruisers being purchased",
          "id": "this is the naton id of the nation purchasing vessels"
        }
      },
      "buyLandingShip(uint256,uint256)": {
        "details": "this is a public function callable only by the nation ownerthis function will allow a nation owner to purchase a landing ships vessel",
        "params": {
          "amount": "this is the number of landing ships being purchased",
          "id": "this is the naton id of the nation purchasing vessels"
        }
      },
      "decreaseNavyFromNukeContract(uint256)": {
        "details": "this is a public function only callable from the nuke contractthis function will decrease the amount of ships that are vulnerable to nuclear attacks when a nation is attacked by a nuke strike",
        "params": {
          "defenderId": "this is the nation id of the nation being attacked"
        }
      },
      "generateNavy(uint256)": {
        "details": "this is a public function only callable from the countryMinter contractthis function will allow a nation owner to buy navy vessels",
        "params": {
          "id": "this is the nation id of the nation being minted"
        }
      },
      "getBattleshipCount(uint256)": {
        "details": "this is a public view function that will return the number of battleships a nation ownsthis function wll return the number of battleships a nation owns",
        "params": {
          "id": "this is the nation id of the nation being queried"
        },
        "returns": {
          "_0": "uint256 this is the number of battleships for a given nation"
        }
      },
      "getCorvetteCount(uint256)": {
        "details": "this is a public view function that will return the number of corvettes a nation ownsthis function wll return the number of corvettes a nation owns",
        "params": {
          "id": "this is the nation id of the nation being queried"
        },
        "returns": {
          "_0": "uint256 this is the number of corvettes for a given nation"
        }
      },
      "getCruiserCount(uint256)": {
        "details": "this is a public view function that will return the number of cruisers a nation ownsthis function wll return the number of cruisers a nation owns",
        "params": {
          "id": "this is the nation id of the nation being queried"
        },
        "returns": {
          "_0": "uint256 this is the number of cruisers for a given nation"
        }
      },
      "getLandingShipCount(uint256)": {
        "details": "this is a public view function that will return the number of landing ships a nation ownsthis function wll return the number of landing ships a nation owns",
        "params": {
          "id": "this is the nation id of the nation being queried"
        },
        "returns": {
          "_0": "uint256 this is the number of landing ships for a given nation"
        }
      },
      "owner()": {
        "details": "Returns the address of the current owner."
      },
      "renounceOwnership()": {
        "details": "Leaves the contract without owner. It will not be possible to call `onlyOwner` functions. Can only be called by the current owner. NOTE: Renouncing ownership will leave the contract without an owner, thereby disabling any functionality that is only available to the owner."
      },
      "settings(address,address,address,address,address,address,address,address,address,address)": {
        "details": "this function is only callable by the contract ownerthis function will be called immediately after contract deployment in order to set contract pointers"
      },
      "settings2(address,address,address,address)": {
        "details": "this function is only callable by the contract ownerthis function will be called immediately after contract deployment in order to set contract pointers"
      },
      "transferOwnership(address)": {
        "details": "Transfers ownership of the contract to a new account (`newOwner`). Can only be called by the current owner."
      },
      "updateBattleshipSpecs(uint256,uint256,uint256)": {
        "details": "this function is only callable by the contract owner"
      },
      "updateCorvetteSpecs(uint256,uint256,uint256)": {
        "details": "this function is only callable by the contract owner"
      },
      "updateCruiserSpecs(uint256,uint256,uint256)": {
        "details": "this function is only callable by the contract owner"
      },
      "updateLandingShipSpecs(uint256,uint256,uint256)": {
        "details": "this function is only callable by the contract owner"
      }
    },
    "title": "NavyContract",
    "version": 1
  },
  "userdoc": {
    "kind": "user",
    "methods": {
      "buyBattleship(uint256,uint256)": {
        "notice": "this function will allow a nation owner to purchase a battleship vessel"
      },
      "buyCorvette(uint256,uint256)": {
        "notice": "this function will allow a nation owner to purchase a corvette vessel"
      },
      "buyCruiser(uint256,uint256)": {
        "notice": "this function will allow a nation owner to purchase a cruiser vessel"
      },
      "buyLandingShip(uint256,uint256)": {
        "notice": "this function will allow a nation owner to purchase a landing ships vessel"
      },
      "decreaseNavyFromNukeContract(uint256)": {
        "notice": "this function will decrease the amount of ships that are vulnerable to nuclear attacks when a nation is attacked by a nuke strikevessels available to nuke strikes are corvettes, landing ships, cruisers and frigatesa nuke strike will reduce the number of these ships by 25% (12% with a fallout shelter system)"
      },
      "generateNavy(uint256)": {
        "notice": "this function will allow a nation owner to buy navy vessels"
      },
      "getBattleshipCount(uint256)": {
        "notice": "this functon will return the number of battleships a nation owns"
      },
      "getCorvetteCount(uint256)": {
        "notice": "this functon will return the number of corvettes a nation owns"
      },
      "getCruiserCount(uint256)": {
        "notice": "this functon will return the number of cruisers a nation owns"
      },
      "getLandingShipCount(uint256)": {
        "notice": "this functon will return the number of landing ships a nation owns"
      }
    },
    "notice": "this contract will allow a user to purchase navy vessels",
    "version": 1
  },
  "storageLayout": {
    "storage": [
      {
        "astId": 161,
        "contract": "contracts/Navy.sol:NavyContract",
        "label": "_owner",
        "offset": 0,
        "slot": "0",
        "type": "t_address"
      },
      {
        "astId": 277,
        "contract": "contracts/Navy.sol:NavyContract",
        "label": "_status",
        "offset": 0,
        "slot": "1",
        "type": "t_uint256"
      },
      {
        "astId": 42059,
        "contract": "contracts/Navy.sol:NavyContract",
        "label": "treasuryAddress",
        "offset": 0,
        "slot": "2",
        "type": "t_address"
      },
      {
        "astId": 42061,
        "contract": "contracts/Navy.sol:NavyContract",
        "label": "improvementsContract1Address",
        "offset": 0,
        "slot": "3",
        "type": "t_address"
      },
      {
        "astId": 42063,
        "contract": "contracts/Navy.sol:NavyContract",
        "label": "improvementsContract3Address",
        "offset": 0,
        "slot": "4",
        "type": "t_address"
      },
      {
        "astId": 42065,
        "contract": "contracts/Navy.sol:NavyContract",
        "label": "improvements4",
        "offset": 0,
        "slot": "5",
        "type": "t_address"
      },
      {
        "astId": 42067,
        "contract": "contracts/Navy.sol:NavyContract",
        "label": "resources",
        "offset": 0,
        "slot": "6",
        "type": "t_address"
      },
      {
        "astId": 42069,
        "contract": "contracts/Navy.sol:NavyContract",
        "label": "navyBattleAddress",
        "offset": 0,
        "slot": "7",
        "type": "t_address"
      },
      {
        "astId": 42071,
        "contract": "contracts/Navy.sol:NavyContract",
        "label": "military",
        "offset": 0,
        "slot": "8",
        "type": "t_address"
      },
      {
        "astId": 42073,
        "contract": "contracts/Navy.sol:NavyContract",
        "label": "nukes",
        "offset": 0,
        "slot": "9",
        "type": "t_address"
      },
      {
        "astId": 42075,
        "contract": "contracts/Navy.sol:NavyContract",
        "label": "wonders1",
        "offset": 0,
        "slot": "10",
        "type": "t_address"
      },
      {
        "astId": 42077,
        "contract": "contracts/Navy.sol:NavyContract",
        "label": "countryMinter",
        "offset": 0,
        "slot": "11",
        "type": "t_address"
      },
      {
        "astId": 42079,
        "contract": "contracts/Navy.sol:NavyContract",
        "label": "navalActions",
        "offset": 0,
        "slot": "12",
        "type": "t_address"
      },
      {
        "astId": 42081,
        "contract": "contracts/Navy.sol:NavyContract",
        "label": "additionalNavy",
        "offset": 0,
        "slot": "13",
        "type": "t_address"
      },
      {
        "astId": 42083,
        "contract": "contracts/Navy.sol:NavyContract",
        "label": "navy2Contract",
        "offset": 0,
        "slot": "14",
        "type": "t_address"
      },
      {
        "astId": 42085,
        "contract": "contracts/Navy.sol:NavyContract",
        "label": "bonusResources",
        "offset": 0,
        "slot": "15",
        "type": "t_address"
      },
      {
        "astId": 42087,
        "contract": "contracts/Navy.sol:NavyContract",
        "label": "infrastructure",
        "offset": 0,
        "slot": "16",
        "type": "t_address"
      },
      {
        "astId": 42095,
        "contract": "contracts/Navy.sol:NavyContract",
        "label": "corvetteCost",
        "offset": 0,
        "slot": "17",
        "type": "t_uint256"
      },
      {
        "astId": 42098,
        "contract": "contracts/Navy.sol:NavyContract",
        "label": "corvetteRequiredInfrastructure",
        "offset": 0,
        "slot": "18",
        "type": "t_uint256"
      },
      {
        "astId": 42101,
        "contract": "contracts/Navy.sol:NavyContract",
        "label": "corvetteRequiredTechnology",
        "offset": 0,
        "slot": "19",
        "type": "t_uint256"
      },
      {
        "astId": 42109,
        "contract": "contracts/Navy.sol:NavyContract",
        "label": "landingShipCost",
        "offset": 0,
        "slot": "20",
        "type": "t_uint256"
      },
      {
        "astId": 42112,
        "contract": "contracts/Navy.sol:NavyContract",
        "label": "landingShipRequiredInfrastructure",
        "offset": 0,
        "slot": "21",
        "type": "t_uint256"
      },
      {
        "astId": 42115,
        "contract": "contracts/Navy.sol:NavyContract",
        "label": "landingShipRequiredTechnology",
        "offset": 0,
        "slot": "22",
        "type": "t_uint256"
      },
      {
        "astId": 42123,
        "contract": "contracts/Navy.sol:NavyContract",
        "label": "battleshipCost",
        "offset": 0,
        "slot": "23",
        "type": "t_uint256"
      },
      {
        "astId": 42126,
        "contract": "contracts/Navy.sol:NavyContract",
        "label": "battleshipRequiredInfrastructure",
        "offset": 0,
        "slot": "24",
        "type": "t_uint256"
      },
      {
        "astId": 42129,
        "contract": "contracts/Navy.sol:NavyContract",
        "label": "battleshipRequiredTechnology",
        "offset": 0,
        "slot": "25",
        "type": "t_uint256"
      },
      {
        "astId": 42137,
        "contract": "contracts/Navy.sol:NavyContract",
        "label": "cruiserCost",
        "offset": 0,
        "slot": "26",
        "type": "t_uint256"
      },
      {
        "astId": 42140,
        "contract": "contracts/Navy.sol:NavyContract",
        "label": "cruiserRequiredInfrastructure",
        "offset": 0,
        "slot": "27",
        "type": "t_uint256"
      },
      {
        "astId": 42143,
        "contract": "contracts/Navy.sol:NavyContract",
        "label": "cruiserRequiredTechnology",
        "offset": 0,
        "slot": "28",
        "type": "t_uint256"
      },
      {
        "astId": 42159,
        "contract": "contracts/Navy.sol:NavyContract",
        "label": "idToNavy",
        "offset": 0,
        "slot": "29",
        "type": "t_mapping(t_uint256,t_struct(Navy)42154_storage)"
      },
      {
        "astId": 42230,
        "contract": "contracts/Navy.sol:NavyContract",
        "label": "res",
        "offset": 0,
        "slot": "30",
        "type": "t_contract(ResourcesContract)55726"
      },
      {
        "astId": 42233,
        "contract": "contracts/Navy.sol:NavyContract",
        "label": "mil",
        "offset": 0,
        "slot": "31",
        "type": "t_contract(MilitaryContract)39720"
      },
      {
        "astId": 42236,
        "contract": "contracts/Navy.sol:NavyContract",
        "label": "imp4",
        "offset": 0,
        "slot": "32",
        "type": "t_contract(ImprovementsContract4)33268"
      },
      {
        "astId": 42239,
        "contract": "contracts/Navy.sol:NavyContract",
        "label": "nuke",
        "offset": 0,
        "slot": "33",
        "type": "t_contract(NukeContract)52862"
      },
      {
        "astId": 42242,
        "contract": "contracts/Navy.sol:NavyContract",
        "label": "won1",
        "offset": 0,
        "slot": "34",
        "type": "t_contract(WondersContract1)69518"
      },
      {
        "astId": 42245,
        "contract": "contracts/Navy.sol:NavyContract",
        "label": "navAct",
        "offset": 0,
        "slot": "35",
        "type": "t_contract(NavalActionsContract)42052"
      },
      {
        "astId": 42248,
        "contract": "contracts/Navy.sol:NavyContract",
        "label": "mint",
        "offset": 0,
        "slot": "36",
        "type": "t_contract(CountryMinter)13651"
      },
      {
        "astId": 42251,
        "contract": "contracts/Navy.sol:NavyContract",
        "label": "addNav",
        "offset": 0,
        "slot": "37",
        "type": "t_contract(AdditionalNavyContract)46282"
      },
      {
        "astId": 42254,
        "contract": "contracts/Navy.sol:NavyContract",
        "label": "bonus",
        "offset": 0,
        "slot": "38",
        "type": "t_contract(BonusResourcesContract)56862"
      },
      {
        "astId": 42257,
        "contract": "contracts/Navy.sol:NavyContract",
        "label": "navy2",
        "offset": 0,
        "slot": "39",
        "type": "t_contract(NavyContract2)45419"
      },
      {
        "astId": 42260,
        "contract": "contracts/Navy.sol:NavyContract",
        "label": "inf",
        "offset": 0,
        "slot": "40",
        "type": "t_contract(InfrastructureContract)37280"
      }
    ],
    "types": {
      "t_address": {
        "encoding": "inplace",
        "label": "address",
        "numberOfBytes": "20"
      },
      "t_bool": {
        "encoding": "inplace",
        "label": "bool",
        "numberOfBytes": "1"
      },
      "t_contract(AdditionalNavyContract)46282": {
        "encoding": "inplace",
        "label": "contract AdditionalNavyContract",
        "numberOfBytes": "20"
      },
      "t_contract(BonusResourcesContract)56862": {
        "encoding": "inplace",
        "label": "contract BonusResourcesContract",
        "numberOfBytes": "20"
      },
      "t_contract(CountryMinter)13651": {
        "encoding": "inplace",
        "label": "contract CountryMinter",
        "numberOfBytes": "20"
      },
      "t_contract(ImprovementsContract4)33268": {
        "encoding": "inplace",
        "label": "contract ImprovementsContract4",
        "numberOfBytes": "20"
      },
      "t_contract(InfrastructureContract)37280": {
        "encoding": "inplace",
        "label": "contract InfrastructureContract",
        "numberOfBytes": "20"
      },
      "t_contract(MilitaryContract)39720": {
        "encoding": "inplace",
        "label": "contract MilitaryContract",
        "numberOfBytes": "20"
      },
      "t_contract(NavalActionsContract)42052": {
        "encoding": "inplace",
        "label": "contract NavalActionsContract",
        "numberOfBytes": "20"
      },
      "t_contract(NavyContract2)45419": {
        "encoding": "inplace",
        "label": "contract NavyContract2",
        "numberOfBytes": "20"
      },
      "t_contract(NukeContract)52862": {
        "encoding": "inplace",
        "label": "contract NukeContract",
        "numberOfBytes": "20"
      },
      "t_contract(ResourcesContract)55726": {
        "encoding": "inplace",
        "label": "contract ResourcesContract",
        "numberOfBytes": "20"
      },
      "t_contract(WondersContract1)69518": {
        "encoding": "inplace",
        "label": "contract WondersContract1",
        "numberOfBytes": "20"
      },
      "t_mapping(t_uint256,t_struct(Navy)42154_storage)": {
        "encoding": "mapping",
        "key": "t_uint256",
        "label": "mapping(uint256 => struct NavyContract.Navy)",
        "numberOfBytes": "32",
        "value": "t_struct(Navy)42154_storage"
      },
      "t_struct(Navy)42154_storage": {
        "encoding": "inplace",
        "label": "struct NavyContract.Navy",
        "members": [
          {
            "astId": 42145,
            "contract": "contracts/Navy.sol:NavyContract",
            "label": "initialized",
            "offset": 0,
            "slot": "0",
            "type": "t_bool"
          },
          {
            "astId": 42147,
            "contract": "contracts/Navy.sol:NavyContract",
            "label": "corvetteCount",
            "offset": 0,
            "slot": "1",
            "type": "t_uint256"
          },
          {
            "astId": 42149,
            "contract": "contracts/Navy.sol:NavyContract",
            "label": "landingShipCount",
            "offset": 0,
            "slot": "2",
            "type": "t_uint256"
          },
          {
            "astId": 42151,
            "contract": "contracts/Navy.sol:NavyContract",
            "label": "battleshipCount",
            "offset": 0,
            "slot": "3",
            "type": "t_uint256"
          },
          {
            "astId": 42153,
            "contract": "contracts/Navy.sol:NavyContract",
            "label": "cruiserCount",
            "offset": 0,
            "slot": "4",
            "type": "t_uint256"
          }
        ],
        "numberOfBytes": "160"
      },
      "t_uint256": {
        "encoding": "inplace",
        "label": "uint256",
        "numberOfBytes": "32"
      }
    }
  }
}