{
  "address": "0xCf7Ed3AccA5a467e9e704C703E8D87F634fB0Fc9",
  "abi": [
    {
      "inputs": [
        {
          "internalType": "uint256",
          "name": "initialSupply",
          "type": "uint256"
        }
      ],
      "stateMutability": "nonpayable",
      "type": "constructor"
    },
    {
      "anonymous": false,
      "inputs": [
        {
          "indexed": true,
          "internalType": "address",
          "name": "owner",
          "type": "address"
        },
        {
          "indexed": true,
          "internalType": "address",
          "name": "spender",
          "type": "address"
        },
        {
          "indexed": false,
          "internalType": "uint256",
          "name": "value",
          "type": "uint256"
        }
      ],
      "name": "Approval",
      "type": "event"
    },
    {
      "anonymous": false,
      "inputs": [
        {
          "indexed": true,
          "internalType": "address",
          "name": "previousOwner",
          "type": "address"
        },
        {
          "indexed": true,
          "internalType": "address",
          "name": "newOwner",
          "type": "address"
        }
      ],
      "name": "OwnershipTransferred",
      "type": "event"
    },
    {
      "anonymous": false,
      "inputs": [
        {
          "indexed": true,
          "internalType": "address",
          "name": "from",
          "type": "address"
        },
        {
          "indexed": true,
          "internalType": "address",
          "name": "to",
          "type": "address"
        },
        {
          "indexed": false,
          "internalType": "uint256",
          "name": "value",
          "type": "uint256"
        }
      ],
      "name": "Transfer",
      "type": "event"
    },
    {
      "inputs": [
        {
          "internalType": "address",
          "name": "owner",
          "type": "address"
        },
        {
          "internalType": "address",
          "name": "spender",
          "type": "address"
        }
      ],
      "name": "allowance",
      "outputs": [
        {
          "internalType": "uint256",
          "name": "",
          "type": "uint256"
        }
      ],
      "stateMutability": "view",
      "type": "function"
    },
    {
      "inputs": [
        {
          "internalType": "address",
          "name": "spender",
          "type": "address"
        },
        {
          "internalType": "uint256",
          "name": "amount",
          "type": "uint256"
        }
      ],
      "name": "approve",
      "outputs": [
        {
          "internalType": "bool",
          "name": "",
          "type": "bool"
        }
      ],
      "stateMutability": "nonpayable",
      "type": "function"
    },
    {
      "inputs": [
        {
          "internalType": "address",
          "name": "account",
          "type": "address"
        }
      ],
      "name": "balanceOf",
      "outputs": [
        {
          "internalType": "uint256",
          "name": "",
          "type": "uint256"
        }
      ],
      "stateMutability": "view",
      "type": "function"
    },
    {
      "inputs": [
        {
          "internalType": "address",
          "name": "account",
          "type": "address"
        },
        {
          "internalType": "uint256",
          "name": "amount",
          "type": "uint256"
        }
      ],
      "name": "burn",
      "outputs": [],
      "stateMutability": "nonpayable",
      "type": "function"
    },
    {
      "inputs": [
        {
          "internalType": "address",
          "name": "account",
          "type": "address"
        },
        {
          "internalType": "uint256",
          "name": "amount",
          "type": "uint256"
        }
      ],
      "name": "burnFromMint",
      "outputs": [],
      "stateMutability": "nonpayable",
      "type": "function"
    },
    {
      "inputs": [
        {
          "internalType": "address",
          "name": "account",
          "type": "address"
        },
        {
          "internalType": "uint256",
          "name": "amount",
          "type": "uint256"
        }
      ],
      "name": "burnFromTreasury",
      "outputs": [],
      "stateMutability": "nonpayable",
      "type": "function"
    },
    {
      "inputs": [],
      "name": "decimals",
      "outputs": [
        {
          "internalType": "uint8",
          "name": "",
          "type": "uint8"
        }
      ],
      "stateMutability": "view",
      "type": "function"
    },
    {
      "inputs": [
        {
          "internalType": "address",
          "name": "spender",
          "type": "address"
        },
        {
          "internalType": "uint256",
          "name": "subtractedValue",
          "type": "uint256"
        }
      ],
      "name": "decreaseAllowance",
      "outputs": [
        {
          "internalType": "bool",
          "name": "",
          "type": "bool"
        }
      ],
      "stateMutability": "nonpayable",
      "type": "function"
    },
    {
      "inputs": [
        {
          "internalType": "address",
          "name": "spender",
          "type": "address"
        },
        {
          "internalType": "uint256",
          "name": "addedValue",
          "type": "uint256"
        }
      ],
      "name": "increaseAllowance",
      "outputs": [
        {
          "internalType": "bool",
          "name": "",
          "type": "bool"
        }
      ],
      "stateMutability": "nonpayable",
      "type": "function"
    },
    {
      "inputs": [
        {
          "internalType": "address",
          "name": "account",
          "type": "address"
        },
        {
          "internalType": "uint256",
          "name": "amount",
          "type": "uint256"
        }
      ],
      "name": "mint",
      "outputs": [],
      "stateMutability": "nonpayable",
      "type": "function"
    },
    {
      "inputs": [
        {
          "internalType": "address",
          "name": "account",
          "type": "address"
        },
        {
          "internalType": "uint256",
          "name": "amount",
          "type": "uint256"
        }
      ],
      "name": "mintFromTreasury",
      "outputs": [],
      "stateMutability": "nonpayable",
      "type": "function"
    },
    {
      "inputs": [],
      "name": "name",
      "outputs": [
        {
          "internalType": "string",
          "name": "",
          "type": "string"
        }
      ],
      "stateMutability": "view",
      "type": "function"
    },
    {
      "inputs": [],
      "name": "owner",
      "outputs": [
        {
          "internalType": "address",
          "name": "",
          "type": "address"
        }
      ],
      "stateMutability": "view",
      "type": "function"
    },
    {
      "inputs": [],
      "name": "renounceOwnership",
      "outputs": [],
      "stateMutability": "nonpayable",
      "type": "function"
    },
    {
      "inputs": [
        {
          "internalType": "address",
          "name": "_treasury",
          "type": "address"
        },
        {
          "internalType": "address",
          "name": "_countryMinter",
          "type": "address"
        }
      ],
      "name": "settings",
      "outputs": [],
      "stateMutability": "nonpayable",
      "type": "function"
    },
    {
      "inputs": [],
      "name": "symbol",
      "outputs": [
        {
          "internalType": "string",
          "name": "",
          "type": "string"
        }
      ],
      "stateMutability": "view",
      "type": "function"
    },
    {
      "inputs": [],
      "name": "totalSupply",
      "outputs": [
        {
          "internalType": "uint256",
          "name": "",
          "type": "uint256"
        }
      ],
      "stateMutability": "view",
      "type": "function"
    },
    {
      "inputs": [
        {
          "internalType": "address",
          "name": "to",
          "type": "address"
        },
        {
          "internalType": "uint256",
          "name": "amount",
          "type": "uint256"
        }
      ],
      "name": "transfer",
      "outputs": [
        {
          "internalType": "bool",
          "name": "",
          "type": "bool"
        }
      ],
      "stateMutability": "nonpayable",
      "type": "function"
    },
    {
      "inputs": [
        {
          "internalType": "address",
          "name": "from",
          "type": "address"
        },
        {
          "internalType": "address",
          "name": "to",
          "type": "address"
        },
        {
          "internalType": "uint256",
          "name": "amount",
          "type": "uint256"
        }
      ],
      "name": "transferFrom",
      "outputs": [
        {
          "internalType": "bool",
          "name": "",
          "type": "bool"
        }
      ],
      "stateMutability": "nonpayable",
      "type": "function"
    },
    {
      "inputs": [
        {
          "internalType": "address",
          "name": "newOwner",
          "type": "address"
        }
      ],
      "name": "transferOwnership",
      "outputs": [],
      "stateMutability": "nonpayable",
      "type": "function"
    }
  ],
  "transactionHash": "0xb7b97f81bba3179ba225ab0eb9919af9addd2d32508c55a7f9a45a722e56a7ac",
  "args": [
    "200000000000000000000000000000"
  ],
  "numDeployments": 1,
  "solcInputHash": "181da4c0198067f907db293cc5fa5acc",
  "bytecode": "0x60806040523480156200001157600080fd5b506040516200277138038062002771833981810160405281019062000037919062000387565b6040518060400160405280600881526020017f5761724275636b730000000000000000000000000000000000000000000000008152506040518060400160405280600381526020017f57425800000000000000000000000000000000000000000000000000000000008152508160039081620000b4919062000629565b508060049081620000c6919062000629565b505050620000e9620000dd6200010260201b60201c565b6200010a60201b60201c565b620000fb3382620001d060201b60201c565b506200082b565b600033905090565b6000600560009054906101000a900473ffffffffffffffffffffffffffffffffffffffff16905081600560006101000a81548173ffffffffffffffffffffffffffffffffffffffff021916908373ffffffffffffffffffffffffffffffffffffffff1602179055508173ffffffffffffffffffffffffffffffffffffffff168173ffffffffffffffffffffffffffffffffffffffff167f8be0079c531659141344cd1fd0a4f28419497f9722a3daafe3b4186f6b6457e060405160405180910390a35050565b600073ffffffffffffffffffffffffffffffffffffffff168273ffffffffffffffffffffffffffffffffffffffff160362000242576040517f08c379a0000000000000000000000000000000000000000000000000000000008152600401620002399062000771565b60405180910390fd5b62000256600083836200033d60201b60201c565b80600260008282546200026a9190620007c2565b92505081905550806000808473ffffffffffffffffffffffffffffffffffffffff1673ffffffffffffffffffffffffffffffffffffffff168152602001908152602001600020600082825401925050819055508173ffffffffffffffffffffffffffffffffffffffff16600073ffffffffffffffffffffffffffffffffffffffff167fddf252ad1be2c89b69c2b068fc378daa952ba7f163c4a11628f55a4df523b3ef836040516200031d91906200080e565b60405180910390a362000339600083836200034260201b60201c565b5050565b505050565b505050565b600080fd5b6000819050919050565b62000361816200034c565b81146200036d57600080fd5b50565b600081519050620003818162000356565b92915050565b600060208284031215620003a0576200039f62000347565b5b6000620003b08482850162000370565b91505092915050565b600081519050919050565b7f4e487b7100000000000000000000000000000000000000000000000000000000600052604160045260246000fd5b7f4e487b7100000000000000000000000000000000000000000000000000000000600052602260045260246000fd5b600060028204905060018216806200043b57607f821691505b602082108103620004515762000450620003f3565b5b50919050565b60008190508160005260206000209050919050565b60006020601f8301049050919050565b600082821b905092915050565b600060088302620004bb7fffffffffffffffffffffffffffffffffffffffffffffffffffffffffffffffff826200047c565b620004c786836200047c565b95508019841693508086168417925050509392505050565b6000819050919050565b60006200050a62000504620004fe846200034c565b620004df565b6200034c565b9050919050565b6000819050919050565b6200052683620004e9565b6200053e620005358262000511565b84845462000489565b825550505050565b600090565b6200055562000546565b620005628184846200051b565b505050565b5b818110156200058a576200057e6000826200054b565b60018101905062000568565b5050565b601f821115620005d957620005a38162000457565b620005ae846200046c565b81016020851015620005be578190505b620005d6620005cd856200046c565b83018262000567565b50505b505050565b600082821c905092915050565b6000620005fe60001984600802620005de565b1980831691505092915050565b6000620006198383620005eb565b9150826002028217905092915050565b6200063482620003b9565b67ffffffffffffffff81111562000650576200064f620003c4565b5b6200065c825462000422565b620006698282856200058e565b600060209050601f831160018114620006a157600084156200068c578287015190505b6200069885826200060b565b86555062000708565b601f198416620006b18662000457565b60005b82811015620006db57848901518255600182019150602085019450602081019050620006b4565b86831015620006fb5784890151620006f7601f891682620005eb565b8355505b6001600288020188555050505b505050505050565b600082825260208201905092915050565b7f45524332303a206d696e7420746f20746865207a65726f206164647265737300600082015250565b600062000759601f8362000710565b9150620007668262000721565b602082019050919050565b600060208201905081810360008301526200078c816200074a565b9050919050565b7f4e487b7100000000000000000000000000000000000000000000000000000000600052601160045260246000fd5b6000620007cf826200034c565b9150620007dc836200034c565b9250828201905080821115620007f757620007f662000793565b5b92915050565b62000808816200034c565b82525050565b6000602082019050620008256000830184620007fd565b92915050565b611f36806200083b6000396000f3fe608060405234801561001057600080fd5b506004361061012c5760003560e01c80638da5cb5b116100ad578063da08bcbd11610071578063da08bcbd14610345578063dd62ed3e14610361578063f2fde38b14610391578063f7032f72146103ad578063f86a05be146103c95761012c565b80638da5cb5b1461028d57806395d89b41146102ab5780639dc29fac146102c9578063a457c2d7146102e5578063a9059cbb146103155761012c565b806339509351116100f457806339509351146101eb57806340c10f191461021b5780636bdfca9b1461023757806370a0823114610253578063715018a6146102835761012c565b806306fdde0314610131578063095ea7b31461014f57806318160ddd1461017f57806323b872dd1461019d578063313ce567146101cd575b600080fd5b6101396103e5565b6040516101469190611437565b60405180910390f35b610169600480360381019061016491906114f2565b610477565b604051610176919061154d565b60405180910390f35b61018761049a565b6040516101949190611577565b60405180910390f35b6101b760048036038101906101b29190611592565b6104a4565b6040516101c4919061154d565b60405180910390f35b6101d56104d3565b6040516101e29190611601565b60405180910390f35b610205600480360381019061020091906114f2565b6104dc565b604051610212919061154d565b60405180910390f35b610235600480360381019061023091906114f2565b610513565b005b610251600480360381019061024c91906114f2565b610529565b005b61026d6004803603810190610268919061161c565b6105c7565b60405161027a9190611577565b60405180910390f35b61028b61060f565b005b610295610623565b6040516102a29190611658565b60405180910390f35b6102b361064d565b6040516102c09190611437565b60405180910390f35b6102e360048036038101906102de91906114f2565b6106df565b005b6102ff60048036038101906102fa91906114f2565b6106f5565b60405161030c919061154d565b60405180910390f35b61032f600480360381019061032a91906114f2565b61076c565b60405161033c919061154d565b60405180910390f35b61035f600480360381019061035a91906114f2565b61078f565b005b61037b60048036038101906103769190611673565b61082d565b6040516103889190611577565b60405180910390f35b6103ab60048036038101906103a6919061161c565b6108b4565b005b6103c760048036038101906103c291906114f2565b610937565b005b6103e360048036038101906103de9190611673565b6109d5565b005b6060600380546103f4906116e2565b80601f0160208091040260200160405190810160405280929190818152602001828054610420906116e2565b801561046d5780601f106104425761010080835404028352916020019161046d565b820191906000526020600020905b81548152906001019060200180831161045057829003601f168201915b5050505050905090565b600080610482610a63565b905061048f818585610a6b565b600191505092915050565b6000600254905090565b6000806104af610a63565b90506104bc858285610c34565b6104c7858585610cc0565b60019150509392505050565b60006012905090565b6000806104e7610a63565b90506105088185856104f9858961082d565b6105039190611742565b610a6b565b600191505092915050565b61051b610f36565b6105258282610fb4565b5050565b600660009054906101000a900473ffffffffffffffffffffffffffffffffffffffff1673ffffffffffffffffffffffffffffffffffffffff163373ffffffffffffffffffffffffffffffffffffffff16146105b9576040517f08c379a00000000000000000000000000000000000000000000000000000000081526004016105b0906117e8565b60405180910390fd5b6105c3828261110a565b5050565b60008060008373ffffffffffffffffffffffffffffffffffffffff1673ffffffffffffffffffffffffffffffffffffffff168152602001908152602001600020549050919050565b610617610f36565b61062160006112d7565b565b6000600560009054906101000a900473ffffffffffffffffffffffffffffffffffffffff16905090565b60606004805461065c906116e2565b80601f0160208091040260200160405190810160405280929190818152602001828054610688906116e2565b80156106d55780601f106106aa576101008083540402835291602001916106d5565b820191906000526020600020905b8154815290600101906020018083116106b857829003601f168201915b5050505050905090565b6106e7610f36565b6106f1828261110a565b5050565b600080610700610a63565b9050600061070e828661082d565b905083811015610753576040517f08c379a000000000000000000000000000000000000000000000000000000000815260040161074a9061187a565b60405180910390fd5b6107608286868403610a6b565b60019250505092915050565b600080610777610a63565b9050610784818585610cc0565b600191505092915050565b600660009054906101000a900473ffffffffffffffffffffffffffffffffffffffff1673ffffffffffffffffffffffffffffffffffffffff163373ffffffffffffffffffffffffffffffffffffffff161461081f576040517f08c379a0000000000000000000000000000000000000000000000000000000008152600401610816906117e8565b60405180910390fd5b6108298282610fb4565b5050565b6000600160008473ffffffffffffffffffffffffffffffffffffffff1673ffffffffffffffffffffffffffffffffffffffff16815260200190815260200160002060008373ffffffffffffffffffffffffffffffffffffffff1673ffffffffffffffffffffffffffffffffffffffff16815260200190815260200160002054905092915050565b6108bc610f36565b600073ffffffffffffffffffffffffffffffffffffffff168173ffffffffffffffffffffffffffffffffffffffff160361092b576040517f08c379a00000000000000000000000000000000000000000000000000000000081526004016109229061190c565b60405180910390fd5b610934816112d7565b50565b600760009054906101000a900473ffffffffffffffffffffffffffffffffffffffff1673ffffffffffffffffffffffffffffffffffffffff163373ffffffffffffffffffffffffffffffffffffffff16146109c7576040517f08c379a00000000000000000000000000000000000000000000000000000000081526004016109be9061199e565b60405180910390fd5b6109d1828261110a565b5050565b6109dd610f36565b81600660006101000a81548173ffffffffffffffffffffffffffffffffffffffff021916908373ffffffffffffffffffffffffffffffffffffffff16021790555080600760006101000a81548173ffffffffffffffffffffffffffffffffffffffff021916908373ffffffffffffffffffffffffffffffffffffffff1602179055505050565b600033905090565b600073ffffffffffffffffffffffffffffffffffffffff168373ffffffffffffffffffffffffffffffffffffffff1603610ada576040517f08c379a0000000000000000000000000000000000000000000000000000000008152600401610ad190611a30565b60405180910390fd5b600073ffffffffffffffffffffffffffffffffffffffff168273ffffffffffffffffffffffffffffffffffffffff1603610b49576040517f08c379a0000000000000000000000000000000000000000000000000000000008152600401610b4090611ac2565b60405180910390fd5b80600160008573ffffffffffffffffffffffffffffffffffffffff1673ffffffffffffffffffffffffffffffffffffffff16815260200190815260200160002060008473ffffffffffffffffffffffffffffffffffffffff1673ffffffffffffffffffffffffffffffffffffffff168152602001908152602001600020819055508173ffffffffffffffffffffffffffffffffffffffff168373ffffffffffffffffffffffffffffffffffffffff167f8c5be1e5ebec7d5bd14f71427d1e84f3dd0314c0f7b2291e5b200ac8c7c3b92583604051610c279190611577565b60405180910390a3505050565b6000610c40848461082d565b90507fffffffffffffffffffffffffffffffffffffffffffffffffffffffffffffffff8114610cba5781811015610cac576040517f08c379a0000000000000000000000000000000000000000000000000000000008152600401610ca390611b2e565b60405180910390fd5b610cb98484848403610a6b565b5b50505050565b600073ffffffffffffffffffffffffffffffffffffffff168373ffffffffffffffffffffffffffffffffffffffff1603610d2f576040517f08c379a0000000000000000000000000000000000000000000000000000000008152600401610d2690611bc0565b60405180910390fd5b600073ffffffffffffffffffffffffffffffffffffffff168273ffffffffffffffffffffffffffffffffffffffff1603610d9e576040517f08c379a0000000000000000000000000000000000000000000000000000000008152600401610d9590611c52565b60405180910390fd5b610da983838361139d565b60008060008573ffffffffffffffffffffffffffffffffffffffff1673ffffffffffffffffffffffffffffffffffffffff16815260200190815260200160002054905081811015610e2f576040517f08c379a0000000000000000000000000000000000000000000000000000000008152600401610e2690611ce4565b60405180910390fd5b8181036000808673ffffffffffffffffffffffffffffffffffffffff1673ffffffffffffffffffffffffffffffffffffffff16815260200190815260200160002081905550816000808573ffffffffffffffffffffffffffffffffffffffff1673ffffffffffffffffffffffffffffffffffffffff168152602001908152602001600020600082825401925050819055508273ffffffffffffffffffffffffffffffffffffffff168473ffffffffffffffffffffffffffffffffffffffff167fddf252ad1be2c89b69c2b068fc378daa952ba7f163c4a11628f55a4df523b3ef84604051610f1d9190611577565b60405180910390a3610f308484846113a2565b50505050565b610f3e610a63565b73ffffffffffffffffffffffffffffffffffffffff16610f5c610623565b73ffffffffffffffffffffffffffffffffffffffff1614610fb2576040517f08c379a0000000000000000000000000000000000000000000000000000000008152600401610fa990611d50565b60405180910390fd5b565b600073ffffffffffffffffffffffffffffffffffffffff168273ffffffffffffffffffffffffffffffffffffffff1603611023576040517f08c379a000000000000000000000000000000000000000000000000000000000815260040161101a90611dbc565b60405180910390fd5b61102f6000838361139d565b80600260008282546110419190611742565b92505081905550806000808473ffffffffffffffffffffffffffffffffffffffff1673ffffffffffffffffffffffffffffffffffffffff168152602001908152602001600020600082825401925050819055508173ffffffffffffffffffffffffffffffffffffffff16600073ffffffffffffffffffffffffffffffffffffffff167fddf252ad1be2c89b69c2b068fc378daa952ba7f163c4a11628f55a4df523b3ef836040516110f29190611577565b60405180910390a3611106600083836113a2565b5050565b600073ffffffffffffffffffffffffffffffffffffffff168273ffffffffffffffffffffffffffffffffffffffff1603611179576040517f08c379a000000000000000000000000000000000000000000000000000000000815260040161117090611e4e565b60405180910390fd5b6111858260008361139d565b60008060008473ffffffffffffffffffffffffffffffffffffffff1673ffffffffffffffffffffffffffffffffffffffff1681526020019081526020016000205490508181101561120b576040517f08c379a000000000000000000000000000000000000000000000000000000000815260040161120290611ee0565b60405180910390fd5b8181036000808573ffffffffffffffffffffffffffffffffffffffff1673ffffffffffffffffffffffffffffffffffffffff1681526020019081526020016000208190555081600260008282540392505081905550600073ffffffffffffffffffffffffffffffffffffffff168373ffffffffffffffffffffffffffffffffffffffff167fddf252ad1be2c89b69c2b068fc378daa952ba7f163c4a11628f55a4df523b3ef846040516112be9190611577565b60405180910390a36112d2836000846113a2565b505050565b6000600560009054906101000a900473ffffffffffffffffffffffffffffffffffffffff16905081600560006101000a81548173ffffffffffffffffffffffffffffffffffffffff021916908373ffffffffffffffffffffffffffffffffffffffff1602179055508173ffffffffffffffffffffffffffffffffffffffff168173ffffffffffffffffffffffffffffffffffffffff167f8be0079c531659141344cd1fd0a4f28419497f9722a3daafe3b4186f6b6457e060405160405180910390a35050565b505050565b505050565b600081519050919050565b600082825260208201905092915050565b60005b838110156113e15780820151818401526020810190506113c6565b60008484015250505050565b6000601f19601f8301169050919050565b6000611409826113a7565b61141381856113b2565b93506114238185602086016113c3565b61142c816113ed565b840191505092915050565b6000602082019050818103600083015261145181846113fe565b905092915050565b600080fd5b600073ffffffffffffffffffffffffffffffffffffffff82169050919050565b60006114898261145e565b9050919050565b6114998161147e565b81146114a457600080fd5b50565b6000813590506114b681611490565b92915050565b6000819050919050565b6114cf816114bc565b81146114da57600080fd5b50565b6000813590506114ec816114c6565b92915050565b6000806040838503121561150957611508611459565b5b6000611517858286016114a7565b9250506020611528858286016114dd565b9150509250929050565b60008115159050919050565b61154781611532565b82525050565b6000602082019050611562600083018461153e565b92915050565b611571816114bc565b82525050565b600060208201905061158c6000830184611568565b92915050565b6000806000606084860312156115ab576115aa611459565b5b60006115b9868287016114a7565b93505060206115ca868287016114a7565b92505060406115db868287016114dd565b9150509250925092565b600060ff82169050919050565b6115fb816115e5565b82525050565b600060208201905061161660008301846115f2565b92915050565b60006020828403121561163257611631611459565b5b6000611640848285016114a7565b91505092915050565b6116528161147e565b82525050565b600060208201905061166d6000830184611649565b92915050565b6000806040838503121561168a57611689611459565b5b6000611698858286016114a7565b92505060206116a9858286016114a7565b9150509250929050565b7f4e487b7100000000000000000000000000000000000000000000000000000000600052602260045260246000fd5b600060028204905060018216806116fa57607f821691505b60208210810361170d5761170c6116b3565b5b50919050565b7f4e487b7100000000000000000000000000000000000000000000000000000000600052601160045260246000fd5b600061174d826114bc565b9150611758836114bc565b92508282019050808211156117705761176f611713565b5b92915050565b7f66756e6374696f6e206f6e6c792063616c6c61626c652066726f6d207472656160008201527f7375727920636f6e747261637400000000000000000000000000000000000000602082015250565b60006117d2602d836113b2565b91506117dd82611776565b604082019050919050565b60006020820190508181036000830152611801816117c5565b9050919050565b7f45524332303a2064656372656173656420616c6c6f77616e63652062656c6f7760008201527f207a65726f000000000000000000000000000000000000000000000000000000602082015250565b60006118646025836113b2565b915061186f82611808565b604082019050919050565b6000602082019050818103600083015261189381611857565b9050919050565b7f4f776e61626c653a206e6577206f776e657220697320746865207a65726f206160008201527f6464726573730000000000000000000000000000000000000000000000000000602082015250565b60006118f66026836113b2565b91506119018261189a565b604082019050919050565b60006020820190508181036000830152611925816118e9565b9050919050565b7f66756e6374696f6e206f6e6c792063616c6c61626c652066726f6d20636f756e60008201527f7472794d696e74657220636f6e74726163740000000000000000000000000000602082015250565b60006119886032836113b2565b91506119938261192c565b604082019050919050565b600060208201905081810360008301526119b78161197b565b9050919050565b7f45524332303a20617070726f76652066726f6d20746865207a65726f2061646460008201527f7265737300000000000000000000000000000000000000000000000000000000602082015250565b6000611a1a6024836113b2565b9150611a25826119be565b604082019050919050565b60006020820190508181036000830152611a4981611a0d565b9050919050565b7f45524332303a20617070726f766520746f20746865207a65726f20616464726560008201527f7373000000000000000000000000000000000000000000000000000000000000602082015250565b6000611aac6022836113b2565b9150611ab782611a50565b604082019050919050565b60006020820190508181036000830152611adb81611a9f565b9050919050565b7f45524332303a20696e73756666696369656e7420616c6c6f77616e6365000000600082015250565b6000611b18601d836113b2565b9150611b2382611ae2565b602082019050919050565b60006020820190508181036000830152611b4781611b0b565b9050919050565b7f45524332303a207472616e736665722066726f6d20746865207a65726f20616460008201527f6472657373000000000000000000000000000000000000000000000000000000602082015250565b6000611baa6025836113b2565b9150611bb582611b4e565b604082019050919050565b60006020820190508181036000830152611bd981611b9d565b9050919050565b7f45524332303a207472616e7366657220746f20746865207a65726f206164647260008201527f6573730000000000000000000000000000000000000000000000000000000000602082015250565b6000611c3c6023836113b2565b9150611c4782611be0565b604082019050919050565b60006020820190508181036000830152611c6b81611c2f565b9050919050565b7f45524332303a207472616e7366657220616d6f756e742065786365656473206260008201527f616c616e63650000000000000000000000000000000000000000000000000000602082015250565b6000611cce6026836113b2565b9150611cd982611c72565b604082019050919050565b60006020820190508181036000830152611cfd81611cc1565b9050919050565b7f4f776e61626c653a2063616c6c6572206973206e6f7420746865206f776e6572600082015250565b6000611d3a6020836113b2565b9150611d4582611d04565b602082019050919050565b60006020820190508181036000830152611d6981611d2d565b9050919050565b7f45524332303a206d696e7420746f20746865207a65726f206164647265737300600082015250565b6000611da6601f836113b2565b9150611db182611d70565b602082019050919050565b60006020820190508181036000830152611dd581611d99565b9050919050565b7f45524332303a206275726e2066726f6d20746865207a65726f2061646472657360008201527f7300000000000000000000000000000000000000000000000000000000000000602082015250565b6000611e386021836113b2565b9150611e4382611ddc565b604082019050919050565b60006020820190508181036000830152611e6781611e2b565b9050919050565b7f45524332303a206275726e20616d6f756e7420657863656564732062616c616e60008201527f6365000000000000000000000000000000000000000000000000000000000000602082015250565b6000611eca6022836113b2565b9150611ed582611e6e565b604082019050919050565b60006020820190508181036000830152611ef981611ebd565b905091905056fea2646970667358221220fe111ebdcf876d5466cb3c6c7ecb48737ff67be91162d0074b49aaa0eccc68dd64736f6c63430008110033",
  "devdoc": {
    "author": "OxSnosh",
    "details": "This is the contact for the currency used to purchase items in the gameInherits from OpenZeppelin ERC20 and OwnableThe deployer of the contract will be the owner",
    "kind": "dev",
    "methods": {
      "allowance(address,address)": {
        "details": "See {IERC20-allowance}."
      },
      "approve(address,uint256)": {
        "details": "See {IERC20-approve}. NOTE: If `amount` is the maximum `uint256`, the allowance is not updated on `transferFrom`. This is semantically equivalent to an infinite approval. Requirements: - `spender` cannot be the zero address."
      },
      "balanceOf(address)": {
        "details": "See {IERC20-balanceOf}."
      },
      "burnFromTreasury(address,uint256)": {
        "details": "This function can only be called from the treasury contractThis function enables a nation owner to deposit in game balance into a nation and burn a corresponding amount of WarBucks tokens into a nations walletWarBucks has 18 decimals as does the in game balance",
        "params": {
          "account": "this is the address of the nation owner and the wallet where the tokens are being burned",
          "amount": "is the amount of tokens being burned"
        }
      },
      "constructor": {
        "details": "The initial supply is minted to the deployer of the contract",
        "params": {
          "initialSupply": "is the inital supply of WarBucks currency"
        }
      },
      "decimals()": {
        "details": "Returns the number of decimals used to get its user representation. For example, if `decimals` equals `2`, a balance of `505` tokens should be displayed to a user as `5.05` (`505 / 10 ** 2`). Tokens usually opt for a value of 18, imitating the relationship between Ether and Wei. This is the default value returned by this function, unless it's overridden. NOTE: This information is only used for _display_ purposes: it in no way affects any of the arithmetic of the contract, including {IERC20-balanceOf} and {IERC20-transfer}."
      },
      "decreaseAllowance(address,uint256)": {
        "details": "Atomically decreases the allowance granted to `spender` by the caller. This is an alternative to {approve} that can be used as a mitigation for problems described in {IERC20-approve}. Emits an {Approval} event indicating the updated allowance. Requirements: - `spender` cannot be the zero address. - `spender` must have allowance for the caller of at least `subtractedValue`."
      },
      "increaseAllowance(address,uint256)": {
        "details": "Atomically increases the allowance granted to `spender` by the caller. This is an alternative to {approve} that can be used as a mitigation for problems described in {IERC20-approve}. Emits an {Approval} event indicating the updated allowance. Requirements: - `spender` cannot be the zero address."
      },
      "mintFromTreasury(address,uint256)": {
        "details": "This function can only be called from the treasury contractThis function enables a nation owner to withdraw in game balance from the treasury contract and mint a corresponding amount of WarBucks tokens into a nations wallet WarBucks has 18 decimals as does the in game balance",
        "params": {
          "account": "this is the address of the nation owner and the wallet where the tokens are being minted",
          "amount": "is the amount of tokens being burned"
        }
      },
      "name()": {
        "details": "Returns the name of the token."
      },
      "owner()": {
        "details": "Returns the address of the current owner."
      },
      "renounceOwnership()": {
        "details": "Leaves the contract without owner. It will not be possible to call `onlyOwner` functions. Can only be called by the current owner. NOTE: Renouncing ownership will leave the contract without an owner, thereby disabling any functionality that is only available to the owner."
      },
      "settings(address,address)": {
        "details": "This function is called by the owner after deployment in order to update the treasury contract address for the onlyTreasury modifer",
        "params": {
          "_countryMinter": "is the address of the countryMinter contract",
          "_treasury": "is the address of the treasury contract"
        }
      },
      "symbol()": {
        "details": "Returns the symbol of the token, usually a shorter version of the name."
      },
      "totalSupply()": {
        "details": "See {IERC20-totalSupply}."
      },
      "transfer(address,uint256)": {
        "details": "See {IERC20-transfer}. Requirements: - `to` cannot be the zero address. - the caller must have a balance of at least `amount`."
      },
      "transferFrom(address,address,uint256)": {
        "details": "See {IERC20-transferFrom}. Emits an {Approval} event indicating the updated allowance. This is not required by the EIP. See the note at the beginning of {ERC20}. NOTE: Does not update the allowance if the current allowance is the maximum `uint256`. Requirements: - `from` and `to` cannot be the zero address. - `from` must have a balance of at least `amount`. - the caller must have allowance for ``from``'s tokens of at least `amount`."
      },
      "transferOwnership(address)": {
        "details": "Transfers ownership of the contract to a new account (`newOwner`). Can only be called by the current owner."
      }
    },
    "title": "ERC20 Contract WarBucks",
    "version": 1
  },
  "userdoc": {
    "kind": "user",
    "methods": {
      "burnFromTreasury(address,uint256)": {
        "notice": "This function will burn tokens when they are deposited into a nation. For every token burned, a nations in game balance will increase +1"
      }
    },
    "version": 1
  },
  "storageLayout": {
    "storage": [
      {
        "astId": 3386,
        "contract": "contracts/WarBucks.sol:WarBucks",
        "label": "_balances",
        "offset": 0,
        "slot": "0",
        "type": "t_mapping(t_address,t_uint256)"
      },
      {
        "astId": 3392,
        "contract": "contracts/WarBucks.sol:WarBucks",
        "label": "_allowances",
        "offset": 0,
        "slot": "1",
        "type": "t_mapping(t_address,t_mapping(t_address,t_uint256))"
      },
      {
        "astId": 3394,
        "contract": "contracts/WarBucks.sol:WarBucks",
        "label": "_totalSupply",
        "offset": 0,
        "slot": "2",
        "type": "t_uint256"
      },
      {
        "astId": 3396,
        "contract": "contracts/WarBucks.sol:WarBucks",
        "label": "_name",
        "offset": 0,
        "slot": "3",
        "type": "t_string_storage"
      },
      {
        "astId": 3398,
        "contract": "contracts/WarBucks.sol:WarBucks",
        "label": "_symbol",
        "offset": 0,
        "slot": "4",
        "type": "t_string_storage"
      },
      {
        "astId": 3200,
        "contract": "contracts/WarBucks.sol:WarBucks",
        "label": "_owner",
        "offset": 0,
        "slot": "5",
        "type": "t_address"
      },
      {
        "astId": 70486,
        "contract": "contracts/WarBucks.sol:WarBucks",
        "label": "treasury",
        "offset": 0,
        "slot": "6",
        "type": "t_address"
      },
      {
        "astId": 70488,
        "contract": "contracts/WarBucks.sol:WarBucks",
        "label": "countryMinter",
        "offset": 0,
        "slot": "7",
        "type": "t_address"
      }
    ],
    "types": {
      "t_address": {
        "encoding": "inplace",
        "label": "address",
        "numberOfBytes": "20"
      },
      "t_mapping(t_address,t_mapping(t_address,t_uint256))": {
        "encoding": "mapping",
        "key": "t_address",
        "label": "mapping(address => mapping(address => uint256))",
        "numberOfBytes": "32",
        "value": "t_mapping(t_address,t_uint256)"
      },
      "t_mapping(t_address,t_uint256)": {
        "encoding": "mapping",
        "key": "t_address",
        "label": "mapping(address => uint256)",
        "numberOfBytes": "32",
        "value": "t_uint256"
      },
      "t_string_storage": {
        "encoding": "bytes",
        "label": "string",
        "numberOfBytes": "32"
      },
      "t_uint256": {
        "encoding": "inplace",
        "label": "uint256",
        "numberOfBytes": "32"
      }
    }
  }
}