{
  "address": "0x03E6F4bf7d54b328306079D7432de5ac0769dd79",
  "abi": [
    {
      "inputs": [],
      "stateMutability": "nonpayable",
      "type": "constructor"
    },
    {
      "anonymous": false,
      "inputs": [
        {
          "indexed": true,
          "internalType": "uint256",
          "name": "gameDay",
          "type": "uint256"
        }
      ],
      "name": "GameDayIncremented",
      "type": "event"
    },
    {
      "anonymous": false,
      "inputs": [
        {
          "indexed": true,
          "internalType": "address",
          "name": "previousOwner",
          "type": "address"
        },
        {
          "indexed": true,
          "internalType": "address",
          "name": "newOwner",
          "type": "address"
        }
      ],
      "name": "OwnershipTransferred",
      "type": "event"
    },
    {
      "inputs": [],
      "name": "checkUpkeep",
      "outputs": [
        {
          "internalType": "bool",
          "name": "upkeepNeeded",
          "type": "bool"
        }
      ],
      "stateMutability": "view",
      "type": "function"
    },
    {
      "inputs": [],
      "name": "gameDay",
      "outputs": [
        {
          "internalType": "uint256",
          "name": "",
          "type": "uint256"
        }
      ],
      "stateMutability": "view",
      "type": "function"
    },
    {
      "inputs": [],
      "name": "getGameDay",
      "outputs": [
        {
          "internalType": "uint256",
          "name": "",
          "type": "uint256"
        }
      ],
      "stateMutability": "view",
      "type": "function"
    },
    {
      "inputs": [],
      "name": "incrementGameDay",
      "outputs": [],
      "stateMutability": "nonpayable",
      "type": "function"
    },
    {
      "inputs": [],
      "name": "interval",
      "outputs": [
        {
          "internalType": "uint256",
          "name": "",
          "type": "uint256"
        }
      ],
      "stateMutability": "view",
      "type": "function"
    },
    {
      "inputs": [],
      "name": "lastTimeStamp",
      "outputs": [
        {
          "internalType": "uint256",
          "name": "",
          "type": "uint256"
        }
      ],
      "stateMutability": "view",
      "type": "function"
    },
    {
      "inputs": [],
      "name": "owner",
      "outputs": [
        {
          "internalType": "address",
          "name": "",
          "type": "address"
        }
      ],
      "stateMutability": "view",
      "type": "function"
    },
    {
      "inputs": [],
      "name": "performUpkeep",
      "outputs": [],
      "stateMutability": "nonpayable",
      "type": "function"
    },
    {
      "inputs": [],
      "name": "renounceOwnership",
      "outputs": [],
      "stateMutability": "nonpayable",
      "type": "function"
    },
    {
      "inputs": [
        {
          "internalType": "address",
          "name": "newOwner",
          "type": "address"
        }
      ],
      "name": "transferOwnership",
      "outputs": [],
      "stateMutability": "nonpayable",
      "type": "function"
    },
    {
      "inputs": [
        {
          "internalType": "uint256",
          "name": "_interval",
          "type": "uint256"
        }
      ],
      "name": "updateInterval",
      "outputs": [],
      "stateMutability": "nonpayable",
      "type": "function"
    }
  ],
  "transactionHash": "0x19e957f2ff9b4306fe1156124f61a6573a15fd74f0cce33a86d99357b96bcdca",
  "args": [],
  "numDeployments": 2,
  "solcInputHash": "4cce9f3b58ca4a4fc23710ebbfd75aa1",
  "bytecode": "0x608060405234801561001057600080fd5b5061002d61002261004a60201b60201c565b61005260201b60201c565b61a8c0600281905550426003819055506000600181905550610116565b600033905090565b60008060009054906101000a900473ffffffffffffffffffffffffffffffffffffffff169050816000806101000a81548173ffffffffffffffffffffffffffffffffffffffff021916908373ffffffffffffffffffffffffffffffffffffffff1602179055508173ffffffffffffffffffffffffffffffffffffffff168173ffffffffffffffffffffffffffffffffffffffff167f8be0079c531659141344cd1fd0a4f28419497f9722a3daafe3b4186f6b6457e060405160405180910390a35050565b610920806101256000396000f3fe608060405234801561001057600080fd5b50600436106100a95760003560e01c80638da5cb5b116100715780638da5cb5b1461011c578063947a36fb1461013a578063a13abdad14610158578063b0bf017514610176578063d0f0792614610180578063f2fde38b1461019c576100a9565b806332cac735146100ae5780633f3b3b27146100cc5780634bf47c0b146100ea5780636e4d243a14610108578063715018a614610112575b600080fd5b6100b66101b8565b6040516100c3919061052c565b60405180910390f35b6100d46101be565b6040516100e1919061052c565b60405180910390f35b6100f26101c4565b6040516100ff919061052c565b60405180910390f35b6101106101ce565b005b61011a61027f565b005b610124610293565b6040516101319190610588565b60405180910390f35b6101426102bc565b60405161014f919061052c565b60405180910390f35b6101606102c2565b60405161016d91906105be565b60405180910390f35b61017e6102dc565b005b61019a6004803603810190610195919061060a565b610334565b005b6101b660048036038101906101b19190610663565b610346565b005b60015481565b60035481565b6000600154905090565b600254600354426101df91906106bf565b1015610220576040517f08c379a000000000000000000000000000000000000000000000000000000000815260040161021790610750565b60405180910390fd5b6002546003546102309190610770565b60038190555060016000815480929190610249906107a4565b91905055506001547f43f7bffe5b6f9993e37b802f6118ac19ff9d88c22a6d1a3bb840ddd53ae73a8f60405160405180910390a2565b6102876103c9565b6102916000610447565b565b60008060009054906101000a900473ffffffffffffffffffffffffffffffffffffffff16905090565b60025481565b6000600254600354426102d591906106bf565b1015905090565b6102e46103c9565b600160008154809291906102f7906107a4565b9190505550426003819055506001547f43f7bffe5b6f9993e37b802f6118ac19ff9d88c22a6d1a3bb840ddd53ae73a8f60405160405180910390a2565b61033c6103c9565b8060028190555050565b61034e6103c9565b600073ffffffffffffffffffffffffffffffffffffffff168173ffffffffffffffffffffffffffffffffffffffff16036103bd576040517f08c379a00000000000000000000000000000000000000000000000000000000081526004016103b49061085e565b60405180910390fd5b6103c681610447565b50565b6103d161050b565b73ffffffffffffffffffffffffffffffffffffffff166103ef610293565b73ffffffffffffffffffffffffffffffffffffffff1614610445576040517f08c379a000000000000000000000000000000000000000000000000000000000815260040161043c906108ca565b60405180910390fd5b565b60008060009054906101000a900473ffffffffffffffffffffffffffffffffffffffff169050816000806101000a81548173ffffffffffffffffffffffffffffffffffffffff021916908373ffffffffffffffffffffffffffffffffffffffff1602179055508173ffffffffffffffffffffffffffffffffffffffff168173ffffffffffffffffffffffffffffffffffffffff167f8be0079c531659141344cd1fd0a4f28419497f9722a3daafe3b4186f6b6457e060405160405180910390a35050565b600033905090565b6000819050919050565b61052681610513565b82525050565b6000602082019050610541600083018461051d565b92915050565b600073ffffffffffffffffffffffffffffffffffffffff82169050919050565b600061057282610547565b9050919050565b61058281610567565b82525050565b600060208201905061059d6000830184610579565b92915050565b60008115159050919050565b6105b8816105a3565b82525050565b60006020820190506105d360008301846105af565b92915050565b600080fd5b6105e781610513565b81146105f257600080fd5b50565b600081359050610604816105de565b92915050565b6000602082840312156106205761061f6105d9565b5b600061062e848285016105f5565b91505092915050565b61064081610567565b811461064b57600080fd5b50565b60008135905061065d81610637565b92915050565b600060208284031215610679576106786105d9565b5b60006106878482850161064e565b91505092915050565b7f4e487b7100000000000000000000000000000000000000000000000000000000600052601160045260246000fd5b60006106ca82610513565b91506106d583610513565b92508282039050818111156106ed576106ec610690565b5b92915050565b600082825260208201905092915050565b7f55706b656570206e6f74206e6565646564000000000000000000000000000000600082015250565b600061073a6011836106f3565b915061074582610704565b602082019050919050565b600060208201905081810360008301526107698161072d565b9050919050565b600061077b82610513565b915061078683610513565b925082820190508082111561079e5761079d610690565b5b92915050565b60006107af82610513565b91507fffffffffffffffffffffffffffffffffffffffffffffffffffffffffffffffff82036107e1576107e0610690565b5b600182019050919050565b7f4f776e61626c653a206e6577206f776e657220697320746865207a65726f206160008201527f6464726573730000000000000000000000000000000000000000000000000000602082015250565b60006108486026836106f3565b9150610853826107ec565b604082019050919050565b600060208201905081810360008301526108778161083b565b9050919050565b7f4f776e61626c653a2063616c6c6572206973206e6f7420746865206f776e6572600082015250565b60006108b46020836106f3565b91506108bf8261087e565b602082019050919050565b600060208201905081810360008301526108e3816108a7565b905091905056fea2646970667358221220af613f111c715f4f5b0c96d30712932dc2b3e024281a3dad8775568ccd097fa464736f6c63430008110033",
  "devdoc": {
    "author": "OxSnosh",
    "details": "this contract will allow gelato automation to maintain the game clock that increments every 12 hours",
    "kind": "dev",
    "methods": {
      "owner()": {
        "details": "Returns the address of the current owner."
      },
      "renounceOwnership()": {
        "details": "Leaves the contract without owner. It will not be possible to call `onlyOwner` functions. Can only be called by the current owner. NOTE: Renouncing ownership will leave the contract without an owner, thereby disabling any functionality that is only available to the owner."
      },
      "transferOwnership(address)": {
        "details": "Transfers ownership of the contract to a new account (`newOwner`). Can only be called by the current owner."
      }
    },
    "title": "KeeperContract",
    "version": 1
  },
  "userdoc": {
    "kind": "user",
    "methods": {},
    "version": 1
  },
  "storageLayout": {
    "storage": [
      {
        "astId": 1467,
        "contract": "contracts/KeeperFile.sol:KeeperContract",
        "label": "_owner",
        "offset": 0,
        "slot": "0",
        "type": "t_address"
      },
      {
        "astId": 40770,
        "contract": "contracts/KeeperFile.sol:KeeperContract",
        "label": "gameDay",
        "offset": 0,
        "slot": "1",
        "type": "t_uint256"
      },
      {
        "astId": 40772,
        "contract": "contracts/KeeperFile.sol:KeeperContract",
        "label": "interval",
        "offset": 0,
        "slot": "2",
        "type": "t_uint256"
      },
      {
        "astId": 40774,
        "contract": "contracts/KeeperFile.sol:KeeperContract",
        "label": "lastTimeStamp",
        "offset": 0,
        "slot": "3",
        "type": "t_uint256"
      }
    ],
    "types": {
      "t_address": {
        "encoding": "inplace",
        "label": "address",
        "numberOfBytes": "20"
      },
      "t_uint256": {
        "encoding": "inplace",
        "label": "uint256",
        "numberOfBytes": "32"
      }
    }
  }
}