{
  "address": "0xF7d167E961CafC33e343960394a8d6569dD69075",
  "abi": [
    {
      "anonymous": false,
      "inputs": [
        {
          "indexed": true,
          "internalType": "address",
          "name": "previousOwner",
          "type": "address"
        },
        {
          "indexed": true,
          "internalType": "address",
          "name": "newOwner",
          "type": "address"
        }
      ],
      "name": "OwnershipTransferred",
      "type": "event"
    },
    {
      "anonymous": false,
      "inputs": [
        {
          "indexed": true,
          "internalType": "uint256",
          "name": "countryId",
          "type": "uint256"
        },
        {
          "indexed": true,
          "internalType": "uint256",
          "name": "wonderId",
          "type": "uint256"
        }
      ],
      "name": "Wonder2Deleted",
      "type": "event"
    },
    {
      "anonymous": false,
      "inputs": [
        {
          "indexed": true,
          "internalType": "uint256",
          "name": "countryId",
          "type": "uint256"
        },
        {
          "indexed": true,
          "internalType": "uint256",
          "name": "wonderId",
          "type": "uint256"
        }
      ],
      "name": "Wonder2Purchased",
      "type": "event"
    },
    {
      "inputs": [
        {
          "internalType": "uint256",
          "name": "countryId",
          "type": "uint256"
        },
        {
          "internalType": "uint256",
          "name": "wonderId",
          "type": "uint256"
        }
      ],
      "name": "buyWonder2",
      "outputs": [],
      "stateMutability": "nonpayable",
      "type": "function"
    },
    {
      "inputs": [],
      "name": "countryMinter",
      "outputs": [
        {
          "internalType": "address",
          "name": "",
          "type": "address"
        }
      ],
      "stateMutability": "view",
      "type": "function"
    },
    {
      "inputs": [
        {
          "internalType": "uint256",
          "name": "countryId",
          "type": "uint256"
        },
        {
          "internalType": "uint256",
          "name": "wonderId",
          "type": "uint256"
        }
      ],
      "name": "deleteWonder2",
      "outputs": [],
      "stateMutability": "nonpayable",
      "type": "function"
    },
    {
      "inputs": [
        {
          "internalType": "uint256",
          "name": "id",
          "type": "uint256"
        }
      ],
      "name": "generateWonders2",
      "outputs": [],
      "stateMutability": "nonpayable",
      "type": "function"
    },
    {
      "inputs": [
        {
          "internalType": "uint256",
          "name": "id",
          "type": "uint256"
        }
      ],
      "name": "getGreatMonument",
      "outputs": [
        {
          "internalType": "bool",
          "name": "",
          "type": "bool"
        }
      ],
      "stateMutability": "view",
      "type": "function"
    },
    {
      "inputs": [
        {
          "internalType": "uint256",
          "name": "id",
          "type": "uint256"
        }
      ],
      "name": "getGreatTemple",
      "outputs": [
        {
          "internalType": "bool",
          "name": "",
          "type": "bool"
        }
      ],
      "stateMutability": "view",
      "type": "function"
    },
    {
      "inputs": [
        {
          "internalType": "uint256",
          "name": "countryId",
          "type": "uint256"
        }
      ],
      "name": "getGreatUniversity",
      "outputs": [
        {
          "internalType": "bool",
          "name": "",
          "type": "bool"
        }
      ],
      "stateMutability": "view",
      "type": "function"
    },
    {
      "inputs": [
        {
          "internalType": "uint256",
          "name": "countryId",
          "type": "uint256"
        }
      ],
      "name": "getHiddenNuclearMissileSilo",
      "outputs": [
        {
          "internalType": "bool",
          "name": "",
          "type": "bool"
        }
      ],
      "stateMutability": "view",
      "type": "function"
    },
    {
      "inputs": [
        {
          "internalType": "uint256",
          "name": "countryId",
          "type": "uint256"
        }
      ],
      "name": "getInterceptorMissileSystem",
      "outputs": [
        {
          "internalType": "bool",
          "name": "",
          "type": "bool"
        }
      ],
      "stateMutability": "view",
      "type": "function"
    },
    {
      "inputs": [
        {
          "internalType": "uint256",
          "name": "countryId",
          "type": "uint256"
        }
      ],
      "name": "getInternet",
      "outputs": [
        {
          "internalType": "bool",
          "name": "",
          "type": "bool"
        }
      ],
      "stateMutability": "view",
      "type": "function"
    },
    {
      "inputs": [
        {
          "internalType": "uint256",
          "name": "countryId",
          "type": "uint256"
        }
      ],
      "name": "getInterstateSystem",
      "outputs": [
        {
          "internalType": "bool",
          "name": "",
          "type": "bool"
        }
      ],
      "stateMutability": "view",
      "type": "function"
    },
    {
      "inputs": [
        {
          "internalType": "uint256",
          "name": "countryId",
          "type": "uint256"
        }
      ],
      "name": "getManhattanProject",
      "outputs": [
        {
          "internalType": "bool",
          "name": "",
          "type": "bool"
        }
      ],
      "stateMutability": "view",
      "type": "function"
    },
    {
      "inputs": [
        {
          "internalType": "uint256",
          "name": "countryId",
          "type": "uint256"
        }
      ],
      "name": "getMiningIndustryConsortium",
      "outputs": [
        {
          "internalType": "bool",
          "name": "",
          "type": "bool"
        }
      ],
      "stateMutability": "view",
      "type": "function"
    },
    {
      "inputs": [],
      "name": "getWonderCosts2",
      "outputs": [
        {
          "internalType": "uint256",
          "name": "",
          "type": "uint256"
        },
        {
          "internalType": "uint256",
          "name": "",
          "type": "uint256"
        },
        {
          "internalType": "uint256",
          "name": "",
          "type": "uint256"
        },
        {
          "internalType": "uint256",
          "name": "",
          "type": "uint256"
        },
        {
          "internalType": "uint256",
          "name": "",
          "type": "uint256"
        },
        {
          "internalType": "uint256",
          "name": "",
          "type": "uint256"
        },
        {
          "internalType": "uint256",
          "name": "",
          "type": "uint256"
        },
        {
          "internalType": "uint256",
          "name": "",
          "type": "uint256"
        },
        {
          "internalType": "uint256",
          "name": "",
          "type": "uint256"
        }
      ],
      "stateMutability": "view",
      "type": "function"
    },
    {
      "inputs": [],
      "name": "greatMonumentCost",
      "outputs": [
        {
          "internalType": "uint256",
          "name": "",
          "type": "uint256"
        }
      ],
      "stateMutability": "view",
      "type": "function"
    },
    {
      "inputs": [],
      "name": "greatTempleCost",
      "outputs": [
        {
          "internalType": "uint256",
          "name": "",
          "type": "uint256"
        }
      ],
      "stateMutability": "view",
      "type": "function"
    },
    {
      "inputs": [],
      "name": "greatUniversityCost",
      "outputs": [
        {
          "internalType": "uint256",
          "name": "",
          "type": "uint256"
        }
      ],
      "stateMutability": "view",
      "type": "function"
    },
    {
      "inputs": [],
      "name": "hiddenNuclearMissileSiloCost",
      "outputs": [
        {
          "internalType": "uint256",
          "name": "",
          "type": "uint256"
        }
      ],
      "stateMutability": "view",
      "type": "function"
    },
    {
      "inputs": [
        {
          "internalType": "uint256",
          "name": "",
          "type": "uint256"
        }
      ],
      "name": "idToWonders2",
      "outputs": [
        {
          "internalType": "bool",
          "name": "initialized",
          "type": "bool"
        },
        {
          "internalType": "bool",
          "name": "greatMonument",
          "type": "bool"
        },
        {
          "internalType": "bool",
          "name": "greatTemple",
          "type": "bool"
        },
        {
          "internalType": "bool",
          "name": "greatUniversity",
          "type": "bool"
        },
        {
          "internalType": "bool",
          "name": "hiddenNuclearMissileSilo",
          "type": "bool"
        },
        {
          "internalType": "bool",
          "name": "interceptorMissileSystem",
          "type": "bool"
        },
        {
          "internalType": "bool",
          "name": "internet",
          "type": "bool"
        },
        {
          "internalType": "bool",
          "name": "interstateSystem",
          "type": "bool"
        },
        {
          "internalType": "bool",
          "name": "manhattanProject",
          "type": "bool"
        },
        {
          "internalType": "bool",
          "name": "miningIndustryConsortium",
          "type": "bool"
        }
      ],
      "stateMutability": "view",
      "type": "function"
    },
    {
      "inputs": [],
      "name": "infrastructureAddress",
      "outputs": [
        {
          "internalType": "address",
          "name": "",
          "type": "address"
        }
      ],
      "stateMutability": "view",
      "type": "function"
    },
    {
      "inputs": [],
      "name": "interceptorMissileSystemCost",
      "outputs": [
        {
          "internalType": "uint256",
          "name": "",
          "type": "uint256"
        }
      ],
      "stateMutability": "view",
      "type": "function"
    },
    {
      "inputs": [],
      "name": "internetCost",
      "outputs": [
        {
          "internalType": "uint256",
          "name": "",
          "type": "uint256"
        }
      ],
      "stateMutability": "view",
      "type": "function"
    },
    {
      "inputs": [],
      "name": "interstateSystemCost",
      "outputs": [
        {
          "internalType": "uint256",
          "name": "",
          "type": "uint256"
        }
      ],
      "stateMutability": "view",
      "type": "function"
    },
    {
      "inputs": [],
      "name": "manhattanProjectCost",
      "outputs": [
        {
          "internalType": "uint256",
          "name": "",
          "type": "uint256"
        }
      ],
      "stateMutability": "view",
      "type": "function"
    },
    {
      "inputs": [],
      "name": "miningIndustryConsortiumCost",
      "outputs": [
        {
          "internalType": "uint256",
          "name": "",
          "type": "uint256"
        }
      ],
      "stateMutability": "view",
      "type": "function"
    },
    {
      "inputs": [],
      "name": "owner",
      "outputs": [
        {
          "internalType": "address",
          "name": "",
          "type": "address"
        }
      ],
      "stateMutability": "view",
      "type": "function"
    },
    {
      "inputs": [],
      "name": "renounceOwnership",
      "outputs": [],
      "stateMutability": "nonpayable",
      "type": "function"
    },
    {
      "inputs": [],
      "name": "resources",
      "outputs": [
        {
          "internalType": "address",
          "name": "",
          "type": "address"
        }
      ],
      "stateMutability": "view",
      "type": "function"
    },
    {
      "inputs": [
        {
          "internalType": "address",
          "name": "_treasury",
          "type": "address"
        },
        {
          "internalType": "address",
          "name": "_infrastructure",
          "type": "address"
        },
        {
          "internalType": "address",
          "name": "_wonders1",
          "type": "address"
        },
        {
          "internalType": "address",
          "name": "_wonders3",
          "type": "address"
        },
        {
          "internalType": "address",
          "name": "_wonders4",
          "type": "address"
        },
        {
          "internalType": "address",
          "name": "_countryMinter",
          "type": "address"
        },
        {
          "internalType": "address",
          "name": "_resources",
          "type": "address"
        }
      ],
      "name": "settings",
      "outputs": [],
      "stateMutability": "nonpayable",
      "type": "function"
    },
    {
      "inputs": [
        {
          "internalType": "address",
          "name": "newOwner",
          "type": "address"
        }
      ],
      "name": "transferOwnership",
      "outputs": [],
      "stateMutability": "nonpayable",
      "type": "function"
    },
    {
      "inputs": [],
      "name": "treasuryAddress",
      "outputs": [
        {
          "internalType": "address",
          "name": "",
          "type": "address"
        }
      ],
      "stateMutability": "view",
      "type": "function"
    },
    {
      "inputs": [
        {
          "internalType": "uint256",
          "name": "newPrice",
          "type": "uint256"
        }
      ],
      "name": "updateGreatMonumentCost",
      "outputs": [],
      "stateMutability": "nonpayable",
      "type": "function"
    },
    {
      "inputs": [
        {
          "internalType": "uint256",
          "name": "newPrice",
          "type": "uint256"
        }
      ],
      "name": "updateGreatTempleCost",
      "outputs": [],
      "stateMutability": "nonpayable",
      "type": "function"
    },
    {
      "inputs": [
        {
          "internalType": "uint256",
          "name": "newPrice",
          "type": "uint256"
        }
      ],
      "name": "updateGreatUniversityCost",
      "outputs": [],
      "stateMutability": "nonpayable",
      "type": "function"
    },
    {
      "inputs": [
        {
          "internalType": "uint256",
          "name": "newPrice",
          "type": "uint256"
        }
      ],
      "name": "updateHiddenNuclearMissileSiloCost",
      "outputs": [],
      "stateMutability": "nonpayable",
      "type": "function"
    },
    {
      "inputs": [
        {
          "internalType": "uint256",
          "name": "newPrice",
          "type": "uint256"
        }
      ],
      "name": "updateInterceptorMissileSystemCost",
      "outputs": [],
      "stateMutability": "nonpayable",
      "type": "function"
    },
    {
      "inputs": [
        {
          "internalType": "uint256",
          "name": "newPrice",
          "type": "uint256"
        }
      ],
      "name": "updateInternetCost",
      "outputs": [],
      "stateMutability": "nonpayable",
      "type": "function"
    },
    {
      "inputs": [
        {
          "internalType": "uint256",
          "name": "newPrice",
          "type": "uint256"
        }
      ],
      "name": "updateInterstateSystemCost",
      "outputs": [],
      "stateMutability": "nonpayable",
      "type": "function"
    },
    {
      "inputs": [
        {
          "internalType": "uint256",
          "name": "newPrice",
          "type": "uint256"
        }
      ],
      "name": "updateManhattanProjectCost",
      "outputs": [],
      "stateMutability": "nonpayable",
      "type": "function"
    },
    {
      "inputs": [
        {
          "internalType": "uint256",
          "name": "newPrice",
          "type": "uint256"
        }
      ],
      "name": "updateMiningIndustryConsortiumCost",
      "outputs": [],
      "stateMutability": "nonpayable",
      "type": "function"
    },
    {
      "inputs": [],
      "name": "wonderContract1Address",
      "outputs": [
        {
          "internalType": "address",
          "name": "",
          "type": "address"
        }
      ],
      "stateMutability": "view",
      "type": "function"
    },
    {
      "inputs": [],
      "name": "wonderContract3Address",
      "outputs": [
        {
          "internalType": "address",
          "name": "",
          "type": "address"
        }
      ],
      "stateMutability": "view",
      "type": "function"
    },
    {
      "inputs": [],
      "name": "wonderContract4Address",
      "outputs": [
        {
          "internalType": "address",
          "name": "",
          "type": "address"
        }
      ],
      "stateMutability": "view",
      "type": "function"
    }
  ],
  "transactionHash": "0x56fbb39690cb717ecafa9b79c6989901cb5a873dfa0562790d1eeacd104afaa0",
  "args": [],
  "numDeployments": 3,
  "solcInputHash": "4cce9f3b58ca4a4fc23710ebbfd75aa1",
  "bytecode": "0x60806040526a1cf389cd46047d030000006009556a1cf389cd46047d03000000600a556a1cf389cd46047d03000000600b556a18d0bf423c03d8de000000600c556a295be96e64066972000000600d556a1cf389cd46047d03000000600e556a25391ee35a05c54d000000600f556a52b7d2dcc80cd2e40000006010556a14adf4b7320334b90000006011553480156200009857600080fd5b50620000b9620000ad620000c660201b60201c565b620000ce60201b60201c565b6001808190555062000192565b600033905090565b60008060009054906101000a900473ffffffffffffffffffffffffffffffffffffffff169050816000806101000a81548173ffffffffffffffffffffffffffffffffffffffff021916908373ffffffffffffffffffffffffffffffffffffffff1602179055508173ffffffffffffffffffffffffffffffffffffffff168173ffffffffffffffffffffffffffffffffffffffff167f8be0079c531659141344cd1fd0a4f28419497f9722a3daafe3b4186f6b6457e060405160405180910390a35050565b614b7180620001a26000396000f3fe608060405234801561001057600080fd5b50600436106102695760003560e01c806392aeb43e11610151578063ce3c54f8116100c3578063f03906f511610087578063f03906f514610732578063f1a43b1b14610750578063f2fde38b14610780578063f8524b6e1461079c578063f91277e4146107d5578063fe0bfcf2146107f157610269565b8063ce3c54f8146106a2578063de35dc3e146106c0578063e5a76047146106dc578063ef74bf9b146106fa578063ef87186a1461071657610269565b8063ada6412611610115578063ada64126146105e2578063bc52c20914610612578063c0459c3e14610630578063c0f8b4e11461064c578063c5f956af14610668578063cdc3cfa41461068657610269565b806392aeb43e1461054c5780639920b8951461056a578063992d4c9e14610588578063a22c478c146105a6578063a655a735146105c457610269565b8063615e1507116101ea57806376584ade116101ae57806376584ade146104625780637a138238146104805780637a55466c146104b05780637dc8eead146104e05780637f6427a1146105105780638da5cb5b1461052e57610269565b8063615e1507146103c65780636298d9c1146103f6578063715018a61461041c57806374872d3414610426578063756444261461044457610269565b80633e314875116102315780633e314875146103365780634f09a0d61461035257806358cbab271461036e5780635a230b471461038c5780635ae4e3af146103a857610269565b806304fc53be1461026e5780630cccc2dd1461029e57806310179da9146102ce578063134c64af146102ea5780633b4ddbfb14610306575b600080fd5b61028860048036038101906102839190613d6f565b61080d565b6040516102959190613db7565b60405180910390f35b6102b860048036038101906102b39190613d6f565b61083a565b6040516102c59190613db7565b60405180910390f35b6102e860048036038101906102e39190613dd2565b610867565b005b61030460048036038101906102ff9190613d6f565b6114cc565b005b610320600480360381019061031b9190613d6f565b6114de565b60405161032d9190613db7565b60405180910390f35b610350600480360381019061034b9190613d6f565b61150b565b005b61036c60048036038101906103679190613d6f565b61151d565b005b61037661152f565b6040516103839190613e21565b60405180910390f35b6103a660048036038101906103a19190613d6f565b611535565b005b6103b0611547565b6040516103bd9190613e21565b60405180910390f35b6103e060048036038101906103db9190613d6f565b61154d565b6040516103ed9190613db7565b60405180910390f35b6103fe61157a565b60405161041399989796959493929190613e3c565b60405180910390f35b6104246115c0565b005b61042e6115d4565b60405161043b9190613e21565b60405180910390f35b61044c6115da565b6040516104599190613e21565b60405180910390f35b61046a6115e0565b6040516104779190613e21565b60405180910390f35b61049a60048036038101906104959190613d6f565b6115e6565b6040516104a79190613db7565b60405180910390f35b6104ca60048036038101906104c59190613d6f565b611613565b6040516104d79190613db7565b60405180910390f35b6104fa60048036038101906104f59190613d6f565b611640565b6040516105079190613db7565b60405180910390f35b61051861166d565b6040516105259190613f0a565b60405180910390f35b610536611693565b6040516105439190613f0a565b60405180910390f35b6105546116bc565b6040516105619190613f0a565b60405180910390f35b6105726116e2565b60405161057f9190613e21565b60405180910390f35b6105906116e8565b60405161059d9190613e21565b60405180910390f35b6105ae6116ee565b6040516105bb9190613f0a565b60405180910390f35b6105cc611714565b6040516105d99190613e21565b60405180910390f35b6105fc60048036038101906105f79190613d6f565b61171a565b6040516106099190613db7565b60405180910390f35b61061a611747565b6040516106279190613f0a565b60405180910390f35b61064a60048036038101906106459190613d6f565b61176d565b005b61066660048036038101906106619190613d6f565b61177f565b005b610670611791565b60405161067d9190613f0a565b60405180910390f35b6106a0600480360381019061069b9190613d6f565b6117b7565b005b6106aa6117c9565b6040516106b79190613e21565b60405180910390f35b6106da60048036038101906106d59190613f51565b6117cf565b005b6106e4611a29565b6040516106f19190613f0a565b60405180910390f35b610714600480360381019061070f9190613d6f565b611a4f565b005b610730600480360381019061072b9190613d6f565b611d0e565b005b61073a611d20565b6040516107479190613f0a565b60405180910390f35b61076a60048036038101906107659190613d6f565b611d46565b6040516107779190613db7565b60405180910390f35b61079a60048036038101906107959190613ff3565b611d73565b005b6107b660048036038101906107b19190613d6f565b611df6565b6040516107cc9a99989796959493929190614020565b60405180910390f35b6107ef60048036038101906107ea9190613dd2565b611ecc565b005b61080b60048036038101906108069190613d6f565b613b80565b005b60006014600083815260200190815260200160002060000160069054906101000a900460ff169050919050565b60006014600083815260200190815260200160002060000160049054906101000a900460ff169050919050565b61086f613b92565b6000601260009054906101000a900473ffffffffffffffffffffffffffffffffffffffff1673ffffffffffffffffffffffffffffffffffffffff166377ade19084336040518363ffffffff1660e01b81526004016108ce9291906140bc565b602060405180830381865afa1580156108eb573d6000803e3d6000fd5b505050506040513d601f19601f8201168201806040525081019061090f9190614111565b905080610951576040517f08c379a00000000000000000000000000000000000000000000000000000000081526004016109489061419b565b60405180910390fd5b6009821115610995576040517f08c379a000000000000000000000000000000000000000000000000000000000815260040161098c90614207565b60405180910390fd5b60018203610ace5760006014600085815260200190815260200160002060000160019054906101000a900460ff1690506001151581151514610a0c576040517f08c379a0000000000000000000000000000000000000000000000000000000008152600401610a0390614273565b60405180910390fd5b60006014600086815260200190815260200160002060000160016101000a81548160ff021916908315150217905550600460009054906101000a900473ffffffffffffffffffffffffffffffffffffffff1673ffffffffffffffffffffffffffffffffffffffff166311fe8e2c856040518263ffffffff1660e01b8152600401610a969190613e21565b600060405180830381600087803b158015610ab057600080fd5b505af1158015610ac4573d6000803e3d6000fd5b5050505050611491565b60028203610c075760006014600085815260200190815260200160002060000160029054906101000a900460ff1690506001151581151514610b45576040517f08c379a0000000000000000000000000000000000000000000000000000000008152600401610b3c90614273565b60405180910390fd5b60006014600086815260200190815260200160002060000160026101000a81548160ff021916908315150217905550600460009054906101000a900473ffffffffffffffffffffffffffffffffffffffff1673ffffffffffffffffffffffffffffffffffffffff166311fe8e2c856040518263ffffffff1660e01b8152600401610bcf9190613e21565b600060405180830381600087803b158015610be957600080fd5b505af1158015610bfd573d6000803e3d6000fd5b5050505050611490565b60038203610d405760006014600085815260200190815260200160002060000160039054906101000a900460ff1690506001151581151514610c7e576040517f08c379a0000000000000000000000000000000000000000000000000000000008152600401610c7590614273565b60405180910390fd5b60006014600086815260200190815260200160002060000160036101000a81548160ff021916908315150217905550600460009054906101000a900473ffffffffffffffffffffffffffffffffffffffff1673ffffffffffffffffffffffffffffffffffffffff166311fe8e2c856040518263ffffffff1660e01b8152600401610d089190613e21565b600060405180830381600087803b158015610d2257600080fd5b505af1158015610d36573d6000803e3d6000fd5b505050505061148f565b60048203610e795760006014600085815260200190815260200160002060000160049054906101000a900460ff1690506001151581151514610db7576040517f08c379a0000000000000000000000000000000000000000000000000000000008152600401610dae90614273565b60405180910390fd5b60006014600086815260200190815260200160002060000160046101000a81548160ff021916908315150217905550600460009054906101000a900473ffffffffffffffffffffffffffffffffffffffff1673ffffffffffffffffffffffffffffffffffffffff166311fe8e2c856040518263ffffffff1660e01b8152600401610e419190613e21565b600060405180830381600087803b158015610e5b57600080fd5b505af1158015610e6f573d6000803e3d6000fd5b505050505061148e565b60058203610fb25760006014600085815260200190815260200160002060000160059054906101000a900460ff1690506001151581151514610ef0576040517f08c379a0000000000000000000000000000000000000000000000000000000008152600401610ee790614273565b60405180910390fd5b60006014600086815260200190815260200160002060000160056101000a81548160ff021916908315150217905550600460009054906101000a900473ffffffffffffffffffffffffffffffffffffffff1673ffffffffffffffffffffffffffffffffffffffff166311fe8e2c856040518263ffffffff1660e01b8152600401610f7a9190613e21565b600060405180830381600087803b158015610f9457600080fd5b505af1158015610fa8573d6000803e3d6000fd5b505050505061148d565b600682036110eb5760006014600085815260200190815260200160002060000160069054906101000a900460ff1690506001151581151514611029576040517f08c379a000000000000000000000000000000000000000000000000000000000815260040161102090614273565b60405180910390fd5b60006014600086815260200190815260200160002060000160066101000a81548160ff021916908315150217905550600460009054906101000a900473ffffffffffffffffffffffffffffffffffffffff1673ffffffffffffffffffffffffffffffffffffffff166311fe8e2c856040518263ffffffff1660e01b81526004016110b39190613e21565b600060405180830381600087803b1580156110cd57600080fd5b505af11580156110e1573d6000803e3d6000fd5b505050505061148c565b600782036112245760006014600085815260200190815260200160002060000160079054906101000a900460ff1690506001151581151514611162576040517f08c379a000000000000000000000000000000000000000000000000000000000815260040161115990614273565b60405180910390fd5b60006014600086815260200190815260200160002060000160076101000a81548160ff021916908315150217905550600460009054906101000a900473ffffffffffffffffffffffffffffffffffffffff1673ffffffffffffffffffffffffffffffffffffffff166311fe8e2c856040518263ffffffff1660e01b81526004016111ec9190613e21565b600060405180830381600087803b15801561120657600080fd5b505af115801561121a573d6000803e3d6000fd5b505050505061148b565b6008820361135d5760006014600085815260200190815260200160002060000160089054906101000a900460ff169050600115158115151461129b576040517f08c379a000000000000000000000000000000000000000000000000000000000815260040161129290614273565b60405180910390fd5b60006014600086815260200190815260200160002060000160086101000a81548160ff021916908315150217905550600460009054906101000a900473ffffffffffffffffffffffffffffffffffffffff1673ffffffffffffffffffffffffffffffffffffffff166311fe8e2c856040518263ffffffff1660e01b81526004016113259190613e21565b600060405180830381600087803b15801561133f57600080fd5b505af1158015611353573d6000803e3d6000fd5b505050505061148a565b60006014600085815260200190815260200160002060000160099054906101000a900460ff16905060011515811515146113cc576040517f08c379a00000000000000000000000000000000000000000000000000000000081526004016113c390614273565b60405180910390fd5b60006014600086815260200190815260200160002060000160096101000a81548160ff021916908315150217905550600460009054906101000a900473ffffffffffffffffffffffffffffffffffffffff1673ffffffffffffffffffffffffffffffffffffffff166311fe8e2c856040518263ffffffff1660e01b81526004016114569190613e21565b600060405180830381600087803b15801561147057600080fd5b505af1158015611484573d6000803e3d6000fd5b50505050505b5b5b5b5b5b5b5b81837f461969fcf8fa2346d39faa9ef2a468f86bb8a9589590722b217154fb3d96b81560405160405180910390a3506114c8613be1565b5050565b6114d4613bea565b8060118190555050565b60006014600083815260200190815260200160002060000160059054906101000a900460ff169050919050565b611513613bea565b80600d8190555050565b611525613bea565b80600a8190555050565b600c5481565b61153d613bea565b80600e8190555050565b600a5481565b60006014600083815260200190815260200160002060000160029054906101000a900460ff169050919050565b6000806000806000806000806000600954600a54600b54600c54600d54600e54600f54601054601154985098509850985098509850985098509850909192939495969798565b6115c8613bea565b6115d26000613c68565b565b600b5481565b60105481565b60115481565b60006014600083815260200190815260200160002060000160089054906101000a900460ff169050919050565b60006014600083815260200190815260200160002060000160099054906101000a900460ff169050919050565b60006014600083815260200190815260200160002060000160019054906101000a900460ff169050919050565b600660009054906101000a900473ffffffffffffffffffffffffffffffffffffffff1681565b60008060009054906101000a900473ffffffffffffffffffffffffffffffffffffffff16905090565b600760009054906101000a900473ffffffffffffffffffffffffffffffffffffffff1681565b60095481565b600e5481565b600460009054906101000a900473ffffffffffffffffffffffffffffffffffffffff1681565b600d5481565b60006014600083815260200190815260200160002060000160039054906101000a900460ff169050919050565b600360009054906101000a900473ffffffffffffffffffffffffffffffffffffffff1681565b611775613bea565b80600b8190555050565b611787613bea565b8060098190555050565b600260009054906101000a900473ffffffffffffffffffffffffffffffffffffffff1681565b6117bf613bea565b80600c8190555050565b600f5481565b6117d7613bea565b86600260006101000a81548173ffffffffffffffffffffffffffffffffffffffff021916908373ffffffffffffffffffffffffffffffffffffffff16021790555085600360006101000a81548173ffffffffffffffffffffffffffffffffffffffff021916908373ffffffffffffffffffffffffffffffffffffffff16021790555084600460006101000a81548173ffffffffffffffffffffffffffffffffffffffff021916908373ffffffffffffffffffffffffffffffffffffffff16021790555083600560006101000a81548173ffffffffffffffffffffffffffffffffffffffff021916908373ffffffffffffffffffffffffffffffffffffffff16021790555082600660006101000a81548173ffffffffffffffffffffffffffffffffffffffff021916908373ffffffffffffffffffffffffffffffffffffffff16021790555081600760006101000a81548173ffffffffffffffffffffffffffffffffffffffff021916908373ffffffffffffffffffffffffffffffffffffffff16021790555081601260006101000a81548173ffffffffffffffffffffffffffffffffffffffff021916908373ffffffffffffffffffffffffffffffffffffffff16021790555080600860006101000a81548173ffffffffffffffffffffffffffffffffffffffff021916908373ffffffffffffffffffffffffffffffffffffffff16021790555080601360006101000a81548173ffffffffffffffffffffffffffffffffffffffff021916908373ffffffffffffffffffffffffffffffffffffffff16021790555050505050505050565b600560009054906101000a900473ffffffffffffffffffffffffffffffffffffffff1681565b600760009054906101000a900473ffffffffffffffffffffffffffffffffffffffff1673ffffffffffffffffffffffffffffffffffffffff163373ffffffffffffffffffffffffffffffffffffffff1614611adf576040517f08c379a0000000000000000000000000000000000000000000000000000000008152600401611ad6906142df565b60405180910390fd5b600015156014600083815260200190815260200160002060000160009054906101000a900460ff16151514611b49576040517f08c379a0000000000000000000000000000000000000000000000000000000008152600401611b409061434b565b60405180910390fd5b6000604051806101400160405280600115158152602001600015158152602001600015158152602001600015158152602001600015158152602001600015158152602001600015158152602001600015158152602001600015158152602001600015158152509050806014600084815260200190815260200160002060008201518160000160006101000a81548160ff02191690831515021790555060208201518160000160016101000a81548160ff02191690831515021790555060408201518160000160026101000a81548160ff02191690831515021790555060608201518160000160036101000a81548160ff02191690831515021790555060808201518160000160046101000a81548160ff02191690831515021790555060a08201518160000160056101000a81548160ff02191690831515021790555060c08201518160000160066101000a81548160ff02191690831515021790555060e08201518160000160076101000a81548160ff0219169083151502179055506101008201518160000160086101000a81548160ff0219169083151502179055506101208201518160000160096101000a81548160ff0219169083151502179055509050505050565b611d16613bea565b8060108190555050565b600860009054906101000a900473ffffffffffffffffffffffffffffffffffffffff1681565b60006014600083815260200190815260200160002060000160079054906101000a900460ff169050919050565b611d7b613bea565b600073ffffffffffffffffffffffffffffffffffffffff168173ffffffffffffffffffffffffffffffffffffffff1603611dea576040517f08c379a0000000000000000000000000000000000000000000000000000000008152600401611de1906143dd565b60405180910390fd5b611df381613c68565b50565b60146020528060005260406000206000915090508060000160009054906101000a900460ff16908060000160019054906101000a900460ff16908060000160029054906101000a900460ff16908060000160039054906101000a900460ff16908060000160049054906101000a900460ff16908060000160059054906101000a900460ff16908060000160069054906101000a900460ff16908060000160079054906101000a900460ff16908060000160089054906101000a900460ff16908060000160099054906101000a900460ff1690508a565b611ed4613b92565b6000601260009054906101000a900473ffffffffffffffffffffffffffffffffffffffff1673ffffffffffffffffffffffffffffffffffffffff166377ade19084336040518363ffffffff1660e01b8152600401611f339291906140bc565b602060405180830381865afa158015611f50573d6000803e3d6000fd5b505050506040513d601f19601f82011682018060405250810190611f749190614111565b905080611fb6576040517f08c379a0000000000000000000000000000000000000000000000000000000008152600401611fad9061419b565b60405180910390fd5b6009821115611ffa576040517f08c379a0000000000000000000000000000000000000000000000000000000008152600401611ff190614207565b60405180910390fd5b6000600260009054906101000a900473ffffffffffffffffffffffffffffffffffffffff1673ffffffffffffffffffffffffffffffffffffffff16637f286286856040518263ffffffff1660e01b81526004016120579190613e21565b602060405180830381865afa158015612074573d6000803e3d6000fd5b505050506040513d601f19601f820116820180604052508101906120989190614412565b9050600183036122c3576009548110156120e7576040517f08c379a00000000000000000000000000000000000000000000000000000000081526004016120de9061448b565b60405180910390fd5b60006014600086815260200190815260200160002060000160019054906101000a900460ff1690506000151581151514612156576040517f08c379a000000000000000000000000000000000000000000000000000000000815260040161214d906144f7565b60405180910390fd5b60016014600087815260200190815260200160002060000160016101000a81548160ff021916908315150217905550600460009054906101000a900473ffffffffffffffffffffffffffffffffffffffff1673ffffffffffffffffffffffffffffffffffffffff166356184fb9866040518263ffffffff1660e01b81526004016121e09190613e21565b600060405180830381600087803b1580156121fa57600080fd5b505af115801561220e573d6000803e3d6000fd5b50505050600260009054906101000a900473ffffffffffffffffffffffffffffffffffffffff1673ffffffffffffffffffffffffffffffffffffffff16635ff38ff1866009546040518363ffffffff1660e01b8152600401612271929190614517565b6020604051808303816000875af1158015612290573d6000803e3d6000fd5b505050506040513d601f19601f820116820180604052508101906122b49190614111565b6122bd57600080fd5b50613b44565b600283036124ec57600a54811015612310576040517f08c379a00000000000000000000000000000000000000000000000000000000081526004016123079061448b565b60405180910390fd5b60006014600086815260200190815260200160002060000160029054906101000a900460ff169050600015158115151461237f576040517f08c379a0000000000000000000000000000000000000000000000000000000008152600401612376906144f7565b60405180910390fd5b60016014600087815260200190815260200160002060000160026101000a81548160ff021916908315150217905550600460009054906101000a900473ffffffffffffffffffffffffffffffffffffffff1673ffffffffffffffffffffffffffffffffffffffff166356184fb9866040518263ffffffff1660e01b81526004016124099190613e21565b600060405180830381600087803b15801561242357600080fd5b505af1158015612437573d6000803e3d6000fd5b50505050600260009054906101000a900473ffffffffffffffffffffffffffffffffffffffff1673ffffffffffffffffffffffffffffffffffffffff16635ff38ff186600a546040518363ffffffff1660e01b815260040161249a929190614517565b6020604051808303816000875af11580156124b9573d6000803e3d6000fd5b505050506040513d601f19601f820116820180604052508101906124dd9190614111565b6124e657600080fd5b50613b43565b6003830361271557600b54811015612539576040517f08c379a00000000000000000000000000000000000000000000000000000000081526004016125309061448b565b60405180910390fd5b60006014600086815260200190815260200160002060000160039054906101000a900460ff16905060001515811515146125a8576040517f08c379a000000000000000000000000000000000000000000000000000000000815260040161259f906144f7565b60405180910390fd5b60016014600087815260200190815260200160002060000160036101000a81548160ff021916908315150217905550600460009054906101000a900473ffffffffffffffffffffffffffffffffffffffff1673ffffffffffffffffffffffffffffffffffffffff166356184fb9866040518263ffffffff1660e01b81526004016126329190613e21565b600060405180830381600087803b15801561264c57600080fd5b505af1158015612660573d6000803e3d6000fd5b50505050600260009054906101000a900473ffffffffffffffffffffffffffffffffffffffff1673ffffffffffffffffffffffffffffffffffffffff16635ff38ff186600b546040518363ffffffff1660e01b81526004016126c3929190614517565b6020604051808303816000875af11580156126e2573d6000803e3d6000fd5b505050506040513d601f19601f820116820180604052508101906127069190614111565b61270f57600080fd5b50613b42565b6004830361293e57600c54811015612762576040517f08c379a00000000000000000000000000000000000000000000000000000000081526004016127599061448b565b60405180910390fd5b60006014600086815260200190815260200160002060000160049054906101000a900460ff16905060001515811515146127d1576040517f08c379a00000000000000000000000000000000000000000000000000000000081526004016127c8906144f7565b60405180910390fd5b60016014600087815260200190815260200160002060000160046101000a81548160ff021916908315150217905550600460009054906101000a900473ffffffffffffffffffffffffffffffffffffffff1673ffffffffffffffffffffffffffffffffffffffff166356184fb9866040518263ffffffff1660e01b815260040161285b9190613e21565b600060405180830381600087803b15801561287557600080fd5b505af1158015612889573d6000803e3d6000fd5b50505050600260009054906101000a900473ffffffffffffffffffffffffffffffffffffffff1673ffffffffffffffffffffffffffffffffffffffff16635ff38ff186600c546040518363ffffffff1660e01b81526004016128ec929190614517565b6020604051808303816000875af115801561290b573d6000803e3d6000fd5b505050506040513d601f19601f8201168201806040525081019061292f9190614111565b61293857600080fd5b50613b41565b60058303612d3557600d5481101561298b576040517f08c379a00000000000000000000000000000000000000000000000000000000081526004016129829061448b565b60405180910390fd5b60006014600086815260200190815260200160002060000160059054906101000a900460ff16905060001515811515146129fa576040517f08c379a00000000000000000000000000000000000000000000000000000000081526004016129f1906144f7565b60405180910390fd5b6000600660009054906101000a900473ffffffffffffffffffffffffffffffffffffffff1673ffffffffffffffffffffffffffffffffffffffff16638ee9f06c876040518263ffffffff1660e01b8152600401612a579190613e21565b602060405180830381865afa158015612a74573d6000803e3d6000fd5b505050506040513d601f19601f82011682018060405250810190612a989190614111565b90506001151581151514612ae1576040517f08c379a0000000000000000000000000000000000000000000000000000000008152600401612ad8906145b2565b60405180910390fd5b6000600360009054906101000a900473ffffffffffffffffffffffffffffffffffffffff1673ffffffffffffffffffffffffffffffffffffffff1663221a528f886040518263ffffffff1660e01b8152600401612b3e9190613e21565b602060405180830381865afa158015612b5b573d6000803e3d6000fd5b505050506040513d601f19601f82011682018060405250810190612b7f9190614412565b9050611388811015612bc6576040517f08c379a0000000000000000000000000000000000000000000000000000000008152600401612bbd90614644565b60405180910390fd5b60016014600089815260200190815260200160002060000160056101000a81548160ff021916908315150217905550600460009054906101000a900473ffffffffffffffffffffffffffffffffffffffff1673ffffffffffffffffffffffffffffffffffffffff166356184fb9886040518263ffffffff1660e01b8152600401612c509190613e21565b600060405180830381600087803b158015612c6a57600080fd5b505af1158015612c7e573d6000803e3d6000fd5b50505050600260009054906101000a900473ffffffffffffffffffffffffffffffffffffffff1673ffffffffffffffffffffffffffffffffffffffff16635ff38ff188600d546040518363ffffffff1660e01b8152600401612ce1929190614517565b6020604051808303816000875af1158015612d00573d6000803e3d6000fd5b505050506040513d601f19601f82011682018060405250810190612d249190614111565b612d2d57600080fd5b505050613b40565b60068303612f5e57600e54811015612d82576040517f08c379a0000000000000000000000000000000000000000000000000000000008152600401612d799061448b565b60405180910390fd5b60006014600086815260200190815260200160002060000160069054906101000a900460ff1690506000151581151514612df1576040517f08c379a0000000000000000000000000000000000000000000000000000000008152600401612de8906144f7565b60405180910390fd5b60016014600087815260200190815260200160002060000160066101000a81548160ff021916908315150217905550600460009054906101000a900473ffffffffffffffffffffffffffffffffffffffff1673ffffffffffffffffffffffffffffffffffffffff166356184fb9866040518263ffffffff1660e01b8152600401612e7b9190613e21565b600060405180830381600087803b158015612e9557600080fd5b505af1158015612ea9573d6000803e3d6000fd5b50505050600260009054906101000a900473ffffffffffffffffffffffffffffffffffffffff1673ffffffffffffffffffffffffffffffffffffffff16635ff38ff186600e546040518363ffffffff1660e01b8152600401612f0c929190614517565b6020604051808303816000875af1158015612f2b573d6000803e3d6000fd5b505050506040513d601f19601f82011682018060405250810190612f4f9190614111565b612f5857600080fd5b50613b3f565b6007830361318757600f54811015612fab576040517f08c379a0000000000000000000000000000000000000000000000000000000008152600401612fa29061448b565b60405180910390fd5b60006014600086815260200190815260200160002060000160079054906101000a900460ff169050600015158115151461301a576040517f08c379a0000000000000000000000000000000000000000000000000000000008152600401613011906144f7565b60405180910390fd5b60016014600087815260200190815260200160002060000160076101000a81548160ff021916908315150217905550600460009054906101000a900473ffffffffffffffffffffffffffffffffffffffff1673ffffffffffffffffffffffffffffffffffffffff166356184fb9866040518263ffffffff1660e01b81526004016130a49190613e21565b600060405180830381600087803b1580156130be57600080fd5b505af11580156130d2573d6000803e3d6000fd5b50505050600260009054906101000a900473ffffffffffffffffffffffffffffffffffffffff1673ffffffffffffffffffffffffffffffffffffffff16635ff38ff186600f546040518363ffffffff1660e01b8152600401613135929190614517565b6020604051808303816000875af1158015613154573d6000803e3d6000fd5b505050506040513d601f19601f820116820180604052508101906131789190614111565b61318157600080fd5b50613b3e565b6008830361366e576010548110156131d4576040517f08c379a00000000000000000000000000000000000000000000000000000000081526004016131cb9061448b565b60405180910390fd5b60006014600086815260200190815260200160002060000160089054906101000a900460ff1690506000151581151514613243576040517f08c379a000000000000000000000000000000000000000000000000000000000815260040161323a906144f7565b60405180910390fd5b6000600360009054906101000a900473ffffffffffffffffffffffffffffffffffffffff1673ffffffffffffffffffffffffffffffffffffffff1663897e9dd1876040518263ffffffff1660e01b81526004016132a09190613e21565b602060405180830381865afa1580156132bd573d6000803e3d6000fd5b505050506040513d601f19601f820116820180604052508101906132e19190614412565b9050610bb8811015613328576040517f08c379a000000000000000000000000000000000000000000000000000000000815260040161331f906146d6565b60405180910390fd5b6000600360009054906101000a900473ffffffffffffffffffffffffffffffffffffffff1673ffffffffffffffffffffffffffffffffffffffff1663221a528f886040518263ffffffff1660e01b81526004016133859190613e21565b602060405180830381865afa1580156133a2573d6000803e3d6000fd5b505050506040513d601f19601f820116820180604052508101906133c69190614412565b905061012c81101561340d576040517f08c379a000000000000000000000000000000000000000000000000000000000815260040161340490614768565b60405180910390fd5b6000601360009054906101000a900473ffffffffffffffffffffffffffffffffffffffff1673ffffffffffffffffffffffffffffffffffffffff1663da81194f896040518263ffffffff1660e01b815260040161346a9190613e21565b61014060405180830381865afa158015613488573d6000803e3d6000fd5b505050506040513d601f19601f820116820180604052508101906134ac9190614788565b505050965050505050505060011515811515146134fe576040517f08c379a00000000000000000000000000000000000000000000000000000000081526004016134f5906148b3565b60405180910390fd5b6001601460008a815260200190815260200160002060000160086101000a81548160ff021916908315150217905550600460009054906101000a900473ffffffffffffffffffffffffffffffffffffffff1673ffffffffffffffffffffffffffffffffffffffff166356184fb9896040518263ffffffff1660e01b81526004016135889190613e21565b600060405180830381600087803b1580156135a257600080fd5b505af11580156135b6573d6000803e3d6000fd5b50505050600260009054906101000a900473ffffffffffffffffffffffffffffffffffffffff1673ffffffffffffffffffffffffffffffffffffffff16635ff38ff1896010546040518363ffffffff1660e01b8152600401613619929190614517565b6020604051808303816000875af1158015613638573d6000803e3d6000fd5b505050506040513d601f19601f8201168201806040525081019061365c9190614111565b61366557600080fd5b50505050613b3d565b6011548110156136b3576040517f08c379a00000000000000000000000000000000000000000000000000000000081526004016136aa9061448b565b60405180910390fd5b60006014600086815260200190815260200160002060000160099054906101000a900460ff1690506000151581151514613722576040517f08c379a0000000000000000000000000000000000000000000000000000000008152600401613719906144f7565b60405180910390fd5b6000600360009054906101000a900473ffffffffffffffffffffffffffffffffffffffff1673ffffffffffffffffffffffffffffffffffffffff1663221a528f876040518263ffffffff1660e01b815260040161377f9190613e21565b602060405180830381865afa15801561379c573d6000803e3d6000fd5b505050506040513d601f19601f820116820180604052508101906137c09190614412565b90506103e8811015613807576040517f08c379a00000000000000000000000000000000000000000000000000000000081526004016137fe90614945565b60405180910390fd5b6000600360009054906101000a900473ffffffffffffffffffffffffffffffffffffffff1673ffffffffffffffffffffffffffffffffffffffff1663897e9dd1886040518263ffffffff1660e01b81526004016138649190613e21565b602060405180830381865afa158015613881573d6000803e3d6000fd5b505050506040513d601f19601f820116820180604052508101906138a59190614412565b90506113888110156138ec576040517f08c379a00000000000000000000000000000000000000000000000000000000081526004016138e3906149d7565b60405180910390fd5b6000600360009054906101000a900473ffffffffffffffffffffffffffffffffffffffff1673ffffffffffffffffffffffffffffffffffffffff1663a9266dde896040518263ffffffff1660e01b81526004016139499190613e21565b602060405180830381865afa158015613966573d6000803e3d6000fd5b505050506040513d601f19601f8201168201806040525081019061398a9190614412565b9050610bb88110156139d1576040517f08c379a00000000000000000000000000000000000000000000000000000000081526004016139c890614a43565b60405180910390fd5b6001601460008a815260200190815260200160002060000160096101000a81548160ff021916908315150217905550600460009054906101000a900473ffffffffffffffffffffffffffffffffffffffff1673ffffffffffffffffffffffffffffffffffffffff166356184fb9896040518263ffffffff1660e01b8152600401613a5b9190613e21565b600060405180830381600087803b158015613a7557600080fd5b505af1158015613a89573d6000803e3d6000fd5b50505050600260009054906101000a900473ffffffffffffffffffffffffffffffffffffffff1673ffffffffffffffffffffffffffffffffffffffff16635ff38ff1896011546040518363ffffffff1660e01b8152600401613aec929190614517565b6020604051808303816000875af1158015613b0b573d6000803e3d6000fd5b505050506040513d601f19601f82011682018060405250810190613b2f9190614111565b613b3857600080fd5b505050505b5b5b5b5b5b5b5b82847f6d3af01a232b9fd729a8af64a080fc8fd375061756fea60e1eab5081c0f6ed8260405160405180910390a35050613b7c613be1565b5050565b613b88613bea565b80600f8190555050565b600260015403613bd7576040517f08c379a0000000000000000000000000000000000000000000000000000000008152600401613bce90614aaf565b60405180910390fd5b6002600181905550565b60018081905550565b613bf2613d2c565b73ffffffffffffffffffffffffffffffffffffffff16613c10611693565b73ffffffffffffffffffffffffffffffffffffffff1614613c66576040517f08c379a0000000000000000000000000000000000000000000000000000000008152600401613c5d90614b1b565b60405180910390fd5b565b60008060009054906101000a900473ffffffffffffffffffffffffffffffffffffffff169050816000806101000a81548173ffffffffffffffffffffffffffffffffffffffff021916908373ffffffffffffffffffffffffffffffffffffffff1602179055508173ffffffffffffffffffffffffffffffffffffffff168173ffffffffffffffffffffffffffffffffffffffff167f8be0079c531659141344cd1fd0a4f28419497f9722a3daafe3b4186f6b6457e060405160405180910390a35050565b600033905090565b600080fd5b6000819050919050565b613d4c81613d39565b8114613d5757600080fd5b50565b600081359050613d6981613d43565b92915050565b600060208284031215613d8557613d84613d34565b5b6000613d9384828501613d5a565b91505092915050565b60008115159050919050565b613db181613d9c565b82525050565b6000602082019050613dcc6000830184613da8565b92915050565b60008060408385031215613de957613de8613d34565b5b6000613df785828601613d5a565b9250506020613e0885828601613d5a565b9150509250929050565b613e1b81613d39565b82525050565b6000602082019050613e366000830184613e12565b92915050565b600061012082019050613e52600083018c613e12565b613e5f602083018b613e12565b613e6c604083018a613e12565b613e796060830189613e12565b613e866080830188613e12565b613e9360a0830187613e12565b613ea060c0830186613e12565b613ead60e0830185613e12565b613ebb610100830184613e12565b9a9950505050505050505050565b600073ffffffffffffffffffffffffffffffffffffffff82169050919050565b6000613ef482613ec9565b9050919050565b613f0481613ee9565b82525050565b6000602082019050613f1f6000830184613efb565b92915050565b613f2e81613ee9565b8114613f3957600080fd5b50565b600081359050613f4b81613f25565b92915050565b600080600080600080600060e0888a031215613f7057613f6f613d34565b5b6000613f7e8a828b01613f3c565b9750506020613f8f8a828b01613f3c565b9650506040613fa08a828b01613f3c565b9550506060613fb18a828b01613f3c565b9450506080613fc28a828b01613f3c565b93505060a0613fd38a828b01613f3c565b92505060c0613fe48a828b01613f3c565b91505092959891949750929550565b60006020828403121561400957614008613d34565b5b600061401784828501613f3c565b91505092915050565b600061014082019050614036600083018d613da8565b614043602083018c613da8565b614050604083018b613da8565b61405d606083018a613da8565b61406a6080830189613da8565b61407760a0830188613da8565b61408460c0830187613da8565b61409160e0830186613da8565b61409f610100830185613da8565b6140ad610120830184613da8565b9b9a5050505050505050505050565b60006040820190506140d16000830185613e12565b6140de6020830184613efb565b9392505050565b6140ee81613d9c565b81146140f957600080fd5b50565b60008151905061410b816140e5565b92915050565b60006020828403121561412757614126613d34565b5b6000614135848285016140fc565b91505092915050565b600082825260208201905092915050565b7f216e6174696f6e206f776e657200000000000000000000000000000000000000600082015250565b6000614185600d8361413e565b91506141908261414f565b602082019050919050565b600060208201905081810360008301526141b481614178565b9050919050565b7f496e76616c696420776f6e646572204944000000000000000000000000000000600082015250565b60006141f160118361413e565b91506141fc826141bb565b602082019050919050565b60006020820190508181036000830152614220816141e4565b9050919050565b7f4e6f20776f6e64657220746f2064656c65746500000000000000000000000000600082015250565b600061425d60138361413e565b915061426882614227565b602082019050919050565b6000602082019050818103600083015261428c81614250565b9050919050565b7f6f6e6c792063616c6c61626c652066726f6d20636f756e7472794d696e746572600082015250565b60006142c960208361413e565b91506142d482614293565b602082019050919050565b600060208201905081810360008301526142f8816142bc565b9050919050565b7f4e6174696f6e20616c726561647920696e697469616c697a6564000000000000600082015250565b6000614335601a8361413e565b9150614340826142ff565b602082019050919050565b6000602082019050818103600083015261436481614328565b9050919050565b7f4f776e61626c653a206e6577206f776e657220697320746865207a65726f206160008201527f6464726573730000000000000000000000000000000000000000000000000000602082015250565b60006143c760268361413e565b91506143d28261436b565b604082019050919050565b600060208201905081810360008301526143f6816143ba565b9050919050565b60008151905061440c81613d43565b92915050565b60006020828403121561442857614427613d34565b5b6000614436848285016143fd565b91505092915050565b7f496e73756666696369656e742062616c616e6365000000000000000000000000600082015250565b600061447560148361413e565b91506144808261443f565b602082019050919050565b600060208201905081810360008301526144a481614468565b9050919050565b7f416c7265616479206f776e656400000000000000000000000000000000000000600082015250565b60006144e1600d8361413e565b91506144ec826144ab565b602082019050919050565b60006020820190508181036000830152614510816144d4565b9050919050565b600060408201905061452c6000830185613e12565b6145396020830184613e12565b9392505050565b7f53747261746567696320446566656e736520496e69746961746976652072657160008201527f756972656420746f207075726368617365000000000000000000000000000000602082015250565b600061459c60318361413e565b91506145a782614540565b604082019050919050565b600060208201905081810360008301526145cb8161458f565b9050919050565b7f4d7573742068617665203530303020546563686e6f6c6f677920746f2070757260008201527f6368617365000000000000000000000000000000000000000000000000000000602082015250565b600061462e60258361413e565b9150614639826145d2565b604082019050919050565b6000602082019050818103600083015261465d81614621565b9050919050565b7f5265717569726573203330303020696e66726173747275637475726520746f2060008201527f7075726368617365000000000000000000000000000000000000000000000000602082015250565b60006146c060288361413e565b91506146cb82614664565b604082019050919050565b600060208201905081810360008301526146ef816146b3565b9050919050565b7f4d75737420686176652033303020546563686e6f6c6f677920746f207075726360008201527f6861736500000000000000000000000000000000000000000000000000000000602082015250565b600061475260248361413e565b915061475d826146f6565b604082019050919050565b6000602082019050818103600083015261478181614745565b9050919050565b6000806000806000806000806000806101408b8d0312156147ac576147ab613d34565b5b60006147ba8d828e016140fc565b9a505060206147cb8d828e016140fc565b99505060406147dc8d828e016140fc565b98505060606147ed8d828e016140fc565b97505060806147fe8d828e016140fc565b96505060a061480f8d828e016140fc565b95505060c06148208d828e016140fc565b94505060e06148318d828e016140fc565b9350506101006148438d828e016140fc565b9250506101206148558d828e016140fc565b9150509295989b9194979a5092959850565b7f5265717569726573207572616e69756d20746f20707572636861736500000000600082015250565b600061489d601c8361413e565b91506148a882614867565b602082019050919050565b600060208201905081810360008301526148cc81614890565b9050919050565b7f4d7573742068617665203130303020546563686e6f6c6f677920746f2070757260008201527f6368617365000000000000000000000000000000000000000000000000000000602082015250565b600061492f60258361413e565b915061493a826148d3565b604082019050919050565b6000602082019050818103600083015261495e81614922565b9050919050565b7f4d7573742068617665203530303020496e66726173747275637475726520746f60008201527f2070757263686173650000000000000000000000000000000000000000000000602082015250565b60006149c160298361413e565b91506149cc82614965565b604082019050919050565b600060208201905081810360008301526149f0816149b4565b9050919050565b7f4d75737420686176652033303030204c616e6420746f20707572636861736500600082015250565b6000614a2d601f8361413e565b9150614a38826149f7565b602082019050919050565b60006020820190508181036000830152614a5c81614a20565b9050919050565b7f5265656e7472616e637947756172643a207265656e7472616e742063616c6c00600082015250565b6000614a99601f8361413e565b9150614aa482614a63565b602082019050919050565b60006020820190508181036000830152614ac881614a8c565b9050919050565b7f4f776e61626c653a2063616c6c6572206973206e6f7420746865206f776e6572600082015250565b6000614b0560208361413e565b9150614b1082614acf565b602082019050919050565b60006020820190508181036000830152614b3481614af8565b905091905056fea264697066735822122005dea7a599cd0e2b1a46b3a74850d2a4a6fc31321e4fc72b7d7a63803e8f0b6f64736f6c63430008110033",
  "devdoc": {
    "author": "OxSnosh",
    "details": "this contract inherits from openzeppelin's ownable contract",
    "kind": "dev",
    "methods": {
      "buyWonder2(uint256,uint256)": {
        "params": {
          "wonderId": "is the id of the wonder 1. great monument 2. great temple 3. great university 4. hidden nuclear missile silo 5. interceptor missile system 6. internet 7. interstate system 8. manhattan project 9. mining industry consortium"
        }
      },
      "deleteWonder2(uint256,uint256)": {
        "params": {
          "wonderId": "is the id of the wonder 1. great monument 2. great temple 3. great university 4. hidden nuclear missile silo 5. interceptor missile system 6. internet 7. interstate system 8. manhattan project 9. mining industry consortium"
        }
      },
      "generateWonders2(uint256)": {
        "details": "this function is only callable from the country minter contract"
      },
      "getGreatMonument(uint256)": {
        "details": "this is a public view function that will return true if a nation has the great monument wonderthis function will return true if a nation has the great monument wonder",
        "params": {
          "id": "is the nation id of the nation being queried"
        },
        "returns": {
          "_0": "bool will be true if the nation has the wonder"
        }
      },
      "getGreatTemple(uint256)": {
        "details": "this is a public view function that will return true if a nation has the great temple wonderthis function will return true if a nation has the great temple wonder",
        "params": {
          "id": "is the nation id of the nation being queried"
        },
        "returns": {
          "_0": "bool will be true if the nation has the wonder"
        }
      },
      "getGreatUniversity(uint256)": {
        "details": "this is a public view function that will return true if a nation has the great university wonderthis function will return true if a nation has the great university wonder",
        "params": {
          "countryId": "is the nation id of the nation being queried"
        },
        "returns": {
          "_0": "bool will be true if the nation has the wonder"
        }
      },
      "getHiddenNuclearMissileSilo(uint256)": {
        "details": "this is a public view function that will return true if a nation has the hidden nuclear missile silo wonderthis function will return true if a nation has the hidden nuclear missile silo wonder",
        "params": {
          "countryId": "is the nation id of the nation being queried"
        },
        "returns": {
          "_0": "bool will be true if the nation has the wonder"
        }
      },
      "getInterceptorMissileSystem(uint256)": {
        "details": "this is a public view function that will return true if a nation has the intereptor missile system wonderthis function will return true if a nation has the intereptor missile system wonder",
        "params": {
          "countryId": "is the nation id of the nation being queried"
        },
        "returns": {
          "_0": "bool will be true if the nation has the wonder"
        }
      },
      "getInternet(uint256)": {
        "details": "this is a public view function that will return true if a nation has the internet wonderthis function will return true if a nation has the internet wonder",
        "params": {
          "countryId": "is the nation id of the nation being queried"
        },
        "returns": {
          "_0": "bool will be true if the nation has the wonder"
        }
      },
      "getInterstateSystem(uint256)": {
        "details": "this is a public view function that will return true if a nation has the interstate system wonderthis function will return true if a nation has the interstate system wonder",
        "params": {
          "countryId": "is the nation id of the nation being queried"
        },
        "returns": {
          "_0": "bool will be true if the nation has the wonder"
        }
      },
      "getManhattanProject(uint256)": {
        "details": "this is a public view function that will return true if a nation has the manhattan project wonderthis function will return true if a nation has the manhattan project wonder",
        "params": {
          "countryId": "is the nation id of the nation being queried"
        },
        "returns": {
          "_0": "bool will be true if the nation has the wonder"
        }
      },
      "getMiningIndustryConsortium(uint256)": {
        "details": "this is a public view function that will return true if a nation has the mining industry consortium wonderthis function will return true if a nation has the mining industry consortium wonder",
        "params": {
          "countryId": "is the nation id of the nation being queried"
        },
        "returns": {
          "_0": "bool will be true if the nation has the wonder"
        }
      },
      "getWonderCosts2()": {
        "details": "this function will return the costs of the wonders in this contract"
      },
      "owner()": {
        "details": "Returns the address of the current owner."
      },
      "renounceOwnership()": {
        "details": "Leaves the contract without owner. It will not be possible to call `onlyOwner` functions. Can only be called by the current owner. NOTE: Renouncing ownership will leave the contract without an owner, thereby disabling any functionality that is only available to the owner."
      },
      "settings(address,address,address,address,address,address,address)": {
        "details": "this function is only callable by the contract ownerthis function will be called immediately after contract deployment in order to set contract pointers"
      },
      "transferOwnership(address)": {
        "details": "Transfers ownership of the contract to a new account (`newOwner`). Can only be called by the current owner."
      },
      "updateGreatMonumentCost(uint256)": {
        "details": "this function is only callable by the contract owner"
      },
      "updateGreatTempleCost(uint256)": {
        "details": "this function is only callable by the contract owner"
      },
      "updateGreatUniversityCost(uint256)": {
        "details": "this function is only callable by the contract owner"
      },
      "updateHiddenNuclearMissileSiloCost(uint256)": {
        "details": "this function is only callable by the contract owner"
      },
      "updateInterceptorMissileSystemCost(uint256)": {
        "details": "this function is only callable by the contract owner"
      },
      "updateInternetCost(uint256)": {
        "details": "this function is only callable by the contract owner"
      },
      "updateInterstateSystemCost(uint256)": {
        "details": "this function is only callable by the contract owner"
      },
      "updateManhattanProjectCost(uint256)": {
        "details": "this function is only callable by the contract owner"
      },
      "updateMiningIndustryConsortiumCost(uint256)": {
        "details": "this function is only callable by the contract owner"
      }
    },
    "title": "WondersContract2",
    "version": 1
  },
  "userdoc": {
    "kind": "user",
    "methods": {
      "generateWonders2(uint256)": {
        "notice": "this function will be called when a nation is minted and allow a nation to buy the wonders in this contract"
      }
    },
    "notice": "this contract will strore information about a nations wonders",
    "version": 1
  },
  "storageLayout": {
    "storage": [
      {
        "astId": 1467,
        "contract": "contracts/Wonders.sol:WondersContract2",
        "label": "_owner",
        "offset": 0,
        "slot": "0",
        "type": "t_address"
      },
      {
        "astId": 1583,
        "contract": "contracts/Wonders.sol:WondersContract2",
        "label": "_status",
        "offset": 0,
        "slot": "1",
        "type": "t_uint256"
      },
      {
        "astId": 73174,
        "contract": "contracts/Wonders.sol:WondersContract2",
        "label": "treasuryAddress",
        "offset": 0,
        "slot": "2",
        "type": "t_address"
      },
      {
        "astId": 73176,
        "contract": "contracts/Wonders.sol:WondersContract2",
        "label": "infrastructureAddress",
        "offset": 0,
        "slot": "3",
        "type": "t_address"
      },
      {
        "astId": 73178,
        "contract": "contracts/Wonders.sol:WondersContract2",
        "label": "wonderContract1Address",
        "offset": 0,
        "slot": "4",
        "type": "t_address"
      },
      {
        "astId": 73180,
        "contract": "contracts/Wonders.sol:WondersContract2",
        "label": "wonderContract3Address",
        "offset": 0,
        "slot": "5",
        "type": "t_address"
      },
      {
        "astId": 73182,
        "contract": "contracts/Wonders.sol:WondersContract2",
        "label": "wonderContract4Address",
        "offset": 0,
        "slot": "6",
        "type": "t_address"
      },
      {
        "astId": 73184,
        "contract": "contracts/Wonders.sol:WondersContract2",
        "label": "countryMinter",
        "offset": 0,
        "slot": "7",
        "type": "t_address"
      },
      {
        "astId": 73186,
        "contract": "contracts/Wonders.sol:WondersContract2",
        "label": "resources",
        "offset": 0,
        "slot": "8",
        "type": "t_address"
      },
      {
        "astId": 73194,
        "contract": "contracts/Wonders.sol:WondersContract2",
        "label": "greatMonumentCost",
        "offset": 0,
        "slot": "9",
        "type": "t_uint256"
      },
      {
        "astId": 73202,
        "contract": "contracts/Wonders.sol:WondersContract2",
        "label": "greatTempleCost",
        "offset": 0,
        "slot": "10",
        "type": "t_uint256"
      },
      {
        "astId": 73210,
        "contract": "contracts/Wonders.sol:WondersContract2",
        "label": "greatUniversityCost",
        "offset": 0,
        "slot": "11",
        "type": "t_uint256"
      },
      {
        "astId": 73218,
        "contract": "contracts/Wonders.sol:WondersContract2",
        "label": "hiddenNuclearMissileSiloCost",
        "offset": 0,
        "slot": "12",
        "type": "t_uint256"
      },
      {
        "astId": 73226,
        "contract": "contracts/Wonders.sol:WondersContract2",
        "label": "interceptorMissileSystemCost",
        "offset": 0,
        "slot": "13",
        "type": "t_uint256"
      },
      {
        "astId": 73234,
        "contract": "contracts/Wonders.sol:WondersContract2",
        "label": "internetCost",
        "offset": 0,
        "slot": "14",
        "type": "t_uint256"
      },
      {
        "astId": 73242,
        "contract": "contracts/Wonders.sol:WondersContract2",
        "label": "interstateSystemCost",
        "offset": 0,
        "slot": "15",
        "type": "t_uint256"
      },
      {
        "astId": 73250,
        "contract": "contracts/Wonders.sol:WondersContract2",
        "label": "manhattanProjectCost",
        "offset": 0,
        "slot": "16",
        "type": "t_uint256"
      },
      {
        "astId": 73258,
        "contract": "contracts/Wonders.sol:WondersContract2",
        "label": "miningIndustryConsortiumCost",
        "offset": 0,
        "slot": "17",
        "type": "t_uint256"
      },
      {
        "astId": 73261,
        "contract": "contracts/Wonders.sol:WondersContract2",
        "label": "mint",
        "offset": 0,
        "slot": "18",
        "type": "t_contract(CountryMinter)15580"
      },
      {
        "astId": 73264,
        "contract": "contracts/Wonders.sol:WondersContract2",
        "label": "res",
        "offset": 0,
        "slot": "19",
        "type": "t_contract(ResourcesContract)58455"
      },
      {
        "astId": 73290,
        "contract": "contracts/Wonders.sol:WondersContract2",
        "label": "idToWonders2",
        "offset": 0,
        "slot": "20",
        "type": "t_mapping(t_uint256,t_struct(Wonders2)73285_storage)"
      }
    ],
    "types": {
      "t_address": {
        "encoding": "inplace",
        "label": "address",
        "numberOfBytes": "20"
      },
      "t_bool": {
        "encoding": "inplace",
        "label": "bool",
        "numberOfBytes": "1"
      },
      "t_contract(CountryMinter)15580": {
        "encoding": "inplace",
        "label": "contract CountryMinter",
        "numberOfBytes": "20"
      },
      "t_contract(ResourcesContract)58455": {
        "encoding": "inplace",
        "label": "contract ResourcesContract",
        "numberOfBytes": "20"
      },
      "t_mapping(t_uint256,t_struct(Wonders2)73285_storage)": {
        "encoding": "mapping",
        "key": "t_uint256",
        "label": "mapping(uint256 => struct WondersContract2.Wonders2)",
        "numberOfBytes": "32",
        "value": "t_struct(Wonders2)73285_storage"
      },
      "t_struct(Wonders2)73285_storage": {
        "encoding": "inplace",
        "label": "struct WondersContract2.Wonders2",
        "members": [
          {
            "astId": 73266,
            "contract": "contracts/Wonders.sol:WondersContract2",
            "label": "initialized",
            "offset": 0,
            "slot": "0",
            "type": "t_bool"
          },
          {
            "astId": 73268,
            "contract": "contracts/Wonders.sol:WondersContract2",
            "label": "greatMonument",
            "offset": 1,
            "slot": "0",
            "type": "t_bool"
          },
          {
            "astId": 73270,
            "contract": "contracts/Wonders.sol:WondersContract2",
            "label": "greatTemple",
            "offset": 2,
            "slot": "0",
            "type": "t_bool"
          },
          {
            "astId": 73272,
            "contract": "contracts/Wonders.sol:WondersContract2",
            "label": "greatUniversity",
            "offset": 3,
            "slot": "0",
            "type": "t_bool"
          },
          {
            "astId": 73274,
            "contract": "contracts/Wonders.sol:WondersContract2",
            "label": "hiddenNuclearMissileSilo",
            "offset": 4,
            "slot": "0",
            "type": "t_bool"
          },
          {
            "astId": 73276,
            "contract": "contracts/Wonders.sol:WondersContract2",
            "label": "interceptorMissileSystem",
            "offset": 5,
            "slot": "0",
            "type": "t_bool"
          },
          {
            "astId": 73278,
            "contract": "contracts/Wonders.sol:WondersContract2",
            "label": "internet",
            "offset": 6,
            "slot": "0",
            "type": "t_bool"
          },
          {
            "astId": 73280,
            "contract": "contracts/Wonders.sol:WondersContract2",
            "label": "interstateSystem",
            "offset": 7,
            "slot": "0",
            "type": "t_bool"
          },
          {
            "astId": 73282,
            "contract": "contracts/Wonders.sol:WondersContract2",
            "label": "manhattanProject",
            "offset": 8,
            "slot": "0",
            "type": "t_bool"
          },
          {
            "astId": 73284,
            "contract": "contracts/Wonders.sol:WondersContract2",
            "label": "miningIndustryConsortium",
            "offset": 9,
            "slot": "0",
            "type": "t_bool"
          }
        ],
        "numberOfBytes": "32"
      },
      "t_uint256": {
        "encoding": "inplace",
        "label": "uint256",
        "numberOfBytes": "32"
      }
    }
  }
}