{
  "address": "0x714EE473D18d4424D09D11FDad4Fe7e21a0deC2B",
  "abi": [
    {
      "inputs": [
        {
          "internalType": "address",
          "name": "_vrfCoordinator",
          "type": "address"
        },
        {
          "internalType": "uint256",
          "name": "_subId",
          "type": "uint256"
        },
        {
          "internalType": "bytes32",
          "name": "_keyHash",
          "type": "bytes32"
        },
        {
          "internalType": "uint32",
          "name": "_vrfCallbackGasLimit",
          "type": "uint32"
        }
      ],
      "stateMutability": "nonpayable",
      "type": "constructor"
    },
    {
      "inputs": [
        {
          "internalType": "address",
          "name": "have",
          "type": "address"
        },
        {
          "internalType": "address",
          "name": "want",
          "type": "address"
        }
      ],
      "name": "OnlyCoordinatorCanFulfill",
      "type": "error"
    },
    {
      "inputs": [
        {
          "internalType": "address",
          "name": "have",
          "type": "address"
        },
        {
          "internalType": "address",
          "name": "owner",
          "type": "address"
        },
        {
          "internalType": "address",
          "name": "coordinator",
          "type": "address"
        }
      ],
      "name": "OnlyOwnerOrCoordinator",
      "type": "error"
    },
    {
      "inputs": [
        {
          "internalType": "uint256",
          "name": "attackId",
          "type": "uint256"
        },
        {
          "internalType": "uint256",
          "name": "retryAfter",
          "type": "uint256"
        }
      ],
      "name": "RequestPending",
      "type": "error"
    },
    {
      "inputs": [
        {
          "internalType": "uint256",
          "name": "requestId",
          "type": "uint256"
        }
      ],
      "name": "UnknownRequest",
      "type": "error"
    },
    {
      "inputs": [],
      "name": "ZeroAddress",
      "type": "error"
    },
    {
      "anonymous": false,
      "inputs": [
        {
          "indexed": false,
          "internalType": "address",
          "name": "vrfCoordinator",
          "type": "address"
        }
      ],
      "name": "CoordinatorSet",
      "type": "event"
    },
    {
      "anonymous": false,
      "inputs": [
        {
          "indexed": true,
          "internalType": "address",
          "name": "from",
          "type": "address"
        },
        {
          "indexed": true,
          "internalType": "address",
          "name": "to",
          "type": "address"
        }
      ],
      "name": "OwnershipTransferRequested",
      "type": "event"
    },
    {
      "anonymous": false,
      "inputs": [
        {
          "indexed": true,
          "internalType": "address",
          "name": "from",
          "type": "address"
        },
        {
          "indexed": true,
          "internalType": "address",
          "name": "to",
          "type": "address"
        }
      ],
      "name": "OwnershipTransferred",
      "type": "event"
    },
    {
      "anonymous": false,
      "inputs": [
        {
          "indexed": true,
          "internalType": "uint256",
          "name": "attackId",
          "type": "uint256"
        },
        {
          "indexed": true,
          "internalType": "uint256",
          "name": "defenderId",
          "type": "uint256"
        },
        {
          "indexed": false,
          "internalType": "uint8",
          "name": "attackType",
          "type": "uint8"
        }
      ],
      "name": "SpyAttackCommitted",
      "type": "event"
    },
    {
      "anonymous": false,
      "inputs": [
        {
          "indexed": true,
          "internalType": "uint256",
          "name": "attackId",
          "type": "uint256"
        },
        {
          "indexed": false,
          "internalType": "uint256",
          "name": "maskedAttackerId",
          "type": "uint256"
        },
        {
          "indexed": false,
          "internalType": "uint256",
          "name": "defenderId",
          "type": "uint256"
        },
        {
          "indexed": false,
          "internalType": "bool",
          "name": "success",
          "type": "bool"
        },
        {
          "indexed": false,
          "internalType": "uint256",
          "name": "attackType",
          "type": "uint256"
        }
      ],
      "name": "SpyAttackResolvedPublic",
      "type": "event"
    },
    {
      "anonymous": false,
      "inputs": [
        {
          "indexed": true,
          "internalType": "uint256",
          "name": "attackId",
          "type": "uint256"
        },
        {
          "indexed": false,
          "internalType": "uint256",
          "name": "attackerId",
          "type": "uint256"
        }
      ],
      "name": "SpyAttackRevealed",
      "type": "event"
    },
    {
      "anonymous": false,
      "inputs": [
        {
          "indexed": false,
          "internalType": "bytes32",
          "name": "keyHash",
          "type": "bytes32"
        },
        {
          "indexed": false,
          "internalType": "uint64",
          "name": "subId",
          "type": "uint64"
        },
        {
          "indexed": false,
          "internalType": "uint16",
          "name": "minConf",
          "type": "uint16"
        },
        {
          "indexed": false,
          "internalType": "uint32",
          "name": "gasLimit",
          "type": "uint32"
        },
        {
          "indexed": false,
          "internalType": "uint32",
          "name": "numWords",
          "type": "uint32"
        },
        {
          "indexed": false,
          "internalType": "bool",
          "name": "nativePayment",
          "type": "bool"
        }
      ],
      "name": "VrfConfigUpdated",
      "type": "event"
    },
    {
      "anonymous": false,
      "inputs": [
        {
          "indexed": true,
          "internalType": "uint256",
          "name": "attackId",
          "type": "uint256"
        },
        {
          "indexed": true,
          "internalType": "uint256",
          "name": "requestId",
          "type": "uint256"
        }
      ],
      "name": "VrfRequestCleared",
      "type": "event"
    },
    {
      "anonymous": false,
      "inputs": [
        {
          "indexed": true,
          "internalType": "uint256",
          "name": "attackId",
          "type": "uint256"
        },
        {
          "indexed": true,
          "internalType": "uint256",
          "name": "requestId",
          "type": "uint256"
        }
      ],
      "name": "VrfRequested",
      "type": "event"
    },
    {
      "anonymous": false,
      "inputs": [
        {
          "indexed": true,
          "internalType": "uint256",
          "name": "attackId",
          "type": "uint256"
        },
        {
          "indexed": true,
          "internalType": "uint256",
          "name": "oldRequestId",
          "type": "uint256"
        },
        {
          "indexed": true,
          "internalType": "uint256",
          "name": "newRequestId",
          "type": "uint256"
        }
      ],
      "name": "VrfRetried",
      "type": "event"
    },
    {
      "anonymous": false,
      "inputs": [
        {
          "indexed": true,
          "internalType": "uint256",
          "name": "attackId",
          "type": "uint256"
        },
        {
          "indexed": true,
          "internalType": "uint256",
          "name": "staleRequestId",
          "type": "uint256"
        }
      ],
      "name": "VrfStaleResponseIgnored",
      "type": "event"
    },
    {
      "inputs": [],
      "name": "MASK_SENTINEL",
      "outputs": [
        {
          "internalType": "uint256",
          "name": "",
          "type": "uint256"
        }
      ],
      "stateMutability": "view",
      "type": "function"
    },
    {
      "inputs": [],
      "name": "MAX_ATTACK_TYPE",
      "outputs": [
        {
          "internalType": "uint8",
          "name": "",
          "type": "uint8"
        }
      ],
      "stateMutability": "view",
      "type": "function"
    },
    {
      "inputs": [],
      "name": "MAX_INCOMING",
      "outputs": [
        {
          "internalType": "uint8",
          "name": "",
          "type": "uint8"
        }
      ],
      "stateMutability": "view",
      "type": "function"
    },
    {
      "inputs": [],
      "name": "MAX_OUTGOING",
      "outputs": [
        {
          "internalType": "uint8",
          "name": "",
          "type": "uint8"
        }
      ],
      "stateMutability": "view",
      "type": "function"
    },
    {
      "inputs": [],
      "name": "MIN_ATTACK_TYPE",
      "outputs": [
        {
          "internalType": "uint8",
          "name": "",
          "type": "uint8"
        }
      ],
      "stateMutability": "view",
      "type": "function"
    },
    {
      "inputs": [],
      "name": "RETRY_TIMEOUT",
      "outputs": [
        {
          "internalType": "uint256",
          "name": "",
          "type": "uint256"
        }
      ],
      "stateMutability": "view",
      "type": "function"
    },
    {
      "inputs": [],
      "name": "acceptOwnership",
      "outputs": [],
      "stateMutability": "nonpayable",
      "type": "function"
    },
    {
      "inputs": [],
      "name": "attackId",
      "outputs": [
        {
          "internalType": "uint256",
          "name": "",
          "type": "uint256"
        }
      ],
      "stateMutability": "view",
      "type": "function"
    },
    {
      "inputs": [
        {
          "internalType": "uint256",
          "name": "",
          "type": "uint256"
        }
      ],
      "name": "attackIdToRequestId",
      "outputs": [
        {
          "internalType": "uint256",
          "name": "",
          "type": "uint256"
        }
      ],
      "stateMutability": "view",
      "type": "function"
    },
    {
      "inputs": [
        {
          "internalType": "uint256",
          "name": "defenderId",
          "type": "uint256"
        }
      ],
      "name": "attackedAlready",
      "outputs": [
        {
          "internalType": "bool",
          "name": "",
          "type": "bool"
        }
      ],
      "stateMutability": "view",
      "type": "function"
    },
    {
      "inputs": [
        {
          "internalType": "uint256",
          "name": "",
          "type": "uint256"
        }
      ],
      "name": "attacks",
      "outputs": [
        {
          "internalType": "uint256",
          "name": "attackerId",
          "type": "uint256"
        },
        {
          "internalType": "uint256",
          "name": "defenderId",
          "type": "uint256"
        },
        {
          "internalType": "uint8",
          "name": "attackType",
          "type": "uint8"
        },
        {
          "internalType": "bool",
          "name": "success",
          "type": "bool"
        },
        {
          "internalType": "bool",
          "name": "revealed",
          "type": "bool"
        },
        {
          "internalType": "bool",
          "name": "resolved",
          "type": "bool"
        }
      ],
      "stateMutability": "view",
      "type": "function"
    },
    {
      "inputs": [
        {
          "internalType": "uint256",
          "name": "_attackId",
          "type": "uint256"
        }
      ],
      "name": "canRetry",
      "outputs": [
        {
          "internalType": "bool",
          "name": "",
          "type": "bool"
        }
      ],
      "stateMutability": "view",
      "type": "function"
    },
    {
      "inputs": [
        {
          "internalType": "uint256",
          "name": "id",
          "type": "uint256"
        }
      ],
      "name": "getAttackPublic",
      "outputs": [
        {
          "internalType": "uint256",
          "name": "attackerIdOrMask",
          "type": "uint256"
        },
        {
          "internalType": "uint256",
          "name": "defenderId",
          "type": "uint256"
        },
        {
          "internalType": "uint8",
          "name": "attackType",
          "type": "uint8"
        },
        {
          "internalType": "bool",
          "name": "success",
          "type": "bool"
        },
        {
          "internalType": "bool",
          "name": "revealed",
          "type": "bool"
        },
        {
          "internalType": "bool",
          "name": "resolved",
          "type": "bool"
        }
      ],
      "stateMutability": "view",
      "type": "function"
    },
    {
      "inputs": [
        {
          "internalType": "uint256",
          "name": "countryId",
          "type": "uint256"
        }
      ],
      "name": "getAttackerSuccessScore",
      "outputs": [
        {
          "internalType": "uint256",
          "name": "",
          "type": "uint256"
        }
      ],
      "stateMutability": "view",
      "type": "function"
    },
    {
      "inputs": [
        {
          "internalType": "uint256",
          "name": "countryId",
          "type": "uint256"
        }
      ],
      "name": "getDefenseSuccessScore",
      "outputs": [
        {
          "internalType": "uint256",
          "name": "",
          "type": "uint256"
        }
      ],
      "stateMutability": "view",
      "type": "function"
    },
    {
      "inputs": [
        {
          "internalType": "uint256",
          "name": "attackerId",
          "type": "uint256"
        },
        {
          "internalType": "uint256",
          "name": "defenderId",
          "type": "uint256"
        },
        {
          "internalType": "uint8",
          "name": "attackType",
          "type": "uint8"
        }
      ],
      "name": "initiateSpyAttack",
      "outputs": [
        {
          "internalType": "uint256",
          "name": "newAttackId",
          "type": "uint256"
        }
      ],
      "stateMutability": "nonpayable",
      "type": "function"
    },
    {
      "inputs": [],
      "name": "owner",
      "outputs": [
        {
          "internalType": "address",
          "name": "",
          "type": "address"
        }
      ],
      "stateMutability": "view",
      "type": "function"
    },
    {
      "inputs": [
        {
          "internalType": "uint256",
          "name": "",
          "type": "uint256"
        }
      ],
      "name": "pending",
      "outputs": [
        {
          "internalType": "uint256",
          "name": "attackerId",
          "type": "uint256"
        },
        {
          "internalType": "uint256",
          "name": "defenderId",
          "type": "uint256"
        },
        {
          "internalType": "uint8",
          "name": "attackType",
          "type": "uint8"
        },
        {
          "internalType": "bool",
          "name": "exists",
          "type": "bool"
        }
      ],
      "stateMutability": "view",
      "type": "function"
    },
    {
      "inputs": [
        {
          "internalType": "uint256",
          "name": "",
          "type": "uint256"
        }
      ],
      "name": "pendingRequestTimestamp",
      "outputs": [
        {
          "internalType": "uint256",
          "name": "",
          "type": "uint256"
        }
      ],
      "stateMutability": "view",
      "type": "function"
    },
    {
      "inputs": [
        {
          "internalType": "uint256",
          "name": "",
          "type": "uint256"
        }
      ],
      "name": "pendingRequests",
      "outputs": [
        {
          "internalType": "bool",
          "name": "",
          "type": "bool"
        }
      ],
      "stateMutability": "view",
      "type": "function"
    },
    {
      "inputs": [
        {
          "internalType": "uint256",
          "name": "requestId",
          "type": "uint256"
        },
        {
          "internalType": "uint256[]",
          "name": "randomWords",
          "type": "uint256[]"
        }
      ],
      "name": "rawFulfillRandomWords",
      "outputs": [],
      "stateMutability": "nonpayable",
      "type": "function"
    },
    {
      "inputs": [
        {
          "internalType": "uint256",
          "name": "_attackId",
          "type": "uint256"
        }
      ],
      "name": "retrySpyAttackVRF",
      "outputs": [],
      "stateMutability": "nonpayable",
      "type": "function"
    },
    {
      "inputs": [
        {
          "internalType": "uint256",
          "name": "id",
          "type": "uint256"
        }
      ],
      "name": "revealAttack",
      "outputs": [],
      "stateMutability": "nonpayable",
      "type": "function"
    },
    {
      "inputs": [],
      "name": "s_vrfCoordinator",
      "outputs": [
        {
          "internalType": "contract IVRFCoordinatorV2Plus",
          "name": "",
          "type": "address"
        }
      ],
      "stateMutability": "view",
      "type": "function"
    },
    {
      "inputs": [
        {
          "internalType": "address",
          "name": "_vrfCoordinator",
          "type": "address"
        }
      ],
      "name": "setCoordinator",
      "outputs": [],
      "stateMutability": "nonpayable",
      "type": "function"
    },
    {
      "inputs": [
        {
          "internalType": "bytes32",
          "name": "_keyHash",
          "type": "bytes32"
        },
        {
          "internalType": "uint64",
          "name": "_subId",
          "type": "uint64"
        },
        {
          "internalType": "uint16",
          "name": "_minConf",
          "type": "uint16"
        },
        {
          "internalType": "uint32",
          "name": "_gasLimit",
          "type": "uint32"
        },
        {
          "internalType": "uint32",
          "name": "_numWords",
          "type": "uint32"
        },
        {
          "internalType": "bool",
          "name": "_useNative",
          "type": "bool"
        }
      ],
      "name": "setVRFConfig",
      "outputs": [],
      "stateMutability": "nonpayable",
      "type": "function"
    },
    {
      "inputs": [
        {
          "internalType": "address",
          "name": "_infrastructure",
          "type": "address"
        },
        {
          "internalType": "address",
          "name": "_forces",
          "type": "address"
        },
        {
          "internalType": "address",
          "name": "_military",
          "type": "address"
        },
        {
          "internalType": "address",
          "name": "_nationStrength",
          "type": "address"
        },
        {
          "internalType": "address",
          "name": "_wonders1",
          "type": "address"
        },
        {
          "internalType": "address",
          "name": "_wonders2",
          "type": "address"
        },
        {
          "internalType": "address",
          "name": "_treasury",
          "type": "address"
        },
        {
          "internalType": "address",
          "name": "_parameters",
          "type": "address"
        },
        {
          "internalType": "address",
          "name": "_missiles",
          "type": "address"
        },
        {
          "internalType": "address",
          "name": "_countryMinter",
          "type": "address"
        }
      ],
      "name": "settings",
      "outputs": [],
      "stateMutability": "nonpayable",
      "type": "function"
    },
    {
      "inputs": [
        {
          "internalType": "address",
          "name": "_keeper",
          "type": "address"
        },
        {
          "internalType": "address",
          "name": "_spies",
          "type": "address"
        }
      ],
      "name": "settings2",
      "outputs": [],
      "stateMutability": "nonpayable",
      "type": "function"
    },
    {
      "inputs": [
        {
          "internalType": "address",
          "name": "to",
          "type": "address"
        }
      ],
      "name": "transferOwnership",
      "outputs": [],
      "stateMutability": "nonpayable",
      "type": "function"
    },
    {
      "inputs": [
        {
          "internalType": "uint256",
          "name": "",
          "type": "uint256"
        }
      ],
      "name": "vrfRequestToAttackId",
      "outputs": [
        {
          "internalType": "uint256",
          "name": "",
          "type": "uint256"
        }
      ],
      "stateMutability": "view",
      "type": "function"
    }
  ],
  "transactionHash": "0xaf867ae090e5dc557e735041b2773d541fc4e6178266e53e76ad1fb444ba9f30",
  "args": [
    "0xd5D517aBE5cF79B7e95eC98dB0f0277788aFF634",
    "24802783192322697201261566732783929045615788778639507776573378755552146781710",
    "0x00b81b5a830cb0a4009fbd8904de511e28631e62ce5ad231373d3cdad373ccab",
    "2500000"
  ],
  "numDeployments": 3,
  "solcInputHash": "bfb337506f74cf0901f387ae22a24c7e",
  "bytecode": "0x60e06040526003601660006101000a81548161ffff021916908361ffff1602179055506001601660066101000a81548163ffffffff021916908363ffffffff16021790555060016016600a6101000a81548160ff0219169083151502179055503480156200006c57600080fd5b506040516200673a3803806200673a833981810160405281019062000092919062000b0f565b8333806000620000a76200032160201b60201c565b8073ffffffffffffffffffffffffffffffffffffffff1660c09073ffffffffffffffffffffffffffffffffffffffff168152508173ffffffffffffffffffffffffffffffffffffffff1660a09073ffffffffffffffffffffffffffffffffffffffff168152508273ffffffffffffffffffffffffffffffffffffffff1660809073ffffffffffffffffffffffffffffffffffffffff16815250505050600073ffffffffffffffffffffffffffffffffffffffff168273ffffffffffffffffffffffffffffffffffffffff1603620001b5576040517f08c379a0000000000000000000000000000000000000000000000000000000008152600401620001ac9062000be2565b60405180910390fd5b816000806101000a81548173ffffffffffffffffffffffffffffffffffffffff021916908373ffffffffffffffffffffffffffffffffffffffff160217905550600073ffffffffffffffffffffffffffffffffffffffff168173ffffffffffffffffffffffffffffffffffffffff16146200023c576200023b81620004f960201b60201c565b5b505050600073ffffffffffffffffffffffffffffffffffffffff168173ffffffffffffffffffffffffffffffffffffffff1603620002a6576040517fd92e233d00000000000000000000000000000000000000000000000000000000815260040160405180910390fd5b80600260006101000a81548173ffffffffffffffffffffffffffffffffffffffff021916908373ffffffffffffffffffffffffffffffffffffffff16021790555050816014819055508260158190555080601660026101000a81548163ffffffff021916908363ffffffff1602179055505050505062000c76565b600080600062000337466200062860201b60201c565b1562000388577361ace8fba7b80aef8ed67f37cb60be00180872ad73368165b2afb95fae8cec409efa59d5091f9875a573038479687b7bc7943313bffd524a4acc96b3f9be925092509250620004f4565b62000399466200065660201b60201c565b15620003ea5773b16a1dbe755f992636705fdbb3a8678a657eb3ea7322dcc39b2ac376862183dd35a1664798dafc7da673ba4082f4961c8fb76231995c967cd9aa40f321b5925092509250620004f4565b620003fb466200068460201b60201c565b156200044c577342120a1417a091a52a8d4590e28fc6c0f61e563273aced988c5b5fe3f11848c728d9a5f66cf34c9e7373bbce89acdd86d0130bdc3f1fe37c3aedd79fc1f4925092509250620004f4565b6200045d46620006b260201b60201c565b15620004ae5773abcc9b596420a9e9172fd5938620e265a0f9df9273b539068872230f20456cf38ec52ef2f91af4ae49738598806401a63ddf52473f1b3c55bc9e33e2d73b925092509250620004f4565b73cd565435e0d2109fefde337a66491541df0d1420738ace64cea52b409f930f60b516f65197fad4b05673c7739c195618d314c08e8626c98f8573e4e436349250925092505b909192565b3373ffffffffffffffffffffffffffffffffffffffff168173ffffffffffffffffffffffffffffffffffffffff16036200056a576040517f08c379a0000000000000000000000000000000000000000000000000000000008152600401620005619062000c54565b60405180910390fd5b80600160006101000a81548173ffffffffffffffffffffffffffffffffffffffff021916908373ffffffffffffffffffffffffffffffffffffffff1602179055508073ffffffffffffffffffffffffffffffffffffffff1660008054906101000a900473ffffffffffffffffffffffffffffffffffffffff1673ffffffffffffffffffffffffffffffffffffffff167fed8889f560326eb138920d842192f0eb3dd22b4f139c87a2c57538e05bae127860405160405180910390a350565b6000610e358214806200063c5750610e3482145b156200064c576001905062000651565b600090505b919050565b60006101448214806200066a575061011882145b156200067a57600190506200067f565b600090505b919050565b6000612b74821480620006985750610ab582145b15620006a85760019050620006ad565b600090505b919050565b60006001821480620006c45750600a82145b80620006d05750601982145b80620006dc5750601e82145b80620006e85750603882145b80620006f45750606482145b80620007005750606d82145b806200070c5750608982145b8062000718575060b782145b8062000724575060e982145b8062000730575060fa82145b806200073d575061013a82145b806200074a575061044082145b8062000757575061044d82145b8062000764575061046f82145b8062000771575061050482145b806200077e575061050582145b806200078b57506106c182145b8062000798575061072582145b80620007a5575061072982145b80620007b257506107f782145b80620007bf5750610ec082145b80620007cc575061106a82145b80620007d957506118fe82145b80620007e6575061210582145b80620007f357506127d882145b8062000800575061473782145b806200080d575061473982145b806200081a57506162ef82145b8062000827575061868b82145b8062000834575061a1ef82145b8062000841575061a45582145b806200084e575061a4b182145b806200085b575061a86a82145b8062000868575061e70882145b806200087657506201388282145b80620008845750620138d482145b8062000892575062013e3182145b80620008a0575062014a3482145b80620008ae57506201b25482145b80620008bc57506203ade082145b80620008ca575062066eee82145b80620008d85750620a045c82145b80620008e6575062133e4082145b80620008f45750625c235982145b806200090257506276adf182145b8062000910575062aa36a782145b806200091e575062aa37dc82145b806200092d57506301bf493382145b806200093c5750630426e64982145b806200094b5750630553507282145b806200095a575063059d713182145b8062000969575063075b3dcf82145b80620009785750630a0c71fd82145b80620009875750630d3b745e82145b80620009965750633b4c8eb982145b80620009a55750635241524982145b80620009b4575063bc1392a682145b80620009c457506412dbe9140282145b80620009d457506414865d0f0582145b15620009e45760019050620009e9565b600090505b919050565b600080fd5b600073ffffffffffffffffffffffffffffffffffffffff82169050919050565b600062000a2082620009f3565b9050919050565b62000a328162000a13565b811462000a3e57600080fd5b50565b60008151905062000a528162000a27565b92915050565b6000819050919050565b62000a6d8162000a58565b811462000a7957600080fd5b50565b60008151905062000a8d8162000a62565b92915050565b6000819050919050565b62000aa88162000a93565b811462000ab457600080fd5b50565b60008151905062000ac88162000a9d565b92915050565b600063ffffffff82169050919050565b62000ae98162000ace565b811462000af557600080fd5b50565b60008151905062000b098162000ade565b92915050565b6000806000806080858703121562000b2c5762000b2b620009ee565b5b600062000b3c8782880162000a41565b945050602062000b4f8782880162000a7c565b935050604062000b628782880162000ab7565b925050606062000b758782880162000af8565b91505092959194509250565b600082825260208201905092915050565b7f43616e6e6f7420736574206f776e657220746f207a65726f0000000000000000600082015250565b600062000bca60188362000b81565b915062000bd78262000b92565b602082019050919050565b6000602082019050818103600083015262000bfd8162000bbb565b9050919050565b7f43616e6e6f74207472616e7366657220746f2073656c66000000000000000000600082015250565b600062000c3c60178362000b81565b915062000c498262000c04565b602082019050919050565b6000602082019050818103600083015262000c6f8162000c2d565b9050919050565b60805160a05160c051615a9762000ca3600039600061261d015260006125c8015260005050615a976000f3fe608060405234801561001057600080fd5b50600436106101da5760003560e01c80638b56cf3811610104578063c52dd212116100a2578063e5b6521f11610071578063e5b6521f14610573578063ef97788b146105a3578063f2fde38b146105d3578063f42e1b59146105ef576101da565b8063c52dd212146104e8578063d22b068914610504578063d78b1d3914610522578063e1cbef4214610557576101da565b806394d66a39116100de57806394d66a391461044b5780639eccacf61461047b578063a544381514610499578063af6e6238146104b5576101da565b80638b56cf38146103f55780638da5cb5b146104115780638ea981171461042f576101da565b80633c652a9a1161017c5780635bb26c971161014b5780635bb26c971461037f578063692c098d146103af57806379ba5097146103cd5780638b460d71146103d7576101da565b80633c652a9a146102e35780634f878ded14610313578063576df493146103315780635aba37c41461034f576101da565b80631fe543e3116101b85780631fe543e31461026f578063334974661461028b57806334ed5f32146102a957806339de8f92146102c7576101da565b8063018518a8146101df57806302c57a961461020f5780630ee6998f1461023f575b600080fd5b6101f960048036038101906101f49190614315565b610624565b604051610206919061435d565b60405180910390f35b61022960048036038101906102249190614315565b610707565b6040516102369190614387565b60405180910390f35b61025960048036038101906102549190614315565b610aaa565b604051610266919061435d565b60405180910390f35b61028960048036038101906102849190614407565b610b06565b005b610293610bcc565b6040516102a09190614483565b60405180910390f35b6102b1610bd1565b6040516102be9190614483565b60405180910390f35b6102e160048036038101906102dc91906144fc565b610bd6565b005b6102fd60048036038101906102f89190614315565b610e74565b60405161030a919061435d565b60405180910390f35b61031b610e94565b6040516103289190614387565b60405180910390f35b610339610e99565b6040516103469190614387565b60405180910390f35b61036960048036038101906103649190614607565b610e9f565b6040516103769190614387565b60405180910390f35b61039960048036038101906103949190614315565b611302565b6040516103a69190614387565b60405180910390f35b6103b761131a565b6040516103c49190614483565b60405180910390f35b6103d561131f565b005b6103df6114b4565b6040516103ec9190614387565b60405180910390f35b61040f600480360381019061040a9190614772565b6114ba565b005b61041961159c565b604051610426919061480e565b60405180910390f35b61044960048036038101906104449190614829565b6115c5565b005b61046560048036038101906104609190614315565b6117a6565b6040516104729190614387565b60405180910390f35b6104836117be565b60405161049091906148b5565b60405180910390f35b6104b360048036038101906104ae91906148d0565b6117e4565b005b6104cf60048036038101906104ca9190614315565b611872565b6040516104df9493929190614910565b60405180910390f35b61050260048036038101906104fd9190614315565b6118bc565b005b61050c611b49565b6040516105199190614483565b60405180910390f35b61053c60048036038101906105379190614315565b611b4e565b60405161054e96959493929190614955565b60405180910390f35b610571600480360381019061056c9190614315565b611bbe565b005b61058d60048036038101906105889190614315565b611c43565b60405161059a9190614387565b60405180910390f35b6105bd60048036038101906105b89190614315565b611e92565b6040516105ca9190614387565b60405180910390f35b6105ed60048036038101906105e89190614829565b611eaa565b005b61060960048036038101906106049190614315565b611ebe565b60405161061b96959493929190614955565b60405180910390f35b600080601260009054906101000a900473ffffffffffffffffffffffffffffffffffffffff1673ffffffffffffffffffffffffffffffffffffffff16634bf47c0b6040518163ffffffff1660e01b8152600401602060405180830381865afa158015610694573d6000803e3d6000fd5b505050506040513d601f19601f820116820180604052508101906106b891906149cb565b905060006004600083815260200190815260200160002060008581526020019081526020016000209050600260ff168160000160019054906101000a900460ff1660ff16101592505050919050565b600080601360009054906101000a900473ffffffffffffffffffffffffffffffffffffffff1673ffffffffffffffffffffffffffffffffffffffff16637f0df537846040518263ffffffff1660e01b81526004016107659190614387565b602060405180830381865afa158015610782573d6000803e3d6000fd5b505050506040513d601f19601f820116820180604052508101906107a691906149cb565b90506000600860009054906101000a900473ffffffffffffffffffffffffffffffffffffffff1673ffffffffffffffffffffffffffffffffffffffff1663221a528f856040518263ffffffff1660e01b81526004016108059190614387565b602060405180830381865afa158015610822573d6000803e3d6000fd5b505050506040513d601f19601f8201168201806040525081019061084691906149cb565b90506000600860009054906101000a900473ffffffffffffffffffffffffffffffffffffffff1673ffffffffffffffffffffffffffffffffffffffff1663a9266dde866040518263ffffffff1660e01b81526004016108a59190614387565b602060405180830381865afa1580156108c2573d6000803e3d6000fd5b505050506040513d601f19601f820116820180604052508101906108e691906149cb565b90506000600a60009054906101000a900473ffffffffffffffffffffffffffffffffffffffff1673ffffffffffffffffffffffffffffffffffffffff1663afeeef19876040518263ffffffff1660e01b81526004016109459190614387565b602060405180830381865afa158015610962573d6000803e3d6000fd5b505050506040513d601f19601f8201168201806040525081019061098691906149cb565b905060006046836109979190614a56565b6014856109a49190614a56565b866109af9190614a87565b6109b99190614a87565b9050600182036109e8576064604b826109d29190614abb565b6109dc9190614a56565b95505050505050610aa5565b60028203610a15576064605a826109ff9190614abb565b610a099190614a56565b95505050505050610aa5565b60038203610a2a578095505050505050610aa5565b60048203610a57576064606e82610a419190614abb565b610a4b9190614a56565b95505050505050610aa5565b60048203610a84576064607d82610a6e9190614abb565b610a789190614a56565b95505050505050610aa5565b6064607d82610a939190614abb565b610a9d9190614a56565b955050505050505b919050565b60006017600083815260200190815260200160002060009054906101000a900460ff16610ada5760019050610b01565b61012c6018600084815260200190815260200160002054610afb9190614a87565b42101590505b919050565b600260009054906101000a900473ffffffffffffffffffffffffffffffffffffffff1673ffffffffffffffffffffffffffffffffffffffff163373ffffffffffffffffffffffffffffffffffffffff1614610bbc5733600260009054906101000a900473ffffffffffffffffffffffffffffffffffffffff166040517f1cf993f4000000000000000000000000000000000000000000000000000000008152600401610bb3929190614afd565b60405180910390fd5b610bc7838383611fd6565b505050565b600181565b600681565b610bde612534565b89600860006101000a81548173ffffffffffffffffffffffffffffffffffffffff021916908373ffffffffffffffffffffffffffffffffffffffff16021790555088600960006101000a81548173ffffffffffffffffffffffffffffffffffffffff021916908373ffffffffffffffffffffffffffffffffffffffff16021790555087600a60006101000a81548173ffffffffffffffffffffffffffffffffffffffff021916908373ffffffffffffffffffffffffffffffffffffffff16021790555086600b60006101000a81548173ffffffffffffffffffffffffffffffffffffffff021916908373ffffffffffffffffffffffffffffffffffffffff16021790555085600f60006101000a81548173ffffffffffffffffffffffffffffffffffffffff021916908373ffffffffffffffffffffffffffffffffffffffff16021790555084601060006101000a81548173ffffffffffffffffffffffffffffffffffffffff021916908373ffffffffffffffffffffffffffffffffffffffff16021790555083600c60006101000a81548173ffffffffffffffffffffffffffffffffffffffff021916908373ffffffffffffffffffffffffffffffffffffffff16021790555082600d60006101000a81548173ffffffffffffffffffffffffffffffffffffffff021916908373ffffffffffffffffffffffffffffffffffffffff16021790555081600e60006101000a81548173ffffffffffffffffffffffffffffffffffffffff021916908373ffffffffffffffffffffffffffffffffffffffff16021790555080601160006101000a81548173ffffffffffffffffffffffffffffffffffffffff021916908373ffffffffffffffffffffffffffffffffffffffff16021790555050505050505050505050565b60176020528060005260406000206000915054906101000a900460ff1681565b600081565b61012c81565b6000610eaa336125c4565b610ee9576040517f08c379a0000000000000000000000000000000000000000000000000000000008152600401610ee090614b83565b60405180910390fd5b600160ff168260ff1610158015610f075750600c60ff168260ff1611155b610f46576040517f08c379a0000000000000000000000000000000000000000000000000000000008152600401610f3d90614bef565b60405180910390fd5b828403610f88576040517f08c379a0000000000000000000000000000000000000000000000000000000008152600401610f7f90614c5b565b60405180910390fd5b6000610f92612683565b9050601160009054906101000a900473ffffffffffffffffffffffffffffffffffffffff1673ffffffffffffffffffffffffffffffffffffffff166377ade19086836040518363ffffffff1660e01b8152600401610ff1929190614c7b565b602060405180830381865afa15801561100e573d6000803e3d6000fd5b505050506040513d601f19601f820116820180604052508101906110329190614cb9565b611071576040517f08c379a000000000000000000000000000000000000000000000000000000000815260040161106890614d32565b60405180910390fd5b61107b85856126a6565b61108584846128b8565b6110c4576040517f08c379a00000000000000000000000000000000000000000000000000000000081526004016110bb90614d9e565b60405180910390fd5b6000600b60009054906101000a900473ffffffffffffffffffffffffffffffffffffffff1673ffffffffffffffffffffffffffffffffffffffff1663299e5942866040518263ffffffff1660e01b81526004016111219190614387565b602060405180830381865afa15801561113e573d6000803e3d6000fd5b505050506040513d601f19601f8201168201806040525081019061116291906149cb565b905060006111708583612d78565b9050600c60009054906101000a900473ffffffffffffffffffffffffffffffffffffffff1673ffffffffffffffffffffffffffffffffffffffff16635ff38ff188836040518363ffffffff1660e01b81526004016111cf929190614dbe565b600060405180830381600087803b1580156111e957600080fd5b505af11580156111fd573d6000803e3d6000fd5b5050505060405180608001604052808881526020018781526020018660ff16815260200160011515815250600660006003548152602001908152602001600020600082015181600001556020820151816001015560408201518160020160006101000a81548160ff021916908360ff16021790555060608201518160020160016101000a81548160ff0219169083151502179055509050506112a0600354612fbf565b856003547f4f0b5a55cd2a88bbc7c42d3ee2d6d263bf3d3a63c40acf310d6a6c5341d5b3a8876040516112d39190614483565b60405180910390a36003549350600360008154809291906112f390614de7565b91905055505050509392505050565b60056020528060005260406000206000915090505481565b600c81565b600160009054906101000a900473ffffffffffffffffffffffffffffffffffffffff1673ffffffffffffffffffffffffffffffffffffffff163373ffffffffffffffffffffffffffffffffffffffff16146113af576040517f08c379a00000000000000000000000000000000000000000000000000000000081526004016113a690614e7b565b60405180910390fd5b60008060009054906101000a900473ffffffffffffffffffffffffffffffffffffffff169050336000806101000a81548173ffffffffffffffffffffffffffffffffffffffff021916908373ffffffffffffffffffffffffffffffffffffffff1602179055506000600160006101000a81548173ffffffffffffffffffffffffffffffffffffffff021916908373ffffffffffffffffffffffffffffffffffffffff1602179055503373ffffffffffffffffffffffffffffffffffffffff168173ffffffffffffffffffffffffffffffffffffffff167f8be0079c531659141344cd1fd0a4f28419497f9722a3daafe3b4186f6b6457e060405160405180910390a350565b60035481565b6114c2612534565b856014819055508467ffffffffffffffff1660158190555083601660006101000a81548161ffff021916908361ffff16021790555082601660026101000a81548163ffffffff021916908363ffffffff16021790555081601660066101000a81548163ffffffff021916908363ffffffff160217905550806016600a6101000a81548160ff0219169083151502179055507f3bb6ddbf26a0f80b74cfc94ed21a6d2ec325bd3c62721c2aad7e4c427f679b3886868686868660405161158c96959493929190614ed7565b60405180910390a1505050505050565b60008060009054906101000a900473ffffffffffffffffffffffffffffffffffffffff16905090565b6115cd61159c565b73ffffffffffffffffffffffffffffffffffffffff163373ffffffffffffffffffffffffffffffffffffffff16141580156116565750600260009054906101000a900473ffffffffffffffffffffffffffffffffffffffff1673ffffffffffffffffffffffffffffffffffffffff163373ffffffffffffffffffffffffffffffffffffffff1614155b156116c5573361166461159c565b600260009054906101000a900473ffffffffffffffffffffffffffffffffffffffff166040517f061db9c10000000000000000000000000000000000000000000000000000000081526004016116bc93929190614f38565b60405180910390fd5b600073ffffffffffffffffffffffffffffffffffffffff168173ffffffffffffffffffffffffffffffffffffffff160361172b576040517fd92e233d00000000000000000000000000000000000000000000000000000000815260040160405180910390fd5b80600260006101000a81548173ffffffffffffffffffffffffffffffffffffffff021916908373ffffffffffffffffffffffffffffffffffffffff1602179055507fd1a6a14209a385a964d036e404cb5cfb71f4000cdb03c9366292430787261be68160405161179b919061480e565b60405180910390a150565b60196020528060005260406000206000915090505481565b600260009054906101000a900473ffffffffffffffffffffffffffffffffffffffff1681565b6117ec612534565b81601260006101000a81548173ffffffffffffffffffffffffffffffffffffffff021916908373ffffffffffffffffffffffffffffffffffffffff16021790555080601360006101000a81548173ffffffffffffffffffffffffffffffffffffffff021916908373ffffffffffffffffffffffffffffffffffffffff1602179055505050565b60066020528060005260406000206000915090508060000154908060010154908060020160009054906101000a900460ff16908060020160019054906101000a900460ff16905084565b60006007600083815260200190815260200160002090508060020160039054906101000a900460ff16611924576040517f08c379a000000000000000000000000000000000000000000000000000000000815260040161191b90614fbb565b60405180910390fd5b8060020160019054906101000a900460ff16611975576040517f08c379a000000000000000000000000000000000000000000000000000000000815260040161196c90615027565b60405180910390fd5b8060020160029054906101000a900460ff16156119c7576040517f08c379a00000000000000000000000000000000000000000000000000000000081526004016119be90615093565b60405180910390fd5b601160009054906101000a900473ffffffffffffffffffffffffffffffffffffffff1673ffffffffffffffffffffffffffffffffffffffff166377ade1908260000154611a12612683565b6040518363ffffffff1660e01b8152600401611a2f929190614c7b565b602060405180830381865afa158015611a4c573d6000803e3d6000fd5b505050506040513d601f19601f82011682018060405250810190611a709190614cb9565b80611aad5750611a7e61159c565b73ffffffffffffffffffffffffffffffffffffffff163373ffffffffffffffffffffffffffffffffffffffff16145b611aec576040517f08c379a0000000000000000000000000000000000000000000000000000000008152600401611ae3906150ff565b60405180910390fd5b60018160020160026101000a81548160ff021916908315150217905550817f47f6f7f991c6aedda7a7ef9255cffa419474c6453ebbc281025ea2f9ebd8221d8260000154604051611b3d9190614387565b60405180910390a25050565b600281565b60076020528060005260406000206000915090508060000154908060010154908060020160009054906101000a900460ff16908060020160019054906101000a900460ff16908060020160029054906101000a900460ff16908060020160039054906101000a900460ff16905086565b611bc6612534565b6017600082815260200190815260200160002060009054906101000a900460ff168015611bf85750611bf781610aaa565b5b611c37576040517f08c379a0000000000000000000000000000000000000000000000000000000008152600401611c2e9061516b565b60405180910390fd5b611c4081612fbf565b50565b600080601360009054906101000a900473ffffffffffffffffffffffffffffffffffffffff1673ffffffffffffffffffffffffffffffffffffffff16637f0df537846040518263ffffffff1660e01b8152600401611ca19190614387565b602060405180830381865afa158015611cbe573d6000803e3d6000fd5b505050506040513d601f19601f82011682018060405250810190611ce291906149cb565b90506000600860009054906101000a900473ffffffffffffffffffffffffffffffffffffffff1673ffffffffffffffffffffffffffffffffffffffff1663221a528f856040518263ffffffff1660e01b8152600401611d419190614387565b602060405180830381865afa158015611d5e573d6000803e3d6000fd5b505050506040513d601f19601f82011682018060405250810190611d8291906149cb565b90506000600f82611d939190614a56565b83611d9e9190614a87565b9050600f60009054906101000a900473ffffffffffffffffffffffffffffffffffffffff1673ffffffffffffffffffffffffffffffffffffffff1663899638c1866040518263ffffffff1660e01b8152600401611dfb9190614387565b602060405180830381865afa158015611e18573d6000803e3d6000fd5b505050506040513d601f19601f82011682018060405250810190611e3c9190614cb9565b15611e5d576064606e82611e509190614abb565b611e5a9190614a56565b90505b611e6685613185565b15611e87576064606e82611e7a9190614abb565b611e849190614a56565b90505b809350505050919050565b60186020528060005260406000206000915090505481565b611eb2612534565b611ebb81613248565b50565b60008060008060008060006007600089815260200190815260200160002090508060020160039054906101000a900460ff16611f2f576040517f08c379a0000000000000000000000000000000000000000000000000000000008152600401611f26906151d7565b60405180910390fd5b60008160020160019054906101000a900460ff168015611f5e57508160020160029054906101000a900460ff16155b611f6c578160000154611f6f565b60005b90508082600101548360020160009054906101000a900460ff168460020160019054906101000a900460ff168560020160029054906101000a900460ff168660020160039054906101000a900460ff16975097509750975097509750505091939550919395565b60006005600085815260200190815260200160002054905060006005600086815260200190815260200160002054148015612024575060196000808152602001908152602001600020548414155b1561206657836040517f1f79bbe700000000000000000000000000000000000000000000000000000000815260040161205d9190614387565b60405180910390fd5b8360196000838152602001908152602001600020541415806120a657506017600082815260200190815260200160002060009054906101000a900460ff16155b156120df5783817f892bc84d39dbbfa685101d004c2eebd8ce2e44b7af1ec01e722f1979ef04287d60405160405180910390a35061252f565b6000600560008681526020019081526020016000205490506006600082815260200190815260200160002060020160019054906101000a900460ff1661215a576040517f08c379a000000000000000000000000000000000000000000000000000000000815260040161215190615243565b60405180910390fd5b60006006600083815260200190815260200160002060405180608001604052908160008201548152602001600182015481526020016002820160009054906101000a900460ff1660ff1660ff1681526020016002820160019054906101000a900460ff16151515158152505090506006600083815260200190815260200160002060008082016000905560018201600090556002820160006101000a81549060ff02191690556002820160016101000a81549060ff021916905550506005600087815260200190815260200160002060009055600061223c8260000151611c43565b9050600061224d8360200151610707565b90506000818361225d9190614a87565b90506000808211156122945783828a8a600081811061227f5761227e615263565b5b905060200201356122909190615292565b1090505b6040518060c001604052808660000151815260200186602001518152602001866040015160ff16815260200182151581526020018215151581526020016001151581525060076000888152602001908152602001600020600082015181600001556020820151816001015560408201518160020160006101000a81548160ff021916908360ff16021790555060608201518160020160016101000a81548160ff02191690831515021790555060808201518160020160026101000a81548160ff02191690831515021790555060a08201518160020160036101000a81548160ff02191690831515021790555090505080156124455760008989600081811061239f5761239e615263565b5b9050602002013587876000015188602001516040516020016123c494939291906152c3565b6040516020818303038152906040528051906020012060001c90506123f786600001518760200151886040015184613374565b867fe6cb7e8ca08261a136f8acc013d4c66936c0117b410883cee06f21420e0dc7ef6000886020015160018a604001516040516124379493929190615339565b60405180910390a250612491565b857fe6cb7e8ca08261a136f8acc013d4c66936c0117b410883cee06f21420e0dc7ef86600001518760200151600089604001516040516124889493929190615339565b60405180910390a25b6017600088815260200190815260200160002060006101000a81549060ff021916905560186000888152602001908152602001600020600090556019600088815260200190815260200160002060009055600560008b81526020019081526020016000206000905589877ffbc1109d8af717011211ea2c5299f97bdf9383aac95a70236156096b18d412c360405160405180910390a3505050505050505b505050565b60008054906101000a900473ffffffffffffffffffffffffffffffffffffffff1673ffffffffffffffffffffffffffffffffffffffff163373ffffffffffffffffffffffffffffffffffffffff16146125c2576040517f08c379a00000000000000000000000000000000000000000000000000000000081526004016125b9906153ca565b60405180910390fd5b565b60007f000000000000000000000000000000000000000000000000000000000000000073ffffffffffffffffffffffffffffffffffffffff168273ffffffffffffffffffffffffffffffffffffffff16148061266b57507f000000000000000000000000000000000000000000000000000000000000000073ffffffffffffffffffffffffffffffffffffffff168273ffffffffffffffffffffffffffffffffffffffff16145b15612679576001905061267e565b600090505b919050565b600061268e336125c4565b61269857336126a1565b6126a0613648565b5b905090565b6000601260009054906101000a900473ffffffffffffffffffffffffffffffffffffffff1673ffffffffffffffffffffffffffffffffffffffff16634bf47c0b6040518163ffffffff1660e01b8152600401602060405180830381865afa158015612715573d6000803e3d6000fd5b505050506040513d601f19601f8201168201806040525081019061273991906149cb565b905060006004600083815260200190815260200160002060008581526020019081526020016000209050600660ff168160000160009054906101000a900460ff1660ff16106127bd576040517f08c379a00000000000000000000000000000000000000000000000000000000081526004016127b490615436565b60405180910390fd5b60018160000160008282829054906101000a900460ff166127de9190615456565b92506101000a81548160ff021916908360ff16021790555060006004600084815260200190815260200160002060008581526020019081526020016000209050600260ff168160000160019054906101000a900460ff1660ff1610612878576040517f08c379a000000000000000000000000000000000000000000000000000000000815260040161286f906154d7565b60405180910390fd5b60018160000160018282829054906101000a900460ff166128999190615456565b92506101000a81548160ff021916908360ff1602179055505050505050565b600080600860009054906101000a900473ffffffffffffffffffffffffffffffffffffffff1673ffffffffffffffffffffffffffffffffffffffff1663897e9dd1856040518263ffffffff1660e01b81526004016129169190614387565b602060405180830381865afa158015612933573d6000803e3d6000fd5b505050506040513d601f19601f8201168201806040525081019061295791906149cb565b90506000600860009054906101000a900473ffffffffffffffffffffffffffffffffffffffff1673ffffffffffffffffffffffffffffffffffffffff1663221a528f866040518263ffffffff1660e01b81526004016129b69190614387565b602060405180830381865afa1580156129d3573d6000803e3d6000fd5b505050506040513d601f19601f820116820180604052508101906129f791906149cb565b90506000600860009054906101000a900473ffffffffffffffffffffffffffffffffffffffff1673ffffffffffffffffffffffffffffffffffffffff1663a9266dde876040518263ffffffff1660e01b8152600401612a569190614387565b602060405180830381865afa158015612a73573d6000803e3d6000fd5b505050506040513d601f19601f82011682018060405250810190612a9791906149cb565b905060048560ff1603612ae957600f811015612ae8576040517f08c379a0000000000000000000000000000000000000000000000000000000008152600401612adf90615543565b60405180910390fd5b5b600a8560ff1603612b3957600f821015612b38576040517f08c379a0000000000000000000000000000000000000000000000000000000008152600401612b2f906155af565b60405180910390fd5b5b600b8560ff1603612b8957600f831015612b88576040517f08c379a0000000000000000000000000000000000000000000000000000000008152600401612b7f9061561b565b60405180910390fd5b5b600c8560ff1603612d6b576000600e60009054906101000a900473ffffffffffffffffffffffffffffffffffffffff1673ffffffffffffffffffffffffffffffffffffffff16630d24094a886040518263ffffffff1660e01b8152600401612bf19190614387565b602060405180830381865afa158015612c0e573d6000803e3d6000fd5b505050506040513d601f19601f82011682018060405250810190612c3291906149cb565b90506000601060009054906101000a900473ffffffffffffffffffffffffffffffffffffffff1673ffffffffffffffffffffffffffffffffffffffff16630cccc2dd896040518263ffffffff1660e01b8152600401612c919190614387565b602060405180830381865afa158015612cae573d6000803e3d6000fd5b505050506040513d601f19601f82011682018060405250810190612cd29190614cb9565b90508015612d23576006821015612d1e576040517f08c379a0000000000000000000000000000000000000000000000000000000008152600401612d1590615687565b60405180910390fd5b612d68565b6001821015612d67576040517f08c379a0000000000000000000000000000000000000000000000000000000008152600401612d5e906156f3565b60405180910390fd5b5b50505b6001935050505092915050565b600060018360ff1603612d9b5781620186a0612d949190614a87565b9050612fb9565b60028360ff1603612dc857600282612db39190614abb565b620186a0612dc19190614a87565b9050612fb9565b60038360ff1603612df557600382612de09190614abb565b620186a0612dee9190614a87565b9050612fb9565b60048360ff1603612e2257600382612e0d9190614abb565b620186a0612e1b9190614a87565b9050612fb9565b60058360ff1603612e4f57600382612e3a9190614abb565b620186a0612e489190614a87565b9050612fb9565b60068360ff1603612e705781620249f0612e699190614a87565b9050612fb9565b60078360ff1603612e9d57600582612e889190614abb565b620249f0612e969190614a87565b9050612fb9565b60088360ff1603612eca57600282612eb59190614abb565b6203d090612ec39190614a87565b9050612fb9565b60098360ff1603612ef757600282612ee29190614abb565b620493e0612ef09190614a87565b9050612fb9565b600a8360ff1603612f2457601482612f0f9190614abb565b620186a0612f1d9190614a87565b9050612fb9565b600b8360ff1603612f5157600582612f3c9190614abb565b6207a120612f4a9190614a87565b9050612fb9565b600c8360ff1603612f7e57600f82612f699190614abb565b6207a120612f779190614a87565b9050612fb9565b6040517f08c379a0000000000000000000000000000000000000000000000000000000008152600401612fb090614bef565b60405180910390fd5b92915050565b6017600082815260200190815260200160002060009054906101000a900460ff16801561300b575061012c60186000838152602001908152602001600020546130089190614a87565b42105b1561306f578061012c60186000848152602001908152602001600020546130329190614a87565b6040517f08a0fb9e000000000000000000000000000000000000000000000000000000008152600401613066929190614dbe565b60405180910390fd5b6000601960008381526020019081526020016000205490506000613091613657565b905082600560008381526020019081526020016000208190555080601960008581526020019081526020016000208190555060016017600085815260200190815260200160002060006101000a81548160ff021916908315150217905550426018600085815260200190815260200160002081905550600082141580156131185750808214155b15613151578082847f3836c1459c1ac0e57aea1dd7adddc10f4f4965288f73f7ae4a2397b6b4c2555a60405160405180910390a4613180565b80837f6bb6d9629c0d789662101058a2c5a7e71fbcae2a88dbf122d96bafca3e57b32a60405160405180910390a35b505050565b600080600d60009054906101000a900473ffffffffffffffffffffffffffffffffffffffff1673ffffffffffffffffffffffffffffffffffffffff1663131dbbe9846040518263ffffffff1660e01b81526004016131e39190614387565b602060405180830381865afa158015613200573d6000803e3d6000fd5b505050506040513d601f19601f8201168201806040525081019061322491906149cb565b905060028114806132355750600781145b806132405750600a81145b915050919050565b3373ffffffffffffffffffffffffffffffffffffffff168173ffffffffffffffffffffffffffffffffffffffff16036132b6576040517f08c379a00000000000000000000000000000000000000000000000000000000081526004016132ad9061575f565b60405180910390fd5b80600160006101000a81548173ffffffffffffffffffffffffffffffffffffffff021916908373ffffffffffffffffffffffffffffffffffffffff1602179055508073ffffffffffffffffffffffffffffffffffffffff1660008054906101000a900473ffffffffffffffffffffffffffffffffffffffff1673ffffffffffffffffffffffffffffffffffffffff167fed8889f560326eb138920d842192f0eb3dd22b4f139c87a2c57538e05bae127860405160405180910390a350565b60018260ff160361338e57613389838261379c565b613642565b60028260ff16036133a8576133a3838261386c565b613641565b60038260ff16036133c2576133bd8382613a04565b613640565b60048260ff16036133dc576133d78382613ad4565b61363f565b60058260ff16036133f6576133f18382613c6c565b61363e565b60068260ff160361349657600a60009054906101000a900473ffffffffffffffffffffffffffffffffffffffff1673ffffffffffffffffffffffffffffffffffffffff1663393b9c118460016040518363ffffffff1660e01b815260040161345f9291906157ba565b600060405180830381600087803b15801561347957600080fd5b505af115801561348d573d6000803e3d6000fd5b5050505061363d565b60078260ff160361353657600a60009054906101000a900473ffffffffffffffffffffffffffffffffffffffff1673ffffffffffffffffffffffffffffffffffffffff16634f259d918460056040518363ffffffff1660e01b81526004016134ff92919061581e565b600060405180830381600087803b15801561351957600080fd5b505af115801561352d573d6000803e3d6000fd5b5050505061363c565b60088260ff16036135505761354b8382613e04565b61363b565b60098260ff160361356a576135658382613f8b565b61363a565b600a8260ff16036135845761357f838261405b565b613639565b600b8260ff160361359e57613599838261412b565b613638565b600c8260ff160361363757600e60009054906101000a900473ffffffffffffffffffffffffffffffffffffffff1673ffffffffffffffffffffffffffffffffffffffff166317164212846040518263ffffffff1660e01b81526004016136049190614387565b600060405180830381600087803b15801561361e57600080fd5b505af1158015613632573d6000803e3d6000fd5b505050505b5b5b5b5b5b5b5b5b5b5b5b50505050565b6000601436033560601c905090565b6000806040518060c0016040528060145481526020016015548152602001601660009054906101000a900461ffff1661ffff168152602001601660029054906101000a900463ffffffff1663ffffffff168152602001601660069054906101000a900463ffffffff1663ffffffff1681526020016136f360405180602001604052806016600a9054906101000a900460ff1615158152506141fb565b8152509050600260009054906101000a900473ffffffffffffffffffffffffffffffffffffffff1673ffffffffffffffffffffffffffffffffffffffff16639b1c385e826040518263ffffffff1660e01b8152600401613753919061599c565b6020604051808303816000875af1158015613772573d6000803e3d6000fd5b505050506040513d601f19601f8201168201806040525081019061379691906149cb565b91505090565b600060016137cc837f43525549534500000000000000000000000000000000000000000000000000006005614293565b6137d69190614a87565b9050600e60009054906101000a900473ffffffffffffffffffffffffffffffffffffffff1673ffffffffffffffffffffffffffffffffffffffff1663d6849bf682856040518363ffffffff1660e01b8152600401613835929190614dbe565b600060405180830381600087803b15801561384f57600080fd5b505af1158015613863573d6000803e3d6000fd5b50505050505050565b6000600561389c837f54414e4b530000000000000000000000000000000000000000000000000000006005614293565b6138a69190614a87565b90506000600960009054906101000a900473ffffffffffffffffffffffffffffffffffffffff1673ffffffffffffffffffffffffffffffffffffffff166314d67456856040518263ffffffff1660e01b81526004016139059190614387565b602060405180830381865afa158015613922573d6000803e3d6000fd5b505050506040513d601f19601f8201168201806040525081019061394691906149cb565b90506000606483836139589190614abb565b6139629190614a56565b905060008111156139fd57600960009054906101000a900473ffffffffffffffffffffffffffffffffffffffff1673ffffffffffffffffffffffffffffffffffffffff16639ff5c44782876040518363ffffffff1660e01b81526004016139ca929190614dbe565b600060405180830381600087803b1580156139e457600080fd5b505af11580156139f8573d6000803e3d6000fd5b505050505b5050505050565b60006005613a34837f4c414e4400000000000000000000000000000000000000000000000000000000600a614293565b613a3e9190614a87565b9050600860009054906101000a900473ffffffffffffffffffffffffffffffffffffffff1673ffffffffffffffffffffffffffffffffffffffff166355be628484836040518363ffffffff1660e01b8152600401613a9d929190614dbe565b600060405180830381600087803b158015613ab757600080fd5b505af1158015613acb573d6000803e3d6000fd5b50505050505050565b6000600d60009054906101000a900473ffffffffffffffffffffffffffffffffffffffff1673ffffffffffffffffffffffffffffffffffffffff1663db76dd66846040518263ffffffff1660e01b8152600401613b319190614387565b602060405180830381865afa158015613b4e573d6000803e3d6000fd5b505050506040513d601f19601f82011682018060405250810190613b7291906149cb565b905060006001613ba4847f474f560000000000000000000000000000000000000000000000000000000000600a614293565b613bae9190614a87565b9050818103613bd75760018214613bd157600182613bcc91906159be565b613bd4565b60025b90505b600d60009054906101000a900473ffffffffffffffffffffffffffffffffffffffff1673ffffffffffffffffffffffffffffffffffffffff1663a528538985836040518363ffffffff1660e01b8152600401613c34929190614dbe565b600060405180830381600087803b158015613c4e57600080fd5b505af1158015613c62573d6000803e3d6000fd5b5050505050505050565b6000600d60009054906101000a900473ffffffffffffffffffffffffffffffffffffffff1673ffffffffffffffffffffffffffffffffffffffff1663eefed831846040518263ffffffff1660e01b8152600401613cc99190614387565b602060405180830381865afa158015613ce6573d6000803e3d6000fd5b505050506040513d601f19601f82011682018060405250810190613d0a91906149cb565b905060006001613d3c847f52454c0000000000000000000000000000000000000000000000000000000000600e614293565b613d469190614a87565b9050818103613d6f5760018214613d6957600182613d6491906159be565b613d6c565b60025b90505b600d60009054906101000a900473ffffffffffffffffffffffffffffffffffffffff1673ffffffffffffffffffffffffffffffffffffffff1663cfadac7085836040518363ffffffff1660e01b8152600401613dcc929190614dbe565b600060405180830381600087803b158015613de657600080fd5b505af1158015613dfa573d6000803e3d6000fd5b5050505050505050565b6000601360009054906101000a900473ffffffffffffffffffffffffffffffffffffffff1673ffffffffffffffffffffffffffffffffffffffff16637f0df537846040518263ffffffff1660e01b8152600401613e619190614387565b602060405180830381865afa158015613e7e573d6000803e3d6000fd5b505050506040513d601f19601f82011682018060405250810190613ea291906149cb565b905060006001613ed4847f53505900000000000000000000000000000000000000000000000000000000006014614293565b613ede9190614a87565b905081811115613eec578190505b6000811115613f8557601360009054906101000a900473ffffffffffffffffffffffffffffffffffffffff1673ffffffffffffffffffffffffffffffffffffffff16637838b8d682866040518363ffffffff1660e01b8152600401613f52929190614dbe565b600060405180830381600087803b158015613f6c57600080fd5b505af1158015613f80573d6000803e3d6000fd5b505050505b50505050565b60006005613fbb837f5445434800000000000000000000000000000000000000000000000000000000600a614293565b613fc59190614a87565b9050600860009054906101000a900473ffffffffffffffffffffffffffffffffffffffff1673ffffffffffffffffffffffffffffffffffffffff166311c65d8184836040518363ffffffff1660e01b8152600401614024929190614dbe565b600060405180830381600087803b15801561403e57600080fd5b505af1158015614052573d6000803e3d6000fd5b50505050505050565b6000601461408b837f54415800000000000000000000000000000000000000000000000000000000006004614293565b6140959190614a87565b9050600860009054906101000a900473ffffffffffffffffffffffffffffffffffffffff1673ffffffffffffffffffffffffffffffffffffffff1663ae1dbc1d84836040518363ffffffff1660e01b81526004016140f4929190614dbe565b600060405180830381600087803b15801561410e57600080fd5b505af1158015614122573d6000803e3d6000fd5b50505050505050565b6000600561415b837f494e465241000000000000000000000000000000000000000000000000000000600a614293565b6141659190614a87565b9050600860009054906101000a900473ffffffffffffffffffffffffffffffffffffffff1673ffffffffffffffffffffffffffffffffffffffff16634d0421b184836040518363ffffffff1660e01b81526004016141c4929190614dbe565b600060405180830381600087803b1580156141de57600080fd5b505af11580156141f2573d6000803e3d6000fd5b50505050505050565b60607f92fd13387c7fe7befbc38d303d6468778fb9731bc4583f17d92989c6fcfdeaaa8260405160240161422f9190615a1d565b604051602081830303815290604052907bffffffffffffffffffffffffffffffffffffffffffffffffffffffff19166020820180517bffffffffffffffffffffffffffffffffffffffffffffffffffffffff83818316178352505050509050919050565b60008184846040516020016142a9929190615a38565b6040516020818303038152906040528051906020012060001c6142cc9190615292565b90509392505050565b600080fd5b600080fd5b6000819050919050565b6142f2816142df565b81146142fd57600080fd5b50565b60008135905061430f816142e9565b92915050565b60006020828403121561432b5761432a6142d5565b5b600061433984828501614300565b91505092915050565b60008115159050919050565b61435781614342565b82525050565b6000602082019050614372600083018461434e565b92915050565b614381816142df565b82525050565b600060208201905061439c6000830184614378565b92915050565b600080fd5b600080fd5b600080fd5b60008083601f8401126143c7576143c66143a2565b5b8235905067ffffffffffffffff8111156143e4576143e36143a7565b5b602083019150836020820283011115614400576143ff6143ac565b5b9250929050565b6000806000604084860312156144205761441f6142d5565b5b600061442e86828701614300565b935050602084013567ffffffffffffffff81111561444f5761444e6142da565b5b61445b868287016143b1565b92509250509250925092565b600060ff82169050919050565b61447d81614467565b82525050565b60006020820190506144986000830184614474565b92915050565b600073ffffffffffffffffffffffffffffffffffffffff82169050919050565b60006144c98261449e565b9050919050565b6144d9816144be565b81146144e457600080fd5b50565b6000813590506144f6816144d0565b92915050565b6000806000806000806000806000806101408b8d0312156145205761451f6142d5565b5b600061452e8d828e016144e7565b9a5050602061453f8d828e016144e7565b99505060406145508d828e016144e7565b98505060606145618d828e016144e7565b97505060806145728d828e016144e7565b96505060a06145838d828e016144e7565b95505060c06145948d828e016144e7565b94505060e06145a58d828e016144e7565b9350506101006145b78d828e016144e7565b9250506101206145c98d828e016144e7565b9150509295989b9194979a5092959850565b6145e481614467565b81146145ef57600080fd5b50565b600081359050614601816145db565b92915050565b6000806000606084860312156146205761461f6142d5565b5b600061462e86828701614300565b935050602061463f86828701614300565b9250506040614650868287016145f2565b9150509250925092565b6000819050919050565b61466d8161465a565b811461467857600080fd5b50565b60008135905061468a81614664565b92915050565b600067ffffffffffffffff82169050919050565b6146ad81614690565b81146146b857600080fd5b50565b6000813590506146ca816146a4565b92915050565b600061ffff82169050919050565b6146e7816146d0565b81146146f257600080fd5b50565b600081359050614704816146de565b92915050565b600063ffffffff82169050919050565b6147238161470a565b811461472e57600080fd5b50565b6000813590506147408161471a565b92915050565b61474f81614342565b811461475a57600080fd5b50565b60008135905061476c81614746565b92915050565b60008060008060008060c0878903121561478f5761478e6142d5565b5b600061479d89828a0161467b565b96505060206147ae89828a016146bb565b95505060406147bf89828a016146f5565b94505060606147d089828a01614731565b93505060806147e189828a01614731565b92505060a06147f289828a0161475d565b9150509295509295509295565b614808816144be565b82525050565b600060208201905061482360008301846147ff565b92915050565b60006020828403121561483f5761483e6142d5565b5b600061484d848285016144e7565b91505092915050565b6000819050919050565b600061487b6148766148718461449e565b614856565b61449e565b9050919050565b600061488d82614860565b9050919050565b600061489f82614882565b9050919050565b6148af81614894565b82525050565b60006020820190506148ca60008301846148a6565b92915050565b600080604083850312156148e7576148e66142d5565b5b60006148f5858286016144e7565b9250506020614906858286016144e7565b9150509250929050565b60006080820190506149256000830187614378565b6149326020830186614378565b61493f6040830185614474565b61494c606083018461434e565b95945050505050565b600060c08201905061496a6000830189614378565b6149776020830188614378565b6149846040830187614474565b614991606083018661434e565b61499e608083018561434e565b6149ab60a083018461434e565b979650505050505050565b6000815190506149c5816142e9565b92915050565b6000602082840312156149e1576149e06142d5565b5b60006149ef848285016149b6565b91505092915050565b7f4e487b7100000000000000000000000000000000000000000000000000000000600052601260045260246000fd5b7f4e487b7100000000000000000000000000000000000000000000000000000000600052601160045260246000fd5b6000614a61826142df565b9150614a6c836142df565b925082614a7c57614a7b6149f8565b5b828204905092915050565b6000614a92826142df565b9150614a9d836142df565b9250828201905080821115614ab557614ab4614a27565b5b92915050565b6000614ac6826142df565b9150614ad1836142df565b9250828202614adf816142df565b91508282048414831517614af657614af5614a27565b5b5092915050565b6000604082019050614b1260008301856147ff565b614b1f60208301846147ff565b9392505050565b600082825260208201905092915050565b7f6f6e6c7947656c61746f52656c61794552433237373100000000000000000000600082015250565b6000614b6d601683614b26565b9150614b7882614b37565b602082019050919050565b60006020820190508181036000830152614b9c81614b60565b9050919050565b7f61747461636b5479706500000000000000000000000000000000000000000000600082015250565b6000614bd9600a83614b26565b9150614be482614ba3565b602082019050919050565b60006020820190508181036000830152614c0881614bcc565b9050919050565b7f53454c4600000000000000000000000000000000000000000000000000000000600082015250565b6000614c45600483614b26565b9150614c5082614c0f565b602082019050919050565b60006020820190508181036000830152614c7481614c38565b9050919050565b6000604082019050614c906000830185614378565b614c9d60208301846147ff565b9392505050565b600081519050614cb381614746565b92915050565b600060208284031215614ccf57614cce6142d5565b5b6000614cdd84828501614ca4565b91505092915050565b7f216f776e65720000000000000000000000000000000000000000000000000000600082015250565b6000614d1c600683614b26565b9150614d2782614ce6565b602082019050919050565b60006020820190508181036000830152614d4b81614d0f565b9050919050565b7f21616c6c6f776564000000000000000000000000000000000000000000000000600082015250565b6000614d88600883614b26565b9150614d9382614d52565b602082019050919050565b60006020820190508181036000830152614db781614d7b565b9050919050565b6000604082019050614dd36000830185614378565b614de06020830184614378565b9392505050565b6000614df2826142df565b91507fffffffffffffffffffffffffffffffffffffffffffffffffffffffffffffffff8203614e2457614e23614a27565b5b600182019050919050565b7f4d7573742062652070726f706f736564206f776e657200000000000000000000600082015250565b6000614e65601683614b26565b9150614e7082614e2f565b602082019050919050565b60006020820190508181036000830152614e9481614e58565b9050919050565b614ea48161465a565b82525050565b614eb381614690565b82525050565b614ec2816146d0565b82525050565b614ed18161470a565b82525050565b600060c082019050614eec6000830189614e9b565b614ef96020830188614eaa565b614f066040830187614eb9565b614f136060830186614ec8565b614f206080830185614ec8565b614f2d60a083018461434e565b979650505050505050565b6000606082019050614f4d60008301866147ff565b614f5a60208301856147ff565b614f6760408301846147ff565b949350505050565b7f217265736f6c7665640000000000000000000000000000000000000000000000600082015250565b6000614fa5600983614b26565b9150614fb082614f6f565b602082019050919050565b60006020820190508181036000830152614fd481614f98565b9050919050565b7f6f6e6c7920737563636573730000000000000000000000000000000000000000600082015250565b6000615011600c83614b26565b915061501c82614fdb565b602082019050919050565b6000602082019050818103600083015261504081615004565b9050919050565b7f72657665616c6564000000000000000000000000000000000000000000000000600082015250565b600061507d600883614b26565b915061508882615047565b602082019050919050565b600060208201905081810360008301526150ac81615070565b9050919050565b7f2161757468000000000000000000000000000000000000000000000000000000600082015250565b60006150e9600583614b26565b91506150f4826150b3565b602082019050919050565b60006020820190508181036000830152615118816150dc565b9050919050565b7f5265747279206e6f742079657420617661696c61626c65000000000000000000600082015250565b6000615155601783614b26565b91506151608261511f565b602082019050919050565b6000602082019050818103600083015261518481615148565b9050919050565b7f4e4f545f5245534f4c5645440000000000000000000000000000000000000000600082015250565b60006151c1600c83614b26565b91506151cc8261518b565b602082019050919050565b600060208201905081810360008301526151f0816151b4565b9050919050565b7f6e6f2070656e64696e6700000000000000000000000000000000000000000000600082015250565b600061522d600a83614b26565b9150615238826151f7565b602082019050919050565b6000602082019050818103600083015261525c81615220565b9050919050565b7f4e487b7100000000000000000000000000000000000000000000000000000000600052603260045260246000fd5b600061529d826142df565b91506152a8836142df565b9250826152b8576152b76149f8565b5b828206905092915050565b60006080820190506152d86000830187614378565b6152e56020830186614378565b6152f26040830185614378565b6152ff6060830184614378565b95945050505050565b600061532361531e61531984614467565b614856565b6142df565b9050919050565b61533381615308565b82525050565b600060808201905061534e6000830187614378565b61535b6020830186614378565b615368604083018561434e565b615375606083018461532a565b95945050505050565b7f4f6e6c792063616c6c61626c65206279206f776e657200000000000000000000600082015250565b60006153b4601683614b26565b91506153bf8261537e565b602082019050919050565b600060208201905081810360008301526153e3816153a7565b9050919050565b7f61746b2063617000000000000000000000000000000000000000000000000000600082015250565b6000615420600783614b26565b915061542b826153ea565b602082019050919050565b6000602082019050818103600083015261544f81615413565b9050919050565b600061546182614467565b915061546c83614467565b9250828201905060ff81111561548557615484614a27565b5b92915050565b7f6465662063617000000000000000000000000000000000000000000000000000600082015250565b60006154c1600783614b26565b91506154cc8261548b565b602082019050919050565b600060208201905081810360008301526154f0816154b4565b9050919050565b7f6c616e643c313500000000000000000000000000000000000000000000000000600082015250565b600061552d600783614b26565b9150615538826154f7565b602082019050919050565b6000602082019050818103600083015261555c81615520565b9050919050565b7f746563683c313500000000000000000000000000000000000000000000000000600082015250565b6000615599600783614b26565b91506155a482615563565b602082019050919050565b600060208201905081810360008301526155c88161558c565b9050919050565b7f696e6672613c3135000000000000000000000000000000000000000000000000600082015250565b6000615605600883614b26565b9150615610826155cf565b602082019050919050565b60006020820190508181036000830152615634816155f8565b9050919050565b7f6e756b65733c3600000000000000000000000000000000000000000000000000600082015250565b6000615671600783614b26565b915061567c8261563b565b602082019050919050565b600060208201905081810360008301526156a081615664565b9050919050565b7f6e756b65733c3100000000000000000000000000000000000000000000000000600082015250565b60006156dd600783614b26565b91506156e8826156a7565b602082019050919050565b6000602082019050818103600083015261570c816156d0565b9050919050565b7f43616e6e6f74207472616e7366657220746f2073656c66000000000000000000600082015250565b6000615749601783614b26565b915061575482615713565b602082019050919050565b600060208201905081810360008301526157788161573c565b9050919050565b6000819050919050565b60006157a461579f61579a8461577f565b614856565b6142df565b9050919050565b6157b481615789565b82525050565b60006040820190506157cf6000830185614378565b6157dc60208301846157ab565b9392505050565b6000819050919050565b60006158086158036157fe846157e3565b614856565b6142df565b9050919050565b615818816157ed565b82525050565b60006040820190506158336000830185614378565b615840602083018461580f565b9392505050565b6158508161465a565b82525050565b61585f816142df565b82525050565b61586e816146d0565b82525050565b61587d8161470a565b82525050565b600081519050919050565b600082825260208201905092915050565b60005b838110156158bd5780820151818401526020810190506158a2565b60008484015250505050565b6000601f19601f8301169050919050565b60006158e582615883565b6158ef818561588e565b93506158ff81856020860161589f565b615908816158c9565b840191505092915050565b600060c08301600083015161592b6000860182615847565b50602083015161593e6020860182615856565b5060408301516159516040860182615865565b5060608301516159646060860182615874565b5060808301516159776080860182615874565b5060a083015184820360a086015261598f82826158da565b9150508091505092915050565b600060208201905081810360008301526159b68184615913565b905092915050565b60006159c9826142df565b91506159d4836142df565b92508282039050818111156159ec576159eb614a27565b5b92915050565b6159fb81614342565b82525050565b602082016000820151615a1760008501826159f2565b50505050565b6000602082019050615a326000830184615a01565b92915050565b6000604082019050615a4d6000830185614378565b615a5a6020830184614e9b565b939250505056fea2646970667358221220f30bd421565078568e99e4a939b9379faddf7b27d7bed6ff83fd2104a4db659a64736f6c63430008110033",
  "devdoc": {
    "kind": "dev",
    "methods": {},
    "version": 1
  },
  "userdoc": {
    "kind": "user",
    "methods": {
      "acceptOwnership()": {
        "notice": "Allows an ownership transfer to be completed by the recipient."
      },
      "owner()": {
        "notice": "Get the current owner"
      },
      "setCoordinator(address)": {
        "notice": "Sets the VRF Coordinator addressThis method should only be callable by the coordinator or contract owner"
      },
      "transferOwnership(address)": {
        "notice": "Allows an owner to begin transferring ownership to a new address."
      }
    },
    "version": 1
  },
  "storageLayout": {
    "storage": [
      {
        "astId": 29,
        "contract": "contracts/SpyOperations.sol:SpyOperationsContract",
        "label": "s_owner",
        "offset": 0,
        "slot": "0",
        "type": "t_address"
      },
      {
        "astId": 31,
        "contract": "contracts/SpyOperations.sol:SpyOperationsContract",
        "label": "s_pendingOwner",
        "offset": 0,
        "slot": "1",
        "type": "t_address"
      },
      {
        "astId": 231,
        "contract": "contracts/SpyOperations.sol:SpyOperationsContract",
        "label": "s_vrfCoordinator",
        "offset": 0,
        "slot": "2",
        "type": "t_contract(IVRFCoordinatorV2Plus)380"
      },
      {
        "astId": 61521,
        "contract": "contracts/SpyOperations.sol:SpyOperationsContract",
        "label": "attackId",
        "offset": 0,
        "slot": "3",
        "type": "t_uint256"
      },
      {
        "astId": 61528,
        "contract": "contracts/SpyOperations.sol:SpyOperationsContract",
        "label": "_daySpyCount",
        "offset": 0,
        "slot": "4",
        "type": "t_mapping(t_uint256,t_mapping(t_uint256,t_struct(DaySpies)61482_storage))"
      },
      {
        "astId": 61532,
        "contract": "contracts/SpyOperations.sol:SpyOperationsContract",
        "label": "vrfRequestToAttackId",
        "offset": 0,
        "slot": "5",
        "type": "t_mapping(t_uint256,t_uint256)"
      },
      {
        "astId": 61537,
        "contract": "contracts/SpyOperations.sol:SpyOperationsContract",
        "label": "pending",
        "offset": 0,
        "slot": "6",
        "type": "t_mapping(t_uint256,t_struct(PendingAttack)61491_storage)"
      },
      {
        "astId": 61542,
        "contract": "contracts/SpyOperations.sol:SpyOperationsContract",
        "label": "attacks",
        "offset": 0,
        "slot": "7",
        "type": "t_mapping(t_uint256,t_struct(AttackMeta)61504_storage)"
      },
      {
        "astId": 61545,
        "contract": "contracts/SpyOperations.sol:SpyOperationsContract",
        "label": "inf",
        "offset": 0,
        "slot": "8",
        "type": "t_contract(IInfrastructure)61295"
      },
      {
        "astId": 61548,
        "contract": "contracts/SpyOperations.sol:SpyOperationsContract",
        "label": "force",
        "offset": 0,
        "slot": "9",
        "type": "t_contract(IForces)61310"
      },
      {
        "astId": 61551,
        "contract": "contracts/SpyOperations.sol:SpyOperationsContract",
        "label": "mil",
        "offset": 0,
        "slot": "10",
        "type": "t_contract(IMilitary)61332"
      },
      {
        "astId": 61554,
        "contract": "contracts/SpyOperations.sol:SpyOperationsContract",
        "label": "strength",
        "offset": 0,
        "slot": "11",
        "type": "t_contract(INationStrength)61340"
      },
      {
        "astId": 61557,
        "contract": "contracts/SpyOperations.sol:SpyOperationsContract",
        "label": "tsy",
        "offset": 0,
        "slot": "12",
        "type": "t_contract(ITreasury)61348"
      },
      {
        "astId": 61560,
        "contract": "contracts/SpyOperations.sol:SpyOperationsContract",
        "label": "params",
        "offset": 0,
        "slot": "13",
        "type": "t_contract(ICountryParameters)61384"
      },
      {
        "astId": 61563,
        "contract": "contracts/SpyOperations.sol:SpyOperationsContract",
        "label": "mis",
        "offset": 0,
        "slot": "14",
        "type": "t_contract(IMissiles)61445"
      },
      {
        "astId": 61566,
        "contract": "contracts/SpyOperations.sol:SpyOperationsContract",
        "label": "won1",
        "offset": 0,
        "slot": "15",
        "type": "t_contract(IWonders1)61392"
      },
      {
        "astId": 61569,
        "contract": "contracts/SpyOperations.sol:SpyOperationsContract",
        "label": "won2",
        "offset": 0,
        "slot": "16",
        "type": "t_contract(IWonders2)61400"
      },
      {
        "astId": 61572,
        "contract": "contracts/SpyOperations.sol:SpyOperationsContract",
        "label": "mint",
        "offset": 0,
        "slot": "17",
        "type": "t_contract(ICountryMinter)61410"
      },
      {
        "astId": 61575,
        "contract": "contracts/SpyOperations.sol:SpyOperationsContract",
        "label": "keep",
        "offset": 0,
        "slot": "18",
        "type": "t_contract(IKeeper)61451"
      },
      {
        "astId": 61578,
        "contract": "contracts/SpyOperations.sol:SpyOperationsContract",
        "label": "spy",
        "offset": 0,
        "slot": "19",
        "type": "t_contract(ISpies)61425"
      },
      {
        "astId": 61580,
        "contract": "contracts/SpyOperations.sol:SpyOperationsContract",
        "label": "vrfKeyHash",
        "offset": 0,
        "slot": "20",
        "type": "t_bytes32"
      },
      {
        "astId": 61582,
        "contract": "contracts/SpyOperations.sol:SpyOperationsContract",
        "label": "vrfSubId",
        "offset": 0,
        "slot": "21",
        "type": "t_uint256"
      },
      {
        "astId": 61585,
        "contract": "contracts/SpyOperations.sol:SpyOperationsContract",
        "label": "vrfMinConfirmations",
        "offset": 0,
        "slot": "22",
        "type": "t_uint16"
      },
      {
        "astId": 61587,
        "contract": "contracts/SpyOperations.sol:SpyOperationsContract",
        "label": "vrfCallbackGasLimit",
        "offset": 2,
        "slot": "22",
        "type": "t_uint32"
      },
      {
        "astId": 61590,
        "contract": "contracts/SpyOperations.sol:SpyOperationsContract",
        "label": "vrfNumWords",
        "offset": 6,
        "slot": "22",
        "type": "t_uint32"
      },
      {
        "astId": 61593,
        "contract": "contracts/SpyOperations.sol:SpyOperationsContract",
        "label": "useNativePayment",
        "offset": 10,
        "slot": "22",
        "type": "t_bool"
      },
      {
        "astId": 61950,
        "contract": "contracts/SpyOperations.sol:SpyOperationsContract",
        "label": "pendingRequests",
        "offset": 0,
        "slot": "23",
        "type": "t_mapping(t_uint256,t_bool)"
      },
      {
        "astId": 61954,
        "contract": "contracts/SpyOperations.sol:SpyOperationsContract",
        "label": "pendingRequestTimestamp",
        "offset": 0,
        "slot": "24",
        "type": "t_mapping(t_uint256,t_uint256)"
      },
      {
        "astId": 61958,
        "contract": "contracts/SpyOperations.sol:SpyOperationsContract",
        "label": "attackIdToRequestId",
        "offset": 0,
        "slot": "25",
        "type": "t_mapping(t_uint256,t_uint256)"
      }
    ],
    "types": {
      "t_address": {
        "encoding": "inplace",
        "label": "address",
        "numberOfBytes": "20"
      },
      "t_bool": {
        "encoding": "inplace",
        "label": "bool",
        "numberOfBytes": "1"
      },
      "t_bytes32": {
        "encoding": "inplace",
        "label": "bytes32",
        "numberOfBytes": "32"
      },
      "t_contract(ICountryMinter)61410": {
        "encoding": "inplace",
        "label": "contract ICountryMinter",
        "numberOfBytes": "20"
      },
      "t_contract(ICountryParameters)61384": {
        "encoding": "inplace",
        "label": "contract ICountryParameters",
        "numberOfBytes": "20"
      },
      "t_contract(IForces)61310": {
        "encoding": "inplace",
        "label": "contract IForces",
        "numberOfBytes": "20"
      },
      "t_contract(IInfrastructure)61295": {
        "encoding": "inplace",
        "label": "contract IInfrastructure",
        "numberOfBytes": "20"
      },
      "t_contract(IKeeper)61451": {
        "encoding": "inplace",
        "label": "contract IKeeper",
        "numberOfBytes": "20"
      },
      "t_contract(IMilitary)61332": {
        "encoding": "inplace",
        "label": "contract IMilitary",
        "numberOfBytes": "20"
      },
      "t_contract(IMissiles)61445": {
        "encoding": "inplace",
        "label": "contract IMissiles",
        "numberOfBytes": "20"
      },
      "t_contract(INationStrength)61340": {
        "encoding": "inplace",
        "label": "contract INationStrength",
        "numberOfBytes": "20"
      },
      "t_contract(ISpies)61425": {
        "encoding": "inplace",
        "label": "contract ISpies",
        "numberOfBytes": "20"
      },
      "t_contract(ITreasury)61348": {
        "encoding": "inplace",
        "label": "contract ITreasury",
        "numberOfBytes": "20"
      },
      "t_contract(IVRFCoordinatorV2Plus)380": {
        "encoding": "inplace",
        "label": "contract IVRFCoordinatorV2Plus",
        "numberOfBytes": "20"
      },
      "t_contract(IWonders1)61392": {
        "encoding": "inplace",
        "label": "contract IWonders1",
        "numberOfBytes": "20"
      },
      "t_contract(IWonders2)61400": {
        "encoding": "inplace",
        "label": "contract IWonders2",
        "numberOfBytes": "20"
      },
      "t_mapping(t_uint256,t_bool)": {
        "encoding": "mapping",
        "key": "t_uint256",
        "label": "mapping(uint256 => bool)",
        "numberOfBytes": "32",
        "value": "t_bool"
      },
      "t_mapping(t_uint256,t_mapping(t_uint256,t_struct(DaySpies)61482_storage))": {
        "encoding": "mapping",
        "key": "t_uint256",
        "label": "mapping(uint256 => mapping(uint256 => struct SpyOperationsContract.DaySpies))",
        "numberOfBytes": "32",
        "value": "t_mapping(t_uint256,t_struct(DaySpies)61482_storage)"
      },
      "t_mapping(t_uint256,t_struct(AttackMeta)61504_storage)": {
        "encoding": "mapping",
        "key": "t_uint256",
        "label": "mapping(uint256 => struct SpyOperationsContract.AttackMeta)",
        "numberOfBytes": "32",
        "value": "t_struct(AttackMeta)61504_storage"
      },
      "t_mapping(t_uint256,t_struct(DaySpies)61482_storage)": {
        "encoding": "mapping",
        "key": "t_uint256",
        "label": "mapping(uint256 => struct SpyOperationsContract.DaySpies)",
        "numberOfBytes": "32",
        "value": "t_struct(DaySpies)61482_storage"
      },
      "t_mapping(t_uint256,t_struct(PendingAttack)61491_storage)": {
        "encoding": "mapping",
        "key": "t_uint256",
        "label": "mapping(uint256 => struct SpyOperationsContract.PendingAttack)",
        "numberOfBytes": "32",
        "value": "t_struct(PendingAttack)61491_storage"
      },
      "t_mapping(t_uint256,t_uint256)": {
        "encoding": "mapping",
        "key": "t_uint256",
        "label": "mapping(uint256 => uint256)",
        "numberOfBytes": "32",
        "value": "t_uint256"
      },
      "t_struct(AttackMeta)61504_storage": {
        "encoding": "inplace",
        "label": "struct SpyOperationsContract.AttackMeta",
        "members": [
          {
            "astId": 61493,
            "contract": "contracts/SpyOperations.sol:SpyOperationsContract",
            "label": "attackerId",
            "offset": 0,
            "slot": "0",
            "type": "t_uint256"
          },
          {
            "astId": 61495,
            "contract": "contracts/SpyOperations.sol:SpyOperationsContract",
            "label": "defenderId",
            "offset": 0,
            "slot": "1",
            "type": "t_uint256"
          },
          {
            "astId": 61497,
            "contract": "contracts/SpyOperations.sol:SpyOperationsContract",
            "label": "attackType",
            "offset": 0,
            "slot": "2",
            "type": "t_uint8"
          },
          {
            "astId": 61499,
            "contract": "contracts/SpyOperations.sol:SpyOperationsContract",
            "label": "success",
            "offset": 1,
            "slot": "2",
            "type": "t_bool"
          },
          {
            "astId": 61501,
            "contract": "contracts/SpyOperations.sol:SpyOperationsContract",
            "label": "revealed",
            "offset": 2,
            "slot": "2",
            "type": "t_bool"
          },
          {
            "astId": 61503,
            "contract": "contracts/SpyOperations.sol:SpyOperationsContract",
            "label": "resolved",
            "offset": 3,
            "slot": "2",
            "type": "t_bool"
          }
        ],
        "numberOfBytes": "96"
      },
      "t_struct(DaySpies)61482_storage": {
        "encoding": "inplace",
        "label": "struct SpyOperationsContract.DaySpies",
        "members": [
          {
            "astId": 61479,
            "contract": "contracts/SpyOperations.sol:SpyOperationsContract",
            "label": "outgoing",
            "offset": 0,
            "slot": "0",
            "type": "t_uint8"
          },
          {
            "astId": 61481,
            "contract": "contracts/SpyOperations.sol:SpyOperationsContract",
            "label": "incoming",
            "offset": 1,
            "slot": "0",
            "type": "t_uint8"
          }
        ],
        "numberOfBytes": "32"
      },
      "t_struct(PendingAttack)61491_storage": {
        "encoding": "inplace",
        "label": "struct SpyOperationsContract.PendingAttack",
        "members": [
          {
            "astId": 61484,
            "contract": "contracts/SpyOperations.sol:SpyOperationsContract",
            "label": "attackerId",
            "offset": 0,
            "slot": "0",
            "type": "t_uint256"
          },
          {
            "astId": 61486,
            "contract": "contracts/SpyOperations.sol:SpyOperationsContract",
            "label": "defenderId",
            "offset": 0,
            "slot": "1",
            "type": "t_uint256"
          },
          {
            "astId": 61488,
            "contract": "contracts/SpyOperations.sol:SpyOperationsContract",
            "label": "attackType",
            "offset": 0,
            "slot": "2",
            "type": "t_uint8"
          },
          {
            "astId": 61490,
            "contract": "contracts/SpyOperations.sol:SpyOperationsContract",
            "label": "exists",
            "offset": 1,
            "slot": "2",
            "type": "t_bool"
          }
        ],
        "numberOfBytes": "96"
      },
      "t_uint16": {
        "encoding": "inplace",
        "label": "uint16",
        "numberOfBytes": "2"
      },
      "t_uint256": {
        "encoding": "inplace",
        "label": "uint256",
        "numberOfBytes": "32"
      },
      "t_uint32": {
        "encoding": "inplace",
        "label": "uint32",
        "numberOfBytes": "4"
      },
      "t_uint8": {
        "encoding": "inplace",
        "label": "uint8",
        "numberOfBytes": "1"
      }
    }
  }
}