{
  "address": "0xbFac633831e623F33395D74FA06c6B395B7F8458",
  "abi": [
    {
      "inputs": [
        {
          "internalType": "address",
          "name": "_vrfCoordinator",
          "type": "address"
        },
        {
          "internalType": "uint256",
          "name": "_subId",
          "type": "uint256"
        },
        {
          "internalType": "bytes32",
          "name": "_keyHash",
          "type": "bytes32"
        },
        {
          "internalType": "uint32",
          "name": "_vrfCallbackGasLimit",
          "type": "uint32"
        }
      ],
      "stateMutability": "nonpayable",
      "type": "constructor"
    },
    {
      "inputs": [
        {
          "internalType": "address",
          "name": "have",
          "type": "address"
        },
        {
          "internalType": "address",
          "name": "want",
          "type": "address"
        }
      ],
      "name": "OnlyCoordinatorCanFulfill",
      "type": "error"
    },
    {
      "inputs": [
        {
          "internalType": "address",
          "name": "have",
          "type": "address"
        },
        {
          "internalType": "address",
          "name": "owner",
          "type": "address"
        },
        {
          "internalType": "address",
          "name": "coordinator",
          "type": "address"
        }
      ],
      "name": "OnlyOwnerOrCoordinator",
      "type": "error"
    },
    {
      "inputs": [],
      "name": "ZeroAddress",
      "type": "error"
    },
    {
      "anonymous": false,
      "inputs": [
        {
          "indexed": false,
          "internalType": "address",
          "name": "vrfCoordinator",
          "type": "address"
        }
      ],
      "name": "CoordinatorSet",
      "type": "event"
    },
    {
      "anonymous": false,
      "inputs": [
        {
          "indexed": true,
          "internalType": "address",
          "name": "from",
          "type": "address"
        },
        {
          "indexed": true,
          "internalType": "address",
          "name": "to",
          "type": "address"
        }
      ],
      "name": "OwnershipTransferRequested",
      "type": "event"
    },
    {
      "anonymous": false,
      "inputs": [
        {
          "indexed": true,
          "internalType": "address",
          "name": "from",
          "type": "address"
        },
        {
          "indexed": true,
          "internalType": "address",
          "name": "to",
          "type": "address"
        }
      ],
      "name": "OwnershipTransferred",
      "type": "event"
    },
    {
      "anonymous": false,
      "inputs": [
        {
          "indexed": true,
          "internalType": "uint256",
          "name": "attackId",
          "type": "uint256"
        },
        {
          "indexed": true,
          "internalType": "uint256",
          "name": "defenderId",
          "type": "uint256"
        },
        {
          "indexed": false,
          "internalType": "uint8",
          "name": "attackType",
          "type": "uint8"
        }
      ],
      "name": "SpyAttackCommitted",
      "type": "event"
    },
    {
      "anonymous": false,
      "inputs": [
        {
          "indexed": true,
          "internalType": "uint256",
          "name": "attackId",
          "type": "uint256"
        },
        {
          "indexed": false,
          "internalType": "uint256",
          "name": "maskedAttackerId",
          "type": "uint256"
        },
        {
          "indexed": false,
          "internalType": "uint256",
          "name": "defenderId",
          "type": "uint256"
        },
        {
          "indexed": false,
          "internalType": "bool",
          "name": "success",
          "type": "bool"
        },
        {
          "indexed": false,
          "internalType": "uint256",
          "name": "attackType",
          "type": "uint256"
        }
      ],
      "name": "SpyAttackResolvedPublic",
      "type": "event"
    },
    {
      "anonymous": false,
      "inputs": [
        {
          "indexed": true,
          "internalType": "uint256",
          "name": "attackId",
          "type": "uint256"
        },
        {
          "indexed": false,
          "internalType": "uint256",
          "name": "attackerId",
          "type": "uint256"
        }
      ],
      "name": "SpyAttackRevealed",
      "type": "event"
    },
    {
      "anonymous": false,
      "inputs": [
        {
          "indexed": false,
          "internalType": "bytes32",
          "name": "keyHash",
          "type": "bytes32"
        },
        {
          "indexed": false,
          "internalType": "uint64",
          "name": "subId",
          "type": "uint64"
        },
        {
          "indexed": false,
          "internalType": "uint16",
          "name": "minConf",
          "type": "uint16"
        },
        {
          "indexed": false,
          "internalType": "uint32",
          "name": "gasLimit",
          "type": "uint32"
        },
        {
          "indexed": false,
          "internalType": "uint32",
          "name": "numWords",
          "type": "uint32"
        },
        {
          "indexed": false,
          "internalType": "bool",
          "name": "nativePayment",
          "type": "bool"
        }
      ],
      "name": "VrfConfigUpdated",
      "type": "event"
    },
    {
      "anonymous": false,
      "inputs": [
        {
          "indexed": true,
          "internalType": "uint256",
          "name": "attackId",
          "type": "uint256"
        },
        {
          "indexed": true,
          "internalType": "uint256",
          "name": "requestId",
          "type": "uint256"
        }
      ],
      "name": "VrfRequested",
      "type": "event"
    },
    {
      "inputs": [],
      "name": "MASK_SENTINEL",
      "outputs": [
        {
          "internalType": "uint256",
          "name": "",
          "type": "uint256"
        }
      ],
      "stateMutability": "view",
      "type": "function"
    },
    {
      "inputs": [],
      "name": "MAX_ATTACK_TYPE",
      "outputs": [
        {
          "internalType": "uint8",
          "name": "",
          "type": "uint8"
        }
      ],
      "stateMutability": "view",
      "type": "function"
    },
    {
      "inputs": [],
      "name": "MAX_INCOMING",
      "outputs": [
        {
          "internalType": "uint8",
          "name": "",
          "type": "uint8"
        }
      ],
      "stateMutability": "view",
      "type": "function"
    },
    {
      "inputs": [],
      "name": "MAX_OUTGOING",
      "outputs": [
        {
          "internalType": "uint8",
          "name": "",
          "type": "uint8"
        }
      ],
      "stateMutability": "view",
      "type": "function"
    },
    {
      "inputs": [],
      "name": "MIN_ATTACK_TYPE",
      "outputs": [
        {
          "internalType": "uint8",
          "name": "",
          "type": "uint8"
        }
      ],
      "stateMutability": "view",
      "type": "function"
    },
    {
      "inputs": [],
      "name": "acceptOwnership",
      "outputs": [],
      "stateMutability": "nonpayable",
      "type": "function"
    },
    {
      "inputs": [],
      "name": "attackId",
      "outputs": [
        {
          "internalType": "uint256",
          "name": "",
          "type": "uint256"
        }
      ],
      "stateMutability": "view",
      "type": "function"
    },
    {
      "inputs": [
        {
          "internalType": "uint256",
          "name": "defenderId",
          "type": "uint256"
        }
      ],
      "name": "attackedAlready",
      "outputs": [
        {
          "internalType": "bool",
          "name": "",
          "type": "bool"
        }
      ],
      "stateMutability": "view",
      "type": "function"
    },
    {
      "inputs": [
        {
          "internalType": "uint256",
          "name": "",
          "type": "uint256"
        }
      ],
      "name": "attacks",
      "outputs": [
        {
          "internalType": "uint256",
          "name": "attackerId",
          "type": "uint256"
        },
        {
          "internalType": "uint256",
          "name": "defenderId",
          "type": "uint256"
        },
        {
          "internalType": "uint8",
          "name": "attackType",
          "type": "uint8"
        },
        {
          "internalType": "bool",
          "name": "success",
          "type": "bool"
        },
        {
          "internalType": "bool",
          "name": "revealed",
          "type": "bool"
        },
        {
          "internalType": "bool",
          "name": "resolved",
          "type": "bool"
        }
      ],
      "stateMutability": "view",
      "type": "function"
    },
    {
      "inputs": [],
      "name": "force",
      "outputs": [
        {
          "internalType": "contract IForces",
          "name": "",
          "type": "address"
        }
      ],
      "stateMutability": "view",
      "type": "function"
    },
    {
      "inputs": [
        {
          "internalType": "uint256",
          "name": "id",
          "type": "uint256"
        }
      ],
      "name": "getAttackPublic",
      "outputs": [
        {
          "internalType": "uint256",
          "name": "attackerIdOrMask",
          "type": "uint256"
        },
        {
          "internalType": "uint256",
          "name": "defenderId",
          "type": "uint256"
        },
        {
          "internalType": "uint8",
          "name": "attackType",
          "type": "uint8"
        },
        {
          "internalType": "bool",
          "name": "success",
          "type": "bool"
        },
        {
          "internalType": "bool",
          "name": "revealed",
          "type": "bool"
        },
        {
          "internalType": "bool",
          "name": "resolved",
          "type": "bool"
        }
      ],
      "stateMutability": "view",
      "type": "function"
    },
    {
      "inputs": [
        {
          "internalType": "uint256",
          "name": "countryId",
          "type": "uint256"
        }
      ],
      "name": "getAttackerSuccessScore",
      "outputs": [
        {
          "internalType": "uint256",
          "name": "",
          "type": "uint256"
        }
      ],
      "stateMutability": "view",
      "type": "function"
    },
    {
      "inputs": [
        {
          "internalType": "uint256",
          "name": "countryId",
          "type": "uint256"
        }
      ],
      "name": "getDefenseSuccessScore",
      "outputs": [
        {
          "internalType": "uint256",
          "name": "",
          "type": "uint256"
        }
      ],
      "stateMutability": "view",
      "type": "function"
    },
    {
      "inputs": [],
      "name": "inf",
      "outputs": [
        {
          "internalType": "contract IInfrastructure",
          "name": "",
          "type": "address"
        }
      ],
      "stateMutability": "view",
      "type": "function"
    },
    {
      "inputs": [
        {
          "internalType": "uint256",
          "name": "attackerId",
          "type": "uint256"
        },
        {
          "internalType": "uint256",
          "name": "defenderId",
          "type": "uint256"
        },
        {
          "internalType": "uint8",
          "name": "attackType",
          "type": "uint8"
        }
      ],
      "name": "initiateSpyAttack",
      "outputs": [
        {
          "internalType": "uint256",
          "name": "newAttackId",
          "type": "uint256"
        }
      ],
      "stateMutability": "nonpayable",
      "type": "function"
    },
    {
      "inputs": [],
      "name": "keep",
      "outputs": [
        {
          "internalType": "contract IKeeper",
          "name": "",
          "type": "address"
        }
      ],
      "stateMutability": "view",
      "type": "function"
    },
    {
      "inputs": [],
      "name": "mil",
      "outputs": [
        {
          "internalType": "contract IMilitary",
          "name": "",
          "type": "address"
        }
      ],
      "stateMutability": "view",
      "type": "function"
    },
    {
      "inputs": [],
      "name": "mint",
      "outputs": [
        {
          "internalType": "contract ICountryMinter",
          "name": "",
          "type": "address"
        }
      ],
      "stateMutability": "view",
      "type": "function"
    },
    {
      "inputs": [],
      "name": "mis",
      "outputs": [
        {
          "internalType": "contract IMissiles",
          "name": "",
          "type": "address"
        }
      ],
      "stateMutability": "view",
      "type": "function"
    },
    {
      "inputs": [],
      "name": "owner",
      "outputs": [
        {
          "internalType": "address",
          "name": "",
          "type": "address"
        }
      ],
      "stateMutability": "view",
      "type": "function"
    },
    {
      "inputs": [],
      "name": "params",
      "outputs": [
        {
          "internalType": "contract ICountryParameters",
          "name": "",
          "type": "address"
        }
      ],
      "stateMutability": "view",
      "type": "function"
    },
    {
      "inputs": [
        {
          "internalType": "uint256",
          "name": "",
          "type": "uint256"
        }
      ],
      "name": "pending",
      "outputs": [
        {
          "internalType": "uint256",
          "name": "attackerId",
          "type": "uint256"
        },
        {
          "internalType": "uint256",
          "name": "defenderId",
          "type": "uint256"
        },
        {
          "internalType": "uint8",
          "name": "attackType",
          "type": "uint8"
        },
        {
          "internalType": "bool",
          "name": "exists",
          "type": "bool"
        }
      ],
      "stateMutability": "view",
      "type": "function"
    },
    {
      "inputs": [
        {
          "internalType": "uint256",
          "name": "requestId",
          "type": "uint256"
        },
        {
          "internalType": "uint256[]",
          "name": "randomWords",
          "type": "uint256[]"
        }
      ],
      "name": "rawFulfillRandomWords",
      "outputs": [],
      "stateMutability": "nonpayable",
      "type": "function"
    },
    {
      "inputs": [
        {
          "internalType": "uint256",
          "name": "id",
          "type": "uint256"
        }
      ],
      "name": "revealAttack",
      "outputs": [],
      "stateMutability": "nonpayable",
      "type": "function"
    },
    {
      "inputs": [],
      "name": "s_vrfCoordinator",
      "outputs": [
        {
          "internalType": "contract IVRFCoordinatorV2Plus",
          "name": "",
          "type": "address"
        }
      ],
      "stateMutability": "view",
      "type": "function"
    },
    {
      "inputs": [
        {
          "internalType": "address",
          "name": "_vrfCoordinator",
          "type": "address"
        }
      ],
      "name": "setCoordinator",
      "outputs": [],
      "stateMutability": "nonpayable",
      "type": "function"
    },
    {
      "inputs": [
        {
          "internalType": "bytes32",
          "name": "_keyHash",
          "type": "bytes32"
        },
        {
          "internalType": "uint64",
          "name": "_subId",
          "type": "uint64"
        },
        {
          "internalType": "uint16",
          "name": "_minConf",
          "type": "uint16"
        },
        {
          "internalType": "uint32",
          "name": "_gasLimit",
          "type": "uint32"
        },
        {
          "internalType": "uint32",
          "name": "_numWords",
          "type": "uint32"
        },
        {
          "internalType": "bool",
          "name": "_useNative",
          "type": "bool"
        }
      ],
      "name": "setVRFConfig",
      "outputs": [],
      "stateMutability": "nonpayable",
      "type": "function"
    },
    {
      "inputs": [
        {
          "internalType": "address",
          "name": "_infrastructure",
          "type": "address"
        },
        {
          "internalType": "address",
          "name": "_forces",
          "type": "address"
        },
        {
          "internalType": "address",
          "name": "_military",
          "type": "address"
        },
        {
          "internalType": "address",
          "name": "_nationStrength",
          "type": "address"
        },
        {
          "internalType": "address",
          "name": "_wonders1",
          "type": "address"
        },
        {
          "internalType": "address",
          "name": "_wonders2",
          "type": "address"
        },
        {
          "internalType": "address",
          "name": "_treasury",
          "type": "address"
        },
        {
          "internalType": "address",
          "name": "_parameters",
          "type": "address"
        },
        {
          "internalType": "address",
          "name": "_missiles",
          "type": "address"
        },
        {
          "internalType": "address",
          "name": "_countryMinter",
          "type": "address"
        }
      ],
      "name": "settings",
      "outputs": [],
      "stateMutability": "nonpayable",
      "type": "function"
    },
    {
      "inputs": [
        {
          "internalType": "address",
          "name": "_keeper",
          "type": "address"
        },
        {
          "internalType": "address",
          "name": "_spies",
          "type": "address"
        }
      ],
      "name": "settings2",
      "outputs": [],
      "stateMutability": "nonpayable",
      "type": "function"
    },
    {
      "inputs": [],
      "name": "spy",
      "outputs": [
        {
          "internalType": "contract ISpies",
          "name": "",
          "type": "address"
        }
      ],
      "stateMutability": "view",
      "type": "function"
    },
    {
      "inputs": [],
      "name": "strength",
      "outputs": [
        {
          "internalType": "contract INationStrength",
          "name": "",
          "type": "address"
        }
      ],
      "stateMutability": "view",
      "type": "function"
    },
    {
      "inputs": [
        {
          "internalType": "address",
          "name": "to",
          "type": "address"
        }
      ],
      "name": "transferOwnership",
      "outputs": [],
      "stateMutability": "nonpayable",
      "type": "function"
    },
    {
      "inputs": [],
      "name": "tsy",
      "outputs": [
        {
          "internalType": "contract ITreasury",
          "name": "",
          "type": "address"
        }
      ],
      "stateMutability": "view",
      "type": "function"
    },
    {
      "inputs": [],
      "name": "useNativePayment",
      "outputs": [
        {
          "internalType": "bool",
          "name": "",
          "type": "bool"
        }
      ],
      "stateMutability": "view",
      "type": "function"
    },
    {
      "inputs": [],
      "name": "vrfCallbackGasLimit",
      "outputs": [
        {
          "internalType": "uint32",
          "name": "",
          "type": "uint32"
        }
      ],
      "stateMutability": "view",
      "type": "function"
    },
    {
      "inputs": [],
      "name": "vrfKeyHash",
      "outputs": [
        {
          "internalType": "bytes32",
          "name": "",
          "type": "bytes32"
        }
      ],
      "stateMutability": "view",
      "type": "function"
    },
    {
      "inputs": [],
      "name": "vrfMinConfirmations",
      "outputs": [
        {
          "internalType": "uint16",
          "name": "",
          "type": "uint16"
        }
      ],
      "stateMutability": "view",
      "type": "function"
    },
    {
      "inputs": [],
      "name": "vrfNumWords",
      "outputs": [
        {
          "internalType": "uint32",
          "name": "",
          "type": "uint32"
        }
      ],
      "stateMutability": "view",
      "type": "function"
    },
    {
      "inputs": [
        {
          "internalType": "uint256",
          "name": "",
          "type": "uint256"
        }
      ],
      "name": "vrfRequestToAttackId",
      "outputs": [
        {
          "internalType": "uint256",
          "name": "",
          "type": "uint256"
        }
      ],
      "stateMutability": "view",
      "type": "function"
    },
    {
      "inputs": [],
      "name": "vrfSubId",
      "outputs": [
        {
          "internalType": "uint256",
          "name": "",
          "type": "uint256"
        }
      ],
      "stateMutability": "view",
      "type": "function"
    },
    {
      "inputs": [],
      "name": "won1",
      "outputs": [
        {
          "internalType": "contract IWonders1",
          "name": "",
          "type": "address"
        }
      ],
      "stateMutability": "view",
      "type": "function"
    },
    {
      "inputs": [],
      "name": "won2",
      "outputs": [
        {
          "internalType": "contract IWonders2",
          "name": "",
          "type": "address"
        }
      ],
      "stateMutability": "view",
      "type": "function"
    }
  ],
  "transactionHash": "0x90c185c17f1cca0cb4853b86e9a58671de33d7b6a4db6d492dcc3c486c2104ee",
  "args": [
    "0xd5D517aBE5cF79B7e95eC98dB0f0277788aFF634",
    "24802783192322697201261566732783929045615788778639507776573378755552146781710",
    "0xdc2f87677b01473c763cb0aee938ed3341512f6057324a584e5944e786144d70",
    "2500000"
  ],
  "numDeployments": 2,
  "solcInputHash": "bae5606712e62cada576736ea85e44b4",
  "bytecode": "0x60e06040526003601660006101000a81548161ffff021916908361ffff1602179055506001601660066101000a81548163ffffffff021916908363ffffffff16021790555060016016600a6101000a81548160ff0219169083151502179055503480156200006c57600080fd5b506040516200696a3803806200696a833981810160405281019062000092919062000b0f565b8333806000620000a76200032160201b60201c565b8073ffffffffffffffffffffffffffffffffffffffff1660c09073ffffffffffffffffffffffffffffffffffffffff168152508173ffffffffffffffffffffffffffffffffffffffff1660a09073ffffffffffffffffffffffffffffffffffffffff168152508273ffffffffffffffffffffffffffffffffffffffff1660809073ffffffffffffffffffffffffffffffffffffffff16815250505050600073ffffffffffffffffffffffffffffffffffffffff168273ffffffffffffffffffffffffffffffffffffffff1603620001b5576040517f08c379a0000000000000000000000000000000000000000000000000000000008152600401620001ac9062000be2565b60405180910390fd5b816000806101000a81548173ffffffffffffffffffffffffffffffffffffffff021916908373ffffffffffffffffffffffffffffffffffffffff160217905550600073ffffffffffffffffffffffffffffffffffffffff168173ffffffffffffffffffffffffffffffffffffffff16146200023c576200023b81620004f960201b60201c565b5b505050600073ffffffffffffffffffffffffffffffffffffffff168173ffffffffffffffffffffffffffffffffffffffff1603620002a6576040517fd92e233d00000000000000000000000000000000000000000000000000000000815260040160405180910390fd5b80600260006101000a81548173ffffffffffffffffffffffffffffffffffffffff021916908373ffffffffffffffffffffffffffffffffffffffff16021790555050816014819055508260158190555080601660026101000a81548163ffffffff021916908363ffffffff1602179055505050505062000c76565b600080600062000337466200062860201b60201c565b1562000388577361ace8fba7b80aef8ed67f37cb60be00180872ad73368165b2afb95fae8cec409efa59d5091f9875a573038479687b7bc7943313bffd524a4acc96b3f9be925092509250620004f4565b62000399466200065660201b60201c565b15620003ea5773b16a1dbe755f992636705fdbb3a8678a657eb3ea7322dcc39b2ac376862183dd35a1664798dafc7da673ba4082f4961c8fb76231995c967cd9aa40f321b5925092509250620004f4565b620003fb466200068460201b60201c565b156200044c577342120a1417a091a52a8d4590e28fc6c0f61e563273aced988c5b5fe3f11848c728d9a5f66cf34c9e7373bbce89acdd86d0130bdc3f1fe37c3aedd79fc1f4925092509250620004f4565b6200045d46620006b260201b60201c565b15620004ae5773abcc9b596420a9e9172fd5938620e265a0f9df9273b539068872230f20456cf38ec52ef2f91af4ae49738598806401a63ddf52473f1b3c55bc9e33e2d73b925092509250620004f4565b73cd565435e0d2109fefde337a66491541df0d1420738ace64cea52b409f930f60b516f65197fad4b05673c7739c195618d314c08e8626c98f8573e4e436349250925092505b909192565b3373ffffffffffffffffffffffffffffffffffffffff168173ffffffffffffffffffffffffffffffffffffffff16036200056a576040517f08c379a0000000000000000000000000000000000000000000000000000000008152600401620005619062000c54565b60405180910390fd5b80600160006101000a81548173ffffffffffffffffffffffffffffffffffffffff021916908373ffffffffffffffffffffffffffffffffffffffff1602179055508073ffffffffffffffffffffffffffffffffffffffff1660008054906101000a900473ffffffffffffffffffffffffffffffffffffffff1673ffffffffffffffffffffffffffffffffffffffff167fed8889f560326eb138920d842192f0eb3dd22b4f139c87a2c57538e05bae127860405160405180910390a350565b6000610e358214806200063c5750610e3482145b156200064c576001905062000651565b600090505b919050565b60006101448214806200066a575061011882145b156200067a57600190506200067f565b600090505b919050565b6000612b74821480620006985750610ab582145b15620006a85760019050620006ad565b600090505b919050565b60006001821480620006c45750600a82145b80620006d05750601982145b80620006dc5750601e82145b80620006e85750603882145b80620006f45750606482145b80620007005750606d82145b806200070c5750608982145b8062000718575060b782145b8062000724575060e982145b8062000730575060fa82145b806200073d575061013a82145b806200074a575061044082145b8062000757575061044d82145b8062000764575061046f82145b8062000771575061050482145b806200077e575061050582145b806200078b57506106c182145b8062000798575061072582145b80620007a5575061072982145b80620007b257506107f782145b80620007bf5750610ec082145b80620007cc575061106a82145b80620007d957506118fe82145b80620007e6575061210582145b80620007f357506127d882145b8062000800575061473782145b806200080d575061473982145b806200081a57506162ef82145b8062000827575061868b82145b8062000834575061a1ef82145b8062000841575061a45582145b806200084e575061a4b182145b806200085b575061a86a82145b8062000868575061e70882145b806200087657506201388282145b80620008845750620138d482145b8062000892575062013e3182145b80620008a0575062014a3482145b80620008ae57506201b25482145b80620008bc57506203ade082145b80620008ca575062066eee82145b80620008d85750620a045c82145b80620008e6575062133e4082145b80620008f45750625c235982145b806200090257506276adf182145b8062000910575062aa36a782145b806200091e575062aa37dc82145b806200092d57506301bf493382145b806200093c5750630426e64982145b806200094b5750630553507282145b806200095a575063059d713182145b8062000969575063075b3dcf82145b80620009785750630a0c71fd82145b80620009875750630d3b745e82145b80620009965750633b4c8eb982145b80620009a55750635241524982145b80620009b4575063bc1392a682145b80620009c457506412dbe9140282145b80620009d457506414865d0f0582145b15620009e45760019050620009e9565b600090505b919050565b600080fd5b600073ffffffffffffffffffffffffffffffffffffffff82169050919050565b600062000a2082620009f3565b9050919050565b62000a328162000a13565b811462000a3e57600080fd5b50565b60008151905062000a528162000a27565b92915050565b6000819050919050565b62000a6d8162000a58565b811462000a7957600080fd5b50565b60008151905062000a8d8162000a62565b92915050565b6000819050919050565b62000aa88162000a93565b811462000ab457600080fd5b50565b60008151905062000ac88162000a9d565b92915050565b600063ffffffff82169050919050565b62000ae98162000ace565b811462000af557600080fd5b50565b60008151905062000b098162000ade565b92915050565b6000806000806080858703121562000b2c5762000b2b620009ee565b5b600062000b3c8782880162000a41565b945050602062000b4f8782880162000a7c565b935050604062000b628782880162000ab7565b925050606062000b758782880162000af8565b91505092959194509250565b600082825260208201905092915050565b7f43616e6e6f7420736574206f776e657220746f207a65726f0000000000000000600082015250565b600062000bca60188362000b81565b915062000bd78262000b92565b602082019050919050565b6000602082019050818103600083015262000bfd8162000bbb565b9050919050565b7f43616e6e6f74207472616e7366657220746f2073656c66000000000000000000600082015250565b600062000c3c60178362000b81565b915062000c498262000c04565b602082019050919050565b6000602082019050818103600083015262000c6f8162000c2d565b9050919050565b60805160a05160c051615cc762000ca3600039600061275e01526000612709015260005050615cc76000f3fe608060405234801561001057600080fd5b506004361061025e5760003560e01c806379ba509711610146578063af6e6238116100c3578063e4d06d8211610087578063e4d06d82146106ef578063e5b6521f1461070d578063ecd60a9e1461073d578063f2fde38b1461075b578063f41f8ba614610777578063f42e1b59146107955761025e565b8063af6e62381461062f578063c52dd21214610662578063cff0ab961461067e578063d22b06891461069c578063d78b1d39146106ba5761025e565b80638ea981171161010a5780638ea981171461059d5780639eccacf6146105b9578063a4b9a73a146105d7578063a5443815146105f5578063a79f26dc146106115761025e565b806379ba50971461051d578063813fe238146105275780638b460d71146105455780638b56cf38146105635780638da5cb5b1461057f5761025e565b806334ed5f32116101df57806355b6c288116101a357806355b6c28814610445578063587b3e7c146104635780635aba37c4146104815780635bb26c97146104b1578063692c098d146104e15780636c9f0b47146104ff5761025e565b806334ed5f32146103b157806339de8f92146103cf5780633b7ed734146103eb5780634f878ded146104095780635151804a146104275761025e565b80631fe543e3116102265780631fe543e31461031d5780632a90c59114610339578063326156401461035757806332f276ec1461037557806333497466146103935761025e565b8063018518a81461026357806302c57a9614610293578063041d443e146102c357806311bccc84146102e15780631249c58b146102ff575b600080fd5b61027d60048036038101906102789190614290565b6107ca565b60405161028a91906142d8565b60405180910390f35b6102ad60048036038101906102a89190614290565b6108ad565b6040516102ba9190614302565b60405180910390f35b6102cb610c50565b6040516102d89190614336565b60405180910390f35b6102e9610c56565b6040516102f691906142d8565b60405180910390f35b610307610c69565b60405161031491906143d0565b60405180910390f35b61033760048036038101906103329190614450565b610c8f565b005b610341610d55565b60405161034e91906144d1565b60405180910390f35b61035f610d7b565b60405161036c9190614302565b60405180910390f35b61037d610d81565b60405161038a919061450d565b60405180910390f35b61039b610da7565b6040516103a89190614544565b60405180910390f35b6103b9610dac565b6040516103c69190614544565b60405180910390f35b6103e960048036038101906103e4919061459d565b610db1565b005b6103f361104f565b604051610400919061469b565b60405180910390f35b610411611065565b60405161041e9190614302565b60405180910390f35b61042f61106a565b60405161043c919061469b565b60405180910390f35b61044d611080565b60405161045a91906146d7565b60405180910390f35b61046b6110a6565b6040516104789190614713565b60405180910390f35b61049b6004803603810190610496919061475a565b6110cc565b6040516104a89190614302565b60405180910390f35b6104cb60048036038101906104c69190614290565b61157b565b6040516104d89190614302565b60405180910390f35b6104e9611593565b6040516104f69190614544565b60405180910390f35b610507611598565b60405161051491906147ce565b60405180910390f35b6105256115be565b005b61052f611753565b60405161053c9190614806565b60405180910390f35b61054d611767565b60405161055a9190614302565b60405180910390f35b61057d60048036038101906105789190614911565b61176d565b005b61058761184f565b60405161059491906149ad565b60405180910390f35b6105b760048036038101906105b291906149c8565b611878565b005b6105c1611a59565b6040516105ce9190614a16565b60405180910390f35b6105df611a7f565b6040516105ec9190614a52565b60405180910390f35b61060f600480360381019061060a9190614a6d565b611aa5565b005b610619611b33565b6040516106269190614ace565b60405180910390f35b61064960048036038101906106449190614290565b611b59565b6040516106599493929190614ae9565b60405180910390f35b61067c60048036038101906106779190614290565b611ba3565b005b610686611e30565b6040516106939190614b4f565b60405180910390f35b6106a4611e56565b6040516106b19190614544565b60405180910390f35b6106d460048036038101906106cf9190614290565b611e5b565b6040516106e696959493929190614b6a565b60405180910390f35b6106f7611ecb565b6040516107049190614bec565b60405180910390f35b61072760048036038101906107229190614290565b611ef1565b6040516107349190614302565b60405180910390f35b610745612140565b6040516107529190614c28565b60405180910390f35b610775600480360381019061077091906149c8565b612166565b005b61077f61217a565b60405161078c9190614c64565b60405180910390f35b6107af60048036038101906107aa9190614290565b6121a0565b6040516107c196959493929190614b6a565b60405180910390f35b600080601260009054906101000a900473ffffffffffffffffffffffffffffffffffffffff1673ffffffffffffffffffffffffffffffffffffffff16634bf47c0b6040518163ffffffff1660e01b8152600401602060405180830381865afa15801561083a573d6000803e3d6000fd5b505050506040513d601f19601f8201168201806040525081019061085e9190614c94565b905060006004600083815260200190815260200160002060008581526020019081526020016000209050600260ff168160000160019054906101000a900460ff1660ff16101592505050919050565b600080601360009054906101000a900473ffffffffffffffffffffffffffffffffffffffff1673ffffffffffffffffffffffffffffffffffffffff16637f0df537846040518263ffffffff1660e01b815260040161090b9190614302565b602060405180830381865afa158015610928573d6000803e3d6000fd5b505050506040513d601f19601f8201168201806040525081019061094c9190614c94565b90506000600860009054906101000a900473ffffffffffffffffffffffffffffffffffffffff1673ffffffffffffffffffffffffffffffffffffffff1663221a528f856040518263ffffffff1660e01b81526004016109ab9190614302565b602060405180830381865afa1580156109c8573d6000803e3d6000fd5b505050506040513d601f19601f820116820180604052508101906109ec9190614c94565b90506000600860009054906101000a900473ffffffffffffffffffffffffffffffffffffffff1673ffffffffffffffffffffffffffffffffffffffff1663a9266dde866040518263ffffffff1660e01b8152600401610a4b9190614302565b602060405180830381865afa158015610a68573d6000803e3d6000fd5b505050506040513d601f19601f82011682018060405250810190610a8c9190614c94565b90506000600a60009054906101000a900473ffffffffffffffffffffffffffffffffffffffff1673ffffffffffffffffffffffffffffffffffffffff1663afeeef19876040518263ffffffff1660e01b8152600401610aeb9190614302565b602060405180830381865afa158015610b08573d6000803e3d6000fd5b505050506040513d601f19601f82011682018060405250810190610b2c9190614c94565b90506000604683610b3d9190614d1f565b601485610b4a9190614d1f565b86610b559190614d50565b610b5f9190614d50565b905060018203610b8e576064604b82610b789190614d84565b610b829190614d1f565b95505050505050610c4b565b60028203610bbb576064605a82610ba59190614d84565b610baf9190614d1f565b95505050505050610c4b565b60038203610bd0578095505050505050610c4b565b60048203610bfd576064606e82610be79190614d84565b610bf19190614d1f565b95505050505050610c4b565b60048203610c2a576064607d82610c149190614d84565b610c1e9190614d1f565b95505050505050610c4b565b6064607d82610c399190614d84565b610c439190614d1f565b955050505050505b919050565b60145481565b6016600a9054906101000a900460ff1681565b601160009054906101000a900473ffffffffffffffffffffffffffffffffffffffff1681565b600260009054906101000a900473ffffffffffffffffffffffffffffffffffffffff1673ffffffffffffffffffffffffffffffffffffffff163373ffffffffffffffffffffffffffffffffffffffff1614610d455733600260009054906101000a900473ffffffffffffffffffffffffffffffffffffffff166040517f1cf993f4000000000000000000000000000000000000000000000000000000008152600401610d3c929190614dc6565b60405180910390fd5b610d508383836122b8565b505050565b601360009054906101000a900473ffffffffffffffffffffffffffffffffffffffff1681565b60155481565b600860009054906101000a900473ffffffffffffffffffffffffffffffffffffffff1681565b600181565b600681565b610db9612675565b89600860006101000a81548173ffffffffffffffffffffffffffffffffffffffff021916908373ffffffffffffffffffffffffffffffffffffffff16021790555088600960006101000a81548173ffffffffffffffffffffffffffffffffffffffff021916908373ffffffffffffffffffffffffffffffffffffffff16021790555087600a60006101000a81548173ffffffffffffffffffffffffffffffffffffffff021916908373ffffffffffffffffffffffffffffffffffffffff16021790555086600b60006101000a81548173ffffffffffffffffffffffffffffffffffffffff021916908373ffffffffffffffffffffffffffffffffffffffff16021790555085600f60006101000a81548173ffffffffffffffffffffffffffffffffffffffff021916908373ffffffffffffffffffffffffffffffffffffffff16021790555084601060006101000a81548173ffffffffffffffffffffffffffffffffffffffff021916908373ffffffffffffffffffffffffffffffffffffffff16021790555083600c60006101000a81548173ffffffffffffffffffffffffffffffffffffffff021916908373ffffffffffffffffffffffffffffffffffffffff16021790555082600d60006101000a81548173ffffffffffffffffffffffffffffffffffffffff021916908373ffffffffffffffffffffffffffffffffffffffff16021790555081600e60006101000a81548173ffffffffffffffffffffffffffffffffffffffff021916908373ffffffffffffffffffffffffffffffffffffffff16021790555080601160006101000a81548173ffffffffffffffffffffffffffffffffffffffff021916908373ffffffffffffffffffffffffffffffffffffffff16021790555050505050505050505050565b601660029054906101000a900463ffffffff1681565b600081565b601660069054906101000a900463ffffffff1681565b600b60009054906101000a900473ffffffffffffffffffffffffffffffffffffffff1681565b600f60009054906101000a900473ffffffffffffffffffffffffffffffffffffffff1681565b60006110d733612705565b611116576040517f08c379a000000000000000000000000000000000000000000000000000000000815260040161110d90614e4c565b60405180910390fd5b600160ff168260ff16101580156111345750600c60ff168260ff1611155b611173576040517f08c379a000000000000000000000000000000000000000000000000000000000815260040161116a90614eb8565b60405180910390fd5b8284036111b5576040517f08c379a00000000000000000000000000000000000000000000000000000000081526004016111ac90614f24565b60405180910390fd5b60006111bf6127c4565b9050601160009054906101000a900473ffffffffffffffffffffffffffffffffffffffff1673ffffffffffffffffffffffffffffffffffffffff166377ade19086836040518363ffffffff1660e01b815260040161121e929190614f44565b602060405180830381865afa15801561123b573d6000803e3d6000fd5b505050506040513d601f19601f8201168201806040525081019061125f9190614f82565b61129e576040517f08c379a000000000000000000000000000000000000000000000000000000000815260040161129590614ffb565b60405180910390fd5b6112a885856127e7565b6112b284846129f9565b6112f1576040517f08c379a00000000000000000000000000000000000000000000000000000000081526004016112e890615067565b60405180910390fd5b6000600b60009054906101000a900473ffffffffffffffffffffffffffffffffffffffff1673ffffffffffffffffffffffffffffffffffffffff1663299e5942866040518263ffffffff1660e01b815260040161134e9190614302565b602060405180830381865afa15801561136b573d6000803e3d6000fd5b505050506040513d601f19601f8201168201806040525081019061138f9190614c94565b9050600061139d8583612eb9565b9050600c60009054906101000a900473ffffffffffffffffffffffffffffffffffffffff1673ffffffffffffffffffffffffffffffffffffffff16635ff38ff188836040518363ffffffff1660e01b81526004016113fc929190615087565b600060405180830381600087803b15801561141657600080fd5b505af115801561142a573d6000803e3d6000fd5b5050505060405180608001604052808881526020018781526020018660ff16815260200160011515815250600660006003548152602001908152602001600020600082015181600001556020820151816001015560408201518160020160006101000a81548160ff021916908360ff16021790555060608201518160020160016101000a81548160ff02191690831515021790555090505060006114cc613100565b90506003546005600083815260200190815260200160002081905550866003547f4f0b5a55cd2a88bbc7c42d3ee2d6d263bf3d3a63c40acf310d6a6c5341d5b3a88860405161151b9190614544565b60405180910390a3806003547f6bb6d9629c0d789662101058a2c5a7e71fbcae2a88dbf122d96bafca3e57b32a60405160405180910390a360035494506003600081548092919061156b906150b0565b9190505550505050509392505050565b60056020528060005260406000206000915090505481565b600c81565b600e60009054906101000a900473ffffffffffffffffffffffffffffffffffffffff1681565b600160009054906101000a900473ffffffffffffffffffffffffffffffffffffffff1673ffffffffffffffffffffffffffffffffffffffff163373ffffffffffffffffffffffffffffffffffffffff161461164e576040517f08c379a000000000000000000000000000000000000000000000000000000000815260040161164590615144565b60405180910390fd5b60008060009054906101000a900473ffffffffffffffffffffffffffffffffffffffff169050336000806101000a81548173ffffffffffffffffffffffffffffffffffffffff021916908373ffffffffffffffffffffffffffffffffffffffff1602179055506000600160006101000a81548173ffffffffffffffffffffffffffffffffffffffff021916908373ffffffffffffffffffffffffffffffffffffffff1602179055503373ffffffffffffffffffffffffffffffffffffffff168173ffffffffffffffffffffffffffffffffffffffff167f8be0079c531659141344cd1fd0a4f28419497f9722a3daafe3b4186f6b6457e060405160405180910390a350565b601660009054906101000a900461ffff1681565b60035481565b611775612675565b856014819055508467ffffffffffffffff1660158190555083601660006101000a81548161ffff021916908361ffff16021790555082601660026101000a81548163ffffffff021916908363ffffffff16021790555081601660066101000a81548163ffffffff021916908363ffffffff160217905550806016600a6101000a81548160ff0219169083151502179055507f3bb6ddbf26a0f80b74cfc94ed21a6d2ec325bd3c62721c2aad7e4c427f679b3886868686868660405161183f96959493929190615173565b60405180910390a1505050505050565b60008060009054906101000a900473ffffffffffffffffffffffffffffffffffffffff16905090565b61188061184f565b73ffffffffffffffffffffffffffffffffffffffff163373ffffffffffffffffffffffffffffffffffffffff16141580156119095750600260009054906101000a900473ffffffffffffffffffffffffffffffffffffffff1673ffffffffffffffffffffffffffffffffffffffff163373ffffffffffffffffffffffffffffffffffffffff1614155b15611978573361191761184f565b600260009054906101000a900473ffffffffffffffffffffffffffffffffffffffff166040517f061db9c100000000000000000000000000000000000000000000000000000000815260040161196f939291906151d4565b60405180910390fd5b600073ffffffffffffffffffffffffffffffffffffffff168173ffffffffffffffffffffffffffffffffffffffff16036119de576040517fd92e233d00000000000000000000000000000000000000000000000000000000815260040160405180910390fd5b80600260006101000a81548173ffffffffffffffffffffffffffffffffffffffff021916908373ffffffffffffffffffffffffffffffffffffffff1602179055507fd1a6a14209a385a964d036e404cb5cfb71f4000cdb03c9366292430787261be681604051611a4e91906149ad565b60405180910390a150565b600260009054906101000a900473ffffffffffffffffffffffffffffffffffffffff1681565b601060009054906101000a900473ffffffffffffffffffffffffffffffffffffffff1681565b611aad612675565b81601260006101000a81548173ffffffffffffffffffffffffffffffffffffffff021916908373ffffffffffffffffffffffffffffffffffffffff16021790555080601360006101000a81548173ffffffffffffffffffffffffffffffffffffffff021916908373ffffffffffffffffffffffffffffffffffffffff1602179055505050565b600960009054906101000a900473ffffffffffffffffffffffffffffffffffffffff1681565b60066020528060005260406000206000915090508060000154908060010154908060020160009054906101000a900460ff16908060020160019054906101000a900460ff16905084565b60006007600083815260200190815260200160002090508060020160039054906101000a900460ff16611c0b576040517f08c379a0000000000000000000000000000000000000000000000000000000008152600401611c0290615257565b60405180910390fd5b8060020160019054906101000a900460ff16611c5c576040517f08c379a0000000000000000000000000000000000000000000000000000000008152600401611c53906152c3565b60405180910390fd5b8060020160029054906101000a900460ff1615611cae576040517f08c379a0000000000000000000000000000000000000000000000000000000008152600401611ca59061532f565b60405180910390fd5b601160009054906101000a900473ffffffffffffffffffffffffffffffffffffffff1673ffffffffffffffffffffffffffffffffffffffff166377ade1908260000154611cf96127c4565b6040518363ffffffff1660e01b8152600401611d16929190614f44565b602060405180830381865afa158015611d33573d6000803e3d6000fd5b505050506040513d601f19601f82011682018060405250810190611d579190614f82565b80611d945750611d6561184f565b73ffffffffffffffffffffffffffffffffffffffff163373ffffffffffffffffffffffffffffffffffffffff16145b611dd3576040517f08c379a0000000000000000000000000000000000000000000000000000000008152600401611dca9061539b565b60405180910390fd5b60018160020160026101000a81548160ff021916908315150217905550817f47f6f7f991c6aedda7a7ef9255cffa419474c6453ebbc281025ea2f9ebd8221d8260000154604051611e249190614302565b60405180910390a25050565b600d60009054906101000a900473ffffffffffffffffffffffffffffffffffffffff1681565b600281565b60076020528060005260406000206000915090508060000154908060010154908060020160009054906101000a900460ff16908060020160019054906101000a900460ff16908060020160029054906101000a900460ff16908060020160039054906101000a900460ff16905086565b601260009054906101000a900473ffffffffffffffffffffffffffffffffffffffff1681565b600080601360009054906101000a900473ffffffffffffffffffffffffffffffffffffffff1673ffffffffffffffffffffffffffffffffffffffff16637f0df537846040518263ffffffff1660e01b8152600401611f4f9190614302565b602060405180830381865afa158015611f6c573d6000803e3d6000fd5b505050506040513d601f19601f82011682018060405250810190611f909190614c94565b90506000600860009054906101000a900473ffffffffffffffffffffffffffffffffffffffff1673ffffffffffffffffffffffffffffffffffffffff1663221a528f856040518263ffffffff1660e01b8152600401611fef9190614302565b602060405180830381865afa15801561200c573d6000803e3d6000fd5b505050506040513d601f19601f820116820180604052508101906120309190614c94565b90506000600f826120419190614d1f565b8361204c9190614d50565b9050600f60009054906101000a900473ffffffffffffffffffffffffffffffffffffffff1673ffffffffffffffffffffffffffffffffffffffff1663899638c1866040518263ffffffff1660e01b81526004016120a99190614302565b602060405180830381865afa1580156120c6573d6000803e3d6000fd5b505050506040513d601f19601f820116820180604052508101906120ea9190614f82565b1561210b576064606e826120fe9190614d84565b6121089190614d1f565b90505b61211485613245565b15612135576064606e826121289190614d84565b6121329190614d1f565b90505b809350505050919050565b600a60009054906101000a900473ffffffffffffffffffffffffffffffffffffffff1681565b61216e612675565b61217781613308565b50565b600c60009054906101000a900473ffffffffffffffffffffffffffffffffffffffff1681565b60008060008060008060006007600089815260200190815260200160002090508060020160039054906101000a900460ff16612211576040517f08c379a000000000000000000000000000000000000000000000000000000000815260040161220890615407565b60405180910390fd5b60008160020160019054906101000a900460ff16801561224057508160020160029054906101000a900460ff16155b61224e578160000154612251565b60005b90508082600101548360020160009054906101000a900460ff168460020160019054906101000a900460ff168560020160029054906101000a900460ff168660020160039054906101000a900460ff16975097509750975097509750505091939550919395565b6000600560008581526020019081526020016000205490506006600082815260200190815260200160002060020160019054906101000a900460ff16612333576040517f08c379a000000000000000000000000000000000000000000000000000000000815260040161232a90615473565b60405180910390fd5b60006006600083815260200190815260200160002060405180608001604052908160008201548152602001600182015481526020016002820160009054906101000a900460ff1660ff1660ff1681526020016002820160019054906101000a900460ff16151515158152505090506006600083815260200190815260200160002060008082016000905560018201600090556002820160006101000a81549060ff02191690556002820160016101000a81549060ff02191690555050600560008681526020019081526020016000206000905560006124158260000151611ef1565b9050600061242683602001516108ad565b9050600081836124369190614d50565b905060008082111561246d5783828989600081811061245857612457615493565b5b9050602002013561246991906154c2565b1090505b6040518060c001604052808660000151815260200186602001518152602001866040015160ff16815260200182151581526020018215151581526020016001151581525060076000888152602001908152602001600020600082015181600001556020820151816001015560408201518160020160006101000a81548160ff021916908360ff16021790555060608201518160020160016101000a81548160ff02191690831515021790555060808201518160020160026101000a81548160ff02191690831515021790555060a08201518160020160036101000a81548160ff021916908315150217905550905050801561261e5760008888600081811061257857612577615493565b5b90506020020135878760000151886020015160405160200161259d94939291906154f3565b6040516020818303038152906040528051906020012060001c90506125d086600001518760200151886040015184613434565b867fe6cb7e8ca08261a136f8acc013d4c66936c0117b410883cee06f21420e0dc7ef6000886020015160018a604001516040516126109493929190615569565b60405180910390a25061266a565b857fe6cb7e8ca08261a136f8acc013d4c66936c0117b410883cee06f21420e0dc7ef86600001518760200151600089604001516040516126619493929190615569565b60405180910390a25b505050505050505050565b60008054906101000a900473ffffffffffffffffffffffffffffffffffffffff1673ffffffffffffffffffffffffffffffffffffffff163373ffffffffffffffffffffffffffffffffffffffff1614612703576040517f08c379a00000000000000000000000000000000000000000000000000000000081526004016126fa906155fa565b60405180910390fd5b565b60007f000000000000000000000000000000000000000000000000000000000000000073ffffffffffffffffffffffffffffffffffffffff168273ffffffffffffffffffffffffffffffffffffffff1614806127ac57507f000000000000000000000000000000000000000000000000000000000000000073ffffffffffffffffffffffffffffffffffffffff168273ffffffffffffffffffffffffffffffffffffffff16145b156127ba57600190506127bf565b600090505b919050565b60006127cf33612705565b6127d957336127e2565b6127e1613708565b5b905090565b6000601260009054906101000a900473ffffffffffffffffffffffffffffffffffffffff1673ffffffffffffffffffffffffffffffffffffffff16634bf47c0b6040518163ffffffff1660e01b8152600401602060405180830381865afa158015612856573d6000803e3d6000fd5b505050506040513d601f19601f8201168201806040525081019061287a9190614c94565b905060006004600083815260200190815260200160002060008581526020019081526020016000209050600660ff168160000160009054906101000a900460ff1660ff16106128fe576040517f08c379a00000000000000000000000000000000000000000000000000000000081526004016128f590615666565b60405180910390fd5b60018160000160008282829054906101000a900460ff1661291f9190615686565b92506101000a81548160ff021916908360ff16021790555060006004600084815260200190815260200160002060008581526020019081526020016000209050600260ff168160000160019054906101000a900460ff1660ff16106129b9576040517f08c379a00000000000000000000000000000000000000000000000000000000081526004016129b090615707565b60405180910390fd5b60018160000160018282829054906101000a900460ff166129da9190615686565b92506101000a81548160ff021916908360ff1602179055505050505050565b600080600860009054906101000a900473ffffffffffffffffffffffffffffffffffffffff1673ffffffffffffffffffffffffffffffffffffffff1663897e9dd1856040518263ffffffff1660e01b8152600401612a579190614302565b602060405180830381865afa158015612a74573d6000803e3d6000fd5b505050506040513d601f19601f82011682018060405250810190612a989190614c94565b90506000600860009054906101000a900473ffffffffffffffffffffffffffffffffffffffff1673ffffffffffffffffffffffffffffffffffffffff1663221a528f866040518263ffffffff1660e01b8152600401612af79190614302565b602060405180830381865afa158015612b14573d6000803e3d6000fd5b505050506040513d601f19601f82011682018060405250810190612b389190614c94565b90506000600860009054906101000a900473ffffffffffffffffffffffffffffffffffffffff1673ffffffffffffffffffffffffffffffffffffffff1663a9266dde876040518263ffffffff1660e01b8152600401612b979190614302565b602060405180830381865afa158015612bb4573d6000803e3d6000fd5b505050506040513d601f19601f82011682018060405250810190612bd89190614c94565b905060048560ff1603612c2a57600f811015612c29576040517f08c379a0000000000000000000000000000000000000000000000000000000008152600401612c2090615773565b60405180910390fd5b5b600a8560ff1603612c7a57600f821015612c79576040517f08c379a0000000000000000000000000000000000000000000000000000000008152600401612c70906157df565b60405180910390fd5b5b600b8560ff1603612cca57600f831015612cc9576040517f08c379a0000000000000000000000000000000000000000000000000000000008152600401612cc09061584b565b60405180910390fd5b5b600c8560ff1603612eac576000600e60009054906101000a900473ffffffffffffffffffffffffffffffffffffffff1673ffffffffffffffffffffffffffffffffffffffff16630d24094a886040518263ffffffff1660e01b8152600401612d329190614302565b602060405180830381865afa158015612d4f573d6000803e3d6000fd5b505050506040513d601f19601f82011682018060405250810190612d739190614c94565b90506000601060009054906101000a900473ffffffffffffffffffffffffffffffffffffffff1673ffffffffffffffffffffffffffffffffffffffff16630cccc2dd896040518263ffffffff1660e01b8152600401612dd29190614302565b602060405180830381865afa158015612def573d6000803e3d6000fd5b505050506040513d601f19601f82011682018060405250810190612e139190614f82565b90508015612e64576006821015612e5f576040517f08c379a0000000000000000000000000000000000000000000000000000000008152600401612e56906158b7565b60405180910390fd5b612ea9565b6001821015612ea8576040517f08c379a0000000000000000000000000000000000000000000000000000000008152600401612e9f90615923565b60405180910390fd5b5b50505b6001935050505092915050565b600060018360ff1603612edc5781620186a0612ed59190614d50565b90506130fa565b60028360ff1603612f0957600282612ef49190614d84565b620186a0612f029190614d50565b90506130fa565b60038360ff1603612f3657600382612f219190614d84565b620186a0612f2f9190614d50565b90506130fa565b60048360ff1603612f6357600382612f4e9190614d84565b620186a0612f5c9190614d50565b90506130fa565b60058360ff1603612f9057600382612f7b9190614d84565b620186a0612f899190614d50565b90506130fa565b60068360ff1603612fb15781620249f0612faa9190614d50565b90506130fa565b60078360ff1603612fde57600582612fc99190614d84565b620249f0612fd79190614d50565b90506130fa565b60088360ff160361300b57600282612ff69190614d84565b6203d0906130049190614d50565b90506130fa565b60098360ff1603613038576002826130239190614d84565b620493e06130319190614d50565b90506130fa565b600a8360ff1603613065576014826130509190614d84565b620186a061305e9190614d50565b90506130fa565b600b8360ff16036130925760058261307d9190614d84565b6207a12061308b9190614d50565b90506130fa565b600c8360ff16036130bf57600f826130aa9190614d84565b6207a1206130b89190614d50565b90506130fa565b6040517f08c379a00000000000000000000000000000000000000000000000000000000081526004016130f190614eb8565b60405180910390fd5b92915050565b6000806040518060c0016040528060145481526020016015548152602001601660009054906101000a900461ffff1661ffff168152602001601660029054906101000a900463ffffffff1663ffffffff168152602001601660069054906101000a900463ffffffff1663ffffffff16815260200161319c60405180602001604052806016600a9054906101000a900460ff161515815250613717565b8152509050600260009054906101000a900473ffffffffffffffffffffffffffffffffffffffff1673ffffffffffffffffffffffffffffffffffffffff16639b1c385e826040518263ffffffff1660e01b81526004016131fc9190615a98565b6020604051808303816000875af115801561321b573d6000803e3d6000fd5b505050506040513d601f19601f8201168201806040525081019061323f9190614c94565b91505090565b600080600d60009054906101000a900473ffffffffffffffffffffffffffffffffffffffff1673ffffffffffffffffffffffffffffffffffffffff1663131dbbe9846040518263ffffffff1660e01b81526004016132a39190614302565b602060405180830381865afa1580156132c0573d6000803e3d6000fd5b505050506040513d601f19601f820116820180604052508101906132e49190614c94565b905060028114806132f55750600781145b806133005750600a81145b915050919050565b3373ffffffffffffffffffffffffffffffffffffffff168173ffffffffffffffffffffffffffffffffffffffff1603613376576040517f08c379a000000000000000000000000000000000000000000000000000000000815260040161336d90615b06565b60405180910390fd5b80600160006101000a81548173ffffffffffffffffffffffffffffffffffffffff021916908373ffffffffffffffffffffffffffffffffffffffff1602179055508073ffffffffffffffffffffffffffffffffffffffff1660008054906101000a900473ffffffffffffffffffffffffffffffffffffffff1673ffffffffffffffffffffffffffffffffffffffff167fed8889f560326eb138920d842192f0eb3dd22b4f139c87a2c57538e05bae127860405160405180910390a350565b60018260ff160361344e5761344983826137af565b613702565b60028260ff160361346857613463838261387f565b613701565b60038260ff16036134825761347d8382613a17565b613700565b60048260ff160361349c576134978382613ae7565b6136ff565b60058260ff16036134b6576134b18382613c7f565b6136fe565b60068260ff160361355657600a60009054906101000a900473ffffffffffffffffffffffffffffffffffffffff1673ffffffffffffffffffffffffffffffffffffffff1663393b9c118460016040518363ffffffff1660e01b815260040161351f929190615b61565b600060405180830381600087803b15801561353957600080fd5b505af115801561354d573d6000803e3d6000fd5b505050506136fd565b60078260ff16036135f657600a60009054906101000a900473ffffffffffffffffffffffffffffffffffffffff1673ffffffffffffffffffffffffffffffffffffffff16634f259d918460056040518363ffffffff1660e01b81526004016135bf929190615bc5565b600060405180830381600087803b1580156135d957600080fd5b505af11580156135ed573d6000803e3d6000fd5b505050506136fc565b60088260ff16036136105761360b8382613e17565b6136fb565b60098260ff160361362a576136258382613f9e565b6136fa565b600a8260ff16036136445761363f838261406e565b6136f9565b600b8260ff160361365e57613659838261413e565b6136f8565b600c8260ff16036136f757600e60009054906101000a900473ffffffffffffffffffffffffffffffffffffffff1673ffffffffffffffffffffffffffffffffffffffff166317164212846040518263ffffffff1660e01b81526004016136c49190614302565b600060405180830381600087803b1580156136de57600080fd5b505af11580156136f2573d6000803e3d6000fd5b505050505b5b5b5b5b5b5b5b5b5b5b5b50505050565b6000601436033560601c905090565b60607f92fd13387c7fe7befbc38d303d6468778fb9731bc4583f17d92989c6fcfdeaaa8260405160240161374b9190615c19565b604051602081830303815290604052907bffffffffffffffffffffffffffffffffffffffffffffffffffffffff19166020820180517bffffffffffffffffffffffffffffffffffffffffffffffffffffffff83818316178352505050509050919050565b600060016137df837f4352554953450000000000000000000000000000000000000000000000000000600561420e565b6137e99190614d50565b9050600e60009054906101000a900473ffffffffffffffffffffffffffffffffffffffff1673ffffffffffffffffffffffffffffffffffffffff1663d6849bf682856040518363ffffffff1660e01b8152600401613848929190615087565b600060405180830381600087803b15801561386257600080fd5b505af1158015613876573d6000803e3d6000fd5b50505050505050565b600060056138af837f54414e4b53000000000000000000000000000000000000000000000000000000600561420e565b6138b99190614d50565b90506000600960009054906101000a900473ffffffffffffffffffffffffffffffffffffffff1673ffffffffffffffffffffffffffffffffffffffff166314d67456856040518263ffffffff1660e01b81526004016139189190614302565b602060405180830381865afa158015613935573d6000803e3d6000fd5b505050506040513d601f19601f820116820180604052508101906139599190614c94565b905060006064838361396b9190614d84565b6139759190614d1f565b90506000811115613a1057600960009054906101000a900473ffffffffffffffffffffffffffffffffffffffff1673ffffffffffffffffffffffffffffffffffffffff16639ff5c44782876040518363ffffffff1660e01b81526004016139dd929190615087565b600060405180830381600087803b1580156139f757600080fd5b505af1158015613a0b573d6000803e3d6000fd5b505050505b5050505050565b60006005613a47837f4c414e4400000000000000000000000000000000000000000000000000000000600a61420e565b613a519190614d50565b9050600860009054906101000a900473ffffffffffffffffffffffffffffffffffffffff1673ffffffffffffffffffffffffffffffffffffffff166355be628484836040518363ffffffff1660e01b8152600401613ab0929190615087565b600060405180830381600087803b158015613aca57600080fd5b505af1158015613ade573d6000803e3d6000fd5b50505050505050565b6000600d60009054906101000a900473ffffffffffffffffffffffffffffffffffffffff1673ffffffffffffffffffffffffffffffffffffffff1663db76dd66846040518263ffffffff1660e01b8152600401613b449190614302565b602060405180830381865afa158015613b61573d6000803e3d6000fd5b505050506040513d601f19601f82011682018060405250810190613b859190614c94565b905060006001613bb7847f474f560000000000000000000000000000000000000000000000000000000000600a61420e565b613bc19190614d50565b9050818103613bea5760018214613be457600182613bdf9190615c34565b613be7565b60025b90505b600d60009054906101000a900473ffffffffffffffffffffffffffffffffffffffff1673ffffffffffffffffffffffffffffffffffffffff1663a528538985836040518363ffffffff1660e01b8152600401613c47929190615087565b600060405180830381600087803b158015613c6157600080fd5b505af1158015613c75573d6000803e3d6000fd5b5050505050505050565b6000600d60009054906101000a900473ffffffffffffffffffffffffffffffffffffffff1673ffffffffffffffffffffffffffffffffffffffff1663eefed831846040518263ffffffff1660e01b8152600401613cdc9190614302565b602060405180830381865afa158015613cf9573d6000803e3d6000fd5b505050506040513d601f19601f82011682018060405250810190613d1d9190614c94565b905060006001613d4f847f52454c0000000000000000000000000000000000000000000000000000000000600e61420e565b613d599190614d50565b9050818103613d825760018214613d7c57600182613d779190615c34565b613d7f565b60025b90505b600d60009054906101000a900473ffffffffffffffffffffffffffffffffffffffff1673ffffffffffffffffffffffffffffffffffffffff1663cfadac7085836040518363ffffffff1660e01b8152600401613ddf929190615087565b600060405180830381600087803b158015613df957600080fd5b505af1158015613e0d573d6000803e3d6000fd5b5050505050505050565b6000601360009054906101000a900473ffffffffffffffffffffffffffffffffffffffff1673ffffffffffffffffffffffffffffffffffffffff16637f0df537846040518263ffffffff1660e01b8152600401613e749190614302565b602060405180830381865afa158015613e91573d6000803e3d6000fd5b505050506040513d601f19601f82011682018060405250810190613eb59190614c94565b905060006001613ee7847f5350590000000000000000000000000000000000000000000000000000000000601461420e565b613ef19190614d50565b905081811115613eff578190505b6000811115613f9857601360009054906101000a900473ffffffffffffffffffffffffffffffffffffffff1673ffffffffffffffffffffffffffffffffffffffff16637838b8d682866040518363ffffffff1660e01b8152600401613f65929190615087565b600060405180830381600087803b158015613f7f57600080fd5b505af1158015613f93573d6000803e3d6000fd5b505050505b50505050565b60006005613fce837f5445434800000000000000000000000000000000000000000000000000000000600a61420e565b613fd89190614d50565b9050600860009054906101000a900473ffffffffffffffffffffffffffffffffffffffff1673ffffffffffffffffffffffffffffffffffffffff166311c65d8184836040518363ffffffff1660e01b8152600401614037929190615087565b600060405180830381600087803b15801561405157600080fd5b505af1158015614065573d6000803e3d6000fd5b50505050505050565b6000601461409e837f5441580000000000000000000000000000000000000000000000000000000000600461420e565b6140a89190614d50565b9050600860009054906101000a900473ffffffffffffffffffffffffffffffffffffffff1673ffffffffffffffffffffffffffffffffffffffff1663ae1dbc1d84836040518363ffffffff1660e01b8152600401614107929190615087565b600060405180830381600087803b15801561412157600080fd5b505af1158015614135573d6000803e3d6000fd5b50505050505050565b6000600561416e837f494e465241000000000000000000000000000000000000000000000000000000600a61420e565b6141789190614d50565b9050600860009054906101000a900473ffffffffffffffffffffffffffffffffffffffff1673ffffffffffffffffffffffffffffffffffffffff16634d0421b184836040518363ffffffff1660e01b81526004016141d7929190615087565b600060405180830381600087803b1580156141f157600080fd5b505af1158015614205573d6000803e3d6000fd5b50505050505050565b6000818484604051602001614224929190615c68565b6040516020818303038152906040528051906020012060001c61424791906154c2565b90509392505050565b600080fd5b600080fd5b6000819050919050565b61426d8161425a565b811461427857600080fd5b50565b60008135905061428a81614264565b92915050565b6000602082840312156142a6576142a5614250565b5b60006142b48482850161427b565b91505092915050565b60008115159050919050565b6142d2816142bd565b82525050565b60006020820190506142ed60008301846142c9565b92915050565b6142fc8161425a565b82525050565b600060208201905061431760008301846142f3565b92915050565b6000819050919050565b6143308161431d565b82525050565b600060208201905061434b6000830184614327565b92915050565b600073ffffffffffffffffffffffffffffffffffffffff82169050919050565b6000819050919050565b600061439661439161438c84614351565b614371565b614351565b9050919050565b60006143a88261437b565b9050919050565b60006143ba8261439d565b9050919050565b6143ca816143af565b82525050565b60006020820190506143e560008301846143c1565b92915050565b600080fd5b600080fd5b600080fd5b60008083601f8401126144105761440f6143eb565b5b8235905067ffffffffffffffff81111561442d5761442c6143f0565b5b602083019150836020820283011115614449576144486143f5565b5b9250929050565b60008060006040848603121561446957614468614250565b5b60006144778682870161427b565b935050602084013567ffffffffffffffff81111561449857614497614255565b5b6144a4868287016143fa565b92509250509250925092565b60006144bb8261439d565b9050919050565b6144cb816144b0565b82525050565b60006020820190506144e660008301846144c2565b92915050565b60006144f78261439d565b9050919050565b614507816144ec565b82525050565b600060208201905061452260008301846144fe565b92915050565b600060ff82169050919050565b61453e81614528565b82525050565b60006020820190506145596000830184614535565b92915050565b600061456a82614351565b9050919050565b61457a8161455f565b811461458557600080fd5b50565b60008135905061459781614571565b92915050565b6000806000806000806000806000806101408b8d0312156145c1576145c0614250565b5b60006145cf8d828e01614588565b9a505060206145e08d828e01614588565b99505060406145f18d828e01614588565b98505060606146028d828e01614588565b97505060806146138d828e01614588565b96505060a06146248d828e01614588565b95505060c06146358d828e01614588565b94505060e06146468d828e01614588565b9350506101006146588d828e01614588565b92505061012061466a8d828e01614588565b9150509295989b9194979a5092959850565b600063ffffffff82169050919050565b6146958161467c565b82525050565b60006020820190506146b0600083018461468c565b92915050565b60006146c18261439d565b9050919050565b6146d1816146b6565b82525050565b60006020820190506146ec60008301846146c8565b92915050565b60006146fd8261439d565b9050919050565b61470d816146f2565b82525050565b60006020820190506147286000830184614704565b92915050565b61473781614528565b811461474257600080fd5b50565b6000813590506147548161472e565b92915050565b60008060006060848603121561477357614772614250565b5b60006147818682870161427b565b93505060206147928682870161427b565b92505060406147a386828701614745565b9150509250925092565b60006147b88261439d565b9050919050565b6147c8816147ad565b82525050565b60006020820190506147e360008301846147bf565b92915050565b600061ffff82169050919050565b614800816147e9565b82525050565b600060208201905061481b60008301846147f7565b92915050565b61482a8161431d565b811461483557600080fd5b50565b60008135905061484781614821565b92915050565b600067ffffffffffffffff82169050919050565b61486a8161484d565b811461487557600080fd5b50565b60008135905061488781614861565b92915050565b614896816147e9565b81146148a157600080fd5b50565b6000813590506148b38161488d565b92915050565b6148c28161467c565b81146148cd57600080fd5b50565b6000813590506148df816148b9565b92915050565b6148ee816142bd565b81146148f957600080fd5b50565b60008135905061490b816148e5565b92915050565b60008060008060008060c0878903121561492e5761492d614250565b5b600061493c89828a01614838565b965050602061494d89828a01614878565b955050604061495e89828a016148a4565b945050606061496f89828a016148d0565b935050608061498089828a016148d0565b92505060a061499189828a016148fc565b9150509295509295509295565b6149a78161455f565b82525050565b60006020820190506149c2600083018461499e565b92915050565b6000602082840312156149de576149dd614250565b5b60006149ec84828501614588565b91505092915050565b6000614a008261439d565b9050919050565b614a10816149f5565b82525050565b6000602082019050614a2b6000830184614a07565b92915050565b6000614a3c8261439d565b9050919050565b614a4c81614a31565b82525050565b6000602082019050614a676000830184614a43565b92915050565b60008060408385031215614a8457614a83614250565b5b6000614a9285828601614588565b9250506020614aa385828601614588565b9150509250929050565b6000614ab88261439d565b9050919050565b614ac881614aad565b82525050565b6000602082019050614ae36000830184614abf565b92915050565b6000608082019050614afe60008301876142f3565b614b0b60208301866142f3565b614b186040830185614535565b614b2560608301846142c9565b95945050505050565b6000614b398261439d565b9050919050565b614b4981614b2e565b82525050565b6000602082019050614b646000830184614b40565b92915050565b600060c082019050614b7f60008301896142f3565b614b8c60208301886142f3565b614b996040830187614535565b614ba660608301866142c9565b614bb360808301856142c9565b614bc060a08301846142c9565b979650505050505050565b6000614bd68261439d565b9050919050565b614be681614bcb565b82525050565b6000602082019050614c016000830184614bdd565b92915050565b6000614c128261439d565b9050919050565b614c2281614c07565b82525050565b6000602082019050614c3d6000830184614c19565b92915050565b6000614c4e8261439d565b9050919050565b614c5e81614c43565b82525050565b6000602082019050614c796000830184614c55565b92915050565b600081519050614c8e81614264565b92915050565b600060208284031215614caa57614ca9614250565b5b6000614cb884828501614c7f565b91505092915050565b7f4e487b7100000000000000000000000000000000000000000000000000000000600052601260045260246000fd5b7f4e487b7100000000000000000000000000000000000000000000000000000000600052601160045260246000fd5b6000614d2a8261425a565b9150614d358361425a565b925082614d4557614d44614cc1565b5b828204905092915050565b6000614d5b8261425a565b9150614d668361425a565b9250828201905080821115614d7e57614d7d614cf0565b5b92915050565b6000614d8f8261425a565b9150614d9a8361425a565b9250828202614da88161425a565b91508282048414831517614dbf57614dbe614cf0565b5b5092915050565b6000604082019050614ddb600083018561499e565b614de8602083018461499e565b9392505050565b600082825260208201905092915050565b7f6f6e6c7947656c61746f52656c61794552433237373100000000000000000000600082015250565b6000614e36601683614def565b9150614e4182614e00565b602082019050919050565b60006020820190508181036000830152614e6581614e29565b9050919050565b7f61747461636b5479706500000000000000000000000000000000000000000000600082015250565b6000614ea2600a83614def565b9150614ead82614e6c565b602082019050919050565b60006020820190508181036000830152614ed181614e95565b9050919050565b7f53454c4600000000000000000000000000000000000000000000000000000000600082015250565b6000614f0e600483614def565b9150614f1982614ed8565b602082019050919050565b60006020820190508181036000830152614f3d81614f01565b9050919050565b6000604082019050614f5960008301856142f3565b614f66602083018461499e565b9392505050565b600081519050614f7c816148e5565b92915050565b600060208284031215614f9857614f97614250565b5b6000614fa684828501614f6d565b91505092915050565b7f216f776e65720000000000000000000000000000000000000000000000000000600082015250565b6000614fe5600683614def565b9150614ff082614faf565b602082019050919050565b6000602082019050818103600083015261501481614fd8565b9050919050565b7f21616c6c6f776564000000000000000000000000000000000000000000000000600082015250565b6000615051600883614def565b915061505c8261501b565b602082019050919050565b6000602082019050818103600083015261508081615044565b9050919050565b600060408201905061509c60008301856142f3565b6150a960208301846142f3565b9392505050565b60006150bb8261425a565b91507fffffffffffffffffffffffffffffffffffffffffffffffffffffffffffffffff82036150ed576150ec614cf0565b5b600182019050919050565b7f4d7573742062652070726f706f736564206f776e657200000000000000000000600082015250565b600061512e601683614def565b9150615139826150f8565b602082019050919050565b6000602082019050818103600083015261515d81615121565b9050919050565b61516d8161484d565b82525050565b600060c0820190506151886000830189614327565b6151956020830188615164565b6151a260408301876147f7565b6151af606083018661468c565b6151bc608083018561468c565b6151c960a08301846142c9565b979650505050505050565b60006060820190506151e9600083018661499e565b6151f6602083018561499e565b615203604083018461499e565b949350505050565b7f217265736f6c7665640000000000000000000000000000000000000000000000600082015250565b6000615241600983614def565b915061524c8261520b565b602082019050919050565b6000602082019050818103600083015261527081615234565b9050919050565b7f6f6e6c7920737563636573730000000000000000000000000000000000000000600082015250565b60006152ad600c83614def565b91506152b882615277565b602082019050919050565b600060208201905081810360008301526152dc816152a0565b9050919050565b7f72657665616c6564000000000000000000000000000000000000000000000000600082015250565b6000615319600883614def565b9150615324826152e3565b602082019050919050565b600060208201905081810360008301526153488161530c565b9050919050565b7f2161757468000000000000000000000000000000000000000000000000000000600082015250565b6000615385600583614def565b91506153908261534f565b602082019050919050565b600060208201905081810360008301526153b481615378565b9050919050565b7f4e4f545f5245534f4c5645440000000000000000000000000000000000000000600082015250565b60006153f1600c83614def565b91506153fc826153bb565b602082019050919050565b60006020820190508181036000830152615420816153e4565b9050919050565b7f6e6f2070656e64696e6700000000000000000000000000000000000000000000600082015250565b600061545d600a83614def565b915061546882615427565b602082019050919050565b6000602082019050818103600083015261548c81615450565b9050919050565b7f4e487b7100000000000000000000000000000000000000000000000000000000600052603260045260246000fd5b60006154cd8261425a565b91506154d88361425a565b9250826154e8576154e7614cc1565b5b828206905092915050565b600060808201905061550860008301876142f3565b61551560208301866142f3565b61552260408301856142f3565b61552f60608301846142f3565b95945050505050565b600061555361554e61554984614528565b614371565b61425a565b9050919050565b61556381615538565b82525050565b600060808201905061557e60008301876142f3565b61558b60208301866142f3565b61559860408301856142c9565b6155a5606083018461555a565b95945050505050565b7f4f6e6c792063616c6c61626c65206279206f776e657200000000000000000000600082015250565b60006155e4601683614def565b91506155ef826155ae565b602082019050919050565b60006020820190508181036000830152615613816155d7565b9050919050565b7f61746b2063617000000000000000000000000000000000000000000000000000600082015250565b6000615650600783614def565b915061565b8261561a565b602082019050919050565b6000602082019050818103600083015261567f81615643565b9050919050565b600061569182614528565b915061569c83614528565b9250828201905060ff8111156156b5576156b4614cf0565b5b92915050565b7f6465662063617000000000000000000000000000000000000000000000000000600082015250565b60006156f1600783614def565b91506156fc826156bb565b602082019050919050565b60006020820190508181036000830152615720816156e4565b9050919050565b7f6c616e643c313500000000000000000000000000000000000000000000000000600082015250565b600061575d600783614def565b915061576882615727565b602082019050919050565b6000602082019050818103600083015261578c81615750565b9050919050565b7f746563683c313500000000000000000000000000000000000000000000000000600082015250565b60006157c9600783614def565b91506157d482615793565b602082019050919050565b600060208201905081810360008301526157f8816157bc565b9050919050565b7f696e6672613c3135000000000000000000000000000000000000000000000000600082015250565b6000615835600883614def565b9150615840826157ff565b602082019050919050565b6000602082019050818103600083015261586481615828565b9050919050565b7f6e756b65733c3600000000000000000000000000000000000000000000000000600082015250565b60006158a1600783614def565b91506158ac8261586b565b602082019050919050565b600060208201905081810360008301526158d081615894565b9050919050565b7f6e756b65733c3100000000000000000000000000000000000000000000000000600082015250565b600061590d600783614def565b9150615918826158d7565b602082019050919050565b6000602082019050818103600083015261593c81615900565b9050919050565b61594c8161431d565b82525050565b61595b8161425a565b82525050565b61596a816147e9565b82525050565b6159798161467c565b82525050565b600081519050919050565b600082825260208201905092915050565b60005b838110156159b957808201518184015260208101905061599e565b60008484015250505050565b6000601f19601f8301169050919050565b60006159e18261597f565b6159eb818561598a565b93506159fb81856020860161599b565b615a04816159c5565b840191505092915050565b600060c083016000830151615a276000860182615943565b506020830151615a3a6020860182615952565b506040830151615a4d6040860182615961565b506060830151615a606060860182615970565b506080830151615a736080860182615970565b5060a083015184820360a0860152615a8b82826159d6565b9150508091505092915050565b60006020820190508181036000830152615ab28184615a0f565b905092915050565b7f43616e6e6f74207472616e7366657220746f2073656c66000000000000000000600082015250565b6000615af0601783614def565b9150615afb82615aba565b602082019050919050565b60006020820190508181036000830152615b1f81615ae3565b9050919050565b6000819050919050565b6000615b4b615b46615b4184615b26565b614371565b61425a565b9050919050565b615b5b81615b30565b82525050565b6000604082019050615b7660008301856142f3565b615b836020830184615b52565b9392505050565b6000819050919050565b6000615baf615baa615ba584615b8a565b614371565b61425a565b9050919050565b615bbf81615b94565b82525050565b6000604082019050615bda60008301856142f3565b615be76020830184615bb6565b9392505050565b615bf7816142bd565b82525050565b602082016000820151615c136000850182615bee565b50505050565b6000602082019050615c2e6000830184615bfd565b92915050565b6000615c3f8261425a565b9150615c4a8361425a565b9250828203905081811115615c6257615c61614cf0565b5b92915050565b6000604082019050615c7d60008301856142f3565b615c8a6020830184614327565b939250505056fea2646970667358221220cef9674c600fa5c374bb0050640ebfe8dfb86c1c5e1006f827e6c26ebceb1a0964736f6c63430008110033",
  "devdoc": {
    "kind": "dev",
    "methods": {},
    "version": 1
  },
  "userdoc": {
    "kind": "user",
    "methods": {
      "acceptOwnership()": {
        "notice": "Allows an ownership transfer to be completed by the recipient."
      },
      "owner()": {
        "notice": "Get the current owner"
      },
      "setCoordinator(address)": {
        "notice": "Sets the VRF Coordinator addressThis method should only be callable by the coordinator or contract owner"
      },
      "transferOwnership(address)": {
        "notice": "Allows an owner to begin transferring ownership to a new address."
      }
    },
    "version": 1
  },
  "storageLayout": {
    "storage": [
      {
        "astId": 29,
        "contract": "contracts/SpyOperations.sol:SpyOperationsContract",
        "label": "s_owner",
        "offset": 0,
        "slot": "0",
        "type": "t_address"
      },
      {
        "astId": 31,
        "contract": "contracts/SpyOperations.sol:SpyOperationsContract",
        "label": "s_pendingOwner",
        "offset": 0,
        "slot": "1",
        "type": "t_address"
      },
      {
        "astId": 231,
        "contract": "contracts/SpyOperations.sol:SpyOperationsContract",
        "label": "s_vrfCoordinator",
        "offset": 0,
        "slot": "2",
        "type": "t_contract(IVRFCoordinatorV2Plus)380"
      },
      {
        "astId": 60894,
        "contract": "contracts/SpyOperations.sol:SpyOperationsContract",
        "label": "attackId",
        "offset": 0,
        "slot": "3",
        "type": "t_uint256"
      },
      {
        "astId": 60901,
        "contract": "contracts/SpyOperations.sol:SpyOperationsContract",
        "label": "_daySpyCount",
        "offset": 0,
        "slot": "4",
        "type": "t_mapping(t_uint256,t_mapping(t_uint256,t_struct(DaySpies)60855_storage))"
      },
      {
        "astId": 60905,
        "contract": "contracts/SpyOperations.sol:SpyOperationsContract",
        "label": "vrfRequestToAttackId",
        "offset": 0,
        "slot": "5",
        "type": "t_mapping(t_uint256,t_uint256)"
      },
      {
        "astId": 60910,
        "contract": "contracts/SpyOperations.sol:SpyOperationsContract",
        "label": "pending",
        "offset": 0,
        "slot": "6",
        "type": "t_mapping(t_uint256,t_struct(PendingAttack)60864_storage)"
      },
      {
        "astId": 60915,
        "contract": "contracts/SpyOperations.sol:SpyOperationsContract",
        "label": "attacks",
        "offset": 0,
        "slot": "7",
        "type": "t_mapping(t_uint256,t_struct(AttackMeta)60877_storage)"
      },
      {
        "astId": 60918,
        "contract": "contracts/SpyOperations.sol:SpyOperationsContract",
        "label": "inf",
        "offset": 0,
        "slot": "8",
        "type": "t_contract(IInfrastructure)60668"
      },
      {
        "astId": 60921,
        "contract": "contracts/SpyOperations.sol:SpyOperationsContract",
        "label": "force",
        "offset": 0,
        "slot": "9",
        "type": "t_contract(IForces)60683"
      },
      {
        "astId": 60924,
        "contract": "contracts/SpyOperations.sol:SpyOperationsContract",
        "label": "mil",
        "offset": 0,
        "slot": "10",
        "type": "t_contract(IMilitary)60705"
      },
      {
        "astId": 60927,
        "contract": "contracts/SpyOperations.sol:SpyOperationsContract",
        "label": "strength",
        "offset": 0,
        "slot": "11",
        "type": "t_contract(INationStrength)60713"
      },
      {
        "astId": 60930,
        "contract": "contracts/SpyOperations.sol:SpyOperationsContract",
        "label": "tsy",
        "offset": 0,
        "slot": "12",
        "type": "t_contract(ITreasury)60721"
      },
      {
        "astId": 60933,
        "contract": "contracts/SpyOperations.sol:SpyOperationsContract",
        "label": "params",
        "offset": 0,
        "slot": "13",
        "type": "t_contract(ICountryParameters)60757"
      },
      {
        "astId": 60936,
        "contract": "contracts/SpyOperations.sol:SpyOperationsContract",
        "label": "mis",
        "offset": 0,
        "slot": "14",
        "type": "t_contract(IMissiles)60818"
      },
      {
        "astId": 60939,
        "contract": "contracts/SpyOperations.sol:SpyOperationsContract",
        "label": "won1",
        "offset": 0,
        "slot": "15",
        "type": "t_contract(IWonders1)60765"
      },
      {
        "astId": 60942,
        "contract": "contracts/SpyOperations.sol:SpyOperationsContract",
        "label": "won2",
        "offset": 0,
        "slot": "16",
        "type": "t_contract(IWonders2)60773"
      },
      {
        "astId": 60945,
        "contract": "contracts/SpyOperations.sol:SpyOperationsContract",
        "label": "mint",
        "offset": 0,
        "slot": "17",
        "type": "t_contract(ICountryMinter)60783"
      },
      {
        "astId": 60948,
        "contract": "contracts/SpyOperations.sol:SpyOperationsContract",
        "label": "keep",
        "offset": 0,
        "slot": "18",
        "type": "t_contract(IKeeper)60824"
      },
      {
        "astId": 60951,
        "contract": "contracts/SpyOperations.sol:SpyOperationsContract",
        "label": "spy",
        "offset": 0,
        "slot": "19",
        "type": "t_contract(ISpies)60798"
      },
      {
        "astId": 60953,
        "contract": "contracts/SpyOperations.sol:SpyOperationsContract",
        "label": "vrfKeyHash",
        "offset": 0,
        "slot": "20",
        "type": "t_bytes32"
      },
      {
        "astId": 60955,
        "contract": "contracts/SpyOperations.sol:SpyOperationsContract",
        "label": "vrfSubId",
        "offset": 0,
        "slot": "21",
        "type": "t_uint256"
      },
      {
        "astId": 60958,
        "contract": "contracts/SpyOperations.sol:SpyOperationsContract",
        "label": "vrfMinConfirmations",
        "offset": 0,
        "slot": "22",
        "type": "t_uint16"
      },
      {
        "astId": 60960,
        "contract": "contracts/SpyOperations.sol:SpyOperationsContract",
        "label": "vrfCallbackGasLimit",
        "offset": 2,
        "slot": "22",
        "type": "t_uint32"
      },
      {
        "astId": 60963,
        "contract": "contracts/SpyOperations.sol:SpyOperationsContract",
        "label": "vrfNumWords",
        "offset": 6,
        "slot": "22",
        "type": "t_uint32"
      },
      {
        "astId": 60966,
        "contract": "contracts/SpyOperations.sol:SpyOperationsContract",
        "label": "useNativePayment",
        "offset": 10,
        "slot": "22",
        "type": "t_bool"
      }
    ],
    "types": {
      "t_address": {
        "encoding": "inplace",
        "label": "address",
        "numberOfBytes": "20"
      },
      "t_bool": {
        "encoding": "inplace",
        "label": "bool",
        "numberOfBytes": "1"
      },
      "t_bytes32": {
        "encoding": "inplace",
        "label": "bytes32",
        "numberOfBytes": "32"
      },
      "t_contract(ICountryMinter)60783": {
        "encoding": "inplace",
        "label": "contract ICountryMinter",
        "numberOfBytes": "20"
      },
      "t_contract(ICountryParameters)60757": {
        "encoding": "inplace",
        "label": "contract ICountryParameters",
        "numberOfBytes": "20"
      },
      "t_contract(IForces)60683": {
        "encoding": "inplace",
        "label": "contract IForces",
        "numberOfBytes": "20"
      },
      "t_contract(IInfrastructure)60668": {
        "encoding": "inplace",
        "label": "contract IInfrastructure",
        "numberOfBytes": "20"
      },
      "t_contract(IKeeper)60824": {
        "encoding": "inplace",
        "label": "contract IKeeper",
        "numberOfBytes": "20"
      },
      "t_contract(IMilitary)60705": {
        "encoding": "inplace",
        "label": "contract IMilitary",
        "numberOfBytes": "20"
      },
      "t_contract(IMissiles)60818": {
        "encoding": "inplace",
        "label": "contract IMissiles",
        "numberOfBytes": "20"
      },
      "t_contract(INationStrength)60713": {
        "encoding": "inplace",
        "label": "contract INationStrength",
        "numberOfBytes": "20"
      },
      "t_contract(ISpies)60798": {
        "encoding": "inplace",
        "label": "contract ISpies",
        "numberOfBytes": "20"
      },
      "t_contract(ITreasury)60721": {
        "encoding": "inplace",
        "label": "contract ITreasury",
        "numberOfBytes": "20"
      },
      "t_contract(IVRFCoordinatorV2Plus)380": {
        "encoding": "inplace",
        "label": "contract IVRFCoordinatorV2Plus",
        "numberOfBytes": "20"
      },
      "t_contract(IWonders1)60765": {
        "encoding": "inplace",
        "label": "contract IWonders1",
        "numberOfBytes": "20"
      },
      "t_contract(IWonders2)60773": {
        "encoding": "inplace",
        "label": "contract IWonders2",
        "numberOfBytes": "20"
      },
      "t_mapping(t_uint256,t_mapping(t_uint256,t_struct(DaySpies)60855_storage))": {
        "encoding": "mapping",
        "key": "t_uint256",
        "label": "mapping(uint256 => mapping(uint256 => struct SpyOperationsContract.DaySpies))",
        "numberOfBytes": "32",
        "value": "t_mapping(t_uint256,t_struct(DaySpies)60855_storage)"
      },
      "t_mapping(t_uint256,t_struct(AttackMeta)60877_storage)": {
        "encoding": "mapping",
        "key": "t_uint256",
        "label": "mapping(uint256 => struct SpyOperationsContract.AttackMeta)",
        "numberOfBytes": "32",
        "value": "t_struct(AttackMeta)60877_storage"
      },
      "t_mapping(t_uint256,t_struct(DaySpies)60855_storage)": {
        "encoding": "mapping",
        "key": "t_uint256",
        "label": "mapping(uint256 => struct SpyOperationsContract.DaySpies)",
        "numberOfBytes": "32",
        "value": "t_struct(DaySpies)60855_storage"
      },
      "t_mapping(t_uint256,t_struct(PendingAttack)60864_storage)": {
        "encoding": "mapping",
        "key": "t_uint256",
        "label": "mapping(uint256 => struct SpyOperationsContract.PendingAttack)",
        "numberOfBytes": "32",
        "value": "t_struct(PendingAttack)60864_storage"
      },
      "t_mapping(t_uint256,t_uint256)": {
        "encoding": "mapping",
        "key": "t_uint256",
        "label": "mapping(uint256 => uint256)",
        "numberOfBytes": "32",
        "value": "t_uint256"
      },
      "t_struct(AttackMeta)60877_storage": {
        "encoding": "inplace",
        "label": "struct SpyOperationsContract.AttackMeta",
        "members": [
          {
            "astId": 60866,
            "contract": "contracts/SpyOperations.sol:SpyOperationsContract",
            "label": "attackerId",
            "offset": 0,
            "slot": "0",
            "type": "t_uint256"
          },
          {
            "astId": 60868,
            "contract": "contracts/SpyOperations.sol:SpyOperationsContract",
            "label": "defenderId",
            "offset": 0,
            "slot": "1",
            "type": "t_uint256"
          },
          {
            "astId": 60870,
            "contract": "contracts/SpyOperations.sol:SpyOperationsContract",
            "label": "attackType",
            "offset": 0,
            "slot": "2",
            "type": "t_uint8"
          },
          {
            "astId": 60872,
            "contract": "contracts/SpyOperations.sol:SpyOperationsContract",
            "label": "success",
            "offset": 1,
            "slot": "2",
            "type": "t_bool"
          },
          {
            "astId": 60874,
            "contract": "contracts/SpyOperations.sol:SpyOperationsContract",
            "label": "revealed",
            "offset": 2,
            "slot": "2",
            "type": "t_bool"
          },
          {
            "astId": 60876,
            "contract": "contracts/SpyOperations.sol:SpyOperationsContract",
            "label": "resolved",
            "offset": 3,
            "slot": "2",
            "type": "t_bool"
          }
        ],
        "numberOfBytes": "96"
      },
      "t_struct(DaySpies)60855_storage": {
        "encoding": "inplace",
        "label": "struct SpyOperationsContract.DaySpies",
        "members": [
          {
            "astId": 60852,
            "contract": "contracts/SpyOperations.sol:SpyOperationsContract",
            "label": "outgoing",
            "offset": 0,
            "slot": "0",
            "type": "t_uint8"
          },
          {
            "astId": 60854,
            "contract": "contracts/SpyOperations.sol:SpyOperationsContract",
            "label": "incoming",
            "offset": 1,
            "slot": "0",
            "type": "t_uint8"
          }
        ],
        "numberOfBytes": "32"
      },
      "t_struct(PendingAttack)60864_storage": {
        "encoding": "inplace",
        "label": "struct SpyOperationsContract.PendingAttack",
        "members": [
          {
            "astId": 60857,
            "contract": "contracts/SpyOperations.sol:SpyOperationsContract",
            "label": "attackerId",
            "offset": 0,
            "slot": "0",
            "type": "t_uint256"
          },
          {
            "astId": 60859,
            "contract": "contracts/SpyOperations.sol:SpyOperationsContract",
            "label": "defenderId",
            "offset": 0,
            "slot": "1",
            "type": "t_uint256"
          },
          {
            "astId": 60861,
            "contract": "contracts/SpyOperations.sol:SpyOperationsContract",
            "label": "attackType",
            "offset": 0,
            "slot": "2",
            "type": "t_uint8"
          },
          {
            "astId": 60863,
            "contract": "contracts/SpyOperations.sol:SpyOperationsContract",
            "label": "exists",
            "offset": 1,
            "slot": "2",
            "type": "t_bool"
          }
        ],
        "numberOfBytes": "96"
      },
      "t_uint16": {
        "encoding": "inplace",
        "label": "uint16",
        "numberOfBytes": "2"
      },
      "t_uint256": {
        "encoding": "inplace",
        "label": "uint256",
        "numberOfBytes": "32"
      },
      "t_uint32": {
        "encoding": "inplace",
        "label": "uint32",
        "numberOfBytes": "4"
      },
      "t_uint8": {
        "encoding": "inplace",
        "label": "uint8",
        "numberOfBytes": "1"
      }
    }
  }
}